{
	"Vault_forge/src/Diamond/ViewFacet.sol": {
		"ViewFacet": {
			"abi": [
				{
					"inputs": [
						{
							"internalType": "address",
							"name": "user",
							"type": "address"
						}
					],
					"name": "balanceOf",
					"outputs": [
						{
							"internalType": "uint256",
							"name": "",
							"type": "uint256"
						}
					],
					"stateMutability": "view",
					"type": "function"
				},
				{
					"inputs": [
						{
							"internalType": "uint256",
							"name": "shares",
							"type": "uint256"
						}
					],
					"name": "convertToAssets",
					"outputs": [
						{
							"internalType": "uint256",
							"name": "",
							"type": "uint256"
						}
					],
					"stateMutability": "view",
					"type": "function"
				},
				{
					"inputs": [
						{
							"internalType": "uint256",
							"name": "assets",
							"type": "uint256"
						}
					],
					"name": "convertToShares",
					"outputs": [
						{
							"internalType": "uint256",
							"name": "",
							"type": "uint256"
						}
					],
					"stateMutability": "view",
					"type": "function"
				},
				{
					"inputs": [],
					"name": "exchangeRate",
					"outputs": [
						{
							"internalType": "uint256",
							"name": "",
							"type": "uint256"
						}
					],
					"stateMutability": "view",
					"type": "function"
				},
				{
					"inputs": [],
					"name": "getAccumulatedFees",
					"outputs": [
						{
							"internalType": "uint256",
							"name": "",
							"type": "uint256"
						}
					],
					"stateMutability": "view",
					"type": "function"
				},
				{
					"inputs": [],
					"name": "getConfiguration",
					"outputs": [
						{
							"internalType": "address",
							"name": "owner",
							"type": "address"
						},
						{
							"internalType": "address",
							"name": "feeCollector",
							"type": "address"
						},
						{
							"internalType": "address",
							"name": "assetToken",
							"type": "address"
						},
						{
							"internalType": "address",
							"name": "lidoWithdrawalAddress",
							"type": "address"
						},
						{
							"internalType": "address",
							"name": "wstETHAddress",
							"type": "address"
						},
						{
							"internalType": "address",
							"name": "receiverContract",
							"type": "address"
						},
						{
							"internalType": "address",
							"name": "swapContract",
							"type": "address"
						},
						{
							"internalType": "bool",
							"name": "emergencyShutdown",
							"type": "bool"
						},
						{
							"internalType": "bool",
							"name": "depositsPaused",
							"type": "bool"
						}
					],
					"stateMutability": "view",
					"type": "function"
				},
				{
					"inputs": [
						{
							"internalType": "address",
							"name": "user",
							"type": "address"
						}
					],
					"name": "getLockedAmount",
					"outputs": [
						{
							"internalType": "uint256",
							"name": "",
							"type": "uint256"
						}
					],
					"stateMutability": "view",
					"type": "function"
				},
				{
					"inputs": [
						{
							"internalType": "address",
							"name": "user",
							"type": "address"
						}
					],
					"name": "getNearestUnlockTime",
					"outputs": [
						{
							"internalType": "uint256",
							"name": "",
							"type": "uint256"
						}
					],
					"stateMutability": "view",
					"type": "function"
				},
				{
					"inputs": [],
					"name": "getTotalStakedAssets",
					"outputs": [
						{
							"internalType": "uint256",
							"name": "",
							"type": "uint256"
						}
					],
					"stateMutability": "view",
					"type": "function"
				},
				{
					"inputs": [
						{
							"internalType": "address",
							"name": "user",
							"type": "address"
						}
					],
					"name": "getUnlockTime",
					"outputs": [
						{
							"internalType": "uint256[]",
							"name": "",
							"type": "uint256[]"
						}
					],
					"stateMutability": "view",
					"type": "function"
				},
				{
					"inputs": [
						{
							"internalType": "address",
							"name": "user",
							"type": "address"
						}
					],
					"name": "getUserStakedDeposits",
					"outputs": [
						{
							"internalType": "uint256[]",
							"name": "amounts",
							"type": "uint256[]"
						},
						{
							"internalType": "uint256[]",
							"name": "timestamps",
							"type": "uint256[]"
						},
						{
							"internalType": "uint256[]",
							"name": "wstETHAmounts",
							"type": "uint256[]"
						},
						{
							"internalType": "bool[]",
							"name": "withdrawnStatus",
							"type": "bool[]"
						}
					],
					"stateMutability": "view",
					"type": "function"
				},
				{
					"inputs": [
						{
							"internalType": "address",
							"name": "user",
							"type": "address"
						}
					],
					"name": "getUserWstETHBalance",
					"outputs": [
						{
							"internalType": "uint256",
							"name": "",
							"type": "uint256"
						}
					],
					"stateMutability": "view",
					"type": "function"
				},
				{
					"inputs": [
						{
							"internalType": "address",
							"name": "user",
							"type": "address"
						}
					],
					"name": "getWithdrawableAmount",
					"outputs": [
						{
							"internalType": "uint256",
							"name": "",
							"type": "uint256"
						}
					],
					"stateMutability": "view",
					"type": "function"
				},
				{
					"inputs": [
						{
							"internalType": "address",
							"name": "user",
							"type": "address"
						}
					],
					"name": "getWithdrawalStatus",
					"outputs": [
						{
							"internalType": "bool",
							"name": "isInProgress",
							"type": "bool"
						},
						{
							"internalType": "uint256",
							"name": "requestId",
							"type": "uint256"
						},
						{
							"internalType": "bool",
							"name": "isFinalized",
							"type": "bool"
						}
					],
					"stateMutability": "view",
					"type": "function"
				},
				{
					"inputs": [],
					"name": "isUpdateNeeded",
					"outputs": [
						{
							"internalType": "bool",
							"name": "",
							"type": "bool"
						}
					],
					"stateMutability": "view",
					"type": "function"
				},
				{
					"inputs": [],
					"name": "totalAssets",
					"outputs": [
						{
							"internalType": "uint256",
							"name": "",
							"type": "uint256"
						}
					],
					"stateMutability": "view",
					"type": "function"
				},
				{
					"inputs": [],
					"name": "totalShares",
					"outputs": [
						{
							"internalType": "uint256",
							"name": "",
							"type": "uint256"
						}
					],
					"stateMutability": "view",
					"type": "function"
				},
				{
					"inputs": [],
					"name": "totalStakedValue",
					"outputs": [
						{
							"internalType": "uint256",
							"name": "",
							"type": "uint256"
						}
					],
					"stateMutability": "view",
					"type": "function"
				},
				{
					"inputs": [
						{
							"internalType": "address",
							"name": "user",
							"type": "address"
						}
					],
					"name": "userDeposit",
					"outputs": [
						{
							"internalType": "uint256",
							"name": "",
							"type": "uint256"
						}
					],
					"stateMutability": "view",
					"type": "function"
				}
			],
			"devdoc": {
				"kind": "dev",
				"methods": {},
				"version": 1
			},
			"evm": {
				"assembly": "    /* \"Vault_forge/src/Diamond/ViewFacet.sol\":345:11372  contract ViewFacet {... */\n  mstore(0x40, 0x80)\n  callvalue\n  dup1\n  iszero\n  tag_1\n  jumpi\n  revert(0x00, 0x00)\ntag_1:\n  pop\n  dataSize(sub_0)\n  dup1\n  dataOffset(sub_0)\n  0x00\n  codecopy\n  0x00\n  return\nstop\n\nsub_0: assembly {\n        /* \"Vault_forge/src/Diamond/ViewFacet.sol\":345:11372  contract ViewFacet {... */\n      mstore(0x40, 0x80)\n      callvalue\n      dup1\n      iszero\n      tag_1\n      jumpi\n      revert(0x00, 0x00)\n    tag_1:\n      pop\n      jumpi(tag_2, lt(calldatasize, 0x04))\n      shr(0xe0, calldataload(0x00))\n      dup1\n      0x929ec537\n      gt\n      tag_22\n      jumpi\n      dup1\n      0xd1260edd\n      gt\n      tag_23\n      jumpi\n      dup1\n      0xd1260edd\n      eq\n      tag_17\n      jumpi\n      dup1\n      0xdbed1e88\n      eq\n      tag_18\n      jumpi\n      dup1\n      0xdee7db90\n      eq\n      tag_19\n      jumpi\n      dup1\n      0xf6777175\n      eq\n      tag_20\n      jumpi\n      dup1\n      0xf85503b9\n      eq\n      tag_21\n      jumpi\n      revert(0x00, 0x00)\n    tag_23:\n      dup1\n      0x929ec537\n      eq\n      tag_12\n      jumpi\n      dup1\n      0x981ef661\n      eq\n      tag_13\n      jumpi\n      dup1\n      0x9bd18fb0\n      eq\n      tag_14\n      jumpi\n      dup1\n      0xbe5e8d11\n      eq\n      tag_15\n      jumpi\n      dup1\n      0xc6e6f592\n      eq\n      tag_16\n      jumpi\n      revert(0x00, 0x00)\n    tag_22:\n      dup1\n      0x3ba0b9a9\n      gt\n      tag_24\n      jumpi\n      dup1\n      0x3ba0b9a9\n      eq\n      tag_7\n      jumpi\n      dup1\n      0x5df45a37\n      eq\n      tag_8\n      jumpi\n      dup1\n      0x6bd50cef\n      eq\n      tag_9\n      jumpi\n      dup1\n      0x70a08231\n      eq\n      tag_10\n      jumpi\n      dup1\n      0x7491687e\n      eq\n      tag_11\n      jumpi\n      revert(0x00, 0x00)\n    tag_24:\n      dup1\n      0x01e1d114\n      eq\n      tag_3\n      jumpi\n      dup1\n      0x07a2d13a\n      eq\n      tag_4\n      jumpi\n      dup1\n      0x35a058f5\n      eq\n      tag_5\n      jumpi\n      dup1\n      0x3a98ef39\n      eq\n      tag_6\n      jumpi\n    tag_2:\n      revert(0x00, 0x00)\n        /* \"Vault_forge/src/Diamond/ViewFacet.sol\":811:983  function totalAssets() external view returns (uint256) {... */\n    tag_3:\n        /* \"Vault_forge/src/Diamond/ViewFacet.sol\":961:975  ds.totalAssets */\n      sload(0x5d15b553c07be9b4a8cf4265c997d4479f22e1843183fa58504508c561fb9d51)\n        /* \"Vault_forge/src/Diamond/ViewFacet.sol\":811:983  function totalAssets() external view returns (uint256) {... */\n    tag_25:\n      mload(0x40)\n        /* \"#utility.yul\":160:185   */\n      swap1\n      dup2\n      mstore\n        /* \"#utility.yul\":148:150   */\n      0x20\n        /* \"#utility.yul\":133:151   */\n      add\n        /* \"Vault_forge/src/Diamond/ViewFacet.sol\":811:983  function totalAssets() external view returns (uint256) {... */\n    tag_27:\n      mload(0x40)\n      dup1\n      swap2\n      sub\n      swap1\n      return\n        /* \"Vault_forge/src/Diamond/ViewFacet.sol\":1991:2350  function convertToAssets(uint256 shares) public view returns (uint256) {... */\n    tag_4:\n      tag_25\n      tag_30\n      calldatasize\n      0x04\n      tag_31\n      jump\t// in\n    tag_30:\n      tag_32\n      jump\t// in\n        /* \"Vault_forge/src/Diamond/ViewFacet.sol\":9239:10309  function getUserStakedDeposits(... */\n    tag_5:\n      tag_34\n      tag_35\n      calldatasize\n      0x04\n      tag_36\n      jump\t// in\n    tag_35:\n      tag_37\n      jump\t// in\n    tag_34:\n      mload(0x40)\n      tag_27\n      swap5\n      swap4\n      swap3\n      swap2\n      swap1\n      tag_39\n      jump\t// in\n        /* \"Vault_forge/src/Diamond/ViewFacet.sol\":991:1163  function totalShares() external view returns (uint256) {... */\n    tag_6:\n        /* \"Vault_forge/src/Diamond/ViewFacet.sol\":1141:1155  ds.totalShares */\n      sload(0x5d15b553c07be9b4a8cf4265c997d4479f22e1843183fa58504508c561fb9d52)\n        /* \"Vault_forge/src/Diamond/ViewFacet.sol\":991:1163  function totalShares() external view returns (uint256) {... */\n      jump(tag_25)\n        /* \"Vault_forge/src/Diamond/ViewFacet.sol\":1361:1784  function exchangeRate() public view returns (uint256) {... */\n    tag_7:\n      tag_25\n      tag_44\n      jump\t// in\n        /* \"Vault_forge/src/Diamond/ViewFacet.sol\":11184:11367  function getAccumulatedFees() external view returns (uint256) {... */\n    tag_8:\n        /* \"Vault_forge/src/Diamond/ViewFacet.sol\":11341:11359  ds.accumulatedFees */\n      sload(0x5d15b553c07be9b4a8cf4265c997d4479f22e1843183fa58504508c561fb9d5d)\n        /* \"Vault_forge/src/Diamond/ViewFacet.sol\":11184:11367  function getAccumulatedFees() external view returns (uint256) {... */\n      jump(tag_25)\n        /* \"Vault_forge/src/Diamond/ViewFacet.sol\":10354:11176  function getConfiguration()... */\n    tag_9:\n      mload(0x00)\n      codecopy(0x00, data_70f758848eb781a3bc429614a44de64d398d9721e2ccf81c1cd4ba02fe29f8e0, 0x20)\n      mload(0x00)\n      swap1\n      0x00\n      mstore\n        /* \"Vault_forge/src/Diamond/ViewFacet.sol\":10881:10889  ds.owner */\n      sload\n        /* \"Vault_forge/src/Diamond/ViewFacet.sol\":10904:10919  ds.feeCollector */\n      sload(0x5d15b553c07be9b4a8cf4265c997d4479f22e1843183fa58504508c561fb9d59)\n        /* \"Vault_forge/src/Diamond/ViewFacet.sol\":10934:10956  ds.ASSET_TOKEN_ADDRESS */\n      sload(0x5d15b553c07be9b4a8cf4265c997d4479f22e1843183fa58504508c561fb9d54)\n        /* \"Vault_forge/src/Diamond/ViewFacet.sol\":10971:10995  ds.lidoWithdrawalAddress */\n      sload(0x5d15b553c07be9b4a8cf4265c997d4479f22e1843183fa58504508c561fb9d56)\n        /* \"Vault_forge/src/Diamond/ViewFacet.sol\":11010:11026  ds.wstETHAddress */\n      sload(0x5d15b553c07be9b4a8cf4265c997d4479f22e1843183fa58504508c561fb9d57)\n        /* \"Vault_forge/src/Diamond/ViewFacet.sol\":11041:11060  ds.receiverContract */\n      sload(0x5d15b553c07be9b4a8cf4265c997d4479f22e1843183fa58504508c561fb9d58)\n        /* \"Vault_forge/src/Diamond/ViewFacet.sol\":11075:11090  ds.swapContract */\n      sload(0x5d15b553c07be9b4a8cf4265c997d4479f22e1843183fa58504508c561fb9d55)\n        /* \"Vault_forge/src/Diamond/ViewFacet.sol\":10354:11176  function getConfiguration()... */\n      0x40\n      dup1\n      mload\n      sub(shl(0xa0, 0x01), 0x01)\n        /* \"Vault_forge/src/Diamond/ViewFacet.sol\":10881:10889  ds.owner */\n      swap9\n      dup10\n      and\n        /* \"#utility.yul\":2664:2715   */\n      dup2\n      mstore\n        /* \"Vault_forge/src/Diamond/ViewFacet.sol\":10904:10919  ds.feeCollector */\n      dup9\n      dup9\n      and\n        /* \"#utility.yul\":2746:2748   */\n      0x20\n        /* \"#utility.yul\":2731:2749   */\n      dup3\n      add\n        /* \"#utility.yul\":2724:2784   */\n      mstore\n        /* \"Vault_forge/src/Diamond/ViewFacet.sol\":10934:10956  ds.ASSET_TOKEN_ADDRESS */\n      swap6\n      dup9\n      and\n        /* \"#utility.yul\":2800:2818   */\n      swap1\n      dup7\n      add\n        /* \"#utility.yul\":2793:2853   */\n      mstore\n        /* \"Vault_forge/src/Diamond/ViewFacet.sol\":10971:10995  ds.lidoWithdrawalAddress */\n      swap3\n      dup7\n      and\n        /* \"#utility.yul\":2884:2886   */\n      0x60\n        /* \"#utility.yul\":2869:2887   */\n      dup6\n      add\n        /* \"#utility.yul\":2862:2922   */\n      mstore\n        /* \"Vault_forge/src/Diamond/ViewFacet.sol\":11010:11026  ds.wstETHAddress */\n      swap1\n      dup6\n      and\n        /* \"#utility.yul\":2953:2956   */\n      0x80\n        /* \"#utility.yul\":2938:2957   */\n      dup5\n      add\n        /* \"#utility.yul\":2931:2992   */\n      mstore\n        /* \"Vault_forge/src/Diamond/ViewFacet.sol\":11041:11060  ds.receiverContract */\n      dup5\n      and\n        /* \"#utility.yul\":2702:2705   */\n      0xa0\n        /* \"#utility.yul\":3008:3027   */\n      dup4\n      add\n        /* \"#utility.yul\":3001:3062   */\n      mstore\n        /* \"Vault_forge/src/Diamond/ViewFacet.sol\":11075:11090  ds.swapContract */\n      swap3\n      swap1\n      swap3\n      and\n        /* \"#utility.yul\":3093:3096   */\n      0xc0\n        /* \"#utility.yul\":3078:3097   */\n      dup4\n      add\n        /* \"#utility.yul\":3071:3132   */\n      mstore\n        /* \"Vault_forge/src/Diamond/ViewFacet.sol\":11105:11125  ds.emergencyShutdown */\n      0xff\n      shl(0xa0, 0x01)\n      dup3\n      div\n      dup2\n      and\n        /* \"#utility.yul\":3176:3190   */\n      iszero\n        /* \"#utility.yul\":3169:3191   */\n      iszero\n        /* \"#utility.yul\":3163:3166   */\n      0xe0\n        /* \"#utility.yul\":3148:3167   */\n      dup5\n      add\n        /* \"#utility.yul\":3141:3192   */\n      mstore\n      shl(0xa8, 0x01)\n        /* \"Vault_forge/src/Diamond/ViewFacet.sol\":11140:11157  ds.depositsPaused */\n      swap1\n      swap2\n      div\n      and\n        /* \"#utility.yul\":3236:3250   */\n      iszero\n        /* \"#utility.yul\":3229:3251   */\n      iszero\n        /* \"#utility.yul\":3223:3226   */\n      0x0100\n        /* \"#utility.yul\":3208:3227   */\n      dup3\n      add\n        /* \"#utility.yul\":3201:3252   */\n      mstore\n        /* \"#utility.yul\":2651:2654   */\n      0x0120\n        /* \"#utility.yul\":2636:2655   */\n      add\n        /* \"Vault_forge/src/Diamond/ViewFacet.sol\":10354:11176  function getConfiguration()... */\n      tag_27\n        /* \"#utility.yul\":2305:3258   */\n      jump\n        /* \"Vault_forge/src/Diamond/ViewFacet.sol\":595:778  function balanceOf(address user) public view returns (uint256) {... */\n    tag_10:\n      tag_25\n      tag_54\n      calldatasize\n      0x04\n      tag_36\n      jump\t// in\n    tag_54:\n      tag_55\n      jump\t// in\n        /* \"Vault_forge/src/Diamond/ViewFacet.sol\":2758:3303  function getWithdrawalStatus(... */\n    tag_11:\n      tag_57\n      tag_58\n      calldatasize\n      0x04\n      tag_36\n      jump\t// in\n    tag_58:\n      tag_59\n      jump\t// in\n    tag_57:\n      0x40\n      dup1\n      mload\n        /* \"#utility.yul\":3478:3492   */\n      swap4\n      iszero\n        /* \"#utility.yul\":3471:3493   */\n      iszero\n        /* \"#utility.yul\":3453:3494   */\n      dup5\n      mstore\n        /* \"#utility.yul\":3525:3527   */\n      0x20\n        /* \"#utility.yul\":3510:3528   */\n      dup5\n      add\n        /* \"#utility.yul\":3503:3537   */\n      swap3\n      swap1\n      swap3\n      mstore\n        /* \"#utility.yul\":3580:3594   */\n      iszero\n        /* \"#utility.yul\":3573:3595   */\n      iszero\n        /* \"#utility.yul\":3553:3571   */\n      swap1\n      dup3\n      add\n        /* \"#utility.yul\":3546:3596   */\n      mstore\n        /* \"#utility.yul\":3441:3443   */\n      0x60\n        /* \"#utility.yul\":3426:3444   */\n      add\n        /* \"Vault_forge/src/Diamond/ViewFacet.sol\":2758:3303  function getWithdrawalStatus(... */\n      tag_27\n        /* \"#utility.yul\":3263:3602   */\n      jump\n        /* \"Vault_forge/src/Diamond/ViewFacet.sol\":5687:6109  function getLockedAmount(address user) public view returns (uint256) {... */\n    tag_12:\n      tag_25\n      tag_63\n      calldatasize\n      0x04\n      tag_36\n      jump\t// in\n    tag_63:\n      tag_64\n      jump\t// in\n        /* \"Vault_forge/src/Diamond/ViewFacet.sol\":7611:7867  function getNearestUnlockTime(... */\n    tag_13:\n      tag_25\n      tag_67\n      calldatasize\n      0x04\n      tag_36\n      jump\t// in\n    tag_67:\n      tag_68\n      jump\t// in\n        /* \"Vault_forge/src/Diamond/ViewFacet.sol\":1171:1353  function totalStakedValue() external view returns (uint256) {... */\n    tag_14:\n        /* \"Vault_forge/src/Diamond/ViewFacet.sol\":1326:1345  ds.totalStakedValue */\n      sload(0x5d15b553c07be9b4a8cf4265c997d4479f22e1843183fa58504508c561fb9d53)\n        /* \"Vault_forge/src/Diamond/ViewFacet.sol\":1171:1353  function totalStakedValue() external view returns (uint256) {... */\n      jump(tag_25)\n        /* \"Vault_forge/src/Diamond/ViewFacet.sol\":9010:9231  function getUserWstETHBalance(... */\n    tag_15:\n      tag_25\n      tag_74\n      calldatasize\n      0x04\n      tag_36\n      jump\t// in\n    tag_74:\n      sub(shl(0xa0, 0x01), 0x01)\n        /* \"Vault_forge/src/Diamond/ViewFacet.sol\":9197:9223  ds.userWstETHBalance[user] */\n      and\n        /* \"Vault_forge/src/Diamond/ViewFacet.sol\":9093:9100  uint256 */\n      0x00\n        /* \"Vault_forge/src/Diamond/ViewFacet.sol\":9197:9223  ds.userWstETHBalance[user] */\n      swap1\n      dup2\n      mstore\n        /* \"Vault_forge/src/Diamond/ViewFacet.sol\":9197:9217  ds.userWstETHBalance */\n      0x5d15b553c07be9b4a8cf4265c997d4479f22e1843183fa58504508c561fb9d65\n        /* \"Vault_forge/src/Diamond/ViewFacet.sol\":9197:9223  ds.userWstETHBalance[user] */\n      0x20\n      mstore\n      0x40\n      swap1\n      keccak256\n      sload\n      swap1\n        /* \"Vault_forge/src/Diamond/ViewFacet.sol\":9010:9231  function getUserWstETHBalance(... */\n      jump\n        /* \"Vault_forge/src/Diamond/ViewFacet.sol\":2358:2713  function convertToShares(uint256 assets) public view returns (uint256) {... */\n    tag_16:\n      tag_25\n      tag_78\n      calldatasize\n      0x04\n      tag_31\n      jump\t// in\n    tag_78:\n      tag_79\n      jump\t// in\n        /* \"Vault_forge/src/Diamond/ViewFacet.sol\":1792:1983  function userDeposit(address user) external view returns (uint256) {... */\n    tag_17:\n      tag_25\n      tag_82\n      calldatasize\n      0x04\n      tag_36\n      jump\t// in\n    tag_82:\n      sub(shl(0xa0, 0x01), 0x01)\n        /* \"Vault_forge/src/Diamond/ViewFacet.sol\":1954:1975  ds.userDeposits[user] */\n      and\n        /* \"Vault_forge/src/Diamond/ViewFacet.sol\":1850:1857  uint256 */\n      0x00\n        /* \"Vault_forge/src/Diamond/ViewFacet.sol\":1954:1975  ds.userDeposits[user] */\n      swap1\n      dup2\n      mstore\n        /* \"Vault_forge/src/Diamond/ViewFacet.sol\":1954:1969  ds.userDeposits */\n      0x5d15b553c07be9b4a8cf4265c997d4479f22e1843183fa58504508c561fb9d60\n        /* \"Vault_forge/src/Diamond/ViewFacet.sol\":1954:1975  ds.userDeposits[user] */\n      0x20\n      mstore\n      0x40\n      swap1\n      keccak256\n      sload\n      swap1\n        /* \"Vault_forge/src/Diamond/ViewFacet.sol\":1792:1983  function userDeposit(address user) external view returns (uint256) {... */\n      jump\n        /* \"Vault_forge/src/Diamond/ViewFacet.sol\":6117:7603  function getUnlockTime(... */\n    tag_18:\n      tag_85\n      tag_86\n      calldatasize\n      0x04\n      tag_36\n      jump\t// in\n    tag_86:\n      tag_87\n      jump\t// in\n    tag_85:\n      mload(0x40)\n      tag_27\n      swap2\n      swap1\n      tag_89\n      jump\t// in\n        /* \"Vault_forge/src/Diamond/ViewFacet.sol\":7906:8704  function getTotalStakedAssets() external view returns (uint256) {... */\n    tag_19:\n      tag_25\n      tag_91\n      jump\t// in\n        /* \"Vault_forge/src/Diamond/ViewFacet.sol\":3311:5679  function getWithdrawableAmount(address user) public view returns (uint256) {... */\n    tag_20:\n      tag_25\n      tag_94\n      calldatasize\n      0x04\n      tag_36\n      jump\t// in\n    tag_94:\n      tag_95\n      jump\t// in\n        /* \"Vault_forge/src/Diamond/ViewFacet.sol\":8712:9002  function isUpdateNeeded() external view returns (bool) {... */\n    tag_21:\n      tag_97\n      tag_98\n      jump\t// in\n    tag_97:\n      mload(0x40)\n        /* \"#utility.yul\":4038:4052   */\n      swap1\n      iszero\n        /* \"#utility.yul\":4031:4053   */\n      iszero\n        /* \"#utility.yul\":4013:4054   */\n      dup2\n      mstore\n        /* \"#utility.yul\":4001:4003   */\n      0x20\n        /* \"#utility.yul\":3986:4004   */\n      add\n        /* \"Vault_forge/src/Diamond/ViewFacet.sol\":8712:9002  function isUpdateNeeded() external view returns (bool) {... */\n      tag_27\n        /* \"#utility.yul\":3873:4060   */\n      jump\n        /* \"Vault_forge/src/Diamond/ViewFacet.sol\":1991:2350  function convertToAssets(uint256 shares) public view returns (uint256) {... */\n    tag_32:\n        /* \"Vault_forge/src/Diamond/ViewFacet.sol\":2156:2170  ds.totalShares */\n      sload(0x5d15b553c07be9b4a8cf4265c997d4479f22e1843183fa58504508c561fb9d52)\n        /* \"Vault_forge/src/Diamond/ViewFacet.sol\":2053:2060  uint256 */\n      0x00\n      swap1\n      mload(0x00)\n      codecopy(0x00, data_70f758848eb781a3bc429614a44de64d398d9721e2ccf81c1cd4ba02fe29f8e0, 0x20)\n      mload(0x00)\n      swap1\n      0x00\n      mstore\n        /* \"Vault_forge/src/Diamond/DiamondStorage.sol\":135:174  keccak256(\"diamond.storage.yield.bull\") */\n      swap1\n        /* \"Vault_forge/src/Diamond/ViewFacet.sol\":2156:2175  ds.totalShares == 0 */\n      dup3\n      sub\n        /* \"Vault_forge/src/Diamond/ViewFacet.sol\":2152:2217  if (ds.totalShares == 0) {... */\n      tag_106\n      jumpi\n      pop\n        /* \"Vault_forge/src/Diamond/ViewFacet.sol\":2199:2205  shares */\n      swap1\n      swap2\n        /* \"Vault_forge/src/Diamond/ViewFacet.sol\":1991:2350  function convertToAssets(uint256 shares) public view returns (uint256) {... */\n      swap1\n      pop\n      jump\t// out\n        /* \"Vault_forge/src/Diamond/ViewFacet.sol\":2152:2217  if (ds.totalShares == 0) {... */\n    tag_106:\n        /* \"Vault_forge/src/Diamond/ViewFacet.sol\":2229:2247  uint256 totalValue */\n      0x00\n        /* \"Vault_forge/src/Diamond/ViewFacet.sol\":2267:2269  ds */\n      dup2\n        /* \"Vault_forge/src/Diamond/ViewFacet.sol\":2267:2286  ds.totalStakedValue */\n      0x03\n      add\n      sload\n        /* \"Vault_forge/src/Diamond/ViewFacet.sol\":2250:2252  ds */\n      dup3\n        /* \"Vault_forge/src/Diamond/ViewFacet.sol\":2250:2264  ds.totalAssets */\n      0x01\n      add\n      sload\n        /* \"Vault_forge/src/Diamond/ViewFacet.sol\":2250:2286  ds.totalAssets + ds.totalStakedValue */\n      tag_107\n      swap2\n      swap1\n      tag_108\n      jump\t// in\n    tag_107:\n        /* \"Vault_forge/src/Diamond/ViewFacet.sol\":2328:2342  ds.totalShares */\n      0x02\n      dup4\n      add\n      sload\n        /* \"Vault_forge/src/Diamond/ViewFacet.sol\":2229:2286  uint256 totalValue = ds.totalAssets + ds.totalStakedValue */\n      swap1\n      swap2\n      pop\n        /* \"Vault_forge/src/Diamond/ViewFacet.sol\":2305:2324  shares * totalValue */\n      tag_109\n        /* \"Vault_forge/src/Diamond/ViewFacet.sol\":2229:2286  uint256 totalValue = ds.totalAssets + ds.totalStakedValue */\n      dup3\n        /* \"Vault_forge/src/Diamond/ViewFacet.sol\":2305:2311  shares */\n      dup7\n        /* \"Vault_forge/src/Diamond/ViewFacet.sol\":2305:2324  shares * totalValue */\n      tag_110\n      jump\t// in\n    tag_109:\n        /* \"Vault_forge/src/Diamond/ViewFacet.sol\":2304:2342  (shares * totalValue) / ds.totalShares */\n      tag_111\n      swap2\n      swap1\n      tag_112\n      jump\t// in\n    tag_111:\n        /* \"Vault_forge/src/Diamond/ViewFacet.sol\":2297:2342  return (shares * totalValue) / ds.totalShares */\n      swap5\n        /* \"Vault_forge/src/Diamond/ViewFacet.sol\":1991:2350  function convertToAssets(uint256 shares) public view returns (uint256) {... */\n      swap4\n      pop\n      pop\n      pop\n      pop\n      jump\t// out\n        /* \"Vault_forge/src/Diamond/ViewFacet.sol\":9239:10309  function getUserStakedDeposits(... */\n    tag_37:\n      sub(shl(0xa0, 0x01), 0x01)\n        /* \"Vault_forge/src/Diamond/ViewFacet.sol\":9674:9725  ds.userStakedDeposits[... */\n      dup2\n      and\n        /* \"Vault_forge/src/Diamond/ViewFacet.sol\":9547:9583  DiamondStorage.VaultState storage ds */\n      0x00\n        /* \"Vault_forge/src/Diamond/ViewFacet.sol\":9674:9725  ds.userStakedDeposits[... */\n      swap1\n      dup2\n      mstore\n        /* \"Vault_forge/src/Diamond/ViewFacet.sol\":9674:9695  ds.userStakedDeposits */\n      0x5d15b553c07be9b4a8cf4265c997d4479f22e1843183fa58504508c561fb9d6d\n        /* \"Vault_forge/src/Diamond/ViewFacet.sol\":9674:9725  ds.userStakedDeposits[... */\n      0x20\n      mstore\n      0x40\n      swap1\n      keccak256\n        /* \"Vault_forge/src/Diamond/ViewFacet.sol\":9755:9770  deposits.length */\n      dup1\n      sload\n        /* \"Vault_forge/src/Diamond/ViewFacet.sol\":9364:9388  uint256[] memory amounts */\n      0x60\n      swap2\n      dup3\n      swap2\n      dup3\n      swap2\n      dup3\n      swap2\n      mload(0x00)\n      codecopy(0x00, data_70f758848eb781a3bc429614a44de64d398d9721e2ccf81c1cd4ba02fe29f8e0, 0x20)\n      mload(0x00)\n      swap1\n      0x00\n      mstore\n        /* \"Vault_forge/src/Diamond/DiamondStorage.sol\":135:174  keccak256(\"diamond.storage.yield.bull\") */\n      swap2\n        /* \"Vault_forge/src/Diamond/ViewFacet.sol\":9674:9725  ds.userStakedDeposits[... */\n      swap1\n        /* \"Vault_forge/src/Diamond/ViewFacet.sol\":9755:9770  deposits.length */\n      dup1\n        /* \"Vault_forge/src/Diamond/ViewFacet.sol\":9793:9814  new uint256[](length) */\n      0xffffffffffffffff\n      dup2\n      gt\n      iszero\n      tag_116\n      jumpi\n      tag_116\n      tag_117\n      jump\t// in\n    tag_116:\n      mload(0x40)\n      swap1\n      dup1\n      dup3\n      mstore\n      dup1\n      0x20\n      mul\n      0x20\n      add\n      dup3\n      add\n      0x40\n      mstore\n      dup1\n      iszero\n      tag_118\n      jumpi\n      dup2\n      0x20\n      add\n      0x20\n      dup3\n      mul\n      dup1\n      calldatasize\n      dup4\n      calldatacopy\n      add\n      swap1\n      pop\n    tag_118:\n      pop\n        /* \"Vault_forge/src/Diamond/ViewFacet.sol\":9783:9814  amounts = new uint256[](length) */\n      swap7\n      pop\n        /* \"Vault_forge/src/Diamond/ViewFacet.sol\":9852:9858  length */\n      dup1\n        /* \"Vault_forge/src/Diamond/ViewFacet.sol\":9838:9859  new uint256[](length) */\n      0xffffffffffffffff\n      dup2\n      gt\n      iszero\n      tag_120\n      jumpi\n      tag_120\n      tag_117\n      jump\t// in\n    tag_120:\n      mload(0x40)\n      swap1\n      dup1\n      dup3\n      mstore\n      dup1\n      0x20\n      mul\n      0x20\n      add\n      dup3\n      add\n      0x40\n      mstore\n      dup1\n      iszero\n      tag_121\n      jumpi\n      dup2\n      0x20\n      add\n      0x20\n      dup3\n      mul\n      dup1\n      calldatasize\n      dup4\n      calldatacopy\n      add\n      swap1\n      pop\n    tag_121:\n      pop\n        /* \"Vault_forge/src/Diamond/ViewFacet.sol\":9825:9859  timestamps = new uint256[](length) */\n      swap6\n      pop\n        /* \"Vault_forge/src/Diamond/ViewFacet.sol\":9900:9906  length */\n      dup1\n        /* \"Vault_forge/src/Diamond/ViewFacet.sol\":9886:9907  new uint256[](length) */\n      0xffffffffffffffff\n      dup2\n      gt\n      iszero\n      tag_123\n      jumpi\n      tag_123\n      tag_117\n      jump\t// in\n    tag_123:\n      mload(0x40)\n      swap1\n      dup1\n      dup3\n      mstore\n      dup1\n      0x20\n      mul\n      0x20\n      add\n      dup3\n      add\n      0x40\n      mstore\n      dup1\n      iszero\n      tag_124\n      jumpi\n      dup2\n      0x20\n      add\n      0x20\n      dup3\n      mul\n      dup1\n      calldatasize\n      dup4\n      calldatacopy\n      add\n      swap1\n      pop\n    tag_124:\n      pop\n        /* \"Vault_forge/src/Diamond/ViewFacet.sol\":9870:9907  wstETHAmounts = new uint256[](length) */\n      swap5\n      pop\n        /* \"Vault_forge/src/Diamond/ViewFacet.sol\":9947:9953  length */\n      dup1\n        /* \"Vault_forge/src/Diamond/ViewFacet.sol\":9936:9954  new bool[](length) */\n      0xffffffffffffffff\n      dup2\n      gt\n      iszero\n      tag_126\n      jumpi\n      tag_126\n      tag_117\n      jump\t// in\n    tag_126:\n      mload(0x40)\n      swap1\n      dup1\n      dup3\n      mstore\n      dup1\n      0x20\n      mul\n      0x20\n      add\n      dup3\n      add\n      0x40\n      mstore\n      dup1\n      iszero\n      tag_127\n      jumpi\n      dup2\n      0x20\n      add\n      0x20\n      dup3\n      mul\n      dup1\n      calldatasize\n      dup4\n      calldatacopy\n      add\n      swap1\n      pop\n    tag_127:\n      pop\n        /* \"Vault_forge/src/Diamond/ViewFacet.sol\":9918:9954  withdrawnStatus = new bool[](length) */\n      swap4\n      pop\n        /* \"Vault_forge/src/Diamond/ViewFacet.sol\":9972:9981  uint256 i */\n      0x00\n        /* \"Vault_forge/src/Diamond/ViewFacet.sol\":9967:10229  for (uint256 i = 0; i < length; i++) {... */\n    tag_128:\n        /* \"Vault_forge/src/Diamond/ViewFacet.sol\":9991:9997  length */\n      dup2\n        /* \"Vault_forge/src/Diamond/ViewFacet.sol\":9987:9988  i */\n      dup2\n        /* \"Vault_forge/src/Diamond/ViewFacet.sol\":9987:9997  i < length */\n      lt\n        /* \"Vault_forge/src/Diamond/ViewFacet.sol\":9967:10229  for (uint256 i = 0; i < length; i++) {... */\n      iszero\n      tag_129\n      jumpi\n        /* \"Vault_forge/src/Diamond/ViewFacet.sol\":10032:10040  deposits */\n      dup3\n        /* \"Vault_forge/src/Diamond/ViewFacet.sol\":10041:10042  i */\n      dup2\n        /* \"Vault_forge/src/Diamond/ViewFacet.sol\":10032:10043  deposits[i] */\n      dup2\n      sload\n      dup2\n      lt\n      tag_132\n      jumpi\n      tag_132\n      tag_133\n      jump\t// in\n    tag_132:\n      swap1\n      0x00\n      mstore\n      keccak256(0x00, 0x20)\n      swap1\n      0x04\n      mul\n      add\n        /* \"Vault_forge/src/Diamond/ViewFacet.sol\":10032:10050  deposits[i].amount */\n      0x00\n      add\n      sload\n        /* \"Vault_forge/src/Diamond/ViewFacet.sol\":10019:10026  amounts */\n      dup9\n        /* \"Vault_forge/src/Diamond/ViewFacet.sol\":10027:10028  i */\n      dup3\n        /* \"Vault_forge/src/Diamond/ViewFacet.sol\":10019:10029  amounts[i] */\n      dup2\n      mload\n      dup2\n      lt\n      tag_136\n      jumpi\n      tag_136\n      tag_133\n      jump\t// in\n    tag_136:\n      0x20\n      mul\n      0x20\n      add\n      add\n        /* \"Vault_forge/src/Diamond/ViewFacet.sol\":10019:10050  amounts[i] = deposits[i].amount */\n      dup2\n      dup2\n      mstore\n      pop\n      pop\n        /* \"Vault_forge/src/Diamond/ViewFacet.sol\":10081:10089  deposits */\n      dup3\n        /* \"Vault_forge/src/Diamond/ViewFacet.sol\":10090:10091  i */\n      dup2\n        /* \"Vault_forge/src/Diamond/ViewFacet.sol\":10081:10092  deposits[i] */\n      dup2\n      sload\n      dup2\n      lt\n      tag_138\n      jumpi\n      tag_138\n      tag_133\n      jump\t// in\n    tag_138:\n      swap1\n      0x00\n      mstore\n      keccak256(0x00, 0x20)\n      swap1\n      0x04\n      mul\n      add\n        /* \"Vault_forge/src/Diamond/ViewFacet.sol\":10081:10102  deposits[i].timestamp */\n      0x01\n      add\n      sload\n        /* \"Vault_forge/src/Diamond/ViewFacet.sol\":10065:10075  timestamps */\n      dup8\n        /* \"Vault_forge/src/Diamond/ViewFacet.sol\":10076:10077  i */\n      dup3\n        /* \"Vault_forge/src/Diamond/ViewFacet.sol\":10065:10078  timestamps[i] */\n      dup2\n      mload\n      dup2\n      lt\n      tag_141\n      jumpi\n      tag_141\n      tag_133\n      jump\t// in\n    tag_141:\n      0x20\n      mul\n      0x20\n      add\n      add\n        /* \"Vault_forge/src/Diamond/ViewFacet.sol\":10065:10102  timestamps[i] = deposits[i].timestamp */\n      dup2\n      dup2\n      mstore\n      pop\n      pop\n        /* \"Vault_forge/src/Diamond/ViewFacet.sol\":10136:10144  deposits */\n      dup3\n        /* \"Vault_forge/src/Diamond/ViewFacet.sol\":10145:10146  i */\n      dup2\n        /* \"Vault_forge/src/Diamond/ViewFacet.sol\":10136:10147  deposits[i] */\n      dup2\n      sload\n      dup2\n      lt\n      tag_143\n      jumpi\n      tag_143\n      tag_133\n      jump\t// in\n    tag_143:\n      swap1\n      0x00\n      mstore\n      keccak256(0x00, 0x20)\n      swap1\n      0x04\n      mul\n      add\n        /* \"Vault_forge/src/Diamond/ViewFacet.sol\":10136:10160  deposits[i].wstETHAmount */\n      0x02\n      add\n      sload\n        /* \"Vault_forge/src/Diamond/ViewFacet.sol\":10117:10130  wstETHAmounts */\n      dup7\n        /* \"Vault_forge/src/Diamond/ViewFacet.sol\":10131:10132  i */\n      dup3\n        /* \"Vault_forge/src/Diamond/ViewFacet.sol\":10117:10133  wstETHAmounts[i] */\n      dup2\n      mload\n      dup2\n      lt\n      tag_146\n      jumpi\n      tag_146\n      tag_133\n      jump\t// in\n    tag_146:\n      0x20\n      mul\n      0x20\n      add\n      add\n        /* \"Vault_forge/src/Diamond/ViewFacet.sol\":10117:10160  wstETHAmounts[i] = deposits[i].wstETHAmount */\n      dup2\n      dup2\n      mstore\n      pop\n      pop\n        /* \"Vault_forge/src/Diamond/ViewFacet.sol\":10196:10204  deposits */\n      dup3\n        /* \"Vault_forge/src/Diamond/ViewFacet.sol\":10205:10206  i */\n      dup2\n        /* \"Vault_forge/src/Diamond/ViewFacet.sol\":10196:10207  deposits[i] */\n      dup2\n      sload\n      dup2\n      lt\n      tag_148\n      jumpi\n      tag_148\n      tag_133\n      jump\t// in\n    tag_148:\n      swap1\n      0x00\n      mstore\n      keccak256(0x00, 0x20)\n      swap1\n      0x04\n      mul\n      add\n        /* \"Vault_forge/src/Diamond/ViewFacet.sol\":10196:10217  deposits[i].withdrawn */\n      0x03\n      add\n      0x00\n      swap1\n      sload\n      swap1\n      0x0100\n      exp\n      swap1\n      div\n      0xff\n      and\n        /* \"Vault_forge/src/Diamond/ViewFacet.sol\":10175:10190  withdrawnStatus */\n      dup6\n        /* \"Vault_forge/src/Diamond/ViewFacet.sol\":10191:10192  i */\n      dup3\n        /* \"Vault_forge/src/Diamond/ViewFacet.sol\":10175:10193  withdrawnStatus[i] */\n      dup2\n      mload\n      dup2\n      lt\n      tag_151\n      jumpi\n      tag_151\n      tag_133\n      jump\t// in\n    tag_151:\n        /* \"Vault_forge/src/Diamond/ViewFacet.sol\":10175:10217  withdrawnStatus[i] = deposits[i].withdrawn */\n      swap2\n      iszero\n      iszero\n        /* \"Vault_forge/src/Diamond/ViewFacet.sol\":10175:10193  withdrawnStatus[i] */\n      0x20\n      swap3\n      dup4\n      mul\n      swap2\n      swap1\n      swap2\n      add\n      swap1\n      swap2\n      add\n        /* \"Vault_forge/src/Diamond/ViewFacet.sol\":10175:10217  withdrawnStatus[i] = deposits[i].withdrawn */\n      mstore\n        /* \"Vault_forge/src/Diamond/ViewFacet.sol\":9999:10002  i++ */\n      0x01\n      add\n        /* \"Vault_forge/src/Diamond/ViewFacet.sol\":9967:10229  for (uint256 i = 0; i < length; i++) {... */\n      jump(tag_128)\n    tag_129:\n      pop\n        /* \"Vault_forge/src/Diamond/ViewFacet.sol\":10241:10301  return (amounts, timestamps, wstETHAmounts, withdrawnStatus) */\n      pop\n      pop\n      pop\n        /* \"Vault_forge/src/Diamond/ViewFacet.sol\":9239:10309  function getUserStakedDeposits(... */\n      swap2\n      swap4\n      pop\n      swap2\n      swap4\n      jump\t// out\n        /* \"Vault_forge/src/Diamond/ViewFacet.sol\":1361:1784  function exchangeRate() public view returns (uint256) {... */\n    tag_44:\n        /* \"Vault_forge/src/Diamond/ViewFacet.sol\":1509:1523  ds.totalShares */\n      sload(0x5d15b553c07be9b4a8cf4265c997d4479f22e1843183fa58504508c561fb9d52)\n        /* \"Vault_forge/src/Diamond/ViewFacet.sol\":1406:1413  uint256 */\n      0x00\n      swap1\n      mload(0x00)\n      codecopy(0x00, data_70f758848eb781a3bc429614a44de64d398d9721e2ccf81c1cd4ba02fe29f8e0, 0x20)\n      mload(0x00)\n      swap1\n      0x00\n      mstore\n        /* \"Vault_forge/src/Diamond/DiamondStorage.sol\":135:174  keccak256(\"diamond.storage.yield.bull\") */\n      swap1\n        /* \"Vault_forge/src/Diamond/ViewFacet.sol\":1509:1528  ds.totalShares == 0 */\n      dup3\n      sub\n        /* \"Vault_forge/src/Diamond/ViewFacet.sol\":1505:1604  if (ds.totalShares == 0) {... */\n      tag_156\n      jumpi\n        /* \"Vault_forge/src/Diamond/ViewFacet.sol\":1552:1555  1e6 */\n      0x0f4240\n        /* \"Vault_forge/src/Diamond/ViewFacet.sol\":1545:1555  return 1e6 */\n      swap2\n      pop\n      pop\n        /* \"Vault_forge/src/Diamond/ViewFacet.sol\":1361:1784  function exchangeRate() public view returns (uint256) {... */\n      swap1\n      jump\t// out\n        /* \"Vault_forge/src/Diamond/ViewFacet.sol\":1505:1604  if (ds.totalShares == 0) {... */\n    tag_156:\n        /* \"Vault_forge/src/Diamond/ViewFacet.sol\":1666:1684  uint256 totalValue */\n      0x00\n        /* \"Vault_forge/src/Diamond/ViewFacet.sol\":1704:1706  ds */\n      dup2\n        /* \"Vault_forge/src/Diamond/ViewFacet.sol\":1704:1723  ds.totalStakedValue */\n      0x03\n      add\n      sload\n        /* \"Vault_forge/src/Diamond/ViewFacet.sol\":1687:1689  ds */\n      dup3\n        /* \"Vault_forge/src/Diamond/ViewFacet.sol\":1687:1701  ds.totalAssets */\n      0x01\n      add\n      sload\n        /* \"Vault_forge/src/Diamond/ViewFacet.sol\":1687:1723  ds.totalAssets + ds.totalStakedValue */\n      tag_157\n      swap2\n      swap1\n      tag_108\n      jump\t// in\n    tag_157:\n        /* \"Vault_forge/src/Diamond/ViewFacet.sol\":1762:1776  ds.totalShares */\n      0x02\n      dup4\n      add\n      sload\n        /* \"Vault_forge/src/Diamond/ViewFacet.sol\":1666:1723  uint256 totalValue = ds.totalAssets + ds.totalStakedValue */\n      swap1\n      swap2\n      pop\n        /* \"Vault_forge/src/Diamond/ViewFacet.sol\":1742:1758  totalValue * 1e6 */\n      tag_158\n        /* \"Vault_forge/src/Diamond/ViewFacet.sol\":1666:1723  uint256 totalValue = ds.totalAssets + ds.totalStakedValue */\n      dup3\n        /* \"Vault_forge/src/Diamond/ViewFacet.sol\":1755:1758  1e6 */\n      0x0f4240\n        /* \"Vault_forge/src/Diamond/ViewFacet.sol\":1742:1758  totalValue * 1e6 */\n      tag_110\n      jump\t// in\n    tag_158:\n        /* \"Vault_forge/src/Diamond/ViewFacet.sol\":1741:1776  (totalValue * 1e6) / ds.totalShares */\n      tag_159\n      swap2\n      swap1\n      tag_112\n      jump\t// in\n    tag_159:\n        /* \"Vault_forge/src/Diamond/ViewFacet.sol\":1734:1776  return (totalValue * 1e6) / ds.totalShares */\n      swap3\n      pop\n      pop\n      pop\n        /* \"Vault_forge/src/Diamond/ViewFacet.sol\":1361:1784  function exchangeRate() public view returns (uint256) {... */\n      swap1\n      jump\t// out\n        /* \"Vault_forge/src/Diamond/ViewFacet.sol\":595:778  function balanceOf(address user) public view returns (uint256) {... */\n    tag_55:\n      sub(shl(0xa0, 0x01), 0x01)\n        /* \"Vault_forge/src/Diamond/ViewFacet.sol\":753:770  ds.balances[user] */\n      and\n        /* \"Vault_forge/src/Diamond/ViewFacet.sol\":649:656  uint256 */\n      0x00\n        /* \"Vault_forge/src/Diamond/ViewFacet.sol\":753:770  ds.balances[user] */\n      swap1\n      dup2\n      mstore\n        /* \"Vault_forge/src/Diamond/ViewFacet.sol\":753:764  ds.balances */\n      0x5d15b553c07be9b4a8cf4265c997d4479f22e1843183fa58504508c561fb9d5f\n        /* \"Vault_forge/src/Diamond/ViewFacet.sol\":753:770  ds.balances[user] */\n      0x20\n      mstore\n      0x40\n      swap1\n      keccak256\n      sload\n      swap1\n        /* \"Vault_forge/src/Diamond/ViewFacet.sol\":595:778  function balanceOf(address user) public view returns (uint256) {... */\n      jump\t// out\n        /* \"Vault_forge/src/Diamond/ViewFacet.sol\":2758:3303  function getWithdrawalStatus(... */\n    tag_59:\n      sub(shl(0xa0, 0x01), 0x01)\n        /* \"Vault_forge/src/Diamond/ViewFacet.sol\":3033:3062  ds.withdrawalInProgress[user] */\n      dup2\n      and\n        /* \"Vault_forge/src/Diamond/ViewFacet.sol\":2867:2884  bool isInProgress */\n      0x00\n        /* \"Vault_forge/src/Diamond/ViewFacet.sol\":3033:3062  ds.withdrawalInProgress[user] */\n      swap1\n      dup2\n      mstore\n        /* \"Vault_forge/src/Diamond/ViewFacet.sol\":3033:3056  ds.withdrawalInProgress */\n      0x5d15b553c07be9b4a8cf4265c997d4479f22e1843183fa58504508c561fb9d66\n        /* \"Vault_forge/src/Diamond/ViewFacet.sol\":3033:3062  ds.withdrawalInProgress[user] */\n      0x20\n      swap1\n      dup2\n      mstore\n      0x40\n      dup1\n      dup4\n      keccak256\n      sload\n        /* \"Vault_forge/src/Diamond/ViewFacet.sol\":3085:3108  ds.withdrawalRequestIds */\n      0x5d15b553c07be9b4a8cf4265c997d4479f22e1843183fa58504508c561fb9d67\n        /* \"Vault_forge/src/Diamond/ViewFacet.sol\":3085:3114  ds.withdrawalRequestIds[user] */\n      swap1\n      swap3\n      mstore\n      dup3\n      keccak256\n      sload\n        /* \"Vault_forge/src/Diamond/ViewFacet.sol\":3033:3062  ds.withdrawalInProgress[user] */\n      0xff\n      swap1\n      swap2\n      and\n      swap2\n      mload(0x00)\n      codecopy(0x00, data_70f758848eb781a3bc429614a44de64d398d9721e2ccf81c1cd4ba02fe29f8e0, 0x20)\n      mload(0x00)\n      swap1\n      0x00\n      mstore\n        /* \"Vault_forge/src/Diamond/ViewFacet.sol\":3085:3114  ds.withdrawalRequestIds[user] */\n      dup3\n        /* \"Vault_forge/src/Diamond/ViewFacet.sol\":3139:3295  requestId > 0... */\n      tag_168\n      jumpi\n        /* \"Vault_forge/src/Diamond/ViewFacet.sol\":3290:3295  false */\n      0x00\n        /* \"Vault_forge/src/Diamond/ViewFacet.sol\":3139:3295  requestId > 0... */\n      jump(tag_173)\n    tag_168:\n        /* \"Vault_forge/src/Diamond/ViewFacet.sol\":3184:3208  ds.lidoWithdrawalAddress */\n      0x06\n      dup2\n      add\n      sload\n        /* \"Vault_forge/src/Diamond/ViewFacet.sol\":3168:3274  ILidoWithdrawal(ds.lidoWithdrawalAddress).isWithdrawalFinalized(... */\n      mload(0x40)\n      shl(0xe3, 0x11e040dd)\n      dup2\n      mstore\n      0x04\n      dup2\n      add\n        /* \"#utility.yul\":160:185   */\n      dup6\n      swap1\n      mstore\n      sub(shl(0xa0, 0x01), 0x01)\n        /* \"Vault_forge/src/Diamond/ViewFacet.sol\":3184:3208  ds.lidoWithdrawalAddress */\n      swap1\n      swap2\n      and\n      swap1\n        /* \"Vault_forge/src/Diamond/ViewFacet.sol\":3168:3231  ILidoWithdrawal(ds.lidoWithdrawalAddress).isWithdrawalFinalized */\n      0x8f0206e8\n      swap1\n        /* \"#utility.yul\":133:151   */\n      0x24\n      add\n        /* \"Vault_forge/src/Diamond/ViewFacet.sol\":3168:3274  ILidoWithdrawal(ds.lidoWithdrawalAddress).isWithdrawalFinalized(... */\n      0x20\n      mload(0x40)\n      dup1\n      dup4\n      sub\n      dup2\n      dup7\n      gas\n      staticcall\n      iszero\n      dup1\n      iszero\n      tag_172\n      jumpi\n      returndatacopy(0x00, 0x00, returndatasize)\n      revert(0x00, returndatasize)\n    tag_172:\n      pop\n      pop\n      pop\n      pop\n      mload(0x40)\n      returndatasize\n      not(0x1f)\n      0x1f\n      dup3\n      add\n      and\n      dup3\n      add\n      dup1\n      0x40\n      mstore\n      pop\n      dup2\n      add\n      swap1\n      tag_173\n      swap2\n      swap1\n      tag_174\n      jump\t// in\n    tag_173:\n        /* \"Vault_forge/src/Diamond/ViewFacet.sol\":2758:3303  function getWithdrawalStatus(... */\n      swap4\n      swap6\n      swap3\n      swap5\n      pop\n      pop\n      pop\n      jump\t// out\n        /* \"Vault_forge/src/Diamond/ViewFacet.sol\":5687:6109  function getLockedAmount(address user) public view returns (uint256) {... */\n    tag_64:\n        /* \"Vault_forge/src/Diamond/ViewFacet.sol\":5747:5754  uint256 */\n      0x00\n        /* \"Vault_forge/src/Diamond/ViewFacet.sol\":5767:5787  uint256 withdrawable */\n      0x00\n        /* \"Vault_forge/src/Diamond/ViewFacet.sol\":5790:5817  getWithdrawableAmount(user) */\n      tag_176\n        /* \"Vault_forge/src/Diamond/ViewFacet.sol\":5812:5816  user */\n      dup4\n        /* \"Vault_forge/src/Diamond/ViewFacet.sol\":5790:5811  getWithdrawableAmount */\n      tag_95\n        /* \"Vault_forge/src/Diamond/ViewFacet.sol\":5790:5817  getWithdrawableAmount(user) */\n      jump\t// in\n    tag_176:\n        /* \"Vault_forge/src/Diamond/ViewFacet.sol\":5767:5817  uint256 withdrawable = getWithdrawableAmount(user) */\n      swap1\n      pop\n        /* \"Vault_forge/src/Diamond/ViewFacet.sol\":5828:5852  uint256 totalUserBalance */\n      0x00\n        /* \"Vault_forge/src/Diamond/ViewFacet.sol\":5855:5887  convertToAssets(balanceOf(user)) */\n      tag_177\n        /* \"Vault_forge/src/Diamond/ViewFacet.sol\":5871:5886  balanceOf(user) */\n      tag_30\n        /* \"Vault_forge/src/Diamond/ViewFacet.sol\":5881:5885  user */\n      dup6\n        /* \"Vault_forge/src/Diamond/ViewFacet.sol\":5871:5880  balanceOf */\n      tag_55\n        /* \"Vault_forge/src/Diamond/ViewFacet.sol\":5871:5886  balanceOf(user) */\n      jump\t// in\n        /* \"Vault_forge/src/Diamond/ViewFacet.sol\":5855:5887  convertToAssets(balanceOf(user)) */\n    tag_177:\n        /* \"Vault_forge/src/Diamond/ViewFacet.sol\":5828:5887  uint256 totalUserBalance = convertToAssets(balanceOf(user)) */\n      swap1\n      pop\n        /* \"Vault_forge/src/Diamond/ViewFacet.sol\":6013:6029  totalUserBalance */\n      dup1\n        /* \"Vault_forge/src/Diamond/ViewFacet.sol\":5997:6009  withdrawable */\n      dup3\n        /* \"Vault_forge/src/Diamond/ViewFacet.sol\":5997:6029  withdrawable >= totalUserBalance */\n      lt\n      iszero\n        /* \"Vault_forge/src/Diamond/ViewFacet.sol\":5997:6101  withdrawable >= totalUserBalance... */\n      tag_179\n      jumpi\n        /* \"Vault_forge/src/Diamond/ViewFacet.sol\":6070:6101  totalUserBalance - withdrawable */\n      tag_180\n        /* \"Vault_forge/src/Diamond/ViewFacet.sol\":6089:6101  withdrawable */\n      dup3\n        /* \"Vault_forge/src/Diamond/ViewFacet.sol\":6070:6086  totalUserBalance */\n      dup3\n        /* \"Vault_forge/src/Diamond/ViewFacet.sol\":6070:6101  totalUserBalance - withdrawable */\n      tag_181\n      jump\t// in\n    tag_180:\n        /* \"Vault_forge/src/Diamond/ViewFacet.sol\":5997:6101  withdrawable >= totalUserBalance... */\n      jump(tag_111)\n    tag_179:\n        /* \"Vault_forge/src/Diamond/ViewFacet.sol\":6049:6050  0 */\n      0x00\n        /* \"Vault_forge/src/Diamond/ViewFacet.sol\":5977:6101  return... */\n      swap5\n        /* \"Vault_forge/src/Diamond/ViewFacet.sol\":5687:6109  function getLockedAmount(address user) public view returns (uint256) {... */\n      swap4\n      pop\n      pop\n      pop\n      pop\n      jump\t// out\n        /* \"Vault_forge/src/Diamond/ViewFacet.sol\":7611:7867  function getNearestUnlockTime(... */\n    tag_68:\n        /* \"Vault_forge/src/Diamond/ViewFacet.sol\":7694:7701  uint256 */\n      0x00\n        /* \"Vault_forge/src/Diamond/ViewFacet.sol\":7714:7736  uint256[] memory times */\n      0x00\n        /* \"Vault_forge/src/Diamond/ViewFacet.sol\":7739:7758  getUnlockTime(user) */\n      tag_184\n        /* \"Vault_forge/src/Diamond/ViewFacet.sol\":7753:7757  user */\n      dup4\n        /* \"Vault_forge/src/Diamond/ViewFacet.sol\":7739:7752  getUnlockTime */\n      tag_87\n        /* \"Vault_forge/src/Diamond/ViewFacet.sol\":7739:7758  getUnlockTime(user) */\n      jump\t// in\n    tag_184:\n        /* \"Vault_forge/src/Diamond/ViewFacet.sol\":7714:7758  uint256[] memory times = getUnlockTime(user) */\n      swap1\n      pop\n        /* \"Vault_forge/src/Diamond/ViewFacet.sol\":7773:7778  times */\n      dup1\n        /* \"Vault_forge/src/Diamond/ViewFacet.sol\":7773:7785  times.length */\n      mload\n        /* \"Vault_forge/src/Diamond/ViewFacet.sol\":7789:7790  0 */\n      0x00\n        /* \"Vault_forge/src/Diamond/ViewFacet.sol\":7773:7790  times.length == 0 */\n      sub\n        /* \"Vault_forge/src/Diamond/ViewFacet.sol\":7769:7800  if (times.length == 0) return 0 */\n      tag_185\n      jumpi\n      pop\n        /* \"Vault_forge/src/Diamond/ViewFacet.sol\":7799:7800  0 */\n      0x00\n      swap3\n        /* \"Vault_forge/src/Diamond/ViewFacet.sol\":7611:7867  function getNearestUnlockTime(... */\n      swap2\n      pop\n      pop\n      jump\t// out\n        /* \"Vault_forge/src/Diamond/ViewFacet.sol\":7769:7800  if (times.length == 0) return 0 */\n    tag_185:\n        /* \"Vault_forge/src/Diamond/ViewFacet.sol\":7818:7823  times */\n      dup1\n        /* \"Vault_forge/src/Diamond/ViewFacet.sol\":7824:7825  0 */\n      0x00\n        /* \"Vault_forge/src/Diamond/ViewFacet.sol\":7818:7826  times[0] */\n      dup2\n      mload\n      dup2\n      lt\n      tag_187\n      jumpi\n      tag_187\n      tag_133\n      jump\t// in\n    tag_187:\n      0x20\n      mul\n      0x20\n      add\n      add\n      mload\n        /* \"Vault_forge/src/Diamond/ViewFacet.sol\":7811:7826  return times[0] */\n      swap2\n      pop\n      pop\n        /* \"Vault_forge/src/Diamond/ViewFacet.sol\":7611:7867  function getNearestUnlockTime(... */\n      swap2\n      swap1\n      pop\n      jump\t// out\n        /* \"Vault_forge/src/Diamond/ViewFacet.sol\":2358:2713  function convertToShares(uint256 assets) public view returns (uint256) {... */\n    tag_79:\n        /* \"Vault_forge/src/Diamond/ViewFacet.sol\":2523:2537  ds.totalAssets */\n      sload(0x5d15b553c07be9b4a8cf4265c997d4479f22e1843183fa58504508c561fb9d51)\n        /* \"Vault_forge/src/Diamond/ViewFacet.sol\":2420:2427  uint256 */\n      0x00\n      swap1\n      mload(0x00)\n      codecopy(0x00, data_70f758848eb781a3bc429614a44de64d398d9721e2ccf81c1cd4ba02fe29f8e0, 0x20)\n      mload(0x00)\n      swap1\n      0x00\n      mstore\n        /* \"Vault_forge/src/Diamond/DiamondStorage.sol\":135:174  keccak256(\"diamond.storage.yield.bull\") */\n      swap1\n        /* \"Vault_forge/src/Diamond/ViewFacet.sol\":2523:2542  ds.totalAssets == 0 */\n      iszero\n      dup1\n        /* \"Vault_forge/src/Diamond/ViewFacet.sol\":2523:2565  ds.totalAssets == 0 || ds.totalShares == 0 */\n      tag_194\n      jumpi\n      pop\n        /* \"Vault_forge/src/Diamond/ViewFacet.sol\":2546:2560  ds.totalShares */\n      0x02\n      dup2\n      add\n      sload\n        /* \"Vault_forge/src/Diamond/ViewFacet.sol\":2546:2565  ds.totalShares == 0 */\n      iszero\n        /* \"Vault_forge/src/Diamond/ViewFacet.sol\":2523:2565  ds.totalAssets == 0 || ds.totalShares == 0 */\n    tag_194:\n        /* \"Vault_forge/src/Diamond/ViewFacet.sol\":2519:2607  if (ds.totalAssets == 0 || ds.totalShares == 0) {... */\n      iszero\n      tag_195\n      jumpi\n      pop\n        /* \"Vault_forge/src/Diamond/ViewFacet.sol\":2589:2595  assets */\n      swap1\n      swap2\n        /* \"Vault_forge/src/Diamond/ViewFacet.sol\":2358:2713  function convertToShares(uint256 assets) public view returns (uint256) {... */\n      swap1\n      pop\n      jump\t// out\n        /* \"Vault_forge/src/Diamond/ViewFacet.sol\":2519:2607  if (ds.totalAssets == 0 || ds.totalShares == 0) {... */\n    tag_195:\n        /* \"Vault_forge/src/Diamond/ViewFacet.sol\":2685:2687  ds */\n      dup1\n        /* \"Vault_forge/src/Diamond/ViewFacet.sol\":2685:2704  ds.totalStakedValue */\n      0x03\n      add\n      sload\n        /* \"Vault_forge/src/Diamond/ViewFacet.sol\":2668:2670  ds */\n      dup2\n        /* \"Vault_forge/src/Diamond/ViewFacet.sol\":2668:2682  ds.totalAssets */\n      0x01\n      add\n      sload\n        /* \"Vault_forge/src/Diamond/ViewFacet.sol\":2668:2704  ds.totalAssets + ds.totalStakedValue */\n      tag_196\n      swap2\n      swap1\n      tag_108\n      jump\t// in\n    tag_196:\n        /* \"Vault_forge/src/Diamond/ViewFacet.sol\":2649:2663  ds.totalShares */\n      0x02\n      dup3\n      add\n      sload\n        /* \"Vault_forge/src/Diamond/ViewFacet.sol\":2640:2663  assets * ds.totalShares */\n      tag_197\n      swap1\n        /* \"Vault_forge/src/Diamond/ViewFacet.sol\":2640:2646  assets */\n      dup6\n        /* \"Vault_forge/src/Diamond/ViewFacet.sol\":2640:2663  assets * ds.totalShares */\n      tag_110\n      jump\t// in\n    tag_197:\n        /* \"Vault_forge/src/Diamond/ViewFacet.sol\":2639:2705  (assets * ds.totalShares) / (ds.totalAssets + ds.totalStakedValue) */\n      tag_198\n      swap2\n      swap1\n      tag_112\n      jump\t// in\n    tag_198:\n        /* \"Vault_forge/src/Diamond/ViewFacet.sol\":2619:2705  return... */\n      swap4\n        /* \"Vault_forge/src/Diamond/ViewFacet.sol\":2358:2713  function convertToShares(uint256 assets) public view returns (uint256) {... */\n      swap3\n      pop\n      pop\n      pop\n      jump\t// out\n        /* \"Vault_forge/src/Diamond/ViewFacet.sol\":6117:7603  function getUnlockTime(... */\n    tag_87:\n      sub(shl(0xa0, 0x01), 0x01)\n        /* \"Vault_forge/src/Diamond/ViewFacet.sol\":6385:6436  ds.userStakedDeposits[... */\n      dup2\n      and\n        /* \"Vault_forge/src/Diamond/ViewFacet.sol\":6220:6256  DiamondStorage.VaultState storage ds */\n      0x00\n        /* \"Vault_forge/src/Diamond/ViewFacet.sol\":6385:6436  ds.userStakedDeposits[... */\n      swap1\n      dup2\n      mstore\n        /* \"Vault_forge/src/Diamond/ViewFacet.sol\":6385:6406  ds.userStakedDeposits */\n      0x5d15b553c07be9b4a8cf4265c997d4479f22e1843183fa58504508c561fb9d6d\n        /* \"Vault_forge/src/Diamond/ViewFacet.sol\":6385:6436  ds.userStakedDeposits[... */\n      0x20\n      mstore\n      0x40\n      dup2\n      keccak256\n        /* \"Vault_forge/src/Diamond/ViewFacet.sol\":6191:6207  uint256[] memory */\n      0x60\n      swap2\n      mload(0x00)\n      codecopy(0x00, data_70f758848eb781a3bc429614a44de64d398d9721e2ccf81c1cd4ba02fe29f8e0, 0x20)\n      mload(0x00)\n      swap1\n      0x00\n      mstore\n        /* \"Vault_forge/src/Diamond/DiamondStorage.sol\":135:174  keccak256(\"diamond.storage.yield.bull\") */\n      swap2\n        /* \"Vault_forge/src/Diamond/ViewFacet.sol\":6385:6436  ds.userStakedDeposits[... */\n      swap1\n        /* \"Vault_forge/src/Diamond/ViewFacet.sol\":6220:6256  DiamondStorage.VaultState storage ds */\n      dup1\n        /* \"Vault_forge/src/Diamond/ViewFacet.sol\":6533:6681  for (uint256 i = 0; i < deposits.length; i++) {... */\n    tag_203:\n        /* \"Vault_forge/src/Diamond/ViewFacet.sol\":6557:6572  deposits.length */\n      dup3\n      sload\n        /* \"Vault_forge/src/Diamond/ViewFacet.sol\":6553:6572  i < deposits.length */\n      dup2\n      lt\n        /* \"Vault_forge/src/Diamond/ViewFacet.sol\":6533:6681  for (uint256 i = 0; i < deposits.length; i++) {... */\n      iszero\n      tag_204\n      jumpi\n        /* \"Vault_forge/src/Diamond/ViewFacet.sol\":6599:6607  deposits */\n      dup3\n        /* \"Vault_forge/src/Diamond/ViewFacet.sol\":6608:6609  i */\n      dup2\n        /* \"Vault_forge/src/Diamond/ViewFacet.sol\":6599:6610  deposits[i] */\n      dup2\n      sload\n      dup2\n      lt\n      tag_207\n      jumpi\n      tag_207\n      tag_133\n      jump\t// in\n    tag_207:\n      0x00\n      swap2\n      dup3\n      mstore\n      0x20\n      swap1\n      swap2\n      keccak256\n        /* \"Vault_forge/src/Diamond/ViewFacet.sol\":6599:6620  deposits[i].withdrawn */\n      0x03\n        /* \"Vault_forge/src/Diamond/ViewFacet.sol\":6599:6610  deposits[i] */\n      0x04\n      swap1\n      swap3\n      mul\n      add\n        /* \"Vault_forge/src/Diamond/ViewFacet.sol\":6599:6620  deposits[i].withdrawn */\n      add\n      sload\n      0xff\n      and\n        /* \"Vault_forge/src/Diamond/ViewFacet.sol\":6594:6670  if (!deposits[i].withdrawn) {... */\n      tag_209\n      jumpi\n        /* \"Vault_forge/src/Diamond/ViewFacet.sol\":6641:6654  activeCount++ */\n      dup2\n      tag_210\n      dup2\n      tag_211\n      jump\t// in\n    tag_210:\n      swap3\n      pop\n      pop\n        /* \"Vault_forge/src/Diamond/ViewFacet.sol\":6594:6670  if (!deposits[i].withdrawn) {... */\n    tag_209:\n        /* \"Vault_forge/src/Diamond/ViewFacet.sol\":6574:6577  i++ */\n      0x01\n      add\n        /* \"Vault_forge/src/Diamond/ViewFacet.sol\":6533:6681  for (uint256 i = 0; i < deposits.length; i++) {... */\n      jump(tag_203)\n    tag_204:\n      pop\n        /* \"Vault_forge/src/Diamond/ViewFacet.sol\":6735:6763  uint256[] memory unlockTimes */\n      0x00\n        /* \"Vault_forge/src/Diamond/ViewFacet.sol\":6780:6791  activeCount */\n      dup2\n        /* \"Vault_forge/src/Diamond/ViewFacet.sol\":6766:6792  new uint256[](activeCount) */\n      0xffffffffffffffff\n      dup2\n      gt\n      iszero\n      tag_213\n      jumpi\n      tag_213\n      tag_117\n      jump\t// in\n    tag_213:\n      mload(0x40)\n      swap1\n      dup1\n      dup3\n      mstore\n      dup1\n      0x20\n      mul\n      0x20\n      add\n      dup3\n      add\n      0x40\n      mstore\n      dup1\n      iszero\n      tag_214\n      jumpi\n      dup2\n      0x20\n      add\n      0x20\n      dup3\n      mul\n      dup1\n      calldatasize\n      dup4\n      calldatacopy\n      add\n      swap1\n      pop\n    tag_214:\n      pop\n        /* \"Vault_forge/src/Diamond/ViewFacet.sol\":6735:6792  uint256[] memory unlockTimes = new uint256[](activeCount) */\n      swap1\n      pop\n        /* \"Vault_forge/src/Diamond/ViewFacet.sol\":6870:6883  uint256 index */\n      0x00\n      dup1\n        /* \"Vault_forge/src/Diamond/ViewFacet.sol\":6898:7115  for (uint256 i = 0; i < deposits.length; i++) {... */\n    tag_215:\n        /* \"Vault_forge/src/Diamond/ViewFacet.sol\":6922:6937  deposits.length */\n      dup5\n      sload\n        /* \"Vault_forge/src/Diamond/ViewFacet.sol\":6918:6937  i < deposits.length */\n      dup2\n      lt\n        /* \"Vault_forge/src/Diamond/ViewFacet.sol\":6898:7115  for (uint256 i = 0; i < deposits.length; i++) {... */\n      iszero\n      tag_216\n      jumpi\n        /* \"Vault_forge/src/Diamond/ViewFacet.sol\":6964:6972  deposits */\n      dup5\n        /* \"Vault_forge/src/Diamond/ViewFacet.sol\":6973:6974  i */\n      dup2\n        /* \"Vault_forge/src/Diamond/ViewFacet.sol\":6964:6975  deposits[i] */\n      dup2\n      sload\n      dup2\n      lt\n      tag_219\n      jumpi\n      tag_219\n      tag_133\n      jump\t// in\n    tag_219:\n      0x00\n      swap2\n      dup3\n      mstore\n      0x20\n      swap1\n      swap2\n      keccak256\n        /* \"Vault_forge/src/Diamond/ViewFacet.sol\":6964:6985  deposits[i].withdrawn */\n      0x03\n        /* \"Vault_forge/src/Diamond/ViewFacet.sol\":6964:6975  deposits[i] */\n      0x04\n      swap1\n      swap3\n      mul\n      add\n        /* \"Vault_forge/src/Diamond/ViewFacet.sol\":6964:6985  deposits[i].withdrawn */\n      add\n      sload\n      0xff\n      and\n        /* \"Vault_forge/src/Diamond/ViewFacet.sol\":6959:7104  if (!deposits[i].withdrawn) {... */\n      tag_221\n      jumpi\n        /* \"Vault_forge/src/Diamond/ViewFacet.sol\":492:499  30 days */\n      0x278d00\n        /* \"Vault_forge/src/Diamond/ViewFacet.sol\":7027:7035  deposits */\n      dup6\n        /* \"Vault_forge/src/Diamond/ViewFacet.sol\":7036:7037  i */\n      dup3\n        /* \"Vault_forge/src/Diamond/ViewFacet.sol\":7027:7038  deposits[i] */\n      dup2\n      sload\n      dup2\n      lt\n      tag_223\n      jumpi\n      tag_223\n      tag_133\n      jump\t// in\n    tag_223:\n      swap1\n      0x00\n      mstore\n      keccak256(0x00, 0x20)\n      swap1\n      0x04\n      mul\n      add\n        /* \"Vault_forge/src/Diamond/ViewFacet.sol\":7027:7048  deposits[i].timestamp */\n      0x01\n      add\n      sload\n        /* \"Vault_forge/src/Diamond/ViewFacet.sol\":7027:7062  deposits[i].timestamp + LOCK_PERIOD */\n      tag_225\n      swap2\n      swap1\n      tag_108\n      jump\t// in\n    tag_225:\n        /* \"Vault_forge/src/Diamond/ViewFacet.sol\":7006:7017  unlockTimes */\n      dup4\n        /* \"Vault_forge/src/Diamond/ViewFacet.sol\":7018:7023  index */\n      dup4\n        /* \"Vault_forge/src/Diamond/ViewFacet.sol\":7006:7024  unlockTimes[index] */\n      dup2\n      mload\n      dup2\n      lt\n      tag_227\n      jumpi\n      tag_227\n      tag_133\n      jump\t// in\n    tag_227:\n      0x20\n      swap1\n      dup2\n      mul\n      swap2\n      swap1\n      swap2\n      add\n      add\n        /* \"Vault_forge/src/Diamond/ViewFacet.sol\":7006:7062  unlockTimes[index] = deposits[i].timestamp + LOCK_PERIOD */\n      mstore\n        /* \"Vault_forge/src/Diamond/ViewFacet.sol\":7081:7088  index++ */\n      dup2\n      tag_228\n      dup2\n      tag_211\n      jump\t// in\n    tag_228:\n      swap3\n      pop\n      pop\n        /* \"Vault_forge/src/Diamond/ViewFacet.sol\":6959:7104  if (!deposits[i].withdrawn) {... */\n    tag_221:\n        /* \"Vault_forge/src/Diamond/ViewFacet.sol\":6939:6942  i++ */\n      0x01\n      add\n        /* \"Vault_forge/src/Diamond/ViewFacet.sol\":6898:7115  for (uint256 i = 0; i < deposits.length; i++) {... */\n      jump(tag_215)\n    tag_216:\n      pop\n        /* \"Vault_forge/src/Diamond/ViewFacet.sol\":7201:7210  uint256 i */\n      0x00\n        /* \"Vault_forge/src/Diamond/ViewFacet.sol\":7196:7565  for (uint256 i = 0; i < unlockTimes.length; i++) {... */\n    tag_229:\n        /* \"Vault_forge/src/Diamond/ViewFacet.sol\":7220:7231  unlockTimes */\n      dup3\n        /* \"Vault_forge/src/Diamond/ViewFacet.sol\":7220:7238  unlockTimes.length */\n      mload\n        /* \"Vault_forge/src/Diamond/ViewFacet.sol\":7216:7217  i */\n      dup2\n        /* \"Vault_forge/src/Diamond/ViewFacet.sol\":7216:7238  i < unlockTimes.length */\n      lt\n        /* \"Vault_forge/src/Diamond/ViewFacet.sol\":7196:7565  for (uint256 i = 0; i < unlockTimes.length; i++) {... */\n      iszero\n      tag_230\n      jumpi\n        /* \"Vault_forge/src/Diamond/ViewFacet.sol\":7265:7274  uint256 j */\n      0x00\n        /* \"Vault_forge/src/Diamond/ViewFacet.sol\":7277:7282  i + 1 */\n      tag_235\n        /* \"Vault_forge/src/Diamond/ViewFacet.sol\":7277:7278  i */\n      dup3\n        /* \"Vault_forge/src/Diamond/ViewFacet.sol\":7281:7282  1 */\n      0x01\n        /* \"Vault_forge/src/Diamond/ViewFacet.sol\":7277:7282  i + 1 */\n      tag_108\n      jump\t// in\n    tag_235:\n        /* \"Vault_forge/src/Diamond/ViewFacet.sol\":7265:7282  uint256 j = i + 1 */\n      swap1\n      pop\n        /* \"Vault_forge/src/Diamond/ViewFacet.sol\":7260:7554  for (uint256 j = i + 1; j < unlockTimes.length; j++) {... */\n    tag_232:\n        /* \"Vault_forge/src/Diamond/ViewFacet.sol\":7288:7299  unlockTimes */\n      dup4\n        /* \"Vault_forge/src/Diamond/ViewFacet.sol\":7288:7306  unlockTimes.length */\n      mload\n        /* \"Vault_forge/src/Diamond/ViewFacet.sol\":7284:7285  j */\n      dup2\n        /* \"Vault_forge/src/Diamond/ViewFacet.sol\":7284:7306  j < unlockTimes.length */\n      lt\n        /* \"Vault_forge/src/Diamond/ViewFacet.sol\":7260:7554  for (uint256 j = i + 1; j < unlockTimes.length; j++) {... */\n      iszero\n      tag_233\n      jumpi\n        /* \"Vault_forge/src/Diamond/ViewFacet.sol\":7353:7364  unlockTimes */\n      dup4\n        /* \"Vault_forge/src/Diamond/ViewFacet.sol\":7365:7366  i */\n      dup3\n        /* \"Vault_forge/src/Diamond/ViewFacet.sol\":7353:7367  unlockTimes[i] */\n      dup2\n      mload\n      dup2\n      lt\n      tag_237\n      jumpi\n      tag_237\n      tag_133\n      jump\t// in\n    tag_237:\n      0x20\n      mul\n      0x20\n      add\n      add\n      mload\n        /* \"Vault_forge/src/Diamond/ViewFacet.sol\":7336:7347  unlockTimes */\n      dup5\n        /* \"Vault_forge/src/Diamond/ViewFacet.sol\":7348:7349  j */\n      dup3\n        /* \"Vault_forge/src/Diamond/ViewFacet.sol\":7336:7350  unlockTimes[j] */\n      dup2\n      mload\n      dup2\n      lt\n      tag_239\n      jumpi\n      tag_239\n      tag_133\n      jump\t// in\n    tag_239:\n      0x20\n      mul\n      0x20\n      add\n      add\n      mload\n        /* \"Vault_forge/src/Diamond/ViewFacet.sol\":7336:7367  unlockTimes[j] < unlockTimes[i] */\n      lt\n        /* \"Vault_forge/src/Diamond/ViewFacet.sol\":7332:7539  if (unlockTimes[j] < unlockTimes[i]) {... */\n      iszero\n      tag_240\n      jumpi\n        /* \"Vault_forge/src/Diamond/ViewFacet.sol\":7392:7404  uint256 temp */\n      0x00\n        /* \"Vault_forge/src/Diamond/ViewFacet.sol\":7407:7418  unlockTimes */\n      dup5\n        /* \"Vault_forge/src/Diamond/ViewFacet.sol\":7419:7420  i */\n      dup4\n        /* \"Vault_forge/src/Diamond/ViewFacet.sol\":7407:7421  unlockTimes[i] */\n      dup2\n      mload\n      dup2\n      lt\n      tag_242\n      jumpi\n      tag_242\n      tag_133\n      jump\t// in\n    tag_242:\n      0x20\n      mul\n      0x20\n      add\n      add\n      mload\n        /* \"Vault_forge/src/Diamond/ViewFacet.sol\":7392:7421  uint256 temp = unlockTimes[i] */\n      swap1\n      pop\n        /* \"Vault_forge/src/Diamond/ViewFacet.sol\":7461:7472  unlockTimes */\n      dup5\n        /* \"Vault_forge/src/Diamond/ViewFacet.sol\":7473:7474  j */\n      dup3\n        /* \"Vault_forge/src/Diamond/ViewFacet.sol\":7461:7475  unlockTimes[j] */\n      dup2\n      mload\n      dup2\n      lt\n      tag_244\n      jumpi\n      tag_244\n      tag_133\n      jump\t// in\n    tag_244:\n      0x20\n      mul\n      0x20\n      add\n      add\n      mload\n        /* \"Vault_forge/src/Diamond/ViewFacet.sol\":7444:7455  unlockTimes */\n      dup6\n        /* \"Vault_forge/src/Diamond/ViewFacet.sol\":7456:7457  i */\n      dup5\n        /* \"Vault_forge/src/Diamond/ViewFacet.sol\":7444:7458  unlockTimes[i] */\n      dup2\n      mload\n      dup2\n      lt\n      tag_246\n      jumpi\n      tag_246\n      tag_133\n      jump\t// in\n    tag_246:\n      0x20\n      mul\n      0x20\n      add\n      add\n        /* \"Vault_forge/src/Diamond/ViewFacet.sol\":7444:7475  unlockTimes[i] = unlockTimes[j] */\n      dup2\n      dup2\n      mstore\n      pop\n      pop\n        /* \"Vault_forge/src/Diamond/ViewFacet.sol\":7515:7519  temp */\n      dup1\n        /* \"Vault_forge/src/Diamond/ViewFacet.sol\":7498:7509  unlockTimes */\n      dup6\n        /* \"Vault_forge/src/Diamond/ViewFacet.sol\":7510:7511  j */\n      dup4\n        /* \"Vault_forge/src/Diamond/ViewFacet.sol\":7498:7512  unlockTimes[j] */\n      dup2\n      mload\n      dup2\n      lt\n      tag_248\n      jumpi\n      tag_248\n      tag_133\n      jump\t// in\n    tag_248:\n      0x20\n      mul\n      0x20\n      add\n      add\n        /* \"Vault_forge/src/Diamond/ViewFacet.sol\":7498:7519  unlockTimes[j] = temp */\n      dup2\n      dup2\n      mstore\n      pop\n      pop\n        /* \"Vault_forge/src/Diamond/ViewFacet.sol\":7369:7539  {... */\n      pop\n        /* \"Vault_forge/src/Diamond/ViewFacet.sol\":7332:7539  if (unlockTimes[j] < unlockTimes[i]) {... */\n    tag_240:\n        /* \"Vault_forge/src/Diamond/ViewFacet.sol\":7308:7311  j++ */\n      0x01\n      add\n        /* \"Vault_forge/src/Diamond/ViewFacet.sol\":7260:7554  for (uint256 j = i + 1; j < unlockTimes.length; j++) {... */\n      jump(tag_232)\n    tag_233:\n      pop\n        /* \"Vault_forge/src/Diamond/ViewFacet.sol\":7240:7243  i++ */\n      0x01\n      add\n        /* \"Vault_forge/src/Diamond/ViewFacet.sol\":7196:7565  for (uint256 i = 0; i < unlockTimes.length; i++) {... */\n      jump(tag_229)\n    tag_230:\n      pop\n        /* \"Vault_forge/src/Diamond/ViewFacet.sol\":7584:7595  unlockTimes */\n      swap1\n      swap7\n        /* \"Vault_forge/src/Diamond/ViewFacet.sol\":6117:7603  function getUnlockTime(... */\n      swap6\n      pop\n      pop\n      pop\n      pop\n      pop\n      pop\n      jump\t// out\n        /* \"Vault_forge/src/Diamond/ViewFacet.sol\":7906:8704  function getTotalStakedAssets() external view returns (uint256) {... */\n    tag_91:\n        /* \"Vault_forge/src/Diamond/ViewFacet.sol\":7961:7968  uint256 */\n      0x00\n      mload(0x00)\n      codecopy(0x00, data_70f758848eb781a3bc429614a44de64d398d9721e2ccf81c1cd4ba02fe29f8e0, 0x20)\n      mload(0x00)\n      swap1\n      0x00\n      mstore\n      dup2\n      dup1\n        /* \"Vault_forge/src/Diamond/ViewFacet.sol\":8134:8666  for (uint256 i = 0; i < ds.userAddresses.length; i++) {... */\n    tag_251:\n        /* \"Vault_forge/src/Diamond/ViewFacet.sol\":8158:8174  ds.userAddresses */\n      0x0e\n      dup4\n      add\n        /* \"Vault_forge/src/Diamond/ViewFacet.sol\":8158:8181  ds.userAddresses.length */\n      sload\n        /* \"Vault_forge/src/Diamond/ViewFacet.sol\":8154:8181  i < ds.userAddresses.length */\n      dup2\n      lt\n        /* \"Vault_forge/src/Diamond/ViewFacet.sol\":8134:8666  for (uint256 i = 0; i < ds.userAddresses.length; i++) {... */\n      iszero\n      tag_252\n      jumpi\n        /* \"Vault_forge/src/Diamond/ViewFacet.sol\":8203:8215  address user */\n      0x00\n        /* \"Vault_forge/src/Diamond/ViewFacet.sol\":8218:8220  ds */\n      dup4\n        /* \"Vault_forge/src/Diamond/ViewFacet.sol\":8218:8234  ds.userAddresses */\n      0x0e\n      add\n        /* \"Vault_forge/src/Diamond/ViewFacet.sol\":8235:8236  i */\n      dup3\n        /* \"Vault_forge/src/Diamond/ViewFacet.sol\":8218:8237  ds.userAddresses[i] */\n      dup2\n      sload\n      dup2\n      lt\n      tag_255\n      jumpi\n      tag_255\n      tag_133\n      jump\t// in\n    tag_255:\n      0x00\n      swap2\n      dup3\n      mstore\n      0x20\n      dup1\n      dup4\n      keccak256\n      swap1\n      swap2\n      add\n      sload\n      sub(shl(0xa0, 0x01), 0x01)\n      and\n        /* \"Vault_forge/src/Diamond/ViewFacet.sol\":8359:8404  ds... */\n      dup1\n      dup4\n      mstore\n        /* \"Vault_forge/src/Diamond/ViewFacet.sol\":8359:8398  ds... */\n      0x1d\n      dup8\n      add\n        /* \"Vault_forge/src/Diamond/ViewFacet.sol\":8359:8404  ds... */\n      swap1\n      swap2\n      mstore\n      0x40\n      dup3\n      keccak256\n        /* \"Vault_forge/src/Diamond/ViewFacet.sol\":8218:8237  ds.userAddresses[i] */\n      swap1\n      swap3\n      pop\n        /* \"Vault_forge/src/Diamond/ViewFacet.sol\":8359:8404  ds... */\n      swap1\n        /* \"Vault_forge/src/Diamond/ViewFacet.sol\":8471:8655  for (uint256 j = 0; j < deposits.length; j++) {... */\n    tag_257:\n        /* \"Vault_forge/src/Diamond/ViewFacet.sol\":8495:8510  deposits.length */\n      dup2\n      sload\n        /* \"Vault_forge/src/Diamond/ViewFacet.sol\":8491:8510  j < deposits.length */\n      dup2\n      lt\n        /* \"Vault_forge/src/Diamond/ViewFacet.sol\":8471:8655  for (uint256 j = 0; j < deposits.length; j++) {... */\n      iszero\n      tag_258\n      jumpi\n        /* \"Vault_forge/src/Diamond/ViewFacet.sol\":8541:8549  deposits */\n      dup2\n        /* \"Vault_forge/src/Diamond/ViewFacet.sol\":8550:8551  j */\n      dup2\n        /* \"Vault_forge/src/Diamond/ViewFacet.sol\":8541:8552  deposits[j] */\n      dup2\n      sload\n      dup2\n      lt\n      tag_261\n      jumpi\n      tag_261\n      tag_133\n      jump\t// in\n    tag_261:\n      0x00\n      swap2\n      dup3\n      mstore\n      0x20\n      swap1\n      swap2\n      keccak256\n        /* \"Vault_forge/src/Diamond/ViewFacet.sol\":8541:8562  deposits[j].withdrawn */\n      0x03\n        /* \"Vault_forge/src/Diamond/ViewFacet.sol\":8541:8552  deposits[j] */\n      0x04\n      swap1\n      swap3\n      mul\n      add\n        /* \"Vault_forge/src/Diamond/ViewFacet.sol\":8541:8562  deposits[j].withdrawn */\n      add\n      sload\n      0xff\n      and\n        /* \"Vault_forge/src/Diamond/ViewFacet.sol\":8536:8640  if (!deposits[j].withdrawn) {... */\n      tag_263\n      jumpi\n        /* \"Vault_forge/src/Diamond/ViewFacet.sol\":8602:8610  deposits */\n      dup2\n        /* \"Vault_forge/src/Diamond/ViewFacet.sol\":8611:8612  j */\n      dup2\n        /* \"Vault_forge/src/Diamond/ViewFacet.sol\":8602:8613  deposits[j] */\n      dup2\n      sload\n      dup2\n      lt\n      tag_265\n      jumpi\n      tag_265\n      tag_133\n      jump\t// in\n    tag_265:\n      swap1\n      0x00\n      mstore\n      keccak256(0x00, 0x20)\n      swap1\n      0x04\n      mul\n      add\n        /* \"Vault_forge/src/Diamond/ViewFacet.sol\":8602:8620  deposits[j].amount */\n      0x00\n      add\n      sload\n        /* \"Vault_forge/src/Diamond/ViewFacet.sol\":8587:8620  totalStaked += deposits[j].amount */\n      dup6\n      tag_267\n      swap2\n      swap1\n      tag_108\n      jump\t// in\n    tag_267:\n      swap5\n      pop\n        /* \"Vault_forge/src/Diamond/ViewFacet.sol\":8536:8640  if (!deposits[j].withdrawn) {... */\n    tag_263:\n        /* \"Vault_forge/src/Diamond/ViewFacet.sol\":8512:8515  j++ */\n      0x01\n      add\n        /* \"Vault_forge/src/Diamond/ViewFacet.sol\":8471:8655  for (uint256 j = 0; j < deposits.length; j++) {... */\n      jump(tag_257)\n    tag_258:\n      pop\n      pop\n      pop\n        /* \"Vault_forge/src/Diamond/ViewFacet.sol\":8183:8186  i++ */\n      0x01\n      add\n        /* \"Vault_forge/src/Diamond/ViewFacet.sol\":8134:8666  for (uint256 i = 0; i < ds.userAddresses.length; i++) {... */\n      jump(tag_251)\n    tag_252:\n      pop\n        /* \"Vault_forge/src/Diamond/ViewFacet.sol\":8685:8696  totalStaked */\n      swap3\n        /* \"Vault_forge/src/Diamond/ViewFacet.sol\":7906:8704  function getTotalStakedAssets() external view returns (uint256) {... */\n      swap2\n      pop\n      pop\n      jump\t// out\n        /* \"Vault_forge/src/Diamond/ViewFacet.sol\":3311:5679  function getWithdrawableAmount(address user) public view returns (uint256) {... */\n    tag_95:\n      sub(shl(0xa0, 0x01), 0x01)\n        /* \"Vault_forge/src/Diamond/ViewFacet.sol\":3517:3534  ds.balances[user] */\n      dup2\n      and\n        /* \"Vault_forge/src/Diamond/ViewFacet.sol\":3377:3384  uint256 */\n      0x00\n        /* \"Vault_forge/src/Diamond/ViewFacet.sol\":3517:3534  ds.balances[user] */\n      swap1\n      dup2\n      mstore\n        /* \"Vault_forge/src/Diamond/ViewFacet.sol\":3517:3528  ds.balances */\n      0x5d15b553c07be9b4a8cf4265c997d4479f22e1843183fa58504508c561fb9d5f\n        /* \"Vault_forge/src/Diamond/ViewFacet.sol\":3517:3534  ds.balances[user] */\n      0x20\n      mstore\n      0x40\n      dup2\n      keccak256\n      sload\n      mload(0x00)\n      codecopy(0x00, data_70f758848eb781a3bc429614a44de64d398d9721e2ccf81c1cd4ba02fe29f8e0, 0x20)\n      mload(0x00)\n      swap1\n      0x00\n      mstore\n        /* \"Vault_forge/src/Diamond/DiamondStorage.sol\":135:174  keccak256(\"diamond.storage.yield.bull\") */\n      swap1\n        /* \"Vault_forge/src/Diamond/ViewFacet.sol\":3377:3384  uint256 */\n      dup3\n      swap1\n        /* \"Vault_forge/src/Diamond/ViewFacet.sol\":3501:3535  convertToAssets(ds.balances[user]) */\n      tag_270\n      swap1\n        /* \"Vault_forge/src/Diamond/ViewFacet.sol\":3501:3516  convertToAssets */\n      tag_32\n        /* \"Vault_forge/src/Diamond/ViewFacet.sol\":3501:3535  convertToAssets(ds.balances[user]) */\n      jump\t// in\n    tag_270:\n        /* \"Vault_forge/src/Diamond/ViewFacet.sol\":3474:3535  uint256 totalUserBalance = convertToAssets(ds.balances[user]) */\n      swap1\n      pop\n        /* \"Vault_forge/src/Diamond/ViewFacet.sol\":3608:3624  totalUserBalance */\n      dup1\n        /* \"Vault_forge/src/Diamond/ViewFacet.sol\":3628:3629  0 */\n      0x00\n        /* \"Vault_forge/src/Diamond/ViewFacet.sol\":3608:3629  totalUserBalance == 0 */\n      sub\n        /* \"Vault_forge/src/Diamond/ViewFacet.sol\":3604:3639  if (totalUserBalance == 0) return 0 */\n      tag_271\n      jumpi\n      pop\n        /* \"Vault_forge/src/Diamond/ViewFacet.sol\":3638:3639  0 */\n      0x00\n      swap4\n        /* \"Vault_forge/src/Diamond/ViewFacet.sol\":3311:5679  function getWithdrawableAmount(address user) public view returns (uint256) {... */\n      swap3\n      pop\n      pop\n      pop\n      jump\t// out\n        /* \"Vault_forge/src/Diamond/ViewFacet.sol\":3604:3639  if (totalUserBalance == 0) return 0 */\n    tag_271:\n      sub(shl(0xa0, 0x01), 0x01)\n        /* \"Vault_forge/src/Diamond/ViewFacet.sol\":3745:3796  ds.userStakedDeposits[... */\n      dup5\n      and\n        /* \"Vault_forge/src/Diamond/ViewFacet.sol\":3695:3742  DiamondStorage.StakedDeposit[] storage deposits */\n      0x00\n        /* \"Vault_forge/src/Diamond/ViewFacet.sol\":3745:3796  ds.userStakedDeposits[... */\n      swap1\n      dup2\n      mstore\n        /* \"Vault_forge/src/Diamond/ViewFacet.sol\":3745:3766  ds.userStakedDeposits */\n      0x1d\n      dup4\n      add\n        /* \"Vault_forge/src/Diamond/ViewFacet.sol\":3745:3796  ds.userStakedDeposits[... */\n      0x20\n      mstore\n      0x40\n      dup2\n      keccak256\n        /* \"Vault_forge/src/Diamond/ViewFacet.sol\":3883:3898  deposits.length */\n      dup1\n      sload\n        /* \"Vault_forge/src/Diamond/ViewFacet.sol\":3745:3796  ds.userStakedDeposits[... */\n      swap1\n      swap2\n        /* \"Vault_forge/src/Diamond/ViewFacet.sol\":3883:3903  deposits.length == 0 */\n      sub\n        /* \"Vault_forge/src/Diamond/ViewFacet.sol\":3879:4175  if (deposits.length == 0) {... */\n      tag_272\n      jumpi\n      sub(shl(0xa0, 0x01), 0x01)\n        /* \"Vault_forge/src/Diamond/ViewFacet.sol\":3971:3997  ds.depositTimestamps[user] */\n      dup6\n      and\n        /* \"Vault_forge/src/Diamond/ViewFacet.sol\":3920:3933  bool isLocked */\n      0x00\n        /* \"Vault_forge/src/Diamond/ViewFacet.sol\":3971:3997  ds.depositTimestamps[user] */\n      swap1\n      dup2\n      mstore\n        /* \"Vault_forge/src/Diamond/ViewFacet.sol\":3971:3991  ds.depositTimestamps */\n      0x11\n      dup5\n      add\n        /* \"Vault_forge/src/Diamond/ViewFacet.sol\":3971:3997  ds.depositTimestamps[user] */\n      0x20\n      mstore\n      0x40\n      dup2\n      keccak256\n      sload\n        /* \"Vault_forge/src/Diamond/ViewFacet.sol\":3971:4011  ds.depositTimestamps[user] + LOCK_PERIOD */\n      tag_273\n      swap1\n        /* \"Vault_forge/src/Diamond/ViewFacet.sol\":492:499  30 days */\n      0x278d00\n      swap1\n        /* \"Vault_forge/src/Diamond/ViewFacet.sol\":3971:4011  ds.depositTimestamps[user] + LOCK_PERIOD */\n      tag_108\n      jump\t// in\n    tag_273:\n        /* \"Vault_forge/src/Diamond/ViewFacet.sol\":3936:3951  block.timestamp */\n      timestamp\n        /* \"Vault_forge/src/Diamond/ViewFacet.sol\":3936:4011  block.timestamp <... */\n      lt\n        /* \"Vault_forge/src/Diamond/ViewFacet.sol\":3920:4011  bool isLocked = block.timestamp <... */\n      swap1\n      pop\n        /* \"Vault_forge/src/Diamond/ViewFacet.sol\":4050:4058  isLocked */\n      dup1\n        /* \"Vault_forge/src/Diamond/ViewFacet.sol\":4050:4163  isLocked... */\n      tag_274\n      jumpi\n        /* \"Vault_forge/src/Diamond/ViewFacet.sol\":4147:4163  totalUserBalance */\n      dup3\n        /* \"Vault_forge/src/Diamond/ViewFacet.sol\":4050:4163  isLocked... */\n      jump(tag_277)\n    tag_274:\n        /* \"Vault_forge/src/Diamond/ViewFacet.sol\":4120:4123  100 */\n      0x64\n        /* \"Vault_forge/src/Diamond/ViewFacet.sol\":4083:4116  totalUserBalance * LIQUID_PORTION */\n      tag_276\n        /* \"Vault_forge/src/Diamond/ViewFacet.sol\":548:550  60 */\n      0x3c\n        /* \"Vault_forge/src/Diamond/ViewFacet.sol\":4083:4099  totalUserBalance */\n      dup6\n        /* \"Vault_forge/src/Diamond/ViewFacet.sol\":4083:4116  totalUserBalance * LIQUID_PORTION */\n      tag_110\n      jump\t// in\n    tag_276:\n        /* \"Vault_forge/src/Diamond/ViewFacet.sol\":4082:4123  (totalUserBalance * LIQUID_PORTION) / 100 */\n      tag_277\n      swap2\n      swap1\n      tag_112\n      jump\t// in\n    tag_277:\n        /* \"Vault_forge/src/Diamond/ViewFacet.sol\":4026:4163  return... */\n      swap7\n        /* \"Vault_forge/src/Diamond/ViewFacet.sol\":3311:5679  function getWithdrawableAmount(address user) public view returns (uint256) {... */\n      swap6\n      pop\n      pop\n      pop\n      pop\n      pop\n      pop\n      jump\t// out\n        /* \"Vault_forge/src/Diamond/ViewFacet.sol\":3879:4175  if (deposits.length == 0) {... */\n    tag_272:\n        /* \"Vault_forge/src/Diamond/ViewFacet.sol\":4236:4256  uint256 maturedValue */\n      0x00\n      dup1\n      dup1\n        /* \"Vault_forge/src/Diamond/ViewFacet.sol\":4372:4728  for (uint256 i = 0; i < deposits.length; i++) {... */\n    tag_278:\n        /* \"Vault_forge/src/Diamond/ViewFacet.sol\":4396:4411  deposits.length */\n      dup4\n      sload\n        /* \"Vault_forge/src/Diamond/ViewFacet.sol\":4392:4411  i < deposits.length */\n      dup2\n      lt\n        /* \"Vault_forge/src/Diamond/ViewFacet.sol\":4372:4728  for (uint256 i = 0; i < deposits.length; i++) {... */\n      iszero\n      tag_279\n      jumpi\n        /* \"Vault_forge/src/Diamond/ViewFacet.sol\":4438:4446  deposits */\n      dup4\n        /* \"Vault_forge/src/Diamond/ViewFacet.sol\":4447:4448  i */\n      dup2\n        /* \"Vault_forge/src/Diamond/ViewFacet.sol\":4438:4449  deposits[i] */\n      dup2\n      sload\n      dup2\n      lt\n      tag_282\n      jumpi\n      tag_282\n      tag_133\n      jump\t// in\n    tag_282:\n      0x00\n      swap2\n      dup3\n      mstore\n      0x20\n      swap1\n      swap2\n      keccak256\n        /* \"Vault_forge/src/Diamond/ViewFacet.sol\":4438:4459  deposits[i].withdrawn */\n      0x03\n        /* \"Vault_forge/src/Diamond/ViewFacet.sol\":4438:4449  deposits[i] */\n      0x04\n      swap1\n      swap3\n      mul\n      add\n        /* \"Vault_forge/src/Diamond/ViewFacet.sol\":4438:4459  deposits[i].withdrawn */\n      add\n      sload\n      0xff\n      and\n        /* \"Vault_forge/src/Diamond/ViewFacet.sol\":4433:4717  if (!deposits[i].withdrawn) {... */\n      tag_294\n      jumpi\n        /* \"Vault_forge/src/Diamond/ViewFacet.sol\":492:499  30 days */\n      0x278d00\n        /* \"Vault_forge/src/Diamond/ViewFacet.sol\":4503:4511  deposits */\n      dup5\n        /* \"Vault_forge/src/Diamond/ViewFacet.sol\":4512:4513  i */\n      dup3\n        /* \"Vault_forge/src/Diamond/ViewFacet.sol\":4503:4514  deposits[i] */\n      dup2\n      sload\n      dup2\n      lt\n      tag_286\n      jumpi\n      tag_286\n      tag_133\n      jump\t// in\n    tag_286:\n      swap1\n      0x00\n      mstore\n      keccak256(0x00, 0x20)\n      swap1\n      0x04\n      mul\n      add\n        /* \"Vault_forge/src/Diamond/ViewFacet.sol\":4503:4524  deposits[i].timestamp */\n      0x01\n      add\n      sload\n        /* \"Vault_forge/src/Diamond/ViewFacet.sol\":4503:4538  deposits[i].timestamp + LOCK_PERIOD */\n      tag_288\n      swap2\n      swap1\n      tag_108\n      jump\t// in\n    tag_288:\n        /* \"Vault_forge/src/Diamond/ViewFacet.sol\":4484:4499  block.timestamp */\n      timestamp\n        /* \"Vault_forge/src/Diamond/ViewFacet.sol\":4484:4538  block.timestamp >= deposits[i].timestamp + LOCK_PERIOD */\n      lt\n        /* \"Vault_forge/src/Diamond/ViewFacet.sol\":4480:4702  if (block.timestamp >= deposits[i].timestamp + LOCK_PERIOD) {... */\n      tag_289\n      jumpi\n        /* \"Vault_forge/src/Diamond/ViewFacet.sol\":4579:4587  deposits */\n      dup4\n        /* \"Vault_forge/src/Diamond/ViewFacet.sol\":4588:4589  i */\n      dup2\n        /* \"Vault_forge/src/Diamond/ViewFacet.sol\":4579:4590  deposits[i] */\n      dup2\n      sload\n      dup2\n      lt\n      tag_291\n      jumpi\n      tag_291\n      tag_133\n      jump\t// in\n    tag_291:\n      swap1\n      0x00\n      mstore\n      keccak256(0x00, 0x20)\n      swap1\n      0x04\n      mul\n      add\n        /* \"Vault_forge/src/Diamond/ViewFacet.sol\":4579:4597  deposits[i].amount */\n      0x00\n      add\n      sload\n        /* \"Vault_forge/src/Diamond/ViewFacet.sol\":4563:4597  maturedValue += deposits[i].amount */\n      dup4\n      tag_293\n      swap2\n      swap1\n      tag_108\n      jump\t// in\n    tag_293:\n      swap3\n      pop\n        /* \"Vault_forge/src/Diamond/ViewFacet.sol\":4480:4702  if (block.timestamp >= deposits[i].timestamp + LOCK_PERIOD) {... */\n      jump(tag_294)\n    tag_289:\n        /* \"Vault_forge/src/Diamond/ViewFacet.sol\":4664:4672  deposits */\n      dup4\n        /* \"Vault_forge/src/Diamond/ViewFacet.sol\":4673:4674  i */\n      dup2\n        /* \"Vault_forge/src/Diamond/ViewFacet.sol\":4664:4675  deposits[i] */\n      dup2\n      sload\n      dup2\n      lt\n      tag_296\n      jumpi\n      tag_296\n      tag_133\n      jump\t// in\n    tag_296:\n      swap1\n      0x00\n      mstore\n      keccak256(0x00, 0x20)\n      swap1\n      0x04\n      mul\n      add\n        /* \"Vault_forge/src/Diamond/ViewFacet.sol\":4664:4682  deposits[i].amount */\n      0x00\n      add\n      sload\n        /* \"Vault_forge/src/Diamond/ViewFacet.sol\":4646:4682  unmaturedValue += deposits[i].amount */\n      dup3\n      tag_298\n      swap2\n      swap1\n      tag_108\n      jump\t// in\n    tag_298:\n      swap2\n      pop\n        /* \"Vault_forge/src/Diamond/ViewFacet.sol\":4480:4702  if (block.timestamp >= deposits[i].timestamp + LOCK_PERIOD) {... */\n    tag_294:\n        /* \"Vault_forge/src/Diamond/ViewFacet.sol\":4413:4416  i++ */\n      0x01\n      add\n        /* \"Vault_forge/src/Diamond/ViewFacet.sol\":4372:4728  for (uint256 i = 0; i < deposits.length; i++) {... */\n      jump(tag_278)\n    tag_279:\n      pop\n        /* \"Vault_forge/src/Diamond/ViewFacet.sol\":4781:4804  uint256 userTotalStaked */\n      0x00\n        /* \"Vault_forge/src/Diamond/ViewFacet.sol\":4807:4836  maturedValue + unmaturedValue */\n      tag_299\n        /* \"Vault_forge/src/Diamond/ViewFacet.sol\":4822:4836  unmaturedValue */\n      dup3\n        /* \"Vault_forge/src/Diamond/ViewFacet.sol\":4807:4819  maturedValue */\n      dup5\n        /* \"Vault_forge/src/Diamond/ViewFacet.sol\":4807:4836  maturedValue + unmaturedValue */\n      tag_108\n      jump\t// in\n    tag_299:\n        /* \"Vault_forge/src/Diamond/ViewFacet.sol\":4781:4836  uint256 userTotalStaked = maturedValue + unmaturedValue */\n      swap1\n      pop\n        /* \"Vault_forge/src/Diamond/ViewFacet.sol\":4941:4961  userTotalStaked == 0 */\n      dup1\n      iszero\n      dup1\n        /* \"Vault_forge/src/Diamond/ViewFacet.sol\":4941:4984  userTotalStaked == 0 || unmaturedValue == 0 */\n      tag_300\n      jumpi\n      pop\n        /* \"Vault_forge/src/Diamond/ViewFacet.sol\":4965:4984  unmaturedValue == 0 */\n      dup2\n      iszero\n        /* \"Vault_forge/src/Diamond/ViewFacet.sol\":4941:4984  userTotalStaked == 0 || unmaturedValue == 0 */\n    tag_300:\n        /* \"Vault_forge/src/Diamond/ViewFacet.sol\":4937:5036  if (userTotalStaked == 0 || unmaturedValue == 0) {... */\n      iszero\n      tag_301\n      jumpi\n      pop\n        /* \"Vault_forge/src/Diamond/ViewFacet.sol\":5008:5024  totalUserBalance */\n      swap3\n      swap7\n        /* \"Vault_forge/src/Diamond/ViewFacet.sol\":3311:5679  function getWithdrawableAmount(address user) public view returns (uint256) {... */\n      swap6\n      pop\n      pop\n      pop\n      pop\n      pop\n      pop\n      jump\t// out\n        /* \"Vault_forge/src/Diamond/ViewFacet.sol\":4937:5036  if (userTotalStaked == 0 || unmaturedValue == 0) {... */\n    tag_301:\n        /* \"Vault_forge/src/Diamond/ViewFacet.sol\":5119:5152  uint256 withdrawableFromUnmatured */\n      0x00\n        /* \"Vault_forge/src/Diamond/ViewFacet.sol\":5204:5207  100 */\n      0x64\n        /* \"Vault_forge/src/Diamond/ViewFacet.sol\":5156:5187  unmaturedValue * LIQUID_PORTION */\n      tag_302\n        /* \"Vault_forge/src/Diamond/ViewFacet.sol\":548:550  60 */\n      0x3c\n        /* \"Vault_forge/src/Diamond/ViewFacet.sol\":5156:5170  unmaturedValue */\n      dup6\n        /* \"Vault_forge/src/Diamond/ViewFacet.sol\":5156:5187  unmaturedValue * LIQUID_PORTION */\n      tag_110\n      jump\t// in\n    tag_302:\n        /* \"Vault_forge/src/Diamond/ViewFacet.sol\":5155:5207  (unmaturedValue * LIQUID_PORTION) /... */\n      tag_303\n      swap2\n      swap1\n      tag_112\n      jump\t// in\n    tag_303:\n        /* \"Vault_forge/src/Diamond/ViewFacet.sol\":5119:5207  uint256 withdrawableFromUnmatured = (unmaturedValue * LIQUID_PORTION) /... */\n      swap1\n      pop\n        /* \"Vault_forge/src/Diamond/ViewFacet.sol\":5313:5343  uint256 totalWithdrawableValue */\n      0x00\n        /* \"Vault_forge/src/Diamond/ViewFacet.sol\":5346:5399  maturedValue +... */\n      tag_304\n        /* \"Vault_forge/src/Diamond/ViewFacet.sol\":5119:5207  uint256 withdrawableFromUnmatured = (unmaturedValue * LIQUID_PORTION) /... */\n      dup3\n        /* \"Vault_forge/src/Diamond/ViewFacet.sol\":5346:5358  maturedValue */\n      dup7\n        /* \"Vault_forge/src/Diamond/ViewFacet.sol\":5346:5399  maturedValue +... */\n      tag_108\n      jump\t// in\n    tag_304:\n        /* \"Vault_forge/src/Diamond/ViewFacet.sol\":5313:5399  uint256 totalWithdrawableValue = maturedValue +... */\n      swap1\n      pop\n        /* \"Vault_forge/src/Diamond/ViewFacet.sol\":5473:5498  uint256 withdrawableRatio */\n      0x00\n        /* \"Vault_forge/src/Diamond/ViewFacet.sol\":5547:5562  userTotalStaked */\n      dup4\n        /* \"Vault_forge/src/Diamond/ViewFacet.sol\":5502:5530  totalWithdrawableValue * 1e6 */\n      tag_305\n        /* \"Vault_forge/src/Diamond/ViewFacet.sol\":5313:5399  uint256 totalWithdrawableValue = maturedValue +... */\n      dup4\n        /* \"Vault_forge/src/Diamond/ViewFacet.sol\":5527:5530  1e6 */\n      0x0f4240\n        /* \"Vault_forge/src/Diamond/ViewFacet.sol\":5502:5530  totalWithdrawableValue * 1e6 */\n      tag_110\n      jump\t// in\n    tag_305:\n        /* \"Vault_forge/src/Diamond/ViewFacet.sol\":5501:5562  (totalWithdrawableValue * 1e6) /... */\n      tag_306\n      swap2\n      swap1\n      tag_112\n      jump\t// in\n    tag_306:\n        /* \"Vault_forge/src/Diamond/ViewFacet.sol\":5473:5562  uint256 withdrawableRatio = (totalWithdrawableValue * 1e6) /... */\n      swap1\n      pop\n        /* \"Vault_forge/src/Diamond/ViewFacet.sol\":5668:5671  1e6 */\n      0x0f4240\n        /* \"Vault_forge/src/Diamond/ViewFacet.sol\":5628:5664  totalUserBalance * withdrawableRatio */\n      tag_307\n        /* \"Vault_forge/src/Diamond/ViewFacet.sol\":5473:5562  uint256 withdrawableRatio = (totalWithdrawableValue * 1e6) /... */\n      dup3\n        /* \"Vault_forge/src/Diamond/ViewFacet.sol\":5628:5644  totalUserBalance */\n      dup11\n        /* \"Vault_forge/src/Diamond/ViewFacet.sol\":5628:5664  totalUserBalance * withdrawableRatio */\n      tag_110\n      jump\t// in\n    tag_307:\n        /* \"Vault_forge/src/Diamond/ViewFacet.sol\":5627:5671  (totalUserBalance * withdrawableRatio) / 1e6 */\n      tag_308\n      swap2\n      swap1\n      tag_112\n      jump\t// in\n    tag_308:\n        /* \"Vault_forge/src/Diamond/ViewFacet.sol\":5620:5671  return (totalUserBalance * withdrawableRatio) / 1e6 */\n      swap12\n        /* \"Vault_forge/src/Diamond/ViewFacet.sol\":3311:5679  function getWithdrawableAmount(address user) public view returns (uint256) {... */\n      swap11\n      pop\n      pop\n      pop\n      pop\n      pop\n      pop\n      pop\n      pop\n      pop\n      pop\n      pop\n      jump\t// out\n        /* \"Vault_forge/src/Diamond/ViewFacet.sol\":8712:9002  function isUpdateNeeded() external view returns (bool) {... */\n    tag_98:\n        /* \"Vault_forge/src/Diamond/ViewFacet.sol\":8958:8976  ds.lastDailyUpdate */\n      sload(0x5d15b553c07be9b4a8cf4265c997d4479f22e1843183fa58504508c561fb9d5b)\n        /* \"Vault_forge/src/Diamond/ViewFacet.sol\":8761:8765  bool */\n      0x00\n      swap1\n      mload(0x00)\n      codecopy(0x00, data_70f758848eb781a3bc429614a44de64d398d9721e2ccf81c1cd4ba02fe29f8e0, 0x20)\n      mload(0x00)\n      swap1\n      0x00\n      mstore\n        /* \"Vault_forge/src/Diamond/DiamondStorage.sol\":135:174  keccak256(\"diamond.storage.yield.bull\") */\n      swap1\n        /* \"Vault_forge/src/Diamond/ViewFacet.sol\":8881:8887  1 days */\n      0x015180\n      swap1\n        /* \"Vault_forge/src/Diamond/ViewFacet.sol\":8958:8994  ds.lastDailyUpdate + UPDATE_INTERVAL */\n      tag_311\n      swap1\n        /* \"Vault_forge/src/Diamond/ViewFacet.sol\":8881:8887  1 days */\n      dup3\n      swap1\n        /* \"Vault_forge/src/Diamond/ViewFacet.sol\":8958:8994  ds.lastDailyUpdate + UPDATE_INTERVAL */\n      tag_108\n      jump\t// in\n    tag_311:\n        /* \"Vault_forge/src/Diamond/ViewFacet.sol\":8939:8954  block.timestamp */\n      timestamp\n        /* \"Vault_forge/src/Diamond/ViewFacet.sol\":8939:8994  block.timestamp >= ds.lastDailyUpdate + UPDATE_INTERVAL */\n      lt\n      iszero\n        /* \"Vault_forge/src/Diamond/ViewFacet.sol\":8932:8994  return block.timestamp >= ds.lastDailyUpdate + UPDATE_INTERVAL */\n      swap3\n      pop\n      pop\n      pop\n        /* \"Vault_forge/src/Diamond/ViewFacet.sol\":8712:9002  function isUpdateNeeded() external view returns (bool) {... */\n      swap1\n      jump\t// out\n        /* \"#utility.yul\":196:376   */\n    tag_31:\n        /* \"#utility.yul\":255:261   */\n      0x00\n        /* \"#utility.yul\":308:310   */\n      0x20\n        /* \"#utility.yul\":296:305   */\n      dup3\n        /* \"#utility.yul\":287:294   */\n      dup5\n        /* \"#utility.yul\":283:306   */\n      sub\n        /* \"#utility.yul\":279:311   */\n      slt\n        /* \"#utility.yul\":276:328   */\n      iszero\n      tag_318\n      jumpi\n        /* \"#utility.yul\":324:325   */\n      0x00\n        /* \"#utility.yul\":321:322   */\n      0x00\n        /* \"#utility.yul\":314:326   */\n      revert\n        /* \"#utility.yul\":276:328   */\n    tag_318:\n      pop\n        /* \"#utility.yul\":347:370   */\n      calldataload\n      swap2\n        /* \"#utility.yul\":196:376   */\n      swap1\n      pop\n      jump\t// out\n        /* \"#utility.yul\":381:667   */\n    tag_36:\n        /* \"#utility.yul\":440:446   */\n      0x00\n        /* \"#utility.yul\":493:495   */\n      0x20\n        /* \"#utility.yul\":481:490   */\n      dup3\n        /* \"#utility.yul\":472:479   */\n      dup5\n        /* \"#utility.yul\":468:491   */\n      sub\n        /* \"#utility.yul\":464:496   */\n      slt\n        /* \"#utility.yul\":461:513   */\n      iszero\n      tag_320\n      jumpi\n        /* \"#utility.yul\":509:510   */\n      0x00\n        /* \"#utility.yul\":506:507   */\n      0x00\n        /* \"#utility.yul\":499:511   */\n      revert\n        /* \"#utility.yul\":461:513   */\n    tag_320:\n        /* \"#utility.yul\":535:558   */\n      dup2\n      calldataload\n      sub(shl(0xa0, 0x01), 0x01)\n        /* \"#utility.yul\":587:618   */\n      dup2\n      and\n        /* \"#utility.yul\":577:619   */\n      dup2\n      eq\n        /* \"#utility.yul\":567:637   */\n      tag_198\n      jumpi\n        /* \"#utility.yul\":633:634   */\n      0x00\n        /* \"#utility.yul\":630:631   */\n      0x00\n        /* \"#utility.yul\":623:635   */\n      revert\n        /* \"#utility.yul\":672:1092   */\n    tag_313:\n        /* \"#utility.yul\":725:728   */\n      0x00\n        /* \"#utility.yul\":763:768   */\n      dup2\n        /* \"#utility.yul\":757:769   */\n      mload\n        /* \"#utility.yul\":790:796   */\n      dup1\n        /* \"#utility.yul\":785:788   */\n      dup5\n        /* \"#utility.yul\":778:797   */\n      mstore\n        /* \"#utility.yul\":822:826   */\n      0x20\n        /* \"#utility.yul\":817:820   */\n      dup5\n        /* \"#utility.yul\":813:827   */\n      add\n        /* \"#utility.yul\":806:827   */\n      swap4\n      pop\n        /* \"#utility.yul\":861:865   */\n      0x20\n        /* \"#utility.yul\":854:859   */\n      dup4\n        /* \"#utility.yul\":850:866   */\n      add\n        /* \"#utility.yul\":884:885   */\n      0x00\n        /* \"#utility.yul\":894:1067   */\n    tag_323:\n        /* \"#utility.yul\":908:914   */\n      dup3\n        /* \"#utility.yul\":905:906   */\n      dup2\n        /* \"#utility.yul\":902:915   */\n      lt\n        /* \"#utility.yul\":894:1067   */\n      iszero\n      tag_325\n      jumpi\n        /* \"#utility.yul\":969:982   */\n      dup2\n      mload\n        /* \"#utility.yul\":957:983   */\n      dup7\n      mstore\n        /* \"#utility.yul\":1012:1016   */\n      0x20\n        /* \"#utility.yul\":1003:1017   */\n      swap6\n      dup7\n      add\n      swap6\n        /* \"#utility.yul\":1040:1057   */\n      swap1\n      swap2\n      add\n      swap1\n        /* \"#utility.yul\":930:931   */\n      0x01\n        /* \"#utility.yul\":923:932   */\n      add\n        /* \"#utility.yul\":894:1067   */\n      jump(tag_323)\n    tag_325:\n      pop\n        /* \"#utility.yul\":1083:1086   */\n      swap4\n      swap5\n        /* \"#utility.yul\":672:1092   */\n      swap4\n      pop\n      pop\n      pop\n      pop\n      jump\t// out\n        /* \"#utility.yul\":1097:2300   */\n    tag_39:\n        /* \"#utility.yul\":1504:1507   */\n      0x80\n        /* \"#utility.yul\":1493:1502   */\n      dup2\n        /* \"#utility.yul\":1486:1508   */\n      mstore\n        /* \"#utility.yul\":1467:1471   */\n      0x00\n        /* \"#utility.yul\":1531:1588   */\n      tag_327\n        /* \"#utility.yul\":1583:1586   */\n      0x80\n        /* \"#utility.yul\":1572:1581   */\n      dup4\n        /* \"#utility.yul\":1568:1587   */\n      add\n        /* \"#utility.yul\":1560:1566   */\n      dup8\n        /* \"#utility.yul\":1531:1588   */\n      tag_313\n      jump\t// in\n    tag_327:\n        /* \"#utility.yul\":1636:1645   */\n      dup3\n        /* \"#utility.yul\":1628:1634   */\n      dup2\n        /* \"#utility.yul\":1624:1646   */\n      sub\n        /* \"#utility.yul\":1619:1621   */\n      0x20\n        /* \"#utility.yul\":1608:1617   */\n      dup5\n        /* \"#utility.yul\":1604:1622   */\n      add\n        /* \"#utility.yul\":1597:1647   */\n      mstore\n        /* \"#utility.yul\":1670:1714   */\n      tag_328\n        /* \"#utility.yul\":1707:1713   */\n      dup2\n        /* \"#utility.yul\":1699:1705   */\n      dup8\n        /* \"#utility.yul\":1670:1714   */\n      tag_313\n      jump\t// in\n    tag_328:\n        /* \"#utility.yul\":1656:1714   */\n      swap1\n      pop\n        /* \"#utility.yul\":1762:1771   */\n      dup3\n        /* \"#utility.yul\":1754:1760   */\n      dup2\n        /* \"#utility.yul\":1750:1772   */\n      sub\n        /* \"#utility.yul\":1745:1747   */\n      0x40\n        /* \"#utility.yul\":1734:1743   */\n      dup5\n        /* \"#utility.yul\":1730:1748   */\n      add\n        /* \"#utility.yul\":1723:1773   */\n      mstore\n        /* \"#utility.yul\":1796:1840   */\n      tag_329\n        /* \"#utility.yul\":1833:1839   */\n      dup2\n        /* \"#utility.yul\":1825:1831   */\n      dup7\n        /* \"#utility.yul\":1796:1840   */\n      tag_313\n      jump\t// in\n    tag_329:\n        /* \"#utility.yul\":1876:1898   */\n      dup4\n      dup2\n      sub\n        /* \"#utility.yul\":1871:1873   */\n      0x60\n        /* \"#utility.yul\":1856:1874   */\n      dup6\n      add\n        /* \"#utility.yul\":1849:1899   */\n      mstore\n        /* \"#utility.yul\":1948:1961   */\n      dup5\n      mload\n        /* \"#utility.yul\":1970:1992   */\n      dup1\n      dup3\n      mstore\n        /* \"#utility.yul\":2020:2022   */\n      0x20\n        /* \"#utility.yul\":2046:2061   */\n      dup1\n      dup8\n      add\n      swap4\n      pop\n        /* \"#utility.yul\":2008:2023   */\n      swap1\n      swap2\n      add\n      swap1\n        /* \"#utility.yul\":2079:2080   */\n      0x00\n        /* \"#utility.yul\":2089:2274   */\n    tag_330:\n        /* \"#utility.yul\":2103:2109   */\n      dup2\n        /* \"#utility.yul\":2100:2101   */\n      dup2\n        /* \"#utility.yul\":2097:2110   */\n      lt\n        /* \"#utility.yul\":2089:2274   */\n      iszero\n      tag_332\n      jumpi\n        /* \"#utility.yul\":2178:2191   */\n      dup4\n      mload\n        /* \"#utility.yul\":2171:2192   */\n      iszero\n        /* \"#utility.yul\":2164:2193   */\n      iszero\n        /* \"#utility.yul\":2152:2194   */\n      dup4\n      mstore\n        /* \"#utility.yul\":2223:2225   */\n      0x20\n        /* \"#utility.yul\":2249:2264   */\n      swap4\n      dup5\n      add\n      swap4\n        /* \"#utility.yul\":2214:2226   */\n      swap1\n      swap3\n      add\n      swap2\n        /* \"#utility.yul\":2125:2126   */\n      0x01\n        /* \"#utility.yul\":2118:2127   */\n      add\n        /* \"#utility.yul\":2089:2274   */\n      jump(tag_330)\n    tag_332:\n      pop\n        /* \"#utility.yul\":2291:2294   */\n      swap1\n      swap9\n        /* \"#utility.yul\":1097:2300   */\n      swap8\n      pop\n      pop\n      pop\n      pop\n      pop\n      pop\n      pop\n      pop\n      jump\t// out\n        /* \"#utility.yul\":3607:3868   */\n    tag_89:\n        /* \"#utility.yul\":3786:3788   */\n      0x20\n        /* \"#utility.yul\":3775:3784   */\n      dup2\n        /* \"#utility.yul\":3768:3789   */\n      mstore\n        /* \"#utility.yul\":3749:3753   */\n      0x00\n        /* \"#utility.yul\":3806:3862   */\n      tag_198\n        /* \"#utility.yul\":3858:3860   */\n      0x20\n        /* \"#utility.yul\":3847:3856   */\n      dup4\n        /* \"#utility.yul\":3843:3861   */\n      add\n        /* \"#utility.yul\":3835:3841   */\n      dup5\n        /* \"#utility.yul\":3806:3862   */\n      tag_313\n      jump\t// in\n        /* \"#utility.yul\":4065:4192   */\n    tag_314:\n        /* \"#utility.yul\":4126:4136   */\n      0x4e487b71\n        /* \"#utility.yul\":4121:4124   */\n      0xe0\n        /* \"#utility.yul\":4117:4137   */\n      shl\n        /* \"#utility.yul\":4114:4115   */\n      0x00\n        /* \"#utility.yul\":4107:4138   */\n      mstore\n        /* \"#utility.yul\":4157:4161   */\n      0x11\n        /* \"#utility.yul\":4154:4155   */\n      0x04\n        /* \"#utility.yul\":4147:4162   */\n      mstore\n        /* \"#utility.yul\":4181:4185   */\n      0x24\n        /* \"#utility.yul\":4178:4179   */\n      0x00\n        /* \"#utility.yul\":4171:4186   */\n      revert\n        /* \"#utility.yul\":4197:4322   */\n    tag_108:\n        /* \"#utility.yul\":4262:4271   */\n      dup1\n      dup3\n      add\n        /* \"#utility.yul\":4283:4293   */\n      dup1\n      dup3\n      gt\n        /* \"#utility.yul\":4280:4316   */\n      iszero\n      tag_341\n      jumpi\n        /* \"#utility.yul\":4296:4314   */\n      tag_341\n      tag_314\n      jump\t// in\n    tag_341:\n        /* \"#utility.yul\":4197:4322   */\n      swap3\n      swap2\n      pop\n      pop\n      jump\t// out\n        /* \"#utility.yul\":4327:4495   */\n    tag_110:\n        /* \"#utility.yul\":4400:4409   */\n      dup1\n      dup3\n      mul\n        /* \"#utility.yul\":4431:4440   */\n      dup2\n      iszero\n        /* \"#utility.yul\":4448:4463   */\n      dup3\n      dup3\n      div\n        /* \"#utility.yul\":4442:4464   */\n      dup5\n      eq\n        /* \"#utility.yul\":4428:4465   */\n      or\n        /* \"#utility.yul\":4418:4489   */\n      tag_341\n      jumpi\n        /* \"#utility.yul\":4469:4487   */\n      tag_341\n      tag_314\n      jump\t// in\n        /* \"#utility.yul\":4500:4717   */\n    tag_112:\n        /* \"#utility.yul\":4540:4541   */\n      0x00\n        /* \"#utility.yul\":4566:4567   */\n      dup3\n        /* \"#utility.yul\":4556:4688   */\n      tag_346\n      jumpi\n        /* \"#utility.yul\":4610:4620   */\n      0x4e487b71\n        /* \"#utility.yul\":4605:4608   */\n      0xe0\n        /* \"#utility.yul\":4601:4621   */\n      shl\n        /* \"#utility.yul\":4598:4599   */\n      0x00\n        /* \"#utility.yul\":4591:4622   */\n      mstore\n        /* \"#utility.yul\":4645:4649   */\n      0x12\n        /* \"#utility.yul\":4642:4643   */\n      0x04\n        /* \"#utility.yul\":4635:4650   */\n      mstore\n        /* \"#utility.yul\":4673:4677   */\n      0x24\n        /* \"#utility.yul\":4670:4671   */\n      0x00\n        /* \"#utility.yul\":4663:4678   */\n      revert\n        /* \"#utility.yul\":4556:4688   */\n    tag_346:\n      pop\n        /* \"#utility.yul\":4702:4711   */\n      div\n      swap1\n        /* \"#utility.yul\":4500:4717   */\n      jump\t// out\n        /* \"#utility.yul\":4722:4849   */\n    tag_117:\n        /* \"#utility.yul\":4783:4793   */\n      0x4e487b71\n        /* \"#utility.yul\":4778:4781   */\n      0xe0\n        /* \"#utility.yul\":4774:4794   */\n      shl\n        /* \"#utility.yul\":4771:4772   */\n      0x00\n        /* \"#utility.yul\":4764:4795   */\n      mstore\n        /* \"#utility.yul\":4814:4818   */\n      0x41\n        /* \"#utility.yul\":4811:4812   */\n      0x04\n        /* \"#utility.yul\":4804:4819   */\n      mstore\n        /* \"#utility.yul\":4838:4842   */\n      0x24\n        /* \"#utility.yul\":4835:4836   */\n      0x00\n        /* \"#utility.yul\":4828:4843   */\n      revert\n        /* \"#utility.yul\":4854:4981   */\n    tag_133:\n        /* \"#utility.yul\":4915:4925   */\n      0x4e487b71\n        /* \"#utility.yul\":4910:4913   */\n      0xe0\n        /* \"#utility.yul\":4906:4926   */\n      shl\n        /* \"#utility.yul\":4903:4904   */\n      0x00\n        /* \"#utility.yul\":4896:4927   */\n      mstore\n        /* \"#utility.yul\":4946:4950   */\n      0x32\n        /* \"#utility.yul\":4943:4944   */\n      0x04\n        /* \"#utility.yul\":4936:4951   */\n      mstore\n        /* \"#utility.yul\":4970:4974   */\n      0x24\n        /* \"#utility.yul\":4967:4968   */\n      0x00\n        /* \"#utility.yul\":4960:4975   */\n      revert\n        /* \"#utility.yul\":4986:5263   */\n    tag_174:\n        /* \"#utility.yul\":5053:5059   */\n      0x00\n        /* \"#utility.yul\":5106:5108   */\n      0x20\n        /* \"#utility.yul\":5094:5103   */\n      dup3\n        /* \"#utility.yul\":5085:5092   */\n      dup5\n        /* \"#utility.yul\":5081:5104   */\n      sub\n        /* \"#utility.yul\":5077:5109   */\n      slt\n        /* \"#utility.yul\":5074:5126   */\n      iszero\n      tag_350\n      jumpi\n        /* \"#utility.yul\":5122:5123   */\n      0x00\n        /* \"#utility.yul\":5119:5120   */\n      0x00\n        /* \"#utility.yul\":5112:5124   */\n      revert\n        /* \"#utility.yul\":5074:5126   */\n    tag_350:\n        /* \"#utility.yul\":5154:5163   */\n      dup2\n        /* \"#utility.yul\":5148:5164   */\n      mload\n        /* \"#utility.yul\":5207:5212   */\n      dup1\n        /* \"#utility.yul\":5200:5213   */\n      iszero\n        /* \"#utility.yul\":5193:5214   */\n      iszero\n        /* \"#utility.yul\":5186:5191   */\n      dup2\n        /* \"#utility.yul\":5183:5215   */\n      eq\n        /* \"#utility.yul\":5173:5233   */\n      tag_198\n      jumpi\n        /* \"#utility.yul\":5229:5230   */\n      0x00\n        /* \"#utility.yul\":5226:5227   */\n      0x00\n        /* \"#utility.yul\":5219:5231   */\n      revert\n        /* \"#utility.yul\":5268:5396   */\n    tag_181:\n        /* \"#utility.yul\":5335:5344   */\n      dup2\n      dup2\n      sub\n        /* \"#utility.yul\":5356:5367   */\n      dup2\n      dup2\n      gt\n        /* \"#utility.yul\":5353:5390   */\n      iszero\n      tag_341\n      jumpi\n        /* \"#utility.yul\":5370:5388   */\n      tag_341\n      tag_314\n      jump\t// in\n        /* \"#utility.yul\":5401:5536   */\n    tag_211:\n        /* \"#utility.yul\":5440:5443   */\n      0x00\n        /* \"#utility.yul\":5461:5478   */\n      0x01\n      dup3\n      add\n        /* \"#utility.yul\":5458:5501   */\n      tag_357\n      jumpi\n        /* \"#utility.yul\":5481:5499   */\n      tag_357\n      tag_314\n      jump\t// in\n    tag_357:\n      pop\n        /* \"#utility.yul\":5528:5529   */\n      0x01\n        /* \"#utility.yul\":5517:5530   */\n      add\n      swap1\n        /* \"#utility.yul\":5401:5536   */\n      jump\t// out\n    stop\n    data_70f758848eb781a3bc429614a44de64d398d9721e2ccf81c1cd4ba02fe29f8e0 5d15b553c07be9b4a8cf4265c997d4479f22e1843183fa58504508c561fb9d50\n\n    auxdata: 0xa264697066735822122015d54d0420fde64b871b81b6dbf2d2fd196d0076c70861517f90b1fc987aa9e864736f6c634300081d0033\n}\n",
				"bytecode": {
					"linkReferences": {},
					"object": "6080604052348015600e575f5ffd5b506112708061001c5f395ff3fe608060405234801561000f575f5ffd5b506004361061011c575f3560e01c8063929ec537116100a9578063d1260edd1161006e578063d1260edd14610415578063dbed1e881461045c578063dee7db901461047c578063f677717514610484578063f85503b914610497575f5ffd5b8063929ec5371461036e578063981ef661146103815780639bd18fb014610394578063be5e8d11146103bb578063c6e6f59214610402575f5ffd5b80633ba0b9a9116100ef5780633ba0b9a9146101b35780635df45a37146101bb5780636bd50cef146101e257806370a08231146103295780637491687e1461033c575f5ffd5b806301e1d1141461012057806307a2d13a1461015657806335a058f5146101695780633a98ef391461018c575b5f5ffd5b7f5d15b553c07be9b4a8cf4265c997d4479f22e1843183fa58504508c561fb9d51545b6040519081526020015b60405180910390f35b61014361016436600461103c565b6104af565b61017c610177366004611053565b610528565b60405161014d94939291906110b3565b7f5d15b553c07be9b4a8cf4265c997d4479f22e1843183fa58504508c561fb9d5254610143565b6101436107b9565b7f5d15b553c07be9b4a8cf4265c997d4479f22e1843183fa58504508c561fb9d5d54610143565b5f51602061121b5f395f51905f52547f5d15b553c07be9b4a8cf4265c997d4479f22e1843183fa58504508c561fb9d59547f5d15b553c07be9b4a8cf4265c997d4479f22e1843183fa58504508c561fb9d54547f5d15b553c07be9b4a8cf4265c997d4479f22e1843183fa58504508c561fb9d56547f5d15b553c07be9b4a8cf4265c997d4479f22e1843183fa58504508c561fb9d57547f5d15b553c07be9b4a8cf4265c997d4479f22e1843183fa58504508c561fb9d58547f5d15b553c07be9b4a8cf4265c997d4479f22e1843183fa58504508c561fb9d5554604080516001600160a01b03988916815288881660208201529588169086015292861660608501529085166080840152841660a08301529290921660c083015260ff600160a01b82048116151560e0840152600160a81b9091041615156101008201526101200161014d565b610143610337366004611053565b610837565b61034f61034a366004611053565b610870565b604080519315158452602084019290925215159082015260600161014d565b61014361037c366004611053565b610966565b61014361038f366004611053565b6109a2565b7f5d15b553c07be9b4a8cf4265c997d4479f22e1843183fa58504508c561fb9d5354610143565b6101436103c9366004611053565b6001600160a01b03165f9081527f5d15b553c07be9b4a8cf4265c997d4479f22e1843183fa58504508c561fb9d65602052604090205490565b61014361041036600461103c565b6109e1565b610143610423366004611053565b6001600160a01b03165f9081527f5d15b553c07be9b4a8cf4265c997d4479f22e1843183fa58504508c561fb9d60602052604090205490565b61046f61046a366004611053565b610a62565b60405161014d9190611133565b610143610ccb565b610143610492366004611053565b610da6565b61049f610fef565b604051901515815260200161014d565b7f5d15b553c07be9b4a8cf4265c997d4479f22e1843183fa58504508c561fb9d52545f905f51602061121b5f395f51905f529082036104ef575090919050565b5f816003015482600101546105049190611159565b60028301549091506105168286611172565b6105209190611189565b949350505050565b6001600160a01b0381165f9081527f5d15b553c07be9b4a8cf4265c997d4479f22e1843183fa58504508c561fb9d6d6020526040902080546060918291829182915f51602061121b5f395f51905f5291908067ffffffffffffffff811115610592576105926111a8565b6040519080825280602002602001820160405280156105bb578160200160208202803683370190505b5096508067ffffffffffffffff8111156105d7576105d76111a8565b604051908082528060200260200182016040528015610600578160200160208202803683370190505b5095508067ffffffffffffffff81111561061c5761061c6111a8565b604051908082528060200260200182016040528015610645578160200160208202803683370190505b5094508067ffffffffffffffff811115610661576106616111a8565b60405190808252806020026020018201604052801561068a578160200160208202803683370190505b5093505f5b818110156107ae578281815481106106a9576106a96111bc565b905f5260205f2090600402015f01548882815181106106ca576106ca6111bc565b6020026020010181815250508281815481106106e8576106e86111bc565b905f5260205f2090600402016001015487828151811061070a5761070a6111bc565b602002602001018181525050828181548110610728576107286111bc565b905f5260205f2090600402016002015486828151811061074a5761074a6111bc565b602002602001018181525050828181548110610768576107686111bc565b905f5260205f2090600402016003015f9054906101000a900460ff16858281518110610796576107966111bc565b9115156020928302919091019091015260010161068f565b505050509193509193565b7f5d15b553c07be9b4a8cf4265c997d4479f22e1843183fa58504508c561fb9d52545f905f51602061121b5f395f51905f529082036107fc57620f424091505090565b5f816003015482600101546108119190611159565b600283015490915061082682620f4240611172565b6108309190611189565b9250505090565b6001600160a01b03165f9081527f5d15b553c07be9b4a8cf4265c997d4479f22e1843183fa58504508c561fb9d5f602052604090205490565b6001600160a01b0381165f9081527f5d15b553c07be9b4a8cf4265c997d4479f22e1843183fa58504508c561fb9d6660209081526040808320547f5d15b553c07be9b4a8cf4265c997d4479f22e1843183fa58504508c561fb9d6790925282205460ff909116915f51602061121b5f395f51905f52826108f0575f61095d565b60068101546040516311e040dd60e31b8152600481018590526001600160a01b0390911690638f0206e890602401602060405180830381865afa158015610939573d5f5f3e3d5ffd5b505050506040513d601f19601f8201168201806040525081019061095d91906111d0565b93959294505050565b5f5f61097183610da6565b90505f61098061016485610837565b9050808210156109995761099482826111ef565b610520565b5f949350505050565b5f5f6109ad83610a62565b905080515f036109bf57505f92915050565b805f815181106109d1576109d16111bc565b6020026020010151915050919050565b7f5d15b553c07be9b4a8cf4265c997d4479f22e1843183fa58504508c561fb9d51545f905f51602061121b5f395f51905f52901580610a2257506002810154155b15610a2e575090919050565b80600301548160010154610a429190611159565b6002820154610a519085611172565b610a5b9190611189565b9392505050565b6001600160a01b0381165f9081527f5d15b553c07be9b4a8cf4265c997d4479f22e1843183fa58504508c561fb9d6d602052604081206060915f51602061121b5f395f51905f529190805b8254811015610af857828181548110610ac857610ac86111bc565b5f91825260209091206003600490920201015460ff16610af05781610aec81611202565b9250505b600101610aad565b505f8167ffffffffffffffff811115610b1357610b136111a8565b604051908082528060200260200182016040528015610b3c578160200160208202803683370190505b5090505f805b8454811015610bda57848181548110610b5d57610b5d6111bc565b5f91825260209091206003600490920201015460ff16610bd25762278d00858281548110610b8d57610b8d6111bc565b905f5260205f20906004020160010154610ba79190611159565b838381518110610bb957610bb96111bc565b602090810291909101015281610bce81611202565b9250505b600101610b42565b505f5b8251811015610cbf575f610bf2826001611159565b90505b8351811015610cb657838281518110610c1057610c106111bc565b6020026020010151848281518110610c2a57610c2a6111bc565b60200260200101511015610cae575f848381518110610c4b57610c4b6111bc565b60200260200101519050848281518110610c6757610c676111bc565b6020026020010151858481518110610c8157610c816111bc565b60200260200101818152505080858381518110610ca057610ca06111bc565b602002602001018181525050505b600101610bf5565b50600101610bdd565b50909695505050505050565b5f5f51602061121b5f395f51905f5281805b600e830154811015610d9f575f83600e018281548110610cff57610cff6111bc565b5f9182526020808320909101546001600160a01b0316808352601d870190915260408220909250905b8154811015610d9457818181548110610d4357610d436111bc565b5f91825260209091206003600490920201015460ff16610d8c57818181548110610d6f57610d6f6111bc565b905f5260205f2090600402015f015485610d899190611159565b94505b600101610d28565b505050600101610cdd565b5092915050565b6001600160a01b0381165f9081527f5d15b553c07be9b4a8cf4265c997d4479f22e1843183fa58504508c561fb9d5f60205260408120545f51602061121b5f395f51905f52908290610df7906104af565b9050805f03610e0957505f9392505050565b6001600160a01b0384165f908152601d8301602052604081208054909103610e83576001600160a01b0385165f908152601184016020526040812054610e539062278d0090611159565b4210905080610e625782610e79565b6064610e6f603c85611172565b610e799190611189565b9695505050505050565b5f80805b8354811015610f5c57838181548110610ea257610ea26111bc565b5f91825260209091206003600490920201015460ff16610f545762278d00848281548110610ed257610ed26111bc565b905f5260205f20906004020160010154610eec9190611159565b4210610f2557838181548110610f0457610f046111bc565b905f5260205f2090600402015f015483610f1e9190611159565b9250610f54565b838181548110610f3757610f376111bc565b905f5260205f2090600402015f015482610f519190611159565b91505b600101610e87565b505f610f688284611159565b9050801580610f75575081155b15610f865750929695505050505050565b5f6064610f94603c85611172565b610f9e9190611189565b90505f610fab8286611159565b90505f83610fbc83620f4240611172565b610fc69190611189565b9050620f4240610fd6828a611172565b610fe09190611189565b9b9a5050505050505050505050565b7f5d15b553c07be9b4a8cf4265c997d4479f22e1843183fa58504508c561fb9d5b545f905f51602061121b5f395f51905f52906201518090611032908290611159565b4210159250505090565b5f6020828403121561104c575f5ffd5b5035919050565b5f60208284031215611063575f5ffd5b81356001600160a01b0381168114610a5b575f5ffd5b5f8151808452602084019350602083015f5b828110156110a957815186526020958601959091019060010161108b565b5093949350505050565b608081525f6110c56080830187611079565b82810360208401526110d78187611079565b905082810360408401526110eb8186611079565b8381036060850152845180825260208087019350909101905f5b818110156111255783511515835260209384019390920191600101611105565b509098975050505050505050565b602081525f610a5b6020830184611079565b634e487b7160e01b5f52601160045260245ffd5b8082018082111561116c5761116c611145565b92915050565b808202811582820484141761116c5761116c611145565b5f826111a357634e487b7160e01b5f52601260045260245ffd5b500490565b634e487b7160e01b5f52604160045260245ffd5b634e487b7160e01b5f52603260045260245ffd5b5f602082840312156111e0575f5ffd5b81518015158114610a5b575f5ffd5b8181038181111561116c5761116c611145565b5f6001820161121357611213611145565b506001019056fe5d15b553c07be9b4a8cf4265c997d4479f22e1843183fa58504508c561fb9d50a264697066735822122015d54d0420fde64b871b81b6dbf2d2fd196d0076c70861517f90b1fc987aa9e864736f6c634300081d0033",
					"opcodes": "PUSH1 0x80 PUSH1 0x40 MSTORE CALLVALUE DUP1 ISZERO PUSH1 0xE JUMPI PUSH0 PUSH0 REVERT JUMPDEST POP PUSH2 0x1270 DUP1 PUSH2 0x1C PUSH0 CODECOPY PUSH0 RETURN INVALID PUSH1 0x80 PUSH1 0x40 MSTORE CALLVALUE DUP1 ISZERO PUSH2 0xF JUMPI PUSH0 PUSH0 REVERT JUMPDEST POP PUSH1 0x4 CALLDATASIZE LT PUSH2 0x11C JUMPI PUSH0 CALLDATALOAD PUSH1 0xE0 SHR DUP1 PUSH4 0x929EC537 GT PUSH2 0xA9 JUMPI DUP1 PUSH4 0xD1260EDD GT PUSH2 0x6E JUMPI DUP1 PUSH4 0xD1260EDD EQ PUSH2 0x415 JUMPI DUP1 PUSH4 0xDBED1E88 EQ PUSH2 0x45C JUMPI DUP1 PUSH4 0xDEE7DB90 EQ PUSH2 0x47C JUMPI DUP1 PUSH4 0xF6777175 EQ PUSH2 0x484 JUMPI DUP1 PUSH4 0xF85503B9 EQ PUSH2 0x497 JUMPI PUSH0 PUSH0 REVERT JUMPDEST DUP1 PUSH4 0x929EC537 EQ PUSH2 0x36E JUMPI DUP1 PUSH4 0x981EF661 EQ PUSH2 0x381 JUMPI DUP1 PUSH4 0x9BD18FB0 EQ PUSH2 0x394 JUMPI DUP1 PUSH4 0xBE5E8D11 EQ PUSH2 0x3BB JUMPI DUP1 PUSH4 0xC6E6F592 EQ PUSH2 0x402 JUMPI PUSH0 PUSH0 REVERT JUMPDEST DUP1 PUSH4 0x3BA0B9A9 GT PUSH2 0xEF JUMPI DUP1 PUSH4 0x3BA0B9A9 EQ PUSH2 0x1B3 JUMPI DUP1 PUSH4 0x5DF45A37 EQ PUSH2 0x1BB JUMPI DUP1 PUSH4 0x6BD50CEF EQ PUSH2 0x1E2 JUMPI DUP1 PUSH4 0x70A08231 EQ PUSH2 0x329 JUMPI DUP1 PUSH4 0x7491687E EQ PUSH2 0x33C JUMPI PUSH0 PUSH0 REVERT JUMPDEST DUP1 PUSH4 0x1E1D114 EQ PUSH2 0x120 JUMPI DUP1 PUSH4 0x7A2D13A EQ PUSH2 0x156 JUMPI DUP1 PUSH4 0x35A058F5 EQ PUSH2 0x169 JUMPI DUP1 PUSH4 0x3A98EF39 EQ PUSH2 0x18C JUMPI JUMPDEST PUSH0 PUSH0 REVERT JUMPDEST PUSH32 0x5D15B553C07BE9B4A8CF4265C997D4479F22E1843183FA58504508C561FB9D51 SLOAD JUMPDEST PUSH1 0x40 MLOAD SWAP1 DUP2 MSTORE PUSH1 0x20 ADD JUMPDEST PUSH1 0x40 MLOAD DUP1 SWAP2 SUB SWAP1 RETURN JUMPDEST PUSH2 0x143 PUSH2 0x164 CALLDATASIZE PUSH1 0x4 PUSH2 0x103C JUMP JUMPDEST PUSH2 0x4AF JUMP JUMPDEST PUSH2 0x17C PUSH2 0x177 CALLDATASIZE PUSH1 0x4 PUSH2 0x1053 JUMP JUMPDEST PUSH2 0x528 JUMP JUMPDEST PUSH1 0x40 MLOAD PUSH2 0x14D SWAP5 SWAP4 SWAP3 SWAP2 SWAP1 PUSH2 0x10B3 JUMP JUMPDEST PUSH32 0x5D15B553C07BE9B4A8CF4265C997D4479F22E1843183FA58504508C561FB9D52 SLOAD PUSH2 0x143 JUMP JUMPDEST PUSH2 0x143 PUSH2 0x7B9 JUMP JUMPDEST PUSH32 0x5D15B553C07BE9B4A8CF4265C997D4479F22E1843183FA58504508C561FB9D5D SLOAD PUSH2 0x143 JUMP JUMPDEST PUSH0 MLOAD PUSH1 0x20 PUSH2 0x121B PUSH0 CODECOPY PUSH0 MLOAD SWAP1 PUSH0 MSTORE SLOAD PUSH32 0x5D15B553C07BE9B4A8CF4265C997D4479F22E1843183FA58504508C561FB9D59 SLOAD PUSH32 0x5D15B553C07BE9B4A8CF4265C997D4479F22E1843183FA58504508C561FB9D54 SLOAD PUSH32 0x5D15B553C07BE9B4A8CF4265C997D4479F22E1843183FA58504508C561FB9D56 SLOAD PUSH32 0x5D15B553C07BE9B4A8CF4265C997D4479F22E1843183FA58504508C561FB9D57 SLOAD PUSH32 0x5D15B553C07BE9B4A8CF4265C997D4479F22E1843183FA58504508C561FB9D58 SLOAD PUSH32 0x5D15B553C07BE9B4A8CF4265C997D4479F22E1843183FA58504508C561FB9D55 SLOAD PUSH1 0x40 DUP1 MLOAD PUSH1 0x1 PUSH1 0x1 PUSH1 0xA0 SHL SUB SWAP9 DUP10 AND DUP2 MSTORE DUP9 DUP9 AND PUSH1 0x20 DUP3 ADD MSTORE SWAP6 DUP9 AND SWAP1 DUP7 ADD MSTORE SWAP3 DUP7 AND PUSH1 0x60 DUP6 ADD MSTORE SWAP1 DUP6 AND PUSH1 0x80 DUP5 ADD MSTORE DUP5 AND PUSH1 0xA0 DUP4 ADD MSTORE SWAP3 SWAP1 SWAP3 AND PUSH1 0xC0 DUP4 ADD MSTORE PUSH1 0xFF PUSH1 0x1 PUSH1 0xA0 SHL DUP3 DIV DUP2 AND ISZERO ISZERO PUSH1 0xE0 DUP5 ADD MSTORE PUSH1 0x1 PUSH1 0xA8 SHL SWAP1 SWAP2 DIV AND ISZERO ISZERO PUSH2 0x100 DUP3 ADD MSTORE PUSH2 0x120 ADD PUSH2 0x14D JUMP JUMPDEST PUSH2 0x143 PUSH2 0x337 CALLDATASIZE PUSH1 0x4 PUSH2 0x1053 JUMP JUMPDEST PUSH2 0x837 JUMP JUMPDEST PUSH2 0x34F PUSH2 0x34A CALLDATASIZE PUSH1 0x4 PUSH2 0x1053 JUMP JUMPDEST PUSH2 0x870 JUMP JUMPDEST PUSH1 0x40 DUP1 MLOAD SWAP4 ISZERO ISZERO DUP5 MSTORE PUSH1 0x20 DUP5 ADD SWAP3 SWAP1 SWAP3 MSTORE ISZERO ISZERO SWAP1 DUP3 ADD MSTORE PUSH1 0x60 ADD PUSH2 0x14D JUMP JUMPDEST PUSH2 0x143 PUSH2 0x37C CALLDATASIZE PUSH1 0x4 PUSH2 0x1053 JUMP JUMPDEST PUSH2 0x966 JUMP JUMPDEST PUSH2 0x143 PUSH2 0x38F CALLDATASIZE PUSH1 0x4 PUSH2 0x1053 JUMP JUMPDEST PUSH2 0x9A2 JUMP JUMPDEST PUSH32 0x5D15B553C07BE9B4A8CF4265C997D4479F22E1843183FA58504508C561FB9D53 SLOAD PUSH2 0x143 JUMP JUMPDEST PUSH2 0x143 PUSH2 0x3C9 CALLDATASIZE PUSH1 0x4 PUSH2 0x1053 JUMP JUMPDEST PUSH1 0x1 PUSH1 0x1 PUSH1 0xA0 SHL SUB AND PUSH0 SWAP1 DUP2 MSTORE PUSH32 0x5D15B553C07BE9B4A8CF4265C997D4479F22E1843183FA58504508C561FB9D65 PUSH1 0x20 MSTORE PUSH1 0x40 SWAP1 KECCAK256 SLOAD SWAP1 JUMP JUMPDEST PUSH2 0x143 PUSH2 0x410 CALLDATASIZE PUSH1 0x4 PUSH2 0x103C JUMP JUMPDEST PUSH2 0x9E1 JUMP JUMPDEST PUSH2 0x143 PUSH2 0x423 CALLDATASIZE PUSH1 0x4 PUSH2 0x1053 JUMP JUMPDEST PUSH1 0x1 PUSH1 0x1 PUSH1 0xA0 SHL SUB AND PUSH0 SWAP1 DUP2 MSTORE PUSH32 0x5D15B553C07BE9B4A8CF4265C997D4479F22E1843183FA58504508C561FB9D60 PUSH1 0x20 MSTORE PUSH1 0x40 SWAP1 KECCAK256 SLOAD SWAP1 JUMP JUMPDEST PUSH2 0x46F PUSH2 0x46A CALLDATASIZE PUSH1 0x4 PUSH2 0x1053 JUMP JUMPDEST PUSH2 0xA62 JUMP JUMPDEST PUSH1 0x40 MLOAD PUSH2 0x14D SWAP2 SWAP1 PUSH2 0x1133 JUMP JUMPDEST PUSH2 0x143 PUSH2 0xCCB JUMP JUMPDEST PUSH2 0x143 PUSH2 0x492 CALLDATASIZE PUSH1 0x4 PUSH2 0x1053 JUMP JUMPDEST PUSH2 0xDA6 JUMP JUMPDEST PUSH2 0x49F PUSH2 0xFEF JUMP JUMPDEST PUSH1 0x40 MLOAD SWAP1 ISZERO ISZERO DUP2 MSTORE PUSH1 0x20 ADD PUSH2 0x14D JUMP JUMPDEST PUSH32 0x5D15B553C07BE9B4A8CF4265C997D4479F22E1843183FA58504508C561FB9D52 SLOAD PUSH0 SWAP1 PUSH0 MLOAD PUSH1 0x20 PUSH2 0x121B PUSH0 CODECOPY PUSH0 MLOAD SWAP1 PUSH0 MSTORE SWAP1 DUP3 SUB PUSH2 0x4EF JUMPI POP SWAP1 SWAP2 SWAP1 POP JUMP JUMPDEST PUSH0 DUP2 PUSH1 0x3 ADD SLOAD DUP3 PUSH1 0x1 ADD SLOAD PUSH2 0x504 SWAP2 SWAP1 PUSH2 0x1159 JUMP JUMPDEST PUSH1 0x2 DUP4 ADD SLOAD SWAP1 SWAP2 POP PUSH2 0x516 DUP3 DUP7 PUSH2 0x1172 JUMP JUMPDEST PUSH2 0x520 SWAP2 SWAP1 PUSH2 0x1189 JUMP JUMPDEST SWAP5 SWAP4 POP POP POP POP JUMP JUMPDEST PUSH1 0x1 PUSH1 0x1 PUSH1 0xA0 SHL SUB DUP2 AND PUSH0 SWAP1 DUP2 MSTORE PUSH32 0x5D15B553C07BE9B4A8CF4265C997D4479F22E1843183FA58504508C561FB9D6D PUSH1 0x20 MSTORE PUSH1 0x40 SWAP1 KECCAK256 DUP1 SLOAD PUSH1 0x60 SWAP2 DUP3 SWAP2 DUP3 SWAP2 DUP3 SWAP2 PUSH0 MLOAD PUSH1 0x20 PUSH2 0x121B PUSH0 CODECOPY PUSH0 MLOAD SWAP1 PUSH0 MSTORE SWAP2 SWAP1 DUP1 PUSH8 0xFFFFFFFFFFFFFFFF DUP2 GT ISZERO PUSH2 0x592 JUMPI PUSH2 0x592 PUSH2 0x11A8 JUMP JUMPDEST PUSH1 0x40 MLOAD SWAP1 DUP1 DUP3 MSTORE DUP1 PUSH1 0x20 MUL PUSH1 0x20 ADD DUP3 ADD PUSH1 0x40 MSTORE DUP1 ISZERO PUSH2 0x5BB JUMPI DUP2 PUSH1 0x20 ADD PUSH1 0x20 DUP3 MUL DUP1 CALLDATASIZE DUP4 CALLDATACOPY ADD SWAP1 POP JUMPDEST POP SWAP7 POP DUP1 PUSH8 0xFFFFFFFFFFFFFFFF DUP2 GT ISZERO PUSH2 0x5D7 JUMPI PUSH2 0x5D7 PUSH2 0x11A8 JUMP JUMPDEST PUSH1 0x40 MLOAD SWAP1 DUP1 DUP3 MSTORE DUP1 PUSH1 0x20 MUL PUSH1 0x20 ADD DUP3 ADD PUSH1 0x40 MSTORE DUP1 ISZERO PUSH2 0x600 JUMPI DUP2 PUSH1 0x20 ADD PUSH1 0x20 DUP3 MUL DUP1 CALLDATASIZE DUP4 CALLDATACOPY ADD SWAP1 POP JUMPDEST POP SWAP6 POP DUP1 PUSH8 0xFFFFFFFFFFFFFFFF DUP2 GT ISZERO PUSH2 0x61C JUMPI PUSH2 0x61C PUSH2 0x11A8 JUMP JUMPDEST PUSH1 0x40 MLOAD SWAP1 DUP1 DUP3 MSTORE DUP1 PUSH1 0x20 MUL PUSH1 0x20 ADD DUP3 ADD PUSH1 0x40 MSTORE DUP1 ISZERO PUSH2 0x645 JUMPI DUP2 PUSH1 0x20 ADD PUSH1 0x20 DUP3 MUL DUP1 CALLDATASIZE DUP4 CALLDATACOPY ADD SWAP1 POP JUMPDEST POP SWAP5 POP DUP1 PUSH8 0xFFFFFFFFFFFFFFFF DUP2 GT ISZERO PUSH2 0x661 JUMPI PUSH2 0x661 PUSH2 0x11A8 JUMP JUMPDEST PUSH1 0x40 MLOAD SWAP1 DUP1 DUP3 MSTORE DUP1 PUSH1 0x20 MUL PUSH1 0x20 ADD DUP3 ADD PUSH1 0x40 MSTORE DUP1 ISZERO PUSH2 0x68A JUMPI DUP2 PUSH1 0x20 ADD PUSH1 0x20 DUP3 MUL DUP1 CALLDATASIZE DUP4 CALLDATACOPY ADD SWAP1 POP JUMPDEST POP SWAP4 POP PUSH0 JUMPDEST DUP2 DUP2 LT ISZERO PUSH2 0x7AE JUMPI DUP3 DUP2 DUP2 SLOAD DUP2 LT PUSH2 0x6A9 JUMPI PUSH2 0x6A9 PUSH2 0x11BC JUMP JUMPDEST SWAP1 PUSH0 MSTORE PUSH1 0x20 PUSH0 KECCAK256 SWAP1 PUSH1 0x4 MUL ADD PUSH0 ADD SLOAD DUP9 DUP3 DUP2 MLOAD DUP2 LT PUSH2 0x6CA JUMPI PUSH2 0x6CA PUSH2 0x11BC JUMP JUMPDEST PUSH1 0x20 MUL PUSH1 0x20 ADD ADD DUP2 DUP2 MSTORE POP POP DUP3 DUP2 DUP2 SLOAD DUP2 LT PUSH2 0x6E8 JUMPI PUSH2 0x6E8 PUSH2 0x11BC JUMP JUMPDEST SWAP1 PUSH0 MSTORE PUSH1 0x20 PUSH0 KECCAK256 SWAP1 PUSH1 0x4 MUL ADD PUSH1 0x1 ADD SLOAD DUP8 DUP3 DUP2 MLOAD DUP2 LT PUSH2 0x70A JUMPI PUSH2 0x70A PUSH2 0x11BC JUMP JUMPDEST PUSH1 0x20 MUL PUSH1 0x20 ADD ADD DUP2 DUP2 MSTORE POP POP DUP3 DUP2 DUP2 SLOAD DUP2 LT PUSH2 0x728 JUMPI PUSH2 0x728 PUSH2 0x11BC JUMP JUMPDEST SWAP1 PUSH0 MSTORE PUSH1 0x20 PUSH0 KECCAK256 SWAP1 PUSH1 0x4 MUL ADD PUSH1 0x2 ADD SLOAD DUP7 DUP3 DUP2 MLOAD DUP2 LT PUSH2 0x74A JUMPI PUSH2 0x74A PUSH2 0x11BC JUMP JUMPDEST PUSH1 0x20 MUL PUSH1 0x20 ADD ADD DUP2 DUP2 MSTORE POP POP DUP3 DUP2 DUP2 SLOAD DUP2 LT PUSH2 0x768 JUMPI PUSH2 0x768 PUSH2 0x11BC JUMP JUMPDEST SWAP1 PUSH0 MSTORE PUSH1 0x20 PUSH0 KECCAK256 SWAP1 PUSH1 0x4 MUL ADD PUSH1 0x3 ADD PUSH0 SWAP1 SLOAD SWAP1 PUSH2 0x100 EXP SWAP1 DIV PUSH1 0xFF AND DUP6 DUP3 DUP2 MLOAD DUP2 LT PUSH2 0x796 JUMPI PUSH2 0x796 PUSH2 0x11BC JUMP JUMPDEST SWAP2 ISZERO ISZERO PUSH1 0x20 SWAP3 DUP4 MUL SWAP2 SWAP1 SWAP2 ADD SWAP1 SWAP2 ADD MSTORE PUSH1 0x1 ADD PUSH2 0x68F JUMP JUMPDEST POP POP POP POP SWAP2 SWAP4 POP SWAP2 SWAP4 JUMP JUMPDEST PUSH32 0x5D15B553C07BE9B4A8CF4265C997D4479F22E1843183FA58504508C561FB9D52 SLOAD PUSH0 SWAP1 PUSH0 MLOAD PUSH1 0x20 PUSH2 0x121B PUSH0 CODECOPY PUSH0 MLOAD SWAP1 PUSH0 MSTORE SWAP1 DUP3 SUB PUSH2 0x7FC JUMPI PUSH3 0xF4240 SWAP2 POP POP SWAP1 JUMP JUMPDEST PUSH0 DUP2 PUSH1 0x3 ADD SLOAD DUP3 PUSH1 0x1 ADD SLOAD PUSH2 0x811 SWAP2 SWAP1 PUSH2 0x1159 JUMP JUMPDEST PUSH1 0x2 DUP4 ADD SLOAD SWAP1 SWAP2 POP PUSH2 0x826 DUP3 PUSH3 0xF4240 PUSH2 0x1172 JUMP JUMPDEST PUSH2 0x830 SWAP2 SWAP1 PUSH2 0x1189 JUMP JUMPDEST SWAP3 POP POP POP SWAP1 JUMP JUMPDEST PUSH1 0x1 PUSH1 0x1 PUSH1 0xA0 SHL SUB AND PUSH0 SWAP1 DUP2 MSTORE PUSH32 0x5D15B553C07BE9B4A8CF4265C997D4479F22E1843183FA58504508C561FB9D5F PUSH1 0x20 MSTORE PUSH1 0x40 SWAP1 KECCAK256 SLOAD SWAP1 JUMP JUMPDEST PUSH1 0x1 PUSH1 0x1 PUSH1 0xA0 SHL SUB DUP2 AND PUSH0 SWAP1 DUP2 MSTORE PUSH32 0x5D15B553C07BE9B4A8CF4265C997D4479F22E1843183FA58504508C561FB9D66 PUSH1 0x20 SWAP1 DUP2 MSTORE PUSH1 0x40 DUP1 DUP4 KECCAK256 SLOAD PUSH32 0x5D15B553C07BE9B4A8CF4265C997D4479F22E1843183FA58504508C561FB9D67 SWAP1 SWAP3 MSTORE DUP3 KECCAK256 SLOAD PUSH1 0xFF SWAP1 SWAP2 AND SWAP2 PUSH0 MLOAD PUSH1 0x20 PUSH2 0x121B PUSH0 CODECOPY PUSH0 MLOAD SWAP1 PUSH0 MSTORE DUP3 PUSH2 0x8F0 JUMPI PUSH0 PUSH2 0x95D JUMP JUMPDEST PUSH1 0x6 DUP2 ADD SLOAD PUSH1 0x40 MLOAD PUSH4 0x11E040DD PUSH1 0xE3 SHL DUP2 MSTORE PUSH1 0x4 DUP2 ADD DUP6 SWAP1 MSTORE PUSH1 0x1 PUSH1 0x1 PUSH1 0xA0 SHL SUB SWAP1 SWAP2 AND SWAP1 PUSH4 0x8F0206E8 SWAP1 PUSH1 0x24 ADD PUSH1 0x20 PUSH1 0x40 MLOAD DUP1 DUP4 SUB DUP2 DUP7 GAS STATICCALL ISZERO DUP1 ISZERO PUSH2 0x939 JUMPI RETURNDATASIZE PUSH0 PUSH0 RETURNDATACOPY RETURNDATASIZE PUSH0 REVERT JUMPDEST POP POP POP POP PUSH1 0x40 MLOAD RETURNDATASIZE PUSH1 0x1F NOT PUSH1 0x1F DUP3 ADD AND DUP3 ADD DUP1 PUSH1 0x40 MSTORE POP DUP2 ADD SWAP1 PUSH2 0x95D SWAP2 SWAP1 PUSH2 0x11D0 JUMP JUMPDEST SWAP4 SWAP6 SWAP3 SWAP5 POP POP POP JUMP JUMPDEST PUSH0 PUSH0 PUSH2 0x971 DUP4 PUSH2 0xDA6 JUMP JUMPDEST SWAP1 POP PUSH0 PUSH2 0x980 PUSH2 0x164 DUP6 PUSH2 0x837 JUMP JUMPDEST SWAP1 POP DUP1 DUP3 LT ISZERO PUSH2 0x999 JUMPI PUSH2 0x994 DUP3 DUP3 PUSH2 0x11EF JUMP JUMPDEST PUSH2 0x520 JUMP JUMPDEST PUSH0 SWAP5 SWAP4 POP POP POP POP JUMP JUMPDEST PUSH0 PUSH0 PUSH2 0x9AD DUP4 PUSH2 0xA62 JUMP JUMPDEST SWAP1 POP DUP1 MLOAD PUSH0 SUB PUSH2 0x9BF JUMPI POP PUSH0 SWAP3 SWAP2 POP POP JUMP JUMPDEST DUP1 PUSH0 DUP2 MLOAD DUP2 LT PUSH2 0x9D1 JUMPI PUSH2 0x9D1 PUSH2 0x11BC JUMP JUMPDEST PUSH1 0x20 MUL PUSH1 0x20 ADD ADD MLOAD SWAP2 POP POP SWAP2 SWAP1 POP JUMP JUMPDEST PUSH32 0x5D15B553C07BE9B4A8CF4265C997D4479F22E1843183FA58504508C561FB9D51 SLOAD PUSH0 SWAP1 PUSH0 MLOAD PUSH1 0x20 PUSH2 0x121B PUSH0 CODECOPY PUSH0 MLOAD SWAP1 PUSH0 MSTORE SWAP1 ISZERO DUP1 PUSH2 0xA22 JUMPI POP PUSH1 0x2 DUP2 ADD SLOAD ISZERO JUMPDEST ISZERO PUSH2 0xA2E JUMPI POP SWAP1 SWAP2 SWAP1 POP JUMP JUMPDEST DUP1 PUSH1 0x3 ADD SLOAD DUP2 PUSH1 0x1 ADD SLOAD PUSH2 0xA42 SWAP2 SWAP1 PUSH2 0x1159 JUMP JUMPDEST PUSH1 0x2 DUP3 ADD SLOAD PUSH2 0xA51 SWAP1 DUP6 PUSH2 0x1172 JUMP JUMPDEST PUSH2 0xA5B SWAP2 SWAP1 PUSH2 0x1189 JUMP JUMPDEST SWAP4 SWAP3 POP POP POP JUMP JUMPDEST PUSH1 0x1 PUSH1 0x1 PUSH1 0xA0 SHL SUB DUP2 AND PUSH0 SWAP1 DUP2 MSTORE PUSH32 0x5D15B553C07BE9B4A8CF4265C997D4479F22E1843183FA58504508C561FB9D6D PUSH1 0x20 MSTORE PUSH1 0x40 DUP2 KECCAK256 PUSH1 0x60 SWAP2 PUSH0 MLOAD PUSH1 0x20 PUSH2 0x121B PUSH0 CODECOPY PUSH0 MLOAD SWAP1 PUSH0 MSTORE SWAP2 SWAP1 DUP1 JUMPDEST DUP3 SLOAD DUP2 LT ISZERO PUSH2 0xAF8 JUMPI DUP3 DUP2 DUP2 SLOAD DUP2 LT PUSH2 0xAC8 JUMPI PUSH2 0xAC8 PUSH2 0x11BC JUMP JUMPDEST PUSH0 SWAP2 DUP3 MSTORE PUSH1 0x20 SWAP1 SWAP2 KECCAK256 PUSH1 0x3 PUSH1 0x4 SWAP1 SWAP3 MUL ADD ADD SLOAD PUSH1 0xFF AND PUSH2 0xAF0 JUMPI DUP2 PUSH2 0xAEC DUP2 PUSH2 0x1202 JUMP JUMPDEST SWAP3 POP POP JUMPDEST PUSH1 0x1 ADD PUSH2 0xAAD JUMP JUMPDEST POP PUSH0 DUP2 PUSH8 0xFFFFFFFFFFFFFFFF DUP2 GT ISZERO PUSH2 0xB13 JUMPI PUSH2 0xB13 PUSH2 0x11A8 JUMP JUMPDEST PUSH1 0x40 MLOAD SWAP1 DUP1 DUP3 MSTORE DUP1 PUSH1 0x20 MUL PUSH1 0x20 ADD DUP3 ADD PUSH1 0x40 MSTORE DUP1 ISZERO PUSH2 0xB3C JUMPI DUP2 PUSH1 0x20 ADD PUSH1 0x20 DUP3 MUL DUP1 CALLDATASIZE DUP4 CALLDATACOPY ADD SWAP1 POP JUMPDEST POP SWAP1 POP PUSH0 DUP1 JUMPDEST DUP5 SLOAD DUP2 LT ISZERO PUSH2 0xBDA JUMPI DUP5 DUP2 DUP2 SLOAD DUP2 LT PUSH2 0xB5D JUMPI PUSH2 0xB5D PUSH2 0x11BC JUMP JUMPDEST PUSH0 SWAP2 DUP3 MSTORE PUSH1 0x20 SWAP1 SWAP2 KECCAK256 PUSH1 0x3 PUSH1 0x4 SWAP1 SWAP3 MUL ADD ADD SLOAD PUSH1 0xFF AND PUSH2 0xBD2 JUMPI PUSH3 0x278D00 DUP6 DUP3 DUP2 SLOAD DUP2 LT PUSH2 0xB8D JUMPI PUSH2 0xB8D PUSH2 0x11BC JUMP JUMPDEST SWAP1 PUSH0 MSTORE PUSH1 0x20 PUSH0 KECCAK256 SWAP1 PUSH1 0x4 MUL ADD PUSH1 0x1 ADD SLOAD PUSH2 0xBA7 SWAP2 SWAP1 PUSH2 0x1159 JUMP JUMPDEST DUP4 DUP4 DUP2 MLOAD DUP2 LT PUSH2 0xBB9 JUMPI PUSH2 0xBB9 PUSH2 0x11BC JUMP JUMPDEST PUSH1 0x20 SWAP1 DUP2 MUL SWAP2 SWAP1 SWAP2 ADD ADD MSTORE DUP2 PUSH2 0xBCE DUP2 PUSH2 0x1202 JUMP JUMPDEST SWAP3 POP POP JUMPDEST PUSH1 0x1 ADD PUSH2 0xB42 JUMP JUMPDEST POP PUSH0 JUMPDEST DUP3 MLOAD DUP2 LT ISZERO PUSH2 0xCBF JUMPI PUSH0 PUSH2 0xBF2 DUP3 PUSH1 0x1 PUSH2 0x1159 JUMP JUMPDEST SWAP1 POP JUMPDEST DUP4 MLOAD DUP2 LT ISZERO PUSH2 0xCB6 JUMPI DUP4 DUP3 DUP2 MLOAD DUP2 LT PUSH2 0xC10 JUMPI PUSH2 0xC10 PUSH2 0x11BC JUMP JUMPDEST PUSH1 0x20 MUL PUSH1 0x20 ADD ADD MLOAD DUP5 DUP3 DUP2 MLOAD DUP2 LT PUSH2 0xC2A JUMPI PUSH2 0xC2A PUSH2 0x11BC JUMP JUMPDEST PUSH1 0x20 MUL PUSH1 0x20 ADD ADD MLOAD LT ISZERO PUSH2 0xCAE JUMPI PUSH0 DUP5 DUP4 DUP2 MLOAD DUP2 LT PUSH2 0xC4B JUMPI PUSH2 0xC4B PUSH2 0x11BC JUMP JUMPDEST PUSH1 0x20 MUL PUSH1 0x20 ADD ADD MLOAD SWAP1 POP DUP5 DUP3 DUP2 MLOAD DUP2 LT PUSH2 0xC67 JUMPI PUSH2 0xC67 PUSH2 0x11BC JUMP JUMPDEST PUSH1 0x20 MUL PUSH1 0x20 ADD ADD MLOAD DUP6 DUP5 DUP2 MLOAD DUP2 LT PUSH2 0xC81 JUMPI PUSH2 0xC81 PUSH2 0x11BC JUMP JUMPDEST PUSH1 0x20 MUL PUSH1 0x20 ADD ADD DUP2 DUP2 MSTORE POP POP DUP1 DUP6 DUP4 DUP2 MLOAD DUP2 LT PUSH2 0xCA0 JUMPI PUSH2 0xCA0 PUSH2 0x11BC JUMP JUMPDEST PUSH1 0x20 MUL PUSH1 0x20 ADD ADD DUP2 DUP2 MSTORE POP POP POP JUMPDEST PUSH1 0x1 ADD PUSH2 0xBF5 JUMP JUMPDEST POP PUSH1 0x1 ADD PUSH2 0xBDD JUMP JUMPDEST POP SWAP1 SWAP7 SWAP6 POP POP POP POP POP POP JUMP JUMPDEST PUSH0 PUSH0 MLOAD PUSH1 0x20 PUSH2 0x121B PUSH0 CODECOPY PUSH0 MLOAD SWAP1 PUSH0 MSTORE DUP2 DUP1 JUMPDEST PUSH1 0xE DUP4 ADD SLOAD DUP2 LT ISZERO PUSH2 0xD9F JUMPI PUSH0 DUP4 PUSH1 0xE ADD DUP3 DUP2 SLOAD DUP2 LT PUSH2 0xCFF JUMPI PUSH2 0xCFF PUSH2 0x11BC JUMP JUMPDEST PUSH0 SWAP2 DUP3 MSTORE PUSH1 0x20 DUP1 DUP4 KECCAK256 SWAP1 SWAP2 ADD SLOAD PUSH1 0x1 PUSH1 0x1 PUSH1 0xA0 SHL SUB AND DUP1 DUP4 MSTORE PUSH1 0x1D DUP8 ADD SWAP1 SWAP2 MSTORE PUSH1 0x40 DUP3 KECCAK256 SWAP1 SWAP3 POP SWAP1 JUMPDEST DUP2 SLOAD DUP2 LT ISZERO PUSH2 0xD94 JUMPI DUP2 DUP2 DUP2 SLOAD DUP2 LT PUSH2 0xD43 JUMPI PUSH2 0xD43 PUSH2 0x11BC JUMP JUMPDEST PUSH0 SWAP2 DUP3 MSTORE PUSH1 0x20 SWAP1 SWAP2 KECCAK256 PUSH1 0x3 PUSH1 0x4 SWAP1 SWAP3 MUL ADD ADD SLOAD PUSH1 0xFF AND PUSH2 0xD8C JUMPI DUP2 DUP2 DUP2 SLOAD DUP2 LT PUSH2 0xD6F JUMPI PUSH2 0xD6F PUSH2 0x11BC JUMP JUMPDEST SWAP1 PUSH0 MSTORE PUSH1 0x20 PUSH0 KECCAK256 SWAP1 PUSH1 0x4 MUL ADD PUSH0 ADD SLOAD DUP6 PUSH2 0xD89 SWAP2 SWAP1 PUSH2 0x1159 JUMP JUMPDEST SWAP5 POP JUMPDEST PUSH1 0x1 ADD PUSH2 0xD28 JUMP JUMPDEST POP POP POP PUSH1 0x1 ADD PUSH2 0xCDD JUMP JUMPDEST POP SWAP3 SWAP2 POP POP JUMP JUMPDEST PUSH1 0x1 PUSH1 0x1 PUSH1 0xA0 SHL SUB DUP2 AND PUSH0 SWAP1 DUP2 MSTORE PUSH32 0x5D15B553C07BE9B4A8CF4265C997D4479F22E1843183FA58504508C561FB9D5F PUSH1 0x20 MSTORE PUSH1 0x40 DUP2 KECCAK256 SLOAD PUSH0 MLOAD PUSH1 0x20 PUSH2 0x121B PUSH0 CODECOPY PUSH0 MLOAD SWAP1 PUSH0 MSTORE SWAP1 DUP3 SWAP1 PUSH2 0xDF7 SWAP1 PUSH2 0x4AF JUMP JUMPDEST SWAP1 POP DUP1 PUSH0 SUB PUSH2 0xE09 JUMPI POP PUSH0 SWAP4 SWAP3 POP POP POP JUMP JUMPDEST PUSH1 0x1 PUSH1 0x1 PUSH1 0xA0 SHL SUB DUP5 AND PUSH0 SWAP1 DUP2 MSTORE PUSH1 0x1D DUP4 ADD PUSH1 0x20 MSTORE PUSH1 0x40 DUP2 KECCAK256 DUP1 SLOAD SWAP1 SWAP2 SUB PUSH2 0xE83 JUMPI PUSH1 0x1 PUSH1 0x1 PUSH1 0xA0 SHL SUB DUP6 AND PUSH0 SWAP1 DUP2 MSTORE PUSH1 0x11 DUP5 ADD PUSH1 0x20 MSTORE PUSH1 0x40 DUP2 KECCAK256 SLOAD PUSH2 0xE53 SWAP1 PUSH3 0x278D00 SWAP1 PUSH2 0x1159 JUMP JUMPDEST TIMESTAMP LT SWAP1 POP DUP1 PUSH2 0xE62 JUMPI DUP3 PUSH2 0xE79 JUMP JUMPDEST PUSH1 0x64 PUSH2 0xE6F PUSH1 0x3C DUP6 PUSH2 0x1172 JUMP JUMPDEST PUSH2 0xE79 SWAP2 SWAP1 PUSH2 0x1189 JUMP JUMPDEST SWAP7 SWAP6 POP POP POP POP POP POP JUMP JUMPDEST PUSH0 DUP1 DUP1 JUMPDEST DUP4 SLOAD DUP2 LT ISZERO PUSH2 0xF5C JUMPI DUP4 DUP2 DUP2 SLOAD DUP2 LT PUSH2 0xEA2 JUMPI PUSH2 0xEA2 PUSH2 0x11BC JUMP JUMPDEST PUSH0 SWAP2 DUP3 MSTORE PUSH1 0x20 SWAP1 SWAP2 KECCAK256 PUSH1 0x3 PUSH1 0x4 SWAP1 SWAP3 MUL ADD ADD SLOAD PUSH1 0xFF AND PUSH2 0xF54 JUMPI PUSH3 0x278D00 DUP5 DUP3 DUP2 SLOAD DUP2 LT PUSH2 0xED2 JUMPI PUSH2 0xED2 PUSH2 0x11BC JUMP JUMPDEST SWAP1 PUSH0 MSTORE PUSH1 0x20 PUSH0 KECCAK256 SWAP1 PUSH1 0x4 MUL ADD PUSH1 0x1 ADD SLOAD PUSH2 0xEEC SWAP2 SWAP1 PUSH2 0x1159 JUMP JUMPDEST TIMESTAMP LT PUSH2 0xF25 JUMPI DUP4 DUP2 DUP2 SLOAD DUP2 LT PUSH2 0xF04 JUMPI PUSH2 0xF04 PUSH2 0x11BC JUMP JUMPDEST SWAP1 PUSH0 MSTORE PUSH1 0x20 PUSH0 KECCAK256 SWAP1 PUSH1 0x4 MUL ADD PUSH0 ADD SLOAD DUP4 PUSH2 0xF1E SWAP2 SWAP1 PUSH2 0x1159 JUMP JUMPDEST SWAP3 POP PUSH2 0xF54 JUMP JUMPDEST DUP4 DUP2 DUP2 SLOAD DUP2 LT PUSH2 0xF37 JUMPI PUSH2 0xF37 PUSH2 0x11BC JUMP JUMPDEST SWAP1 PUSH0 MSTORE PUSH1 0x20 PUSH0 KECCAK256 SWAP1 PUSH1 0x4 MUL ADD PUSH0 ADD SLOAD DUP3 PUSH2 0xF51 SWAP2 SWAP1 PUSH2 0x1159 JUMP JUMPDEST SWAP2 POP JUMPDEST PUSH1 0x1 ADD PUSH2 0xE87 JUMP JUMPDEST POP PUSH0 PUSH2 0xF68 DUP3 DUP5 PUSH2 0x1159 JUMP JUMPDEST SWAP1 POP DUP1 ISZERO DUP1 PUSH2 0xF75 JUMPI POP DUP2 ISZERO JUMPDEST ISZERO PUSH2 0xF86 JUMPI POP SWAP3 SWAP7 SWAP6 POP POP POP POP POP POP JUMP JUMPDEST PUSH0 PUSH1 0x64 PUSH2 0xF94 PUSH1 0x3C DUP6 PUSH2 0x1172 JUMP JUMPDEST PUSH2 0xF9E SWAP2 SWAP1 PUSH2 0x1189 JUMP JUMPDEST SWAP1 POP PUSH0 PUSH2 0xFAB DUP3 DUP7 PUSH2 0x1159 JUMP JUMPDEST SWAP1 POP PUSH0 DUP4 PUSH2 0xFBC DUP4 PUSH3 0xF4240 PUSH2 0x1172 JUMP JUMPDEST PUSH2 0xFC6 SWAP2 SWAP1 PUSH2 0x1189 JUMP JUMPDEST SWAP1 POP PUSH3 0xF4240 PUSH2 0xFD6 DUP3 DUP11 PUSH2 0x1172 JUMP JUMPDEST PUSH2 0xFE0 SWAP2 SWAP1 PUSH2 0x1189 JUMP JUMPDEST SWAP12 SWAP11 POP POP POP POP POP POP POP POP POP POP POP JUMP JUMPDEST PUSH32 0x5D15B553C07BE9B4A8CF4265C997D4479F22E1843183FA58504508C561FB9D5B SLOAD PUSH0 SWAP1 PUSH0 MLOAD PUSH1 0x20 PUSH2 0x121B PUSH0 CODECOPY PUSH0 MLOAD SWAP1 PUSH0 MSTORE SWAP1 PUSH3 0x15180 SWAP1 PUSH2 0x1032 SWAP1 DUP3 SWAP1 PUSH2 0x1159 JUMP JUMPDEST TIMESTAMP LT ISZERO SWAP3 POP POP POP SWAP1 JUMP JUMPDEST PUSH0 PUSH1 0x20 DUP3 DUP5 SUB SLT ISZERO PUSH2 0x104C JUMPI PUSH0 PUSH0 REVERT JUMPDEST POP CALLDATALOAD SWAP2 SWAP1 POP JUMP JUMPDEST PUSH0 PUSH1 0x20 DUP3 DUP5 SUB SLT ISZERO PUSH2 0x1063 JUMPI PUSH0 PUSH0 REVERT JUMPDEST DUP2 CALLDATALOAD PUSH1 0x1 PUSH1 0x1 PUSH1 0xA0 SHL SUB DUP2 AND DUP2 EQ PUSH2 0xA5B JUMPI PUSH0 PUSH0 REVERT JUMPDEST PUSH0 DUP2 MLOAD DUP1 DUP5 MSTORE PUSH1 0x20 DUP5 ADD SWAP4 POP PUSH1 0x20 DUP4 ADD PUSH0 JUMPDEST DUP3 DUP2 LT ISZERO PUSH2 0x10A9 JUMPI DUP2 MLOAD DUP7 MSTORE PUSH1 0x20 SWAP6 DUP7 ADD SWAP6 SWAP1 SWAP2 ADD SWAP1 PUSH1 0x1 ADD PUSH2 0x108B JUMP JUMPDEST POP SWAP4 SWAP5 SWAP4 POP POP POP POP JUMP JUMPDEST PUSH1 0x80 DUP2 MSTORE PUSH0 PUSH2 0x10C5 PUSH1 0x80 DUP4 ADD DUP8 PUSH2 0x1079 JUMP JUMPDEST DUP3 DUP2 SUB PUSH1 0x20 DUP5 ADD MSTORE PUSH2 0x10D7 DUP2 DUP8 PUSH2 0x1079 JUMP JUMPDEST SWAP1 POP DUP3 DUP2 SUB PUSH1 0x40 DUP5 ADD MSTORE PUSH2 0x10EB DUP2 DUP7 PUSH2 0x1079 JUMP JUMPDEST DUP4 DUP2 SUB PUSH1 0x60 DUP6 ADD MSTORE DUP5 MLOAD DUP1 DUP3 MSTORE PUSH1 0x20 DUP1 DUP8 ADD SWAP4 POP SWAP1 SWAP2 ADD SWAP1 PUSH0 JUMPDEST DUP2 DUP2 LT ISZERO PUSH2 0x1125 JUMPI DUP4 MLOAD ISZERO ISZERO DUP4 MSTORE PUSH1 0x20 SWAP4 DUP5 ADD SWAP4 SWAP1 SWAP3 ADD SWAP2 PUSH1 0x1 ADD PUSH2 0x1105 JUMP JUMPDEST POP SWAP1 SWAP9 SWAP8 POP POP POP POP POP POP POP POP JUMP JUMPDEST PUSH1 0x20 DUP2 MSTORE PUSH0 PUSH2 0xA5B PUSH1 0x20 DUP4 ADD DUP5 PUSH2 0x1079 JUMP JUMPDEST PUSH4 0x4E487B71 PUSH1 0xE0 SHL PUSH0 MSTORE PUSH1 0x11 PUSH1 0x4 MSTORE PUSH1 0x24 PUSH0 REVERT JUMPDEST DUP1 DUP3 ADD DUP1 DUP3 GT ISZERO PUSH2 0x116C JUMPI PUSH2 0x116C PUSH2 0x1145 JUMP JUMPDEST SWAP3 SWAP2 POP POP JUMP JUMPDEST DUP1 DUP3 MUL DUP2 ISZERO DUP3 DUP3 DIV DUP5 EQ OR PUSH2 0x116C JUMPI PUSH2 0x116C PUSH2 0x1145 JUMP JUMPDEST PUSH0 DUP3 PUSH2 0x11A3 JUMPI PUSH4 0x4E487B71 PUSH1 0xE0 SHL PUSH0 MSTORE PUSH1 0x12 PUSH1 0x4 MSTORE PUSH1 0x24 PUSH0 REVERT JUMPDEST POP DIV SWAP1 JUMP JUMPDEST PUSH4 0x4E487B71 PUSH1 0xE0 SHL PUSH0 MSTORE PUSH1 0x41 PUSH1 0x4 MSTORE PUSH1 0x24 PUSH0 REVERT JUMPDEST PUSH4 0x4E487B71 PUSH1 0xE0 SHL PUSH0 MSTORE PUSH1 0x32 PUSH1 0x4 MSTORE PUSH1 0x24 PUSH0 REVERT JUMPDEST PUSH0 PUSH1 0x20 DUP3 DUP5 SUB SLT ISZERO PUSH2 0x11E0 JUMPI PUSH0 PUSH0 REVERT JUMPDEST DUP2 MLOAD DUP1 ISZERO ISZERO DUP2 EQ PUSH2 0xA5B JUMPI PUSH0 PUSH0 REVERT JUMPDEST DUP2 DUP2 SUB DUP2 DUP2 GT ISZERO PUSH2 0x116C JUMPI PUSH2 0x116C PUSH2 0x1145 JUMP JUMPDEST PUSH0 PUSH1 0x1 DUP3 ADD PUSH2 0x1213 JUMPI PUSH2 0x1213 PUSH2 0x1145 JUMP JUMPDEST POP PUSH1 0x1 ADD SWAP1 JUMP INVALID TSTORE ISZERO 0xB5 MSTORE8 0xC0 PUSH28 0xE9B4A8CF4265C997D4479F22E1843183FA58504508C561FB9D50A264 PUSH10 0x7066735822122015D54D DIV KECCAK256 REVERT DUPN 0x4B DUP8 SHL DUP2 0xB6 0xDB CALLCODE 0xD2 REVERT NOT PUSH14 0x76C70861517F90B1FC987AA9E8 PUSH5 0x736F6C6343 STOP ADDMOD SAR STOP CALLER "
				},
				"gasEstimates": {
					"creation": {
						"codeDepositCost": "944000",
						"executionCost": "979",
						"totalCost": "944979"
					},
					"external": {
						"balanceOf(address)": "2589",
						"convertToAssets(uint256)": "infinite",
						"convertToShares(uint256)": "infinite",
						"exchangeRate()": "infinite",
						"getAccumulatedFees()": "2325",
						"getConfiguration()": "infinite",
						"getLockedAmount(address)": "infinite",
						"getNearestUnlockTime(address)": "infinite",
						"getTotalStakedAssets()": "infinite",
						"getUnlockTime(address)": "infinite",
						"getUserStakedDeposits(address)": "infinite",
						"getUserWstETHBalance(address)": "2577",
						"getWithdrawableAmount(address)": "infinite",
						"getWithdrawalStatus(address)": "infinite",
						"isUpdateNeeded()": "infinite",
						"totalAssets()": "2293",
						"totalShares()": "2370",
						"totalStakedValue()": "2347",
						"userDeposit(address)": "2510"
					}
				},
				"methodIdentifiers": {
					"balanceOf(address)": "70a08231",
					"convertToAssets(uint256)": "07a2d13a",
					"convertToShares(uint256)": "c6e6f592",
					"exchangeRate()": "3ba0b9a9",
					"getAccumulatedFees()": "5df45a37",
					"getConfiguration()": "6bd50cef",
					"getLockedAmount(address)": "929ec537",
					"getNearestUnlockTime(address)": "981ef661",
					"getTotalStakedAssets()": "dee7db90",
					"getUnlockTime(address)": "dbed1e88",
					"getUserStakedDeposits(address)": "35a058f5",
					"getUserWstETHBalance(address)": "be5e8d11",
					"getWithdrawableAmount(address)": "f6777175",
					"getWithdrawalStatus(address)": "7491687e",
					"isUpdateNeeded()": "f85503b9",
					"totalAssets()": "01e1d114",
					"totalShares()": "3a98ef39",
					"totalStakedValue()": "9bd18fb0",
					"userDeposit(address)": "d1260edd"
				}
			},
			"storageLayout": {
				"storage": [],
				"types": null
			},
			"userdoc": {
				"kind": "user",
				"methods": {},
				"version": 1
			}
		}
	}
}