{
	"Vault_forge/src/Diamond/AdminFacet.sol": {
		"AdminFacet": {
			"abi": [
				{
					"inputs": [],
					"name": "InvalidAddress",
					"type": "error"
				},
				{
					"inputs": [],
					"name": "NotAuthorized",
					"type": "error"
				},
				{
					"inputs": [],
					"name": "OperationNotReady",
					"type": "error"
				},
				{
					"inputs": [
						{
							"internalType": "address",
							"name": "token",
							"type": "address"
						}
					],
					"name": "SafeERC20FailedOperation",
					"type": "error"
				},
				{
					"inputs": [],
					"name": "TooSoonToUpdate",
					"type": "error"
				},
				{
					"inputs": [],
					"name": "ZeroFees",
					"type": "error"
				},
				{
					"anonymous": false,
					"inputs": [
						{
							"indexed": false,
							"internalType": "uint256",
							"name": "timestamp",
							"type": "uint256"
						}
					],
					"name": "DailyUpdateTriggered",
					"type": "event"
				},
				{
					"anonymous": false,
					"inputs": [
						{
							"indexed": false,
							"internalType": "bool",
							"name": "paused",
							"type": "bool"
						}
					],
					"name": "DepositsPausedToggled",
					"type": "event"
				},
				{
					"anonymous": false,
					"inputs": [
						{
							"indexed": false,
							"internalType": "bool",
							"name": "enabled",
							"type": "bool"
						}
					],
					"name": "EmergencyShutdownToggled",
					"type": "event"
				},
				{
					"anonymous": false,
					"inputs": [
						{
							"indexed": true,
							"internalType": "address",
							"name": "newFeeCollector",
							"type": "address"
						}
					],
					"name": "FeeCollectorUpdated",
					"type": "event"
				},
				{
					"anonymous": false,
					"inputs": [
						{
							"indexed": false,
							"internalType": "uint256",
							"name": "amount",
							"type": "uint256"
						}
					],
					"name": "FeesCollected",
					"type": "event"
				},
				{
					"anonymous": false,
					"inputs": [
						{
							"indexed": true,
							"internalType": "address",
							"name": "newAddress",
							"type": "address"
						}
					],
					"name": "LidoWithdrawalAddressUpdated",
					"type": "event"
				},
				{
					"anonymous": false,
					"inputs": [
						{
							"indexed": true,
							"internalType": "bytes32",
							"name": "operationId",
							"type": "bytes32"
						}
					],
					"name": "OperationExecuted",
					"type": "event"
				},
				{
					"anonymous": false,
					"inputs": [
						{
							"indexed": true,
							"internalType": "bytes32",
							"name": "operationId",
							"type": "bytes32"
						},
						{
							"indexed": false,
							"internalType": "uint256",
							"name": "unlockTime",
							"type": "uint256"
						}
					],
					"name": "OperationQueued",
					"type": "event"
				},
				{
					"anonymous": false,
					"inputs": [
						{
							"indexed": true,
							"internalType": "address",
							"name": "newAddress",
							"type": "address"
						}
					],
					"name": "ReceiverContractUpdated",
					"type": "event"
				},
				{
					"anonymous": false,
					"inputs": [
						{
							"indexed": true,
							"internalType": "address",
							"name": "newAddress",
							"type": "address"
						}
					],
					"name": "SwapContractUpdated",
					"type": "event"
				},
				{
					"anonymous": false,
					"inputs": [
						{
							"indexed": true,
							"internalType": "address",
							"name": "newAddress",
							"type": "address"
						}
					],
					"name": "WstETHAddressUpdated",
					"type": "event"
				},
				{
					"inputs": [],
					"name": "collectAccumulatedFees",
					"outputs": [],
					"stateMutability": "nonpayable",
					"type": "function"
				},
				{
					"inputs": [
						{
							"internalType": "address",
							"name": "newOwner",
							"type": "address"
						}
					],
					"name": "completeOwnershipTransfer",
					"outputs": [],
					"stateMutability": "nonpayable",
					"type": "function"
				},
				{
					"inputs": [
						{
							"internalType": "bytes32",
							"name": "operationId",
							"type": "bytes32"
						}
					],
					"name": "executeOperation",
					"outputs": [],
					"stateMutability": "nonpayable",
					"type": "function"
				},
				{
					"inputs": [
						{
							"internalType": "bytes32",
							"name": "operationId",
							"type": "bytes32"
						}
					],
					"name": "queueOperation",
					"outputs": [],
					"stateMutability": "nonpayable",
					"type": "function"
				},
				{
					"inputs": [
						{
							"internalType": "address",
							"name": "_feeCollector",
							"type": "address"
						}
					],
					"name": "setFeeCollector",
					"outputs": [],
					"stateMutability": "nonpayable",
					"type": "function"
				},
				{
					"inputs": [
						{
							"internalType": "address",
							"name": "_lidoWithdrawal",
							"type": "address"
						}
					],
					"name": "setLidoWithdrawalAddress",
					"outputs": [],
					"stateMutability": "nonpayable",
					"type": "function"
				},
				{
					"inputs": [
						{
							"internalType": "address",
							"name": "_receiver",
							"type": "address"
						}
					],
					"name": "setReceiverContract",
					"outputs": [],
					"stateMutability": "nonpayable",
					"type": "function"
				},
				{
					"inputs": [
						{
							"internalType": "address",
							"name": "_swapContract",
							"type": "address"
						}
					],
					"name": "setSwapContract",
					"outputs": [],
					"stateMutability": "nonpayable",
					"type": "function"
				},
				{
					"inputs": [
						{
							"internalType": "address",
							"name": "_wstETH",
							"type": "address"
						}
					],
					"name": "setWstETHAddress",
					"outputs": [],
					"stateMutability": "nonpayable",
					"type": "function"
				},
				{
					"inputs": [],
					"name": "toggleDeposits",
					"outputs": [],
					"stateMutability": "nonpayable",
					"type": "function"
				},
				{
					"inputs": [],
					"name": "toggleEmergencyShutdown",
					"outputs": [],
					"stateMutability": "nonpayable",
					"type": "function"
				},
				{
					"inputs": [
						{
							"internalType": "address",
							"name": "newOwner",
							"type": "address"
						}
					],
					"name": "transferOwnership",
					"outputs": [],
					"stateMutability": "nonpayable",
					"type": "function"
				},
				{
					"inputs": [],
					"name": "triggerDailyUpdate",
					"outputs": [],
					"stateMutability": "nonpayable",
					"type": "function"
				}
			],
			"devdoc": {
				"errors": {
					"SafeERC20FailedOperation(address)": [
						{
							"details": "An operation with an ERC-20 token failed."
						}
					]
				},
				"kind": "dev",
				"methods": {},
				"version": 1
			},
			"evm": {
				"assembly": "    /* \"Vault_forge/src/Diamond/AdminFacet.sol\":389:7097  contract AdminFacet is ReentrancyGuard {... */\n  mstore(0x40, 0x80)\n  callvalue\n  dup1\n  iszero\n  tag_1\n  jumpi\n  revert(0x00, 0x00)\ntag_1:\n  pop\n    /* \"@openzeppelin/contracts/security/ReentrancyGuard.sol\":1716:1717  1 */\n  0x01\n    /* \"@openzeppelin/contracts/security/ReentrancyGuard.sol\":1821:1828  _status */\n  0x00\n    /* \"@openzeppelin/contracts/security/ReentrancyGuard.sol\":1821:1843  _status = _NOT_ENTERED */\n  sstore\n    /* \"Vault_forge/src/Diamond/AdminFacet.sol\":389:7097  contract AdminFacet is ReentrancyGuard {... */\n  dataSize(sub_0)\n  dup1\n  dataOffset(sub_0)\n  0x00\n  codecopy\n  0x00\n  return\nstop\n\nsub_0: assembly {\n        /* \"Vault_forge/src/Diamond/AdminFacet.sol\":389:7097  contract AdminFacet is ReentrancyGuard {... */\n      mstore(0x40, 0x80)\n      callvalue\n      dup1\n      iszero\n      tag_1\n      jumpi\n      revert(0x00, 0x00)\n    tag_1:\n      pop\n      jumpi(tag_2, lt(calldatasize, 0x04))\n      shr(0xe0, calldataload(0x00))\n      dup1\n      0x8024e968\n      gt\n      tag_16\n      jumpi\n      dup1\n      0xd259ab42\n      gt\n      tag_17\n      jumpi\n      dup1\n      0xd259ab42\n      eq\n      tag_12\n      jumpi\n      dup1\n      0xd907813c\n      eq\n      tag_13\n      jumpi\n      dup1\n      0xe458d453\n      eq\n      tag_14\n      jumpi\n      dup1\n      0xf2fde38b\n      eq\n      tag_15\n      jumpi\n      revert(0x00, 0x00)\n    tag_17:\n      dup1\n      0x8024e968\n      eq\n      tag_9\n      jumpi\n      dup1\n      0xa42dce80\n      eq\n      tag_10\n      jumpi\n      dup1\n      0xcbaf2fa7\n      eq\n      tag_11\n      jumpi\n      revert(0x00, 0x00)\n    tag_16:\n      dup1\n      0x062776bf\n      eq\n      tag_3\n      jumpi\n      dup1\n      0x29175b8c\n      eq\n      tag_4\n      jumpi\n      dup1\n      0x2f2a9165\n      eq\n      tag_5\n      jumpi\n      dup1\n      0x37214ad0\n      eq\n      tag_6\n      jumpi\n      dup1\n      0x617f3989\n      eq\n      tag_7\n      jumpi\n      dup1\n      0x798b4739\n      eq\n      tag_8\n      jumpi\n    tag_2:\n      revert(0x00, 0x00)\n        /* \"Vault_forge/src/Diamond/AdminFacet.sol\":3721:4248  function collectAccumulatedFees() external nonReentrant {... */\n    tag_3:\n      tag_18\n      tag_19\n      jump\t// in\n    tag_18:\n      stop\n        /* \"Vault_forge/src/Diamond/AdminFacet.sol\":3187:3445  function toggleEmergencyShutdown() external onlyOwner {... */\n    tag_4:\n      tag_18\n      tag_21\n      jump\t// in\n        /* \"Vault_forge/src/Diamond/AdminFacet.sol\":4280:4845  function triggerDailyUpdate() external onlyOwner {... */\n    tag_5:\n      tag_18\n      tag_23\n      jump\t// in\n        /* \"Vault_forge/src/Diamond/AdminFacet.sol\":2197:2508  function setReceiverContract(address _receiver) external onlyOwner {... */\n    tag_6:\n      tag_18\n      tag_25\n      calldatasize\n      0x04\n      tag_26\n      jump\t// in\n    tag_25:\n      tag_27\n      jump\t// in\n        /* \"Vault_forge/src/Diamond/AdminFacet.sol\":4900:5233  function queueOperation(bytes32 operationId) external onlyOwner {... */\n    tag_7:\n      tag_18\n      tag_29\n      calldatasize\n      0x04\n      tag_30\n      jump\t// in\n    tag_29:\n      tag_31\n      jump\t// in\n        /* \"Vault_forge/src/Diamond/AdminFacet.sol\":6368:7094  function completeOwnershipTransfer(address newOwner) external onlyOwner {... */\n    tag_8:\n      tag_18\n      tag_33\n      calldatasize\n      0x04\n      tag_26\n      jump\t// in\n    tag_33:\n      tag_34\n      jump\t// in\n        /* \"Vault_forge/src/Diamond/AdminFacet.sol\":1895:2189  function setWstETHAddress(address _wstETH) external onlyOwner {... */\n    tag_9:\n      tag_18\n      tag_36\n      calldatasize\n      0x04\n      tag_26\n      jump\t// in\n    tag_36:\n      tag_37\n      jump\t// in\n        /* \"Vault_forge/src/Diamond/AdminFacet.sol\":2839:3154  function setFeeCollector(address _feeCollector) external onlyOwner {... */\n    tag_10:\n      tag_18\n      tag_39\n      calldatasize\n      0x04\n      tag_26\n      jump\t// in\n    tag_39:\n      tag_40\n      jump\t// in\n        /* \"Vault_forge/src/Diamond/AdminFacet.sol\":5241:5772  function executeOperation(bytes32 operationId) external onlyOwner {... */\n    tag_11:\n      tag_18\n      tag_42\n      calldatasize\n      0x04\n      tag_30\n      jump\t// in\n    tag_42:\n      tag_43\n      jump\t// in\n        /* \"Vault_forge/src/Diamond/AdminFacet.sol\":2516:2831  function setSwapContract(address _swapContract) external onlyOwner {... */\n    tag_12:\n      tag_18\n      tag_45\n      calldatasize\n      0x04\n      tag_26\n      jump\t// in\n    tag_45:\n      tag_46\n      jump\t// in\n        /* \"Vault_forge/src/Diamond/AdminFacet.sol\":3453:3690  function toggleDeposits() external onlyOwner {... */\n    tag_13:\n      tag_18\n      tag_48\n      jump\t// in\n        /* \"Vault_forge/src/Diamond/AdminFacet.sol\":1521:1887  function setLidoWithdrawalAddress(... */\n    tag_14:\n      tag_18\n      tag_50\n      calldatasize\n      0x04\n      tag_26\n      jump\t// in\n    tag_50:\n      tag_51\n      jump\t// in\n        /* \"Vault_forge/src/Diamond/AdminFacet.sol\":5807:6360  function transferOwnership(address newOwner) external onlyOwner {... */\n    tag_15:\n      tag_18\n      tag_53\n      calldatasize\n      0x04\n      tag_26\n      jump\t// in\n    tag_53:\n      tag_54\n      jump\t// in\n        /* \"Vault_forge/src/Diamond/AdminFacet.sol\":3721:4248  function collectAccumulatedFees() external nonReentrant {... */\n    tag_19:\n        /* \"@openzeppelin/contracts/security/ReentrancyGuard.sol\":2261:2282  _nonReentrantBefore() */\n      tag_56\n        /* \"@openzeppelin/contracts/security/ReentrancyGuard.sol\":2261:2280  _nonReentrantBefore */\n      tag_57\n        /* \"@openzeppelin/contracts/security/ReentrancyGuard.sol\":2261:2282  _nonReentrantBefore() */\n      jump\t// in\n    tag_56:\n        /* \"Vault_forge/src/Diamond/AdminFacet.sol\":3788:3824  DiamondStorage.VaultState storage ds */\n      0x00\n        /* \"Vault_forge/src/Diamond/AdminFacet.sol\":3827:3854  DiamondStorage.getStorage() */\n      tag_59\n        /* \"Vault_forge/src/Diamond/AdminFacet.sol\":3827:3852  DiamondStorage.getStorage */\n      tag_60\n        /* \"Vault_forge/src/Diamond/AdminFacet.sol\":3827:3854  DiamondStorage.getStorage() */\n      jump\t// in\n    tag_59:\n        /* \"Vault_forge/src/Diamond/AdminFacet.sol\":3885:3900  ds.feeCollector */\n      0x09\n      dup2\n      add\n      sload\n      swap1\n      swap2\n      pop\n      sub(shl(0xa0, 0x01), 0x01)\n      and\n        /* \"Vault_forge/src/Diamond/AdminFacet.sol\":3871:3881  msg.sender */\n      caller\n        /* \"Vault_forge/src/Diamond/AdminFacet.sol\":3871:3900  msg.sender != ds.feeCollector */\n      eq\n        /* \"Vault_forge/src/Diamond/AdminFacet.sol\":3867:3924  if (msg.sender != ds.feeCollector) revert NotAuthorized() */\n      tag_61\n      jumpi\n        /* \"Vault_forge/src/Diamond/AdminFacet.sol\":3909:3924  NotAuthorized() */\n      mload(0x40)\n      shl(0xe0, 0xea8e4eb5)\n      dup2\n      mstore\n      0x04\n      add\n      mload(0x40)\n      dup1\n      swap2\n      sub\n      swap1\n      revert\n        /* \"Vault_forge/src/Diamond/AdminFacet.sol\":3867:3924  if (msg.sender != ds.feeCollector) revert NotAuthorized() */\n    tag_61:\n        /* \"Vault_forge/src/Diamond/AdminFacet.sol\":3939:3941  ds */\n      dup1\n        /* \"Vault_forge/src/Diamond/AdminFacet.sol\":3939:3957  ds.accumulatedFees */\n      0x0d\n      add\n      sload\n        /* \"Vault_forge/src/Diamond/AdminFacet.sol\":3961:3962  0 */\n      0x00\n        /* \"Vault_forge/src/Diamond/AdminFacet.sol\":3939:3962  ds.accumulatedFees == 0 */\n      sub\n        /* \"Vault_forge/src/Diamond/AdminFacet.sol\":3935:3981  if (ds.accumulatedFees == 0) revert ZeroFees() */\n      tag_62\n      jumpi\n        /* \"Vault_forge/src/Diamond/AdminFacet.sol\":3971:3981  ZeroFees() */\n      mload(0x40)\n      shl(0xe0, 0x4716db35)\n      dup2\n      mstore\n      0x04\n      add\n      mload(0x40)\n      dup1\n      swap2\n      sub\n      swap1\n      revert\n        /* \"Vault_forge/src/Diamond/AdminFacet.sol\":3935:3981  if (ds.accumulatedFees == 0) revert ZeroFees() */\n    tag_62:\n        /* \"Vault_forge/src/Diamond/AdminFacet.sol\":4018:4036  ds.accumulatedFees */\n      0x0d\n      dup2\n      add\n      dup1\n      sload\n        /* \"Vault_forge/src/Diamond/AdminFacet.sol\":3994:4015  uint256 feesToCollect */\n      0x00\n        /* \"Vault_forge/src/Diamond/AdminFacet.sol\":4047:4069  ds.accumulatedFees = 0 */\n      swap1\n      swap2\n      sstore\n        /* \"Vault_forge/src/Diamond/AdminFacet.sol\":4140:4155  ds.feeCollector */\n      0x09\n      dup3\n      add\n      sload\n        /* \"Vault_forge/src/Diamond/AdminFacet.sol\":4089:4111  ds.ASSET_TOKEN_ADDRESS */\n      0x04\n      dup4\n      add\n      sload\n        /* \"Vault_forge/src/Diamond/AdminFacet.sol\":4082:4194  IERC20(ds.ASSET_TOKEN_ADDRESS).safeTransfer(... */\n      tag_63\n      swap2\n      sub(shl(0xa0, 0x01), 0x01)\n        /* \"Vault_forge/src/Diamond/AdminFacet.sol\":4089:4111  ds.ASSET_TOKEN_ADDRESS */\n      swap2\n      dup3\n      and\n      swap2\n        /* \"Vault_forge/src/Diamond/AdminFacet.sol\":4140:4155  ds.feeCollector */\n      and\n        /* \"Vault_forge/src/Diamond/AdminFacet.sol\":4018:4036  ds.accumulatedFees */\n      dup4\n        /* \"Vault_forge/src/Diamond/AdminFacet.sol\":4082:4125  IERC20(ds.ASSET_TOKEN_ADDRESS).safeTransfer */\n      tag_64\n        /* \"Vault_forge/src/Diamond/AdminFacet.sol\":4082:4194  IERC20(ds.ASSET_TOKEN_ADDRESS).safeTransfer(... */\n      jump\t// in\n    tag_63:\n        /* \"Vault_forge/src/Diamond/AdminFacet.sol\":4212:4240  FeesCollected(feesToCollect) */\n      mload(0x40)\n        /* \"#utility.yul\":636:661   */\n      dup2\n      dup2\n      mstore\n        /* \"Vault_forge/src/Diamond/AdminFacet.sol\":4212:4240  FeesCollected(feesToCollect) */\n      0x860c0aa5520013080c2f65981705fcdea474d9f7c3daf954656ed5e65d692d1f\n      swap1\n        /* \"#utility.yul\":624:626   */\n      0x20\n        /* \"#utility.yul\":609:627   */\n      add\n        /* \"Vault_forge/src/Diamond/AdminFacet.sol\":4212:4240  FeesCollected(feesToCollect) */\n      mload(0x40)\n      dup1\n      swap2\n      sub\n      swap1\n      log1\n        /* \"Vault_forge/src/Diamond/AdminFacet.sol\":3777:4248  {... */\n      pop\n      pop\n        /* \"@openzeppelin/contracts/security/ReentrancyGuard.sol\":2303:2323  _nonReentrantAfter() */\n      tag_67\n        /* \"@openzeppelin/contracts/security/ReentrancyGuard.sol\":1716:1717  1 */\n      0x01\n        /* \"@openzeppelin/contracts/security/ReentrancyGuard.sol\":2809:2816  _status */\n      0x00\n        /* \"@openzeppelin/contracts/security/ReentrancyGuard.sol\":2809:2831  _status = _NOT_ENTERED */\n      sstore\n        /* \"@openzeppelin/contracts/security/ReentrancyGuard.sol\":2629:2838  function _nonReentrantAfter() private {... */\n      jump\n        /* \"@openzeppelin/contracts/security/ReentrancyGuard.sol\":2303:2323  _nonReentrantAfter() */\n    tag_67:\n        /* \"Vault_forge/src/Diamond/AdminFacet.sol\":3721:4248  function collectAccumulatedFees() external nonReentrant {... */\n      jump\t// out\n        /* \"Vault_forge/src/Diamond/AdminFacet.sol\":3187:3445  function toggleEmergencyShutdown() external onlyOwner {... */\n    tag_21:\n        /* \"Vault_forge/src/Diamond/AdminFacet.sol\":1342:1378  DiamondStorage.VaultState storage ds */\n      0x00\n        /* \"Vault_forge/src/Diamond/AdminFacet.sol\":1381:1408  DiamondStorage.getStorage() */\n      tag_70\n        /* \"Vault_forge/src/Diamond/AdminFacet.sol\":1381:1406  DiamondStorage.getStorage */\n      tag_60\n        /* \"Vault_forge/src/Diamond/AdminFacet.sol\":1381:1408  DiamondStorage.getStorage() */\n      jump\t// in\n    tag_70:\n        /* \"Vault_forge/src/Diamond/AdminFacet.sol\":1437:1445  ds.owner */\n      dup1\n      sload\n      swap1\n      swap2\n      pop\n      sub(shl(0xa0, 0x01), 0x01)\n      and\n        /* \"Vault_forge/src/Diamond/AdminFacet.sol\":1423:1433  msg.sender */\n      caller\n        /* \"Vault_forge/src/Diamond/AdminFacet.sol\":1423:1445  msg.sender != ds.owner */\n      eq\n        /* \"Vault_forge/src/Diamond/AdminFacet.sol\":1419:1469  if (msg.sender != ds.owner) revert NotAuthorized() */\n      tag_71\n      jumpi\n        /* \"Vault_forge/src/Diamond/AdminFacet.sol\":1454:1469  NotAuthorized() */\n      mload(0x40)\n      shl(0xe0, 0xea8e4eb5)\n      dup2\n      mstore\n      0x04\n      add\n      mload(0x40)\n      dup1\n      swap2\n      sub\n      swap1\n      revert\n        /* \"Vault_forge/src/Diamond/AdminFacet.sol\":1419:1469  if (msg.sender != ds.owner) revert NotAuthorized() */\n    tag_71:\n        /* \"Vault_forge/src/Diamond/AdminFacet.sol\":3252:3288  DiamondStorage.VaultState storage ds */\n      0x00\n        /* \"Vault_forge/src/Diamond/AdminFacet.sol\":3291:3318  DiamondStorage.getStorage() */\n      tag_73\n        /* \"Vault_forge/src/Diamond/AdminFacet.sol\":3291:3316  DiamondStorage.getStorage */\n      tag_60\n        /* \"Vault_forge/src/Diamond/AdminFacet.sol\":3291:3318  DiamondStorage.getStorage() */\n      jump\t// in\n    tag_73:\n        /* \"Vault_forge/src/Diamond/AdminFacet.sol\":3353:3373  ds.emergencyShutdown */\n      0x09\n      dup2\n      add\n      dup1\n      sload\n      0xff\n      shl(0xa0, 0x01)\n      dup1\n      dup4\n      div\n      dup3\n      and\n        /* \"Vault_forge/src/Diamond/AdminFacet.sol\":3352:3373  !ds.emergencyShutdown */\n      iszero\n        /* \"Vault_forge/src/Diamond/AdminFacet.sol\":3329:3373  ds.emergencyShutdown = !ds.emergencyShutdown */\n      dup2\n      mul\n      not(shl(0xa0, 0xff))\n      swap1\n      swap4\n      and\n      swap3\n      swap1\n      swap3\n      or\n      swap3\n      dup4\n      swap1\n      sstore\n        /* \"Vault_forge/src/Diamond/AdminFacet.sol\":3391:3437  EmergencyShutdownToggled(ds.emergencyShutdown) */\n      mload(0x40)\n        /* \"Vault_forge/src/Diamond/AdminFacet.sol\":3252:3318  DiamondStorage.VaultState storage ds = DiamondStorage.getStorage() */\n      swap4\n      swap5\n      pop\n        /* \"Vault_forge/src/Diamond/AdminFacet.sol\":3391:3437  EmergencyShutdownToggled(ds.emergencyShutdown) */\n      0xf3017345aa4f4b1edf82d1945ba8aaf39d9f284595b090260947f03bc53566f1\n      swap4\n      tag_74\n      swap4\n        /* \"Vault_forge/src/Diamond/AdminFacet.sol\":3416:3436  ds.emergencyShutdown */\n      swap3\n      swap1\n      swap3\n      div\n      and\n        /* \"#utility.yul\":837:851   */\n      iszero\n        /* \"#utility.yul\":830:852   */\n      iszero\n        /* \"#utility.yul\":812:853   */\n      dup2\n      mstore\n        /* \"#utility.yul\":800:802   */\n      0x20\n        /* \"#utility.yul\":785:803   */\n      add\n      swap1\n        /* \"#utility.yul\":672:859   */\n      jump\n        /* \"Vault_forge/src/Diamond/AdminFacet.sol\":3391:3437  EmergencyShutdownToggled(ds.emergencyShutdown) */\n    tag_74:\n      mload(0x40)\n      dup1\n      swap2\n      sub\n      swap1\n      log1\n        /* \"Vault_forge/src/Diamond/AdminFacet.sol\":3241:3445  {... */\n      pop\n        /* \"Vault_forge/src/Diamond/AdminFacet.sol\":1331:1489  {... */\n      pop\n        /* \"Vault_forge/src/Diamond/AdminFacet.sol\":3187:3445  function toggleEmergencyShutdown() external onlyOwner {... */\n      jump\t// out\n        /* \"Vault_forge/src/Diamond/AdminFacet.sol\":4280:4845  function triggerDailyUpdate() external onlyOwner {... */\n    tag_23:\n        /* \"Vault_forge/src/Diamond/AdminFacet.sol\":1342:1378  DiamondStorage.VaultState storage ds */\n      0x00\n        /* \"Vault_forge/src/Diamond/AdminFacet.sol\":1381:1408  DiamondStorage.getStorage() */\n      tag_77\n        /* \"Vault_forge/src/Diamond/AdminFacet.sol\":1381:1406  DiamondStorage.getStorage */\n      tag_60\n        /* \"Vault_forge/src/Diamond/AdminFacet.sol\":1381:1408  DiamondStorage.getStorage() */\n      jump\t// in\n    tag_77:\n        /* \"Vault_forge/src/Diamond/AdminFacet.sol\":1437:1445  ds.owner */\n      dup1\n      sload\n      swap1\n      swap2\n      pop\n      sub(shl(0xa0, 0x01), 0x01)\n      and\n        /* \"Vault_forge/src/Diamond/AdminFacet.sol\":1423:1433  msg.sender */\n      caller\n        /* \"Vault_forge/src/Diamond/AdminFacet.sol\":1423:1445  msg.sender != ds.owner */\n      eq\n        /* \"Vault_forge/src/Diamond/AdminFacet.sol\":1419:1469  if (msg.sender != ds.owner) revert NotAuthorized() */\n      tag_78\n      jumpi\n        /* \"Vault_forge/src/Diamond/AdminFacet.sol\":1454:1469  NotAuthorized() */\n      mload(0x40)\n      shl(0xe0, 0xea8e4eb5)\n      dup2\n      mstore\n      0x04\n      add\n      mload(0x40)\n      dup1\n      swap2\n      sub\n      swap1\n      revert\n        /* \"Vault_forge/src/Diamond/AdminFacet.sol\":1419:1469  if (msg.sender != ds.owner) revert NotAuthorized() */\n    tag_78:\n        /* \"Vault_forge/src/Diamond/AdminFacet.sol\":4340:4376  DiamondStorage.VaultState storage ds */\n      0x00\n        /* \"Vault_forge/src/Diamond/AdminFacet.sol\":4379:4406  DiamondStorage.getStorage() */\n      tag_80\n        /* \"Vault_forge/src/Diamond/AdminFacet.sol\":4379:4404  DiamondStorage.getStorage */\n      tag_60\n        /* \"Vault_forge/src/Diamond/AdminFacet.sol\":4379:4406  DiamondStorage.getStorage() */\n      jump\t// in\n    tag_80:\n        /* \"Vault_forge/src/Diamond/AdminFacet.sol\":4340:4406  DiamondStorage.VaultState storage ds = DiamondStorage.getStorage() */\n      swap1\n      pop\n        /* \"Vault_forge/src/Diamond/AdminFacet.sol\":589:595  1 days */\n      0x015180\n        /* \"Vault_forge/src/Diamond/AdminFacet.sol\":4441:4443  ds */\n      dup2\n        /* \"Vault_forge/src/Diamond/AdminFacet.sol\":4441:4459  ds.lastDailyUpdate */\n      0x0b\n      add\n      sload\n        /* \"Vault_forge/src/Diamond/AdminFacet.sol\":4441:4477  ds.lastDailyUpdate + UPDATE_INTERVAL */\n      tag_81\n      swap2\n      swap1\n      tag_82\n      jump\t// in\n    tag_81:\n        /* \"Vault_forge/src/Diamond/AdminFacet.sol\":4423:4438  block.timestamp */\n      timestamp\n        /* \"Vault_forge/src/Diamond/AdminFacet.sol\":4423:4477  block.timestamp < ds.lastDailyUpdate + UPDATE_INTERVAL */\n      lt\n        /* \"Vault_forge/src/Diamond/AdminFacet.sol\":4419:4516  if (block.timestamp < ds.lastDailyUpdate + UPDATE_INTERVAL)... */\n      iszero\n      tag_83\n      jumpi\n        /* \"Vault_forge/src/Diamond/AdminFacet.sol\":4499:4516  TooSoonToUpdate() */\n      mload(0x40)\n      shl(0xe0, 0xe10ceb11)\n      dup2\n      mstore\n      0x04\n      add\n      mload(0x40)\n      dup1\n      swap2\n      sub\n      swap1\n      revert\n        /* \"Vault_forge/src/Diamond/AdminFacet.sol\":4419:4516  if (block.timestamp < ds.lastDailyUpdate + UPDATE_INTERVAL)... */\n    tag_83:\n        /* \"Vault_forge/src/Diamond/AdminFacet.sol\":4767:4782  block.timestamp */\n      timestamp\n        /* \"Vault_forge/src/Diamond/AdminFacet.sol\":4746:4764  ds.lastDailyUpdate */\n      0x0b\n      dup3\n      add\n        /* \"Vault_forge/src/Diamond/AdminFacet.sol\":4746:4782  ds.lastDailyUpdate = block.timestamp */\n      dup2\n      swap1\n      sstore\n        /* \"Vault_forge/src/Diamond/AdminFacet.sol\":4800:4837  DailyUpdateTriggered(block.timestamp) */\n      mload(0x40)\n        /* \"#utility.yul\":636:661   */\n      swap1\n      dup2\n      mstore\n        /* \"Vault_forge/src/Diamond/AdminFacet.sol\":4800:4837  DailyUpdateTriggered(block.timestamp) */\n      0x33774f379c2063e81904e4e67242b165586dfc117cb89f7baeb19e04ef39a3be\n      swap1\n        /* \"#utility.yul\":624:626   */\n      0x20\n        /* \"#utility.yul\":609:627   */\n      add\n        /* \"Vault_forge/src/Diamond/AdminFacet.sol\":4800:4837  DailyUpdateTriggered(block.timestamp) */\n      tag_74\n        /* \"#utility.yul\":490:667   */\n      jump\n        /* \"Vault_forge/src/Diamond/AdminFacet.sol\":2197:2508  function setReceiverContract(address _receiver) external onlyOwner {... */\n    tag_27:\n        /* \"Vault_forge/src/Diamond/AdminFacet.sol\":1342:1378  DiamondStorage.VaultState storage ds */\n      0x00\n        /* \"Vault_forge/src/Diamond/AdminFacet.sol\":1381:1408  DiamondStorage.getStorage() */\n      tag_86\n        /* \"Vault_forge/src/Diamond/AdminFacet.sol\":1381:1406  DiamondStorage.getStorage */\n      tag_60\n        /* \"Vault_forge/src/Diamond/AdminFacet.sol\":1381:1408  DiamondStorage.getStorage() */\n      jump\t// in\n    tag_86:\n        /* \"Vault_forge/src/Diamond/AdminFacet.sol\":1437:1445  ds.owner */\n      dup1\n      sload\n      swap1\n      swap2\n      pop\n      sub(shl(0xa0, 0x01), 0x01)\n      and\n        /* \"Vault_forge/src/Diamond/AdminFacet.sol\":1423:1433  msg.sender */\n      caller\n        /* \"Vault_forge/src/Diamond/AdminFacet.sol\":1423:1445  msg.sender != ds.owner */\n      eq\n        /* \"Vault_forge/src/Diamond/AdminFacet.sol\":1419:1469  if (msg.sender != ds.owner) revert NotAuthorized() */\n      tag_87\n      jumpi\n        /* \"Vault_forge/src/Diamond/AdminFacet.sol\":1454:1469  NotAuthorized() */\n      mload(0x40)\n      shl(0xe0, 0xea8e4eb5)\n      dup2\n      mstore\n      0x04\n      add\n      mload(0x40)\n      dup1\n      swap2\n      sub\n      swap1\n      revert\n        /* \"Vault_forge/src/Diamond/AdminFacet.sol\":1419:1469  if (msg.sender != ds.owner) revert NotAuthorized() */\n    tag_87:\n      sub(shl(0xa0, 0x01), 0x01)\n        /* \"Vault_forge/src/Diamond/AdminFacet.sol\":2279:2302  _receiver == address(0) */\n      dup3\n      and\n        /* \"Vault_forge/src/Diamond/AdminFacet.sol\":2275:2327  if (_receiver == address(0)) revert InvalidAddress() */\n      tag_89\n      jumpi\n        /* \"Vault_forge/src/Diamond/AdminFacet.sol\":2311:2327  InvalidAddress() */\n      mload(0x40)\n      shl(0xe0, 0xe6c4247b)\n      dup2\n      mstore\n      0x04\n      add\n      mload(0x40)\n      dup1\n      swap2\n      sub\n      swap1\n      revert\n        /* \"Vault_forge/src/Diamond/AdminFacet.sol\":2275:2327  if (_receiver == address(0)) revert InvalidAddress() */\n    tag_89:\n        /* \"Vault_forge/src/Diamond/AdminFacet.sol\":2340:2376  DiamondStorage.VaultState storage ds */\n      0x00\n        /* \"Vault_forge/src/Diamond/AdminFacet.sol\":2379:2406  DiamondStorage.getStorage() */\n      tag_90\n        /* \"Vault_forge/src/Diamond/AdminFacet.sol\":2379:2404  DiamondStorage.getStorage */\n      tag_60\n        /* \"Vault_forge/src/Diamond/AdminFacet.sol\":2379:2406  DiamondStorage.getStorage() */\n      jump\t// in\n    tag_90:\n        /* \"Vault_forge/src/Diamond/AdminFacet.sol\":2417:2436  ds.receiverContract */\n      0x08\n      dup2\n      add\n        /* \"Vault_forge/src/Diamond/AdminFacet.sol\":2417:2448  ds.receiverContract = _receiver */\n      dup1\n      sload\n      not(sub(shl(0xa0, 0x01), 0x01))\n      and\n      sub(shl(0xa0, 0x01), 0x01)\n      dup7\n      and\n      swap1\n      dup2\n      or\n      swap1\n      swap2\n      sstore\n        /* \"Vault_forge/src/Diamond/AdminFacet.sol\":2466:2500  ReceiverContractUpdated(_receiver) */\n      mload(0x40)\n        /* \"Vault_forge/src/Diamond/AdminFacet.sol\":2417:2436  ds.receiverContract */\n      swap2\n      swap3\n      pop\n        /* \"Vault_forge/src/Diamond/AdminFacet.sol\":2417:2448  ds.receiverContract = _receiver */\n      swap1\n        /* \"Vault_forge/src/Diamond/AdminFacet.sol\":2466:2500  ReceiverContractUpdated(_receiver) */\n      0x66c8ee4f501025a135e9b302cead3d51cc5bf10c9496086853c1c961e6d91ee8\n      swap1\n      0x00\n      swap1\n      log2\n        /* \"Vault_forge/src/Diamond/AdminFacet.sol\":2264:2508  {... */\n      pop\n        /* \"Vault_forge/src/Diamond/AdminFacet.sol\":1331:1489  {... */\n      pop\n        /* \"Vault_forge/src/Diamond/AdminFacet.sol\":2197:2508  function setReceiverContract(address _receiver) external onlyOwner {... */\n      pop\n      jump\t// out\n        /* \"Vault_forge/src/Diamond/AdminFacet.sol\":4900:5233  function queueOperation(bytes32 operationId) external onlyOwner {... */\n    tag_31:\n        /* \"Vault_forge/src/Diamond/AdminFacet.sol\":1342:1378  DiamondStorage.VaultState storage ds */\n      0x00\n        /* \"Vault_forge/src/Diamond/AdminFacet.sol\":1381:1408  DiamondStorage.getStorage() */\n      tag_92\n        /* \"Vault_forge/src/Diamond/AdminFacet.sol\":1381:1406  DiamondStorage.getStorage */\n      tag_60\n        /* \"Vault_forge/src/Diamond/AdminFacet.sol\":1381:1408  DiamondStorage.getStorage() */\n      jump\t// in\n    tag_92:\n        /* \"Vault_forge/src/Diamond/AdminFacet.sol\":1437:1445  ds.owner */\n      dup1\n      sload\n      swap1\n      swap2\n      pop\n      sub(shl(0xa0, 0x01), 0x01)\n      and\n        /* \"Vault_forge/src/Diamond/AdminFacet.sol\":1423:1433  msg.sender */\n      caller\n        /* \"Vault_forge/src/Diamond/AdminFacet.sol\":1423:1445  msg.sender != ds.owner */\n      eq\n        /* \"Vault_forge/src/Diamond/AdminFacet.sol\":1419:1469  if (msg.sender != ds.owner) revert NotAuthorized() */\n      tag_93\n      jumpi\n        /* \"Vault_forge/src/Diamond/AdminFacet.sol\":1454:1469  NotAuthorized() */\n      mload(0x40)\n      shl(0xe0, 0xea8e4eb5)\n      dup2\n      mstore\n      0x04\n      add\n      mload(0x40)\n      dup1\n      swap2\n      sub\n      swap1\n      revert\n        /* \"Vault_forge/src/Diamond/AdminFacet.sol\":1419:1469  if (msg.sender != ds.owner) revert NotAuthorized() */\n    tag_93:\n        /* \"Vault_forge/src/Diamond/AdminFacet.sol\":4975:5011  DiamondStorage.VaultState storage ds */\n      0x00\n        /* \"Vault_forge/src/Diamond/AdminFacet.sol\":5014:5041  DiamondStorage.getStorage() */\n      tag_95\n        /* \"Vault_forge/src/Diamond/AdminFacet.sol\":5014:5039  DiamondStorage.getStorage */\n      tag_60\n        /* \"Vault_forge/src/Diamond/AdminFacet.sol\":5014:5041  DiamondStorage.getStorage() */\n      jump\t// in\n    tag_95:\n        /* \"Vault_forge/src/Diamond/AdminFacet.sol\":4975:5041  DiamondStorage.VaultState storage ds = DiamondStorage.getStorage() */\n      swap1\n      pop\n        /* \"Vault_forge/src/Diamond/AdminFacet.sol\":5052:5070  uint256 unlockTime */\n      0x00\n        /* \"Vault_forge/src/Diamond/AdminFacet.sol\":5073:5108  block.timestamp + TIMELOCK_DURATION */\n      tag_96\n        /* \"Vault_forge/src/Diamond/AdminFacet.sol\":533:539  2 days */\n      0x02a300\n        /* \"Vault_forge/src/Diamond/AdminFacet.sol\":5073:5088  block.timestamp */\n      timestamp\n        /* \"Vault_forge/src/Diamond/AdminFacet.sol\":5073:5108  block.timestamp + TIMELOCK_DURATION */\n      tag_82\n      jump\t// in\n    tag_96:\n        /* \"Vault_forge/src/Diamond/AdminFacet.sol\":5121:5154  ds.pendingOperations[operationId] */\n      0x00\n      dup6\n      dup2\n      mstore\n        /* \"Vault_forge/src/Diamond/AdminFacet.sol\":5121:5141  ds.pendingOperations */\n      0x1c\n      dup5\n      add\n        /* \"Vault_forge/src/Diamond/AdminFacet.sol\":5121:5154  ds.pendingOperations[operationId] */\n      0x20\n      mstore\n      0x40\n      swap1\n      dup2\n      swap1\n      keccak256\n        /* \"Vault_forge/src/Diamond/AdminFacet.sol\":5121:5167  ds.pendingOperations[operationId] = unlockTime */\n      dup3\n      swap1\n      sstore\n        /* \"Vault_forge/src/Diamond/AdminFacet.sol\":5185:5225  OperationQueued(operationId, unlockTime) */\n      mload\n        /* \"Vault_forge/src/Diamond/AdminFacet.sol\":5052:5108  uint256 unlockTime = block.timestamp + TIMELOCK_DURATION */\n      swap1\n      swap2\n      pop\n        /* \"Vault_forge/src/Diamond/AdminFacet.sol\":5142:5153  operationId */\n      dup5\n      swap1\n        /* \"Vault_forge/src/Diamond/AdminFacet.sol\":5185:5225  OperationQueued(operationId, unlockTime) */\n      0x610f97886f7c2cfa9f3cb01126b63839d9b9ee8da397c06b368a98856b214634\n      swap1\n      tag_97\n      swap1\n        /* \"Vault_forge/src/Diamond/AdminFacet.sol\":5052:5108  uint256 unlockTime = block.timestamp + TIMELOCK_DURATION */\n      dup5\n        /* \"#utility.yul\":636:661   */\n      dup2\n      mstore\n        /* \"#utility.yul\":624:626   */\n      0x20\n        /* \"#utility.yul\":609:627   */\n      add\n      swap1\n        /* \"#utility.yul\":490:667   */\n      jump\n        /* \"Vault_forge/src/Diamond/AdminFacet.sol\":5185:5225  OperationQueued(operationId, unlockTime) */\n    tag_97:\n      mload(0x40)\n      dup1\n      swap2\n      sub\n      swap1\n      log2\n        /* \"Vault_forge/src/Diamond/AdminFacet.sol\":4964:5233  {... */\n      pop\n      pop\n        /* \"Vault_forge/src/Diamond/AdminFacet.sol\":1331:1489  {... */\n      pop\n        /* \"Vault_forge/src/Diamond/AdminFacet.sol\":4900:5233  function queueOperation(bytes32 operationId) external onlyOwner {... */\n      pop\n      jump\t// out\n        /* \"Vault_forge/src/Diamond/AdminFacet.sol\":6368:7094  function completeOwnershipTransfer(address newOwner) external onlyOwner {... */\n    tag_34:\n        /* \"Vault_forge/src/Diamond/AdminFacet.sol\":1342:1378  DiamondStorage.VaultState storage ds */\n      0x00\n        /* \"Vault_forge/src/Diamond/AdminFacet.sol\":1381:1408  DiamondStorage.getStorage() */\n      tag_99\n        /* \"Vault_forge/src/Diamond/AdminFacet.sol\":1381:1406  DiamondStorage.getStorage */\n      tag_60\n        /* \"Vault_forge/src/Diamond/AdminFacet.sol\":1381:1408  DiamondStorage.getStorage() */\n      jump\t// in\n    tag_99:\n        /* \"Vault_forge/src/Diamond/AdminFacet.sol\":1437:1445  ds.owner */\n      dup1\n      sload\n      swap1\n      swap2\n      pop\n      sub(shl(0xa0, 0x01), 0x01)\n      and\n        /* \"Vault_forge/src/Diamond/AdminFacet.sol\":1423:1433  msg.sender */\n      caller\n        /* \"Vault_forge/src/Diamond/AdminFacet.sol\":1423:1445  msg.sender != ds.owner */\n      eq\n        /* \"Vault_forge/src/Diamond/AdminFacet.sol\":1419:1469  if (msg.sender != ds.owner) revert NotAuthorized() */\n      tag_100\n      jumpi\n        /* \"Vault_forge/src/Diamond/AdminFacet.sol\":1454:1469  NotAuthorized() */\n      mload(0x40)\n      shl(0xe0, 0xea8e4eb5)\n      dup2\n      mstore\n      0x04\n      add\n      mload(0x40)\n      dup1\n      swap2\n      sub\n      swap1\n      revert\n        /* \"Vault_forge/src/Diamond/AdminFacet.sol\":1419:1469  if (msg.sender != ds.owner) revert NotAuthorized() */\n    tag_100:\n      sub(shl(0xa0, 0x01), 0x01)\n        /* \"Vault_forge/src/Diamond/AdminFacet.sol\":6455:6477  newOwner == address(0) */\n      dup3\n      and\n        /* \"Vault_forge/src/Diamond/AdminFacet.sol\":6451:6502  if (newOwner == address(0)) revert InvalidAddress() */\n      tag_102\n      jumpi\n        /* \"Vault_forge/src/Diamond/AdminFacet.sol\":6486:6502  InvalidAddress() */\n      mload(0x40)\n      shl(0xe0, 0xe6c4247b)\n      dup2\n      mstore\n      0x04\n      add\n      mload(0x40)\n      dup1\n      swap2\n      sub\n      swap1\n      revert\n        /* \"Vault_forge/src/Diamond/AdminFacet.sol\":6451:6502  if (newOwner == address(0)) revert InvalidAddress() */\n    tag_102:\n        /* \"Vault_forge/src/Diamond/AdminFacet.sol\":6515:6551  DiamondStorage.VaultState storage ds */\n      0x00\n        /* \"Vault_forge/src/Diamond/AdminFacet.sol\":6554:6581  DiamondStorage.getStorage() */\n      tag_103\n        /* \"Vault_forge/src/Diamond/AdminFacet.sol\":6554:6579  DiamondStorage.getStorage */\n      tag_60\n        /* \"Vault_forge/src/Diamond/AdminFacet.sol\":6554:6581  DiamondStorage.getStorage() */\n      jump\t// in\n    tag_103:\n        /* \"Vault_forge/src/Diamond/AdminFacet.sol\":6515:6581  DiamondStorage.VaultState storage ds = DiamondStorage.getStorage() */\n      swap1\n      pop\n        /* \"Vault_forge/src/Diamond/AdminFacet.sol\":6638:6657  bytes32 operationId */\n      0x00\n        /* \"Vault_forge/src/Diamond/AdminFacet.sol\":6722:6730  newOwner */\n      dup4\n        /* \"Vault_forge/src/Diamond/AdminFacet.sol\":6684:6731  abi.encodePacked(\"transferOwnership\", newOwner) */\n      add(0x20, mload(0x40))\n      tag_104\n      swap2\n      swap1\n      tag_105\n      jump\t// in\n    tag_104:\n      0x40\n      dup1\n      mload\n      not(0x1f)\n      dup2\n      dup5\n      sub\n      add\n      dup2\n      mstore\n      swap2\n      dup2\n      mstore\n        /* \"Vault_forge/src/Diamond/AdminFacet.sol\":6660:6742  keccak256(... */\n      dup2\n      mload\n        /* \"Vault_forge/src/Diamond/AdminFacet.sol\":6684:6731  abi.encodePacked(\"transferOwnership\", newOwner) */\n      0x20\n        /* \"Vault_forge/src/Diamond/AdminFacet.sol\":6660:6742  keccak256(... */\n      swap3\n      dup4\n      add\n      keccak256\n        /* \"Vault_forge/src/Diamond/AdminFacet.sol\":6753:6771  uint256 unlockTime */\n      0x00\n        /* \"Vault_forge/src/Diamond/AdminFacet.sol\":6774:6807  ds.pendingOperations[operationId] */\n      dup2\n      dup2\n      mstore\n        /* \"Vault_forge/src/Diamond/AdminFacet.sol\":6774:6794  ds.pendingOperations */\n      0x1c\n      dup7\n      add\n        /* \"Vault_forge/src/Diamond/AdminFacet.sol\":6774:6807  ds.pendingOperations[operationId] */\n      swap1\n      swap4\n      mstore\n      swap2\n      keccak256\n      sload\n        /* \"Vault_forge/src/Diamond/AdminFacet.sol\":6660:6742  keccak256(... */\n      swap1\n      swap2\n      pop\n        /* \"Vault_forge/src/Diamond/AdminFacet.sol\":6824:6839  unlockTime == 0 */\n      dup1\n      iszero\n      dup1\n        /* \"Vault_forge/src/Diamond/AdminFacet.sol\":6824:6871  unlockTime == 0 || block.timestamp < unlockTime */\n      tag_106\n      jumpi\n      pop\n        /* \"Vault_forge/src/Diamond/AdminFacet.sol\":6861:6871  unlockTime */\n      dup1\n        /* \"Vault_forge/src/Diamond/AdminFacet.sol\":6843:6858  block.timestamp */\n      timestamp\n        /* \"Vault_forge/src/Diamond/AdminFacet.sol\":6843:6871  block.timestamp < unlockTime */\n      lt\n        /* \"Vault_forge/src/Diamond/AdminFacet.sol\":6824:6871  unlockTime == 0 || block.timestamp < unlockTime */\n    tag_106:\n        /* \"Vault_forge/src/Diamond/AdminFacet.sol\":6820:6912  if (unlockTime == 0 || block.timestamp < unlockTime)... */\n      iszero\n      tag_107\n      jumpi\n        /* \"Vault_forge/src/Diamond/AdminFacet.sol\":6893:6912  OperationNotReady() */\n      mload(0x40)\n      shl(0xe0, 0xf800799b)\n      dup2\n      mstore\n      0x04\n      add\n      mload(0x40)\n      dup1\n      swap2\n      sub\n      swap1\n      revert\n        /* \"Vault_forge/src/Diamond/AdminFacet.sol\":6820:6912  if (unlockTime == 0 || block.timestamp < unlockTime)... */\n    tag_107:\n        /* \"Vault_forge/src/Diamond/AdminFacet.sol\":6968:6987  ds.owner = newOwner */\n      dup3\n      sload\n      not(sub(shl(0xa0, 0x01), 0x01))\n      and\n      sub(shl(0xa0, 0x01), 0x01)\n      dup7\n      and\n      or\n      dup4\n      sstore\n      0x00\n        /* \"Vault_forge/src/Diamond/AdminFacet.sol\":7005:7038  ds.pendingOperations[operationId] */\n      dup3\n      dup2\n      mstore\n        /* \"Vault_forge/src/Diamond/AdminFacet.sol\":7005:7025  ds.pendingOperations */\n      0x1c\n      dup5\n      add\n        /* \"Vault_forge/src/Diamond/AdminFacet.sol\":7005:7038  ds.pendingOperations[operationId] */\n      0x20\n      mstore\n      0x40\n      dup1\n      dup3\n      keccak256\n        /* \"Vault_forge/src/Diamond/AdminFacet.sol\":6998:7038  delete ds.pendingOperations[operationId] */\n      dup3\n      swap1\n      sstore\n        /* \"Vault_forge/src/Diamond/AdminFacet.sol\":7056:7086  OperationExecuted(operationId) */\n      mload\n        /* \"Vault_forge/src/Diamond/AdminFacet.sol\":7005:7038  ds.pendingOperations[operationId] */\n      dup4\n      swap2\n        /* \"Vault_forge/src/Diamond/AdminFacet.sol\":7056:7086  OperationExecuted(operationId) */\n      0x1277662f4b42b8a4069e99fb5e41ce8919d3c621156090ac08fb11adbcec66f9\n      swap2\n      log2\n        /* \"Vault_forge/src/Diamond/AdminFacet.sol\":6440:7094  {... */\n      pop\n      pop\n      pop\n        /* \"Vault_forge/src/Diamond/AdminFacet.sol\":1331:1489  {... */\n      pop\n        /* \"Vault_forge/src/Diamond/AdminFacet.sol\":6368:7094  function completeOwnershipTransfer(address newOwner) external onlyOwner {... */\n      pop\n      jump\t// out\n        /* \"Vault_forge/src/Diamond/AdminFacet.sol\":1895:2189  function setWstETHAddress(address _wstETH) external onlyOwner {... */\n    tag_37:\n        /* \"Vault_forge/src/Diamond/AdminFacet.sol\":1342:1378  DiamondStorage.VaultState storage ds */\n      0x00\n        /* \"Vault_forge/src/Diamond/AdminFacet.sol\":1381:1408  DiamondStorage.getStorage() */\n      tag_109\n        /* \"Vault_forge/src/Diamond/AdminFacet.sol\":1381:1406  DiamondStorage.getStorage */\n      tag_60\n        /* \"Vault_forge/src/Diamond/AdminFacet.sol\":1381:1408  DiamondStorage.getStorage() */\n      jump\t// in\n    tag_109:\n        /* \"Vault_forge/src/Diamond/AdminFacet.sol\":1437:1445  ds.owner */\n      dup1\n      sload\n      swap1\n      swap2\n      pop\n      sub(shl(0xa0, 0x01), 0x01)\n      and\n        /* \"Vault_forge/src/Diamond/AdminFacet.sol\":1423:1433  msg.sender */\n      caller\n        /* \"Vault_forge/src/Diamond/AdminFacet.sol\":1423:1445  msg.sender != ds.owner */\n      eq\n        /* \"Vault_forge/src/Diamond/AdminFacet.sol\":1419:1469  if (msg.sender != ds.owner) revert NotAuthorized() */\n      tag_110\n      jumpi\n        /* \"Vault_forge/src/Diamond/AdminFacet.sol\":1454:1469  NotAuthorized() */\n      mload(0x40)\n      shl(0xe0, 0xea8e4eb5)\n      dup2\n      mstore\n      0x04\n      add\n      mload(0x40)\n      dup1\n      swap2\n      sub\n      swap1\n      revert\n        /* \"Vault_forge/src/Diamond/AdminFacet.sol\":1419:1469  if (msg.sender != ds.owner) revert NotAuthorized() */\n    tag_110:\n      sub(shl(0xa0, 0x01), 0x01)\n        /* \"Vault_forge/src/Diamond/AdminFacet.sol\":1972:1993  _wstETH == address(0) */\n      dup3\n      and\n        /* \"Vault_forge/src/Diamond/AdminFacet.sol\":1968:2018  if (_wstETH == address(0)) revert InvalidAddress() */\n      tag_112\n      jumpi\n        /* \"Vault_forge/src/Diamond/AdminFacet.sol\":2002:2018  InvalidAddress() */\n      mload(0x40)\n      shl(0xe0, 0xe6c4247b)\n      dup2\n      mstore\n      0x04\n      add\n      mload(0x40)\n      dup1\n      swap2\n      sub\n      swap1\n      revert\n        /* \"Vault_forge/src/Diamond/AdminFacet.sol\":1968:2018  if (_wstETH == address(0)) revert InvalidAddress() */\n    tag_112:\n        /* \"Vault_forge/src/Diamond/AdminFacet.sol\":2031:2067  DiamondStorage.VaultState storage ds */\n      0x00\n        /* \"Vault_forge/src/Diamond/AdminFacet.sol\":2070:2097  DiamondStorage.getStorage() */\n      tag_113\n        /* \"Vault_forge/src/Diamond/AdminFacet.sol\":2070:2095  DiamondStorage.getStorage */\n      tag_60\n        /* \"Vault_forge/src/Diamond/AdminFacet.sol\":2070:2097  DiamondStorage.getStorage() */\n      jump\t// in\n    tag_113:\n        /* \"Vault_forge/src/Diamond/AdminFacet.sol\":2108:2124  ds.wstETHAddress */\n      0x07\n      dup2\n      add\n        /* \"Vault_forge/src/Diamond/AdminFacet.sol\":2108:2134  ds.wstETHAddress = _wstETH */\n      dup1\n      sload\n      not(sub(shl(0xa0, 0x01), 0x01))\n      and\n      sub(shl(0xa0, 0x01), 0x01)\n      dup7\n      and\n      swap1\n      dup2\n      or\n      swap1\n      swap2\n      sstore\n        /* \"Vault_forge/src/Diamond/AdminFacet.sol\":2152:2181  WstETHAddressUpdated(_wstETH) */\n      mload(0x40)\n        /* \"Vault_forge/src/Diamond/AdminFacet.sol\":2108:2124  ds.wstETHAddress */\n      swap2\n      swap3\n      pop\n        /* \"Vault_forge/src/Diamond/AdminFacet.sol\":2108:2134  ds.wstETHAddress = _wstETH */\n      swap1\n        /* \"Vault_forge/src/Diamond/AdminFacet.sol\":2152:2181  WstETHAddressUpdated(_wstETH) */\n      0xb72b4dd67ddcbcd61a6ebffbe1cca26d032c45f9d3a6f3c596e95e298717f746\n      swap1\n      0x00\n      swap1\n      log2\n        /* \"Vault_forge/src/Diamond/AdminFacet.sol\":1957:2189  {... */\n      pop\n        /* \"Vault_forge/src/Diamond/AdminFacet.sol\":1331:1489  {... */\n      pop\n        /* \"Vault_forge/src/Diamond/AdminFacet.sol\":1895:2189  function setWstETHAddress(address _wstETH) external onlyOwner {... */\n      pop\n      jump\t// out\n        /* \"Vault_forge/src/Diamond/AdminFacet.sol\":2839:3154  function setFeeCollector(address _feeCollector) external onlyOwner {... */\n    tag_40:\n        /* \"Vault_forge/src/Diamond/AdminFacet.sol\":1342:1378  DiamondStorage.VaultState storage ds */\n      0x00\n        /* \"Vault_forge/src/Diamond/AdminFacet.sol\":1381:1408  DiamondStorage.getStorage() */\n      tag_115\n        /* \"Vault_forge/src/Diamond/AdminFacet.sol\":1381:1406  DiamondStorage.getStorage */\n      tag_60\n        /* \"Vault_forge/src/Diamond/AdminFacet.sol\":1381:1408  DiamondStorage.getStorage() */\n      jump\t// in\n    tag_115:\n        /* \"Vault_forge/src/Diamond/AdminFacet.sol\":1437:1445  ds.owner */\n      dup1\n      sload\n      swap1\n      swap2\n      pop\n      sub(shl(0xa0, 0x01), 0x01)\n      and\n        /* \"Vault_forge/src/Diamond/AdminFacet.sol\":1423:1433  msg.sender */\n      caller\n        /* \"Vault_forge/src/Diamond/AdminFacet.sol\":1423:1445  msg.sender != ds.owner */\n      eq\n        /* \"Vault_forge/src/Diamond/AdminFacet.sol\":1419:1469  if (msg.sender != ds.owner) revert NotAuthorized() */\n      tag_116\n      jumpi\n        /* \"Vault_forge/src/Diamond/AdminFacet.sol\":1454:1469  NotAuthorized() */\n      mload(0x40)\n      shl(0xe0, 0xea8e4eb5)\n      dup2\n      mstore\n      0x04\n      add\n      mload(0x40)\n      dup1\n      swap2\n      sub\n      swap1\n      revert\n        /* \"Vault_forge/src/Diamond/AdminFacet.sol\":1419:1469  if (msg.sender != ds.owner) revert NotAuthorized() */\n    tag_116:\n      sub(shl(0xa0, 0x01), 0x01)\n        /* \"Vault_forge/src/Diamond/AdminFacet.sol\":2921:2948  _feeCollector == address(0) */\n      dup3\n      and\n        /* \"Vault_forge/src/Diamond/AdminFacet.sol\":2917:2973  if (_feeCollector == address(0)) revert InvalidAddress() */\n      tag_118\n      jumpi\n        /* \"Vault_forge/src/Diamond/AdminFacet.sol\":2957:2973  InvalidAddress() */\n      mload(0x40)\n      shl(0xe0, 0xe6c4247b)\n      dup2\n      mstore\n      0x04\n      add\n      mload(0x40)\n      dup1\n      swap2\n      sub\n      swap1\n      revert\n        /* \"Vault_forge/src/Diamond/AdminFacet.sol\":2917:2973  if (_feeCollector == address(0)) revert InvalidAddress() */\n    tag_118:\n        /* \"Vault_forge/src/Diamond/AdminFacet.sol\":2986:3022  DiamondStorage.VaultState storage ds */\n      0x00\n        /* \"Vault_forge/src/Diamond/AdminFacet.sol\":3025:3052  DiamondStorage.getStorage() */\n      tag_119\n        /* \"Vault_forge/src/Diamond/AdminFacet.sol\":3025:3050  DiamondStorage.getStorage */\n      tag_60\n        /* \"Vault_forge/src/Diamond/AdminFacet.sol\":3025:3052  DiamondStorage.getStorage() */\n      jump\t// in\n    tag_119:\n        /* \"Vault_forge/src/Diamond/AdminFacet.sol\":3063:3078  ds.feeCollector */\n      0x09\n      dup2\n      add\n        /* \"Vault_forge/src/Diamond/AdminFacet.sol\":3063:3094  ds.feeCollector = _feeCollector */\n      dup1\n      sload\n      not(sub(shl(0xa0, 0x01), 0x01))\n      and\n      sub(shl(0xa0, 0x01), 0x01)\n      dup7\n      and\n      swap1\n      dup2\n      or\n      swap1\n      swap2\n      sstore\n        /* \"Vault_forge/src/Diamond/AdminFacet.sol\":3112:3146  FeeCollectorUpdated(_feeCollector) */\n      mload(0x40)\n        /* \"Vault_forge/src/Diamond/AdminFacet.sol\":3063:3078  ds.feeCollector */\n      swap2\n      swap3\n      pop\n        /* \"Vault_forge/src/Diamond/AdminFacet.sol\":3063:3094  ds.feeCollector = _feeCollector */\n      swap1\n        /* \"Vault_forge/src/Diamond/AdminFacet.sol\":3112:3146  FeeCollectorUpdated(_feeCollector) */\n      0xe5693914d19c789bdee50a362998c0bc8d035a835f9871da5d51152f0582c34f\n      swap1\n      0x00\n      swap1\n      log2\n        /* \"Vault_forge/src/Diamond/AdminFacet.sol\":2906:3154  {... */\n      pop\n        /* \"Vault_forge/src/Diamond/AdminFacet.sol\":1331:1489  {... */\n      pop\n        /* \"Vault_forge/src/Diamond/AdminFacet.sol\":2839:3154  function setFeeCollector(address _feeCollector) external onlyOwner {... */\n      pop\n      jump\t// out\n        /* \"Vault_forge/src/Diamond/AdminFacet.sol\":5241:5772  function executeOperation(bytes32 operationId) external onlyOwner {... */\n    tag_43:\n        /* \"Vault_forge/src/Diamond/AdminFacet.sol\":1342:1378  DiamondStorage.VaultState storage ds */\n      0x00\n        /* \"Vault_forge/src/Diamond/AdminFacet.sol\":1381:1408  DiamondStorage.getStorage() */\n      tag_121\n        /* \"Vault_forge/src/Diamond/AdminFacet.sol\":1381:1406  DiamondStorage.getStorage */\n      tag_60\n        /* \"Vault_forge/src/Diamond/AdminFacet.sol\":1381:1408  DiamondStorage.getStorage() */\n      jump\t// in\n    tag_121:\n        /* \"Vault_forge/src/Diamond/AdminFacet.sol\":1437:1445  ds.owner */\n      dup1\n      sload\n      swap1\n      swap2\n      pop\n      sub(shl(0xa0, 0x01), 0x01)\n      and\n        /* \"Vault_forge/src/Diamond/AdminFacet.sol\":1423:1433  msg.sender */\n      caller\n        /* \"Vault_forge/src/Diamond/AdminFacet.sol\":1423:1445  msg.sender != ds.owner */\n      eq\n        /* \"Vault_forge/src/Diamond/AdminFacet.sol\":1419:1469  if (msg.sender != ds.owner) revert NotAuthorized() */\n      tag_122\n      jumpi\n        /* \"Vault_forge/src/Diamond/AdminFacet.sol\":1454:1469  NotAuthorized() */\n      mload(0x40)\n      shl(0xe0, 0xea8e4eb5)\n      dup2\n      mstore\n      0x04\n      add\n      mload(0x40)\n      dup1\n      swap2\n      sub\n      swap1\n      revert\n        /* \"Vault_forge/src/Diamond/AdminFacet.sol\":1419:1469  if (msg.sender != ds.owner) revert NotAuthorized() */\n    tag_122:\n        /* \"Vault_forge/src/Diamond/AdminFacet.sol\":5318:5354  DiamondStorage.VaultState storage ds */\n      0x00\n        /* \"Vault_forge/src/Diamond/AdminFacet.sol\":5357:5384  DiamondStorage.getStorage() */\n      tag_124\n        /* \"Vault_forge/src/Diamond/AdminFacet.sol\":5357:5382  DiamondStorage.getStorage */\n      tag_60\n        /* \"Vault_forge/src/Diamond/AdminFacet.sol\":5357:5384  DiamondStorage.getStorage() */\n      jump\t// in\n    tag_124:\n        /* \"Vault_forge/src/Diamond/AdminFacet.sol\":5395:5413  uint256 unlockTime */\n      0x00\n        /* \"Vault_forge/src/Diamond/AdminFacet.sol\":5416:5449  ds.pendingOperations[operationId] */\n      dup5\n      dup2\n      mstore\n        /* \"Vault_forge/src/Diamond/AdminFacet.sol\":5416:5436  ds.pendingOperations */\n      0x1c\n      dup3\n      add\n        /* \"Vault_forge/src/Diamond/AdminFacet.sol\":5416:5449  ds.pendingOperations[operationId] */\n      0x20\n      mstore\n      0x40\n      swap1\n      keccak256\n      sload\n        /* \"Vault_forge/src/Diamond/AdminFacet.sol\":5318:5384  DiamondStorage.VaultState storage ds = DiamondStorage.getStorage() */\n      swap1\n      swap2\n      pop\n        /* \"Vault_forge/src/Diamond/AdminFacet.sol\":5466:5481  unlockTime == 0 */\n      dup1\n      iszero\n      dup1\n        /* \"Vault_forge/src/Diamond/AdminFacet.sol\":5466:5513  unlockTime == 0 || block.timestamp < unlockTime */\n      tag_125\n      jumpi\n      pop\n        /* \"Vault_forge/src/Diamond/AdminFacet.sol\":5503:5513  unlockTime */\n      dup1\n        /* \"Vault_forge/src/Diamond/AdminFacet.sol\":5485:5500  block.timestamp */\n      timestamp\n        /* \"Vault_forge/src/Diamond/AdminFacet.sol\":5485:5513  block.timestamp < unlockTime */\n      lt\n        /* \"Vault_forge/src/Diamond/AdminFacet.sol\":5466:5513  unlockTime == 0 || block.timestamp < unlockTime */\n    tag_125:\n        /* \"Vault_forge/src/Diamond/AdminFacet.sol\":5462:5554  if (unlockTime == 0 || block.timestamp < unlockTime)... */\n      iszero\n      tag_126\n      jumpi\n        /* \"Vault_forge/src/Diamond/AdminFacet.sol\":5535:5554  OperationNotReady() */\n      mload(0x40)\n      shl(0xe0, 0xf800799b)\n      dup2\n      mstore\n      0x04\n      add\n      mload(0x40)\n      dup1\n      swap2\n      sub\n      swap1\n      revert\n        /* \"Vault_forge/src/Diamond/AdminFacet.sol\":5462:5554  if (unlockTime == 0 || block.timestamp < unlockTime)... */\n    tag_126:\n        /* \"Vault_forge/src/Diamond/AdminFacet.sol\":5614:5647  ds.pendingOperations[operationId] */\n      0x00\n      dup5\n      dup2\n      mstore\n        /* \"Vault_forge/src/Diamond/AdminFacet.sol\":5614:5634  ds.pendingOperations */\n      0x1c\n      dup4\n      add\n        /* \"Vault_forge/src/Diamond/AdminFacet.sol\":5614:5647  ds.pendingOperations[operationId] */\n      0x20\n      mstore\n      0x40\n      dup1\n      dup3\n      keccak256\n        /* \"Vault_forge/src/Diamond/AdminFacet.sol\":5607:5647  delete ds.pendingOperations[operationId] */\n      dup3\n      swap1\n      sstore\n        /* \"Vault_forge/src/Diamond/AdminFacet.sol\":5665:5695  OperationExecuted(operationId) */\n      mload\n        /* \"Vault_forge/src/Diamond/AdminFacet.sol\":5635:5646  operationId */\n      dup6\n      swap2\n        /* \"Vault_forge/src/Diamond/AdminFacet.sol\":5665:5695  OperationExecuted(operationId) */\n      0x1277662f4b42b8a4069e99fb5e41ce8919d3c621156090ac08fb11adbcec66f9\n      swap2\n      log2\n        /* \"Vault_forge/src/Diamond/AdminFacet.sol\":5307:5772  {... */\n      pop\n      pop\n        /* \"Vault_forge/src/Diamond/AdminFacet.sol\":1331:1489  {... */\n      pop\n        /* \"Vault_forge/src/Diamond/AdminFacet.sol\":5241:5772  function executeOperation(bytes32 operationId) external onlyOwner {... */\n      pop\n      jump\t// out\n        /* \"Vault_forge/src/Diamond/AdminFacet.sol\":2516:2831  function setSwapContract(address _swapContract) external onlyOwner {... */\n    tag_46:\n        /* \"Vault_forge/src/Diamond/AdminFacet.sol\":1342:1378  DiamondStorage.VaultState storage ds */\n      0x00\n        /* \"Vault_forge/src/Diamond/AdminFacet.sol\":1381:1408  DiamondStorage.getStorage() */\n      tag_128\n        /* \"Vault_forge/src/Diamond/AdminFacet.sol\":1381:1406  DiamondStorage.getStorage */\n      tag_60\n        /* \"Vault_forge/src/Diamond/AdminFacet.sol\":1381:1408  DiamondStorage.getStorage() */\n      jump\t// in\n    tag_128:\n        /* \"Vault_forge/src/Diamond/AdminFacet.sol\":1437:1445  ds.owner */\n      dup1\n      sload\n      swap1\n      swap2\n      pop\n      sub(shl(0xa0, 0x01), 0x01)\n      and\n        /* \"Vault_forge/src/Diamond/AdminFacet.sol\":1423:1433  msg.sender */\n      caller\n        /* \"Vault_forge/src/Diamond/AdminFacet.sol\":1423:1445  msg.sender != ds.owner */\n      eq\n        /* \"Vault_forge/src/Diamond/AdminFacet.sol\":1419:1469  if (msg.sender != ds.owner) revert NotAuthorized() */\n      tag_129\n      jumpi\n        /* \"Vault_forge/src/Diamond/AdminFacet.sol\":1454:1469  NotAuthorized() */\n      mload(0x40)\n      shl(0xe0, 0xea8e4eb5)\n      dup2\n      mstore\n      0x04\n      add\n      mload(0x40)\n      dup1\n      swap2\n      sub\n      swap1\n      revert\n        /* \"Vault_forge/src/Diamond/AdminFacet.sol\":1419:1469  if (msg.sender != ds.owner) revert NotAuthorized() */\n    tag_129:\n      sub(shl(0xa0, 0x01), 0x01)\n        /* \"Vault_forge/src/Diamond/AdminFacet.sol\":2598:2625  _swapContract == address(0) */\n      dup3\n      and\n        /* \"Vault_forge/src/Diamond/AdminFacet.sol\":2594:2650  if (_swapContract == address(0)) revert InvalidAddress() */\n      tag_131\n      jumpi\n        /* \"Vault_forge/src/Diamond/AdminFacet.sol\":2634:2650  InvalidAddress() */\n      mload(0x40)\n      shl(0xe0, 0xe6c4247b)\n      dup2\n      mstore\n      0x04\n      add\n      mload(0x40)\n      dup1\n      swap2\n      sub\n      swap1\n      revert\n        /* \"Vault_forge/src/Diamond/AdminFacet.sol\":2594:2650  if (_swapContract == address(0)) revert InvalidAddress() */\n    tag_131:\n        /* \"Vault_forge/src/Diamond/AdminFacet.sol\":2663:2699  DiamondStorage.VaultState storage ds */\n      0x00\n        /* \"Vault_forge/src/Diamond/AdminFacet.sol\":2702:2729  DiamondStorage.getStorage() */\n      tag_132\n        /* \"Vault_forge/src/Diamond/AdminFacet.sol\":2702:2727  DiamondStorage.getStorage */\n      tag_60\n        /* \"Vault_forge/src/Diamond/AdminFacet.sol\":2702:2729  DiamondStorage.getStorage() */\n      jump\t// in\n    tag_132:\n        /* \"Vault_forge/src/Diamond/AdminFacet.sol\":2740:2755  ds.swapContract */\n      0x05\n      dup2\n      add\n        /* \"Vault_forge/src/Diamond/AdminFacet.sol\":2740:2771  ds.swapContract = _swapContract */\n      dup1\n      sload\n      not(sub(shl(0xa0, 0x01), 0x01))\n      and\n      sub(shl(0xa0, 0x01), 0x01)\n      dup7\n      and\n      swap1\n      dup2\n      or\n      swap1\n      swap2\n      sstore\n        /* \"Vault_forge/src/Diamond/AdminFacet.sol\":2789:2823  SwapContractUpdated(_swapContract) */\n      mload(0x40)\n        /* \"Vault_forge/src/Diamond/AdminFacet.sol\":2740:2755  ds.swapContract */\n      swap2\n      swap3\n      pop\n        /* \"Vault_forge/src/Diamond/AdminFacet.sol\":2740:2771  ds.swapContract = _swapContract */\n      swap1\n        /* \"Vault_forge/src/Diamond/AdminFacet.sol\":2789:2823  SwapContractUpdated(_swapContract) */\n      0x7a100de36a66305ed9ca3998196d0fb9a1806f6dc498d570393b88ab275ed4df\n      swap1\n      0x00\n      swap1\n      log2\n        /* \"Vault_forge/src/Diamond/AdminFacet.sol\":2583:2831  {... */\n      pop\n        /* \"Vault_forge/src/Diamond/AdminFacet.sol\":1331:1489  {... */\n      pop\n        /* \"Vault_forge/src/Diamond/AdminFacet.sol\":2516:2831  function setSwapContract(address _swapContract) external onlyOwner {... */\n      pop\n      jump\t// out\n        /* \"Vault_forge/src/Diamond/AdminFacet.sol\":3453:3690  function toggleDeposits() external onlyOwner {... */\n    tag_48:\n        /* \"Vault_forge/src/Diamond/AdminFacet.sol\":1342:1378  DiamondStorage.VaultState storage ds */\n      0x00\n        /* \"Vault_forge/src/Diamond/AdminFacet.sol\":1381:1408  DiamondStorage.getStorage() */\n      tag_134\n        /* \"Vault_forge/src/Diamond/AdminFacet.sol\":1381:1406  DiamondStorage.getStorage */\n      tag_60\n        /* \"Vault_forge/src/Diamond/AdminFacet.sol\":1381:1408  DiamondStorage.getStorage() */\n      jump\t// in\n    tag_134:\n        /* \"Vault_forge/src/Diamond/AdminFacet.sol\":1437:1445  ds.owner */\n      dup1\n      sload\n      swap1\n      swap2\n      pop\n      sub(shl(0xa0, 0x01), 0x01)\n      and\n        /* \"Vault_forge/src/Diamond/AdminFacet.sol\":1423:1433  msg.sender */\n      caller\n        /* \"Vault_forge/src/Diamond/AdminFacet.sol\":1423:1445  msg.sender != ds.owner */\n      eq\n        /* \"Vault_forge/src/Diamond/AdminFacet.sol\":1419:1469  if (msg.sender != ds.owner) revert NotAuthorized() */\n      tag_135\n      jumpi\n        /* \"Vault_forge/src/Diamond/AdminFacet.sol\":1454:1469  NotAuthorized() */\n      mload(0x40)\n      shl(0xe0, 0xea8e4eb5)\n      dup2\n      mstore\n      0x04\n      add\n      mload(0x40)\n      dup1\n      swap2\n      sub\n      swap1\n      revert\n        /* \"Vault_forge/src/Diamond/AdminFacet.sol\":1419:1469  if (msg.sender != ds.owner) revert NotAuthorized() */\n    tag_135:\n        /* \"Vault_forge/src/Diamond/AdminFacet.sol\":3509:3545  DiamondStorage.VaultState storage ds */\n      0x00\n        /* \"Vault_forge/src/Diamond/AdminFacet.sol\":3548:3575  DiamondStorage.getStorage() */\n      tag_137\n        /* \"Vault_forge/src/Diamond/AdminFacet.sol\":3548:3573  DiamondStorage.getStorage */\n      tag_60\n        /* \"Vault_forge/src/Diamond/AdminFacet.sol\":3548:3575  DiamondStorage.getStorage() */\n      jump\t// in\n    tag_137:\n        /* \"Vault_forge/src/Diamond/AdminFacet.sol\":3607:3624  ds.depositsPaused */\n      0x09\n      dup2\n      add\n      dup1\n      sload\n      0xff\n      shl(0xa8, 0x01)\n      dup1\n      dup4\n      div\n      dup3\n      and\n        /* \"Vault_forge/src/Diamond/AdminFacet.sol\":3606:3624  !ds.depositsPaused */\n      iszero\n        /* \"Vault_forge/src/Diamond/AdminFacet.sol\":3586:3624  ds.depositsPaused = !ds.depositsPaused */\n      dup2\n      mul\n      not(shl(0xa8, 0xff))\n      swap1\n      swap4\n      and\n      swap3\n      swap1\n      swap3\n      or\n      swap3\n      dup4\n      swap1\n      sstore\n        /* \"Vault_forge/src/Diamond/AdminFacet.sol\":3642:3682  DepositsPausedToggled(ds.depositsPaused) */\n      mload(0x40)\n        /* \"Vault_forge/src/Diamond/AdminFacet.sol\":3509:3575  DiamondStorage.VaultState storage ds = DiamondStorage.getStorage() */\n      swap4\n      swap5\n      pop\n        /* \"Vault_forge/src/Diamond/AdminFacet.sol\":3642:3682  DepositsPausedToggled(ds.depositsPaused) */\n      0x19115828b11df7bf8355d95226507e6ed8d980fc277bdb99594291bf2a466dab\n      swap4\n      tag_74\n      swap4\n        /* \"Vault_forge/src/Diamond/AdminFacet.sol\":3664:3681  ds.depositsPaused */\n      swap3\n      swap1\n      swap3\n      div\n      and\n        /* \"#utility.yul\":837:851   */\n      iszero\n        /* \"#utility.yul\":830:852   */\n      iszero\n        /* \"#utility.yul\":812:853   */\n      dup2\n      mstore\n        /* \"#utility.yul\":800:802   */\n      0x20\n        /* \"#utility.yul\":785:803   */\n      add\n      swap1\n        /* \"#utility.yul\":672:859   */\n      jump\n        /* \"Vault_forge/src/Diamond/AdminFacet.sol\":1521:1887  function setLidoWithdrawalAddress(... */\n    tag_51:\n        /* \"Vault_forge/src/Diamond/AdminFacet.sol\":1342:1378  DiamondStorage.VaultState storage ds */\n      0x00\n        /* \"Vault_forge/src/Diamond/AdminFacet.sol\":1381:1408  DiamondStorage.getStorage() */\n      tag_140\n        /* \"Vault_forge/src/Diamond/AdminFacet.sol\":1381:1406  DiamondStorage.getStorage */\n      tag_60\n        /* \"Vault_forge/src/Diamond/AdminFacet.sol\":1381:1408  DiamondStorage.getStorage() */\n      jump\t// in\n    tag_140:\n        /* \"Vault_forge/src/Diamond/AdminFacet.sol\":1437:1445  ds.owner */\n      dup1\n      sload\n      swap1\n      swap2\n      pop\n      sub(shl(0xa0, 0x01), 0x01)\n      and\n        /* \"Vault_forge/src/Diamond/AdminFacet.sol\":1423:1433  msg.sender */\n      caller\n        /* \"Vault_forge/src/Diamond/AdminFacet.sol\":1423:1445  msg.sender != ds.owner */\n      eq\n        /* \"Vault_forge/src/Diamond/AdminFacet.sol\":1419:1469  if (msg.sender != ds.owner) revert NotAuthorized() */\n      tag_141\n      jumpi\n        /* \"Vault_forge/src/Diamond/AdminFacet.sol\":1454:1469  NotAuthorized() */\n      mload(0x40)\n      shl(0xe0, 0xea8e4eb5)\n      dup2\n      mstore\n      0x04\n      add\n      mload(0x40)\n      dup1\n      swap2\n      sub\n      swap1\n      revert\n        /* \"Vault_forge/src/Diamond/AdminFacet.sol\":1419:1469  if (msg.sender != ds.owner) revert NotAuthorized() */\n    tag_141:\n      sub(shl(0xa0, 0x01), 0x01)\n        /* \"Vault_forge/src/Diamond/AdminFacet.sol\":1630:1659  _lidoWithdrawal == address(0) */\n      dup3\n      and\n        /* \"Vault_forge/src/Diamond/AdminFacet.sol\":1626:1684  if (_lidoWithdrawal == address(0)) revert InvalidAddress() */\n      tag_143\n      jumpi\n        /* \"Vault_forge/src/Diamond/AdminFacet.sol\":1668:1684  InvalidAddress() */\n      mload(0x40)\n      shl(0xe0, 0xe6c4247b)\n      dup2\n      mstore\n      0x04\n      add\n      mload(0x40)\n      dup1\n      swap2\n      sub\n      swap1\n      revert\n        /* \"Vault_forge/src/Diamond/AdminFacet.sol\":1626:1684  if (_lidoWithdrawal == address(0)) revert InvalidAddress() */\n    tag_143:\n        /* \"Vault_forge/src/Diamond/AdminFacet.sol\":1697:1733  DiamondStorage.VaultState storage ds */\n      0x00\n        /* \"Vault_forge/src/Diamond/AdminFacet.sol\":1736:1763  DiamondStorage.getStorage() */\n      tag_144\n        /* \"Vault_forge/src/Diamond/AdminFacet.sol\":1736:1761  DiamondStorage.getStorage */\n      tag_60\n        /* \"Vault_forge/src/Diamond/AdminFacet.sol\":1736:1763  DiamondStorage.getStorage() */\n      jump\t// in\n    tag_144:\n        /* \"Vault_forge/src/Diamond/AdminFacet.sol\":1774:1798  ds.lidoWithdrawalAddress */\n      0x06\n      dup2\n      add\n        /* \"Vault_forge/src/Diamond/AdminFacet.sol\":1774:1816  ds.lidoWithdrawalAddress = _lidoWithdrawal */\n      dup1\n      sload\n      not(sub(shl(0xa0, 0x01), 0x01))\n      and\n      sub(shl(0xa0, 0x01), 0x01)\n      dup7\n      and\n      swap1\n      dup2\n      or\n      swap1\n      swap2\n      sstore\n        /* \"Vault_forge/src/Diamond/AdminFacet.sol\":1834:1879  LidoWithdrawalAddressUpdated(_lidoWithdrawal) */\n      mload(0x40)\n        /* \"Vault_forge/src/Diamond/AdminFacet.sol\":1774:1798  ds.lidoWithdrawalAddress */\n      swap2\n      swap3\n      pop\n        /* \"Vault_forge/src/Diamond/AdminFacet.sol\":1774:1816  ds.lidoWithdrawalAddress = _lidoWithdrawal */\n      swap1\n        /* \"Vault_forge/src/Diamond/AdminFacet.sol\":1834:1879  LidoWithdrawalAddressUpdated(_lidoWithdrawal) */\n      0xd97b0528df15f8ae38af640ff9002c863e7dde420b1b18f78ae48f42f78dc5db\n      swap1\n      0x00\n      swap1\n      log2\n        /* \"Vault_forge/src/Diamond/AdminFacet.sol\":1615:1887  {... */\n      pop\n        /* \"Vault_forge/src/Diamond/AdminFacet.sol\":1331:1489  {... */\n      pop\n        /* \"Vault_forge/src/Diamond/AdminFacet.sol\":1521:1887  function setLidoWithdrawalAddress(... */\n      pop\n      jump\t// out\n        /* \"Vault_forge/src/Diamond/AdminFacet.sol\":5807:6360  function transferOwnership(address newOwner) external onlyOwner {... */\n    tag_54:\n        /* \"Vault_forge/src/Diamond/AdminFacet.sol\":1342:1378  DiamondStorage.VaultState storage ds */\n      0x00\n        /* \"Vault_forge/src/Diamond/AdminFacet.sol\":1381:1408  DiamondStorage.getStorage() */\n      tag_146\n        /* \"Vault_forge/src/Diamond/AdminFacet.sol\":1381:1406  DiamondStorage.getStorage */\n      tag_60\n        /* \"Vault_forge/src/Diamond/AdminFacet.sol\":1381:1408  DiamondStorage.getStorage() */\n      jump\t// in\n    tag_146:\n        /* \"Vault_forge/src/Diamond/AdminFacet.sol\":1437:1445  ds.owner */\n      dup1\n      sload\n      swap1\n      swap2\n      pop\n      sub(shl(0xa0, 0x01), 0x01)\n      and\n        /* \"Vault_forge/src/Diamond/AdminFacet.sol\":1423:1433  msg.sender */\n      caller\n        /* \"Vault_forge/src/Diamond/AdminFacet.sol\":1423:1445  msg.sender != ds.owner */\n      eq\n        /* \"Vault_forge/src/Diamond/AdminFacet.sol\":1419:1469  if (msg.sender != ds.owner) revert NotAuthorized() */\n      tag_147\n      jumpi\n        /* \"Vault_forge/src/Diamond/AdminFacet.sol\":1454:1469  NotAuthorized() */\n      mload(0x40)\n      shl(0xe0, 0xea8e4eb5)\n      dup2\n      mstore\n      0x04\n      add\n      mload(0x40)\n      dup1\n      swap2\n      sub\n      swap1\n      revert\n        /* \"Vault_forge/src/Diamond/AdminFacet.sol\":1419:1469  if (msg.sender != ds.owner) revert NotAuthorized() */\n    tag_147:\n      sub(shl(0xa0, 0x01), 0x01)\n        /* \"Vault_forge/src/Diamond/AdminFacet.sol\":5886:5908  newOwner == address(0) */\n      dup3\n      and\n        /* \"Vault_forge/src/Diamond/AdminFacet.sol\":5882:5933  if (newOwner == address(0)) revert InvalidAddress() */\n      tag_149\n      jumpi\n        /* \"Vault_forge/src/Diamond/AdminFacet.sol\":5917:5933  InvalidAddress() */\n      mload(0x40)\n      shl(0xe0, 0xe6c4247b)\n      dup2\n      mstore\n      0x04\n      add\n      mload(0x40)\n      dup1\n      swap2\n      sub\n      swap1\n      revert\n        /* \"Vault_forge/src/Diamond/AdminFacet.sol\":5882:5933  if (newOwner == address(0)) revert InvalidAddress() */\n    tag_149:\n        /* \"Vault_forge/src/Diamond/AdminFacet.sol\":5946:5982  DiamondStorage.VaultState storage ds */\n      0x00\n        /* \"Vault_forge/src/Diamond/AdminFacet.sol\":5985:6012  DiamondStorage.getStorage() */\n      tag_150\n        /* \"Vault_forge/src/Diamond/AdminFacet.sol\":5985:6010  DiamondStorage.getStorage */\n      tag_60\n        /* \"Vault_forge/src/Diamond/AdminFacet.sol\":5985:6012  DiamondStorage.getStorage() */\n      jump\t// in\n    tag_150:\n        /* \"Vault_forge/src/Diamond/AdminFacet.sol\":5946:6012  DiamondStorage.VaultState storage ds = DiamondStorage.getStorage() */\n      swap1\n      pop\n        /* \"Vault_forge/src/Diamond/AdminFacet.sol\":6066:6085  bytes32 operationId */\n      0x00\n        /* \"Vault_forge/src/Diamond/AdminFacet.sol\":6150:6158  newOwner */\n      dup4\n        /* \"Vault_forge/src/Diamond/AdminFacet.sol\":6112:6159  abi.encodePacked(\"transferOwnership\", newOwner) */\n      add(0x20, mload(0x40))\n      tag_151\n      swap2\n      swap1\n      tag_105\n      jump\t// in\n    tag_151:\n      mload(0x40)\n      0x20\n      dup2\n      dup4\n      sub\n      sub\n      dup2\n      mstore\n      swap1\n      0x40\n      mstore\n        /* \"Vault_forge/src/Diamond/AdminFacet.sol\":6088:6170  keccak256(... */\n      dup1\n      mload\n      swap1\n      0x20\n      add\n      keccak256\n        /* \"Vault_forge/src/Diamond/AdminFacet.sol\":6066:6170  bytes32 operationId = keccak256(... */\n      swap1\n      pop\n        /* \"Vault_forge/src/Diamond/AdminFacet.sol\":6181:6199  uint256 unlockTime */\n      0x00\n        /* \"Vault_forge/src/Diamond/AdminFacet.sol\":533:539  2 days */\n      0x02a300\n        /* \"Vault_forge/src/Diamond/AdminFacet.sol\":6202:6217  block.timestamp */\n      timestamp\n        /* \"Vault_forge/src/Diamond/AdminFacet.sol\":6202:6237  block.timestamp + TIMELOCK_DURATION */\n      tag_152\n      swap2\n      swap1\n      tag_82\n      jump\t// in\n    tag_152:\n        /* \"Vault_forge/src/Diamond/AdminFacet.sol\":6248:6281  ds.pendingOperations[operationId] */\n      0x00\n      dup4\n      dup2\n      mstore\n        /* \"Vault_forge/src/Diamond/AdminFacet.sol\":6248:6268  ds.pendingOperations */\n      0x1c\n      dup6\n      add\n        /* \"Vault_forge/src/Diamond/AdminFacet.sol\":6248:6281  ds.pendingOperations[operationId] */\n      0x20\n      mstore\n      0x40\n      swap1\n      dup2\n      swap1\n      keccak256\n        /* \"Vault_forge/src/Diamond/AdminFacet.sol\":6248:6294  ds.pendingOperations[operationId] = unlockTime */\n      dup3\n      swap1\n      sstore\n        /* \"Vault_forge/src/Diamond/AdminFacet.sol\":6312:6352  OperationQueued(operationId, unlockTime) */\n      mload\n        /* \"Vault_forge/src/Diamond/AdminFacet.sol\":6181:6237  uint256 unlockTime = block.timestamp + TIMELOCK_DURATION */\n      swap1\n      swap2\n      pop\n        /* \"Vault_forge/src/Diamond/AdminFacet.sol\":6269:6280  operationId */\n      dup3\n      swap1\n        /* \"Vault_forge/src/Diamond/AdminFacet.sol\":6312:6352  OperationQueued(operationId, unlockTime) */\n      0x610f97886f7c2cfa9f3cb01126b63839d9b9ee8da397c06b368a98856b214634\n      swap1\n      tag_153\n      swap1\n        /* \"Vault_forge/src/Diamond/AdminFacet.sol\":6181:6237  uint256 unlockTime = block.timestamp + TIMELOCK_DURATION */\n      dup5\n        /* \"#utility.yul\":636:661   */\n      dup2\n      mstore\n        /* \"#utility.yul\":624:626   */\n      0x20\n        /* \"#utility.yul\":609:627   */\n      add\n      swap1\n        /* \"#utility.yul\":490:667   */\n      jump\n        /* \"Vault_forge/src/Diamond/AdminFacet.sol\":6312:6352  OperationQueued(operationId, unlockTime) */\n    tag_153:\n      mload(0x40)\n      dup1\n      swap2\n      sub\n      swap1\n      log2\n        /* \"Vault_forge/src/Diamond/AdminFacet.sol\":5871:6360  {... */\n      pop\n      pop\n      pop\n        /* \"Vault_forge/src/Diamond/AdminFacet.sol\":1331:1489  {... */\n      pop\n        /* \"Vault_forge/src/Diamond/AdminFacet.sol\":5807:6360  function transferOwnership(address newOwner) external onlyOwner {... */\n      pop\n      jump\t// out\n        /* \"@openzeppelin/contracts/security/ReentrancyGuard.sol\":2336:2623  function _nonReentrantBefore() private {... */\n    tag_57:\n        /* \"@openzeppelin/contracts/security/ReentrancyGuard.sol\":1759:1760  2 */\n      0x02\n        /* \"@openzeppelin/contracts/security/ReentrancyGuard.sol\":2468:2475  _status */\n      sload(0x00)\n        /* \"@openzeppelin/contracts/security/ReentrancyGuard.sol\":2468:2487  _status != _ENTERED */\n      sub\n        /* \"@openzeppelin/contracts/security/ReentrancyGuard.sol\":2460:2523  require(_status != _ENTERED, \"ReentrancyGuard: reentrant call\") */\n      tag_155\n      jumpi\n      mload(0x40)\n      shl(0xe5, 0x461bcd)\n      dup2\n      mstore\n        /* \"#utility.yul\":1678:1680   */\n      0x20\n        /* \"@openzeppelin/contracts/security/ReentrancyGuard.sol\":2460:2523  require(_status != _ENTERED, \"ReentrancyGuard: reentrant call\") */\n      0x04\n      dup3\n      add\n        /* \"#utility.yul\":1660:1681   */\n      mstore\n        /* \"#utility.yul\":1717:1719   */\n      0x1f\n        /* \"#utility.yul\":1697:1715   */\n      0x24\n      dup3\n      add\n        /* \"#utility.yul\":1690:1720   */\n      mstore\n        /* \"#utility.yul\":1756:1789   */\n      0x5265656e7472616e637947756172643a207265656e7472616e742063616c6c00\n        /* \"#utility.yul\":1736:1754   */\n      0x44\n      dup3\n      add\n        /* \"#utility.yul\":1729:1790   */\n      mstore\n        /* \"#utility.yul\":1807:1825   */\n      0x64\n      add\n        /* \"@openzeppelin/contracts/security/ReentrancyGuard.sol\":2460:2523  require(_status != _ENTERED, \"ReentrancyGuard: reentrant call\") */\n    tag_156:\n      mload(0x40)\n      dup1\n      swap2\n      sub\n      swap1\n      revert\n    tag_155:\n        /* \"@openzeppelin/contracts/security/ReentrancyGuard.sol\":1759:1760  2 */\n      0x02\n        /* \"@openzeppelin/contracts/security/ReentrancyGuard.sol\":2598:2605  _status */\n      0x00\n        /* \"@openzeppelin/contracts/security/ReentrancyGuard.sol\":2598:2616  _status = _ENTERED */\n      sstore\n        /* \"@openzeppelin/contracts/security/ReentrancyGuard.sol\":2336:2623  function _nonReentrantBefore() private {... */\n      jump\t// out\n        /* \"Vault_forge/src/Diamond/DiamondStorage.sol\":2118:2312  function getStorage() internal pure returns (VaultState storage ds) {... */\n    tag_60:\n        /* \"Vault_forge/src/Diamond/DiamondStorage.sol\":135:174  keccak256(\"diamond.storage.yield.bull\") */\n      0x5d15b553c07be9b4a8cf4265c997d4479f22e1843183fa58504508c561fb9d50\n      swap1\n        /* \"Vault_forge/src/Diamond/DiamondStorage.sol\":2118:2312  function getStorage() internal pure returns (VaultState storage ds) {... */\n      jump\t// out\n        /* \"@openzeppelin/contracts/token/ERC20/utils/SafeERC20.sol\":1219:1379  function safeTransfer(IERC20 token, address to, uint256 value) internal {... */\n    tag_64:\n        /* \"@openzeppelin/contracts/token/ERC20/utils/SafeERC20.sol\":1328:1371  abi.encodeCall(token.transfer, (to, value)) */\n      0x40\n      dup1\n      mload\n      sub(shl(0xa0, 0x01), 0x01)\n        /* \"#utility.yul\":2028:2060   */\n      dup5\n      and\n        /* \"@openzeppelin/contracts/token/ERC20/utils/SafeERC20.sol\":1328:1371  abi.encodeCall(token.transfer, (to, value)) */\n      0x24\n      dup3\n      add\n        /* \"#utility.yul\":2010:2061   */\n      mstore\n        /* \"#utility.yul\":2077:2095   */\n      0x44\n      dup1\n      dup3\n      add\n        /* \"#utility.yul\":2070:2104   */\n      dup5\n      swap1\n      mstore\n        /* \"@openzeppelin/contracts/token/ERC20/utils/SafeERC20.sol\":1328:1371  abi.encodeCall(token.transfer, (to, value)) */\n      dup3\n      mload\n      dup1\n      dup4\n      sub\n      swap1\n      swap2\n      add\n      dup2\n      mstore\n        /* \"#utility.yul\":1983:2001   */\n      0x64\n      swap1\n      swap2\n      add\n        /* \"@openzeppelin/contracts/token/ERC20/utils/SafeERC20.sol\":1328:1371  abi.encodeCall(token.transfer, (to, value)) */\n      swap1\n      swap2\n      mstore\n      0x20\n      dup2\n      add\n      dup1\n      mload\n      sub(shl(0xe0, 0x01), 0x01)\n      and\n      shl(0xe0, 0xa9059cbb)\n      or\n      swap1\n      mstore\n        /* \"@openzeppelin/contracts/token/ERC20/utils/SafeERC20.sol\":1301:1372  _callOptionalReturn(token, abi.encodeCall(token.transfer, (to, value))) */\n      tag_160\n      swap1\n        /* \"@openzeppelin/contracts/token/ERC20/utils/SafeERC20.sol\":1321:1326  token */\n      dup5\n      swap1\n        /* \"@openzeppelin/contracts/token/ERC20/utils/SafeERC20.sol\":1301:1320  _callOptionalReturn */\n      tag_163\n        /* \"@openzeppelin/contracts/token/ERC20/utils/SafeERC20.sol\":1301:1372  _callOptionalReturn(token, abi.encodeCall(token.transfer, (to, value))) */\n      jump\t// in\n    tag_160:\n        /* \"@openzeppelin/contracts/token/ERC20/utils/SafeERC20.sol\":1219:1379  function safeTransfer(IERC20 token, address to, uint256 value) internal {... */\n      pop\n      pop\n      pop\n      jump\t// out\n        /* \"@openzeppelin/contracts/token/ERC20/utils/SafeERC20.sol\":8370:9090  function _callOptionalReturn(IERC20 token, bytes memory data) private {... */\n    tag_163:\n        /* \"@openzeppelin/contracts/token/ERC20/utils/SafeERC20.sol\":8450:8468  uint256 returnSize */\n      0x00\n        /* \"@openzeppelin/contracts/token/ERC20/utils/SafeERC20.sol\":8478:8497  uint256 returnValue */\n      0x00\n        /* \"@openzeppelin/contracts/token/ERC20/utils/SafeERC20.sol\":8616:8620  0x20 */\n      0x20\n        /* \"@openzeppelin/contracts/token/ERC20/utils/SafeERC20.sol\":8613:8614  0 */\n      0x00\n        /* \"@openzeppelin/contracts/token/ERC20/utils/SafeERC20.sol\":8606:8610  data */\n      dup5\n        /* \"@openzeppelin/contracts/token/ERC20/utils/SafeERC20.sol\":8600:8611  mload(data) */\n      mload\n        /* \"@openzeppelin/contracts/token/ERC20/utils/SafeERC20.sol\":8593:8597  0x20 */\n      0x20\n        /* \"@openzeppelin/contracts/token/ERC20/utils/SafeERC20.sol\":8587:8591  data */\n      dup7\n        /* \"@openzeppelin/contracts/token/ERC20/utils/SafeERC20.sol\":8583:8598  add(data, 0x20) */\n      add\n        /* \"@openzeppelin/contracts/token/ERC20/utils/SafeERC20.sol\":8580:8581  0 */\n      0x00\n        /* \"@openzeppelin/contracts/token/ERC20/utils/SafeERC20.sol\":8573:8578  token */\n      dup9\n        /* \"@openzeppelin/contracts/token/ERC20/utils/SafeERC20.sol\":8566:8571  gas() */\n      gas\n        /* \"@openzeppelin/contracts/token/ERC20/utils/SafeERC20.sol\":8561:8621  call(gas(), token, 0, add(data, 0x20), mload(data), 0, 0x20) */\n      call\n        /* \"@openzeppelin/contracts/token/ERC20/utils/SafeERC20.sol\":8673:8680  success */\n      dup1\n        /* \"@openzeppelin/contracts/token/ERC20/utils/SafeERC20.sol\":8663:8839  if iszero(success) {... */\n      tag_166\n      jumpi\n        /* \"@openzeppelin/contracts/token/ERC20/utils/SafeERC20.sol\":8717:8721  0x40 */\n      0x40\n        /* \"@openzeppelin/contracts/token/ERC20/utils/SafeERC20.sol\":8711:8722  mload(0x40) */\n      mload\n        /* \"@openzeppelin/contracts/token/ERC20/utils/SafeERC20.sol\":8762:8778  returndatasize() */\n      returndatasize\n        /* \"@openzeppelin/contracts/token/ERC20/utils/SafeERC20.sol\":8759:8760  0 */\n      0x00\n        /* \"@openzeppelin/contracts/token/ERC20/utils/SafeERC20.sol\":8754:8757  ptr */\n      dup3\n        /* \"@openzeppelin/contracts/token/ERC20/utils/SafeERC20.sol\":8739:8779  returndatacopy(ptr, 0, returndatasize()) */\n      returndatacopy\n        /* \"@openzeppelin/contracts/token/ERC20/utils/SafeERC20.sol\":8808:8824  returndatasize() */\n      returndatasize\n        /* \"@openzeppelin/contracts/token/ERC20/utils/SafeERC20.sol\":8803:8806  ptr */\n      dup2\n        /* \"@openzeppelin/contracts/token/ERC20/utils/SafeERC20.sol\":8796:8825  revert(ptr, returndatasize()) */\n      revert\n        /* \"@openzeppelin/contracts/token/ERC20/utils/SafeERC20.sol\":8663:8839  if iszero(success) {... */\n    tag_166:\n      pop\n      pop\n        /* \"@openzeppelin/contracts/token/ERC20/utils/SafeERC20.sol\":8916:8917  0 */\n      0x00\n        /* \"@openzeppelin/contracts/token/ERC20/utils/SafeERC20.sol\":8910:8918  mload(0) */\n      mload\n        /* \"@openzeppelin/contracts/token/ERC20/utils/SafeERC20.sol\":8866:8882  returndatasize() */\n      returndatasize\n      swap2\n      pop\n        /* \"@openzeppelin/contracts/token/ERC20/utils/SafeERC20.sol\":8942:8957  returnSize == 0 */\n      dup2\n      iszero\n        /* \"@openzeppelin/contracts/token/ERC20/utils/SafeERC20.sol\":8942:9010  returnSize == 0 ? address(token).code.length == 0 : returnValue != 1 */\n      tag_167\n      jumpi\n        /* \"@openzeppelin/contracts/token/ERC20/utils/SafeERC20.sol\":8994:9005  returnValue */\n      dup1\n        /* \"@openzeppelin/contracts/token/ERC20/utils/SafeERC20.sol\":9009:9010  1 */\n      0x01\n        /* \"@openzeppelin/contracts/token/ERC20/utils/SafeERC20.sol\":8994:9010  returnValue != 1 */\n      eq\n      iszero\n        /* \"@openzeppelin/contracts/token/ERC20/utils/SafeERC20.sol\":8942:9010  returnSize == 0 ? address(token).code.length == 0 : returnValue != 1 */\n      jump(tag_168)\n    tag_167:\n      sub(shl(0xa0, 0x01), 0x01)\n        /* \"@openzeppelin/contracts/token/ERC20/utils/SafeERC20.sol\":8960:8986  address(token).code.length */\n      dup5\n      and\n      extcodesize\n        /* \"@openzeppelin/contracts/token/ERC20/utils/SafeERC20.sol\":8960:8991  address(token).code.length == 0 */\n      iszero\n        /* \"@openzeppelin/contracts/token/ERC20/utils/SafeERC20.sol\":8942:9010  returnSize == 0 ? address(token).code.length == 0 : returnValue != 1 */\n    tag_168:\n        /* \"@openzeppelin/contracts/token/ERC20/utils/SafeERC20.sol\":8938:9084  if (returnSize == 0 ? address(token).code.length == 0 : returnValue != 1) {... */\n      iszero\n      tag_169\n      jumpi\n        /* \"@openzeppelin/contracts/token/ERC20/utils/SafeERC20.sol\":9033:9073  SafeERC20FailedOperation(address(token)) */\n      mload(0x40)\n      shl(0xe0, 0x5274afe7)\n      dup2\n      mstore\n      sub(shl(0xa0, 0x01), 0x01)\n        /* \"#utility.yul\":2279:2311   */\n      dup6\n      and\n        /* \"@openzeppelin/contracts/token/ERC20/utils/SafeERC20.sol\":9033:9073  SafeERC20FailedOperation(address(token)) */\n      0x04\n      dup3\n      add\n        /* \"#utility.yul\":2261:2312   */\n      mstore\n        /* \"#utility.yul\":2234:2252   */\n      0x24\n      add\n        /* \"@openzeppelin/contracts/token/ERC20/utils/SafeERC20.sol\":9033:9073  SafeERC20FailedOperation(address(token)) */\n      tag_156\n        /* \"#utility.yul\":2115:2318   */\n      jump\n        /* \"@openzeppelin/contracts/token/ERC20/utils/SafeERC20.sol\":8938:9084  if (returnSize == 0 ? address(token).code.length == 0 : returnValue != 1) {... */\n    tag_169:\n        /* \"@openzeppelin/contracts/token/ERC20/utils/SafeERC20.sol\":8440:9090  {... */\n      pop\n      pop\n        /* \"@openzeppelin/contracts/token/ERC20/utils/SafeERC20.sol\":8370:9090  function _callOptionalReturn(IERC20 token, bytes memory data) private {... */\n      pop\n      pop\n      jump\t// out\n        /* \"#utility.yul\":14:300   */\n    tag_26:\n        /* \"#utility.yul\":73:79   */\n      0x00\n        /* \"#utility.yul\":126:128   */\n      0x20\n        /* \"#utility.yul\":114:123   */\n      dup3\n        /* \"#utility.yul\":105:112   */\n      dup5\n        /* \"#utility.yul\":101:124   */\n      sub\n        /* \"#utility.yul\":97:129   */\n      slt\n        /* \"#utility.yul\":94:146   */\n      iszero\n      tag_174\n      jumpi\n        /* \"#utility.yul\":142:143   */\n      0x00\n        /* \"#utility.yul\":139:140   */\n      0x00\n        /* \"#utility.yul\":132:144   */\n      revert\n        /* \"#utility.yul\":94:146   */\n    tag_174:\n        /* \"#utility.yul\":168:191   */\n      dup2\n      calldataload\n      sub(shl(0xa0, 0x01), 0x01)\n        /* \"#utility.yul\":220:251   */\n      dup2\n      and\n        /* \"#utility.yul\":210:252   */\n      dup2\n      eq\n        /* \"#utility.yul\":200:270   */\n      tag_175\n      jumpi\n        /* \"#utility.yul\":266:267   */\n      0x00\n        /* \"#utility.yul\":263:264   */\n      0x00\n        /* \"#utility.yul\":256:268   */\n      revert\n        /* \"#utility.yul\":200:270   */\n    tag_175:\n        /* \"#utility.yul\":289:294   */\n      swap4\n        /* \"#utility.yul\":14:300   */\n      swap3\n      pop\n      pop\n      pop\n      jump\t// out\n        /* \"#utility.yul\":305:485   */\n    tag_30:\n        /* \"#utility.yul\":364:370   */\n      0x00\n        /* \"#utility.yul\":417:419   */\n      0x20\n        /* \"#utility.yul\":405:414   */\n      dup3\n        /* \"#utility.yul\":396:403   */\n      dup5\n        /* \"#utility.yul\":392:415   */\n      sub\n        /* \"#utility.yul\":388:420   */\n      slt\n        /* \"#utility.yul\":385:437   */\n      iszero\n      tag_177\n      jumpi\n        /* \"#utility.yul\":433:434   */\n      0x00\n        /* \"#utility.yul\":430:431   */\n      0x00\n        /* \"#utility.yul\":423:435   */\n      revert\n        /* \"#utility.yul\":385:437   */\n    tag_177:\n      pop\n        /* \"#utility.yul\":456:479   */\n      calldataload\n      swap2\n        /* \"#utility.yul\":305:485   */\n      swap1\n      pop\n      jump\t// out\n        /* \"#utility.yul\":864:1086   */\n    tag_82:\n        /* \"#utility.yul\":929:938   */\n      dup1\n      dup3\n      add\n        /* \"#utility.yul\":950:960   */\n      dup1\n      dup3\n      gt\n        /* \"#utility.yul\":947:1080   */\n      iszero\n      tag_181\n      jumpi\n        /* \"#utility.yul\":1002:1012   */\n      0x4e487b71\n        /* \"#utility.yul\":997:1000   */\n      0xe0\n        /* \"#utility.yul\":993:1013   */\n      shl\n        /* \"#utility.yul\":990:991   */\n      0x00\n        /* \"#utility.yul\":983:1014   */\n      mstore\n        /* \"#utility.yul\":1037:1041   */\n      0x11\n        /* \"#utility.yul\":1034:1035   */\n      0x04\n        /* \"#utility.yul\":1027:1042   */\n      mstore\n        /* \"#utility.yul\":1065:1069   */\n      0x24\n        /* \"#utility.yul\":1062:1063   */\n      0x00\n        /* \"#utility.yul\":1055:1070   */\n      revert\n        /* \"#utility.yul\":947:1080   */\n    tag_181:\n        /* \"#utility.yul\":864:1086   */\n      swap3\n      swap2\n      pop\n      pop\n      jump\t// out\n        /* \"#utility.yul\":1091:1471   */\n    tag_105:\n      shl(0x7c, 0x07472616e736665724f776e65727368697)\n        /* \"#utility.yul\":1321:1353   */\n      dup2\n      mstore\n        /* \"#utility.yul\":1391:1393   */\n      0x60\n        /* \"#utility.yul\":1387:1402   */\n      swap2\n      swap1\n      swap2\n      shl\n      not(0xffffffffffffffffffffffff)\n        /* \"#utility.yul\":1383:1436   */\n      and\n        /* \"#utility.yul\":1378:1380   */\n      0x11\n        /* \"#utility.yul\":1369:1381   */\n      dup3\n      add\n        /* \"#utility.yul\":1362:1437   */\n      mstore\n        /* \"#utility.yul\":1462:1464   */\n      0x25\n        /* \"#utility.yul\":1453:1465   */\n      add\n      swap1\n        /* \"#utility.yul\":1091:1471   */\n      jump\t// out\n\n    auxdata: 0xa2646970667358221220f5e56854b590d1b62029c7040303bbc4758535b289728c98991ab766788dcc9364736f6c634300081d0033\n}\n",
				"bytecode": {
					"linkReferences": {},
					"object": "6080604052348015600e575f5ffd5b5060015f55610d97806100205f395ff3fe608060405234801561000f575f5ffd5b50600436106100cb575f3560e01c80638024e96811610088578063d259ab4211610063578063d259ab421461015b578063d907813c1461016e578063e458d45314610176578063f2fde38b14610189575f5ffd5b80638024e96814610122578063a42dce8014610135578063cbaf2fa714610148575f5ffd5b8063062776bf146100cf57806329175b8c146100d95780632f2a9165146100e157806337214ad0146100e9578063617f3989146100fc578063798b47391461010f575b5f5ffd5b6100d761019c565b005b6100d761026c565b6100d7610318565b6100d76100f7366004610cc1565b6103c4565b6100d761010a366004610cee565b61047b565b6100d761011d366004610cc1565b610521565b6100d7610130366004610cc1565b610647565b6100d7610143366004610cc1565b6106fe565b6100d7610156366004610cee565b6107b5565b6100d7610169366004610cc1565b610870565b6100d7610927565b6100d7610184366004610cc1565b6109c7565b6100d7610197366004610cc1565b610a7e565b6101a4610b78565b5f6101ad610bd4565b60098101549091506001600160a01b031633146101dd5760405163ea8e4eb560e01b815260040160405180910390fd5b80600d01545f0361020157604051634716db3560e01b815260040160405180910390fd5b600d810180545f9091556009820154600483015461022c916001600160a01b03918216911683610bf8565b6040518181527f860c0aa5520013080c2f65981705fcdea474d9f7c3daf954656ed5e65d692d1f9060200160405180910390a1505061026a60015f55565b565b5f610275610bd4565b80549091506001600160a01b031633146102a25760405163ea8e4eb560e01b815260040160405180910390fd5b5f6102ab610bd4565b60098101805460ff600160a01b808304821615810260ff60a01b1990931692909217928390556040519394507ff3017345aa4f4b1edf82d1945ba8aaf39d9f284595b090260947f03bc53566f19361030c9392909204161515815260200190565b60405180910390a15050565b5f610321610bd4565b80549091506001600160a01b0316331461034e5760405163ea8e4eb560e01b815260040160405180910390fd5b5f610357610bd4565b90506201518081600b015461036c9190610d05565b42101561038c5760405163e10ceb1160e01b815260040160405180910390fd5b42600b82018190556040519081527f33774f379c2063e81904e4e67242b165586dfc117cb89f7baeb19e04ef39a3be9060200161030c565b5f6103cd610bd4565b80549091506001600160a01b031633146103fa5760405163ea8e4eb560e01b815260040160405180910390fd5b6001600160a01b0382166104215760405163e6c4247b60e01b815260040160405180910390fd5b5f61042a610bd4565b6008810180546001600160a01b0319166001600160a01b038616908117909155604051919250907f66c8ee4f501025a135e9b302cead3d51cc5bf10c9496086853c1c961e6d91ee8905f90a2505050565b5f610484610bd4565b80549091506001600160a01b031633146104b15760405163ea8e4eb560e01b815260040160405180910390fd5b5f6104ba610bd4565b90505f6104ca6202a30042610d05565b5f858152601c84016020526040908190208290555190915084907f610f97886f7c2cfa9f3cb01126b63839d9b9ee8da397c06b368a98856b214634906105139084815260200190565b60405180910390a250505050565b5f61052a610bd4565b80549091506001600160a01b031633146105575760405163ea8e4eb560e01b815260040160405180910390fd5b6001600160a01b03821661057e5760405163e6c4247b60e01b815260040160405180910390fd5b5f610587610bd4565b90505f8360405160200161059b9190610d2a565b60408051601f1981840301815291815281516020928301205f818152601c86019093529120549091508015806105d057508042105b156105ee5760405163f800799b60e01b815260040160405180910390fd5b82546001600160a01b0319166001600160a01b0386161783555f828152601c840160205260408082208290555183917f1277662f4b42b8a4069e99fb5e41ce8919d3c621156090ac08fb11adbcec66f991a25050505050565b5f610650610bd4565b80549091506001600160a01b0316331461067d5760405163ea8e4eb560e01b815260040160405180910390fd5b6001600160a01b0382166106a45760405163e6c4247b60e01b815260040160405180910390fd5b5f6106ad610bd4565b6007810180546001600160a01b0319166001600160a01b038616908117909155604051919250907fb72b4dd67ddcbcd61a6ebffbe1cca26d032c45f9d3a6f3c596e95e298717f746905f90a2505050565b5f610707610bd4565b80549091506001600160a01b031633146107345760405163ea8e4eb560e01b815260040160405180910390fd5b6001600160a01b03821661075b5760405163e6c4247b60e01b815260040160405180910390fd5b5f610764610bd4565b6009810180546001600160a01b0319166001600160a01b038616908117909155604051919250907fe5693914d19c789bdee50a362998c0bc8d035a835f9871da5d51152f0582c34f905f90a2505050565b5f6107be610bd4565b80549091506001600160a01b031633146107eb5760405163ea8e4eb560e01b815260040160405180910390fd5b5f6107f4610bd4565b5f848152601c8201602052604090205490915080158061081357508042105b156108315760405163f800799b60e01b815260040160405180910390fd5b5f848152601c830160205260408082208290555185917f1277662f4b42b8a4069e99fb5e41ce8919d3c621156090ac08fb11adbcec66f991a250505050565b5f610879610bd4565b80549091506001600160a01b031633146108a65760405163ea8e4eb560e01b815260040160405180910390fd5b6001600160a01b0382166108cd5760405163e6c4247b60e01b815260040160405180910390fd5b5f6108d6610bd4565b6005810180546001600160a01b0319166001600160a01b038616908117909155604051919250907f7a100de36a66305ed9ca3998196d0fb9a1806f6dc498d570393b88ab275ed4df905f90a2505050565b5f610930610bd4565b80549091506001600160a01b0316331461095d5760405163ea8e4eb560e01b815260040160405180910390fd5b5f610966610bd4565b60098101805460ff600160a81b808304821615810260ff60a81b1990931692909217928390556040519394507f19115828b11df7bf8355d95226507e6ed8d980fc277bdb99594291bf2a466dab9361030c9392909204161515815260200190565b5f6109d0610bd4565b80549091506001600160a01b031633146109fd5760405163ea8e4eb560e01b815260040160405180910390fd5b6001600160a01b038216610a245760405163e6c4247b60e01b815260040160405180910390fd5b5f610a2d610bd4565b6006810180546001600160a01b0319166001600160a01b038616908117909155604051919250907fd97b0528df15f8ae38af640ff9002c863e7dde420b1b18f78ae48f42f78dc5db905f90a2505050565b5f610a87610bd4565b80549091506001600160a01b03163314610ab45760405163ea8e4eb560e01b815260040160405180910390fd5b6001600160a01b038216610adb5760405163e6c4247b60e01b815260040160405180910390fd5b5f610ae4610bd4565b90505f83604051602001610af89190610d2a565b6040516020818303038152906040528051906020012090505f6202a30042610b209190610d05565b5f838152601c85016020526040908190208290555190915082907f610f97886f7c2cfa9f3cb01126b63839d9b9ee8da397c06b368a98856b21463490610b699084815260200190565b60405180910390a25050505050565b60025f5403610bce5760405162461bcd60e51b815260206004820152601f60248201527f5265656e7472616e637947756172643a207265656e7472616e742063616c6c0060448201526064015b60405180910390fd5b60025f55565b7f5d15b553c07be9b4a8cf4265c997d4479f22e1843183fa58504508c561fb9d5090565b604080516001600160a01b038416602482015260448082018490528251808303909101815260649091019091526020810180516001600160e01b031663a9059cbb60e01b179052610c4a908490610c4f565b505050565b5f5f60205f8451602086015f885af180610c6e576040513d5f823e3d81fd5b50505f513d91508115610c85578060011415610c92565b6001600160a01b0384163b155b15610cbb57604051635274afe760e01b81526001600160a01b0385166004820152602401610bc5565b50505050565b5f60208284031215610cd1575f5ffd5b81356001600160a01b0381168114610ce7575f5ffd5b9392505050565b5f60208284031215610cfe575f5ffd5b5035919050565b80820180821115610d2457634e487b7160e01b5f52601160045260245ffd5b92915050565b7007472616e736665724f776e65727368697607c1b815260609190911b6bffffffffffffffffffffffff191660118201526025019056fea2646970667358221220f5e56854b590d1b62029c7040303bbc4758535b289728c98991ab766788dcc9364736f6c634300081d0033",
					"opcodes": "PUSH1 0x80 PUSH1 0x40 MSTORE CALLVALUE DUP1 ISZERO PUSH1 0xE JUMPI PUSH0 PUSH0 REVERT JUMPDEST POP PUSH1 0x1 PUSH0 SSTORE PUSH2 0xD97 DUP1 PUSH2 0x20 PUSH0 CODECOPY PUSH0 RETURN INVALID PUSH1 0x80 PUSH1 0x40 MSTORE CALLVALUE DUP1 ISZERO PUSH2 0xF JUMPI PUSH0 PUSH0 REVERT JUMPDEST POP PUSH1 0x4 CALLDATASIZE LT PUSH2 0xCB JUMPI PUSH0 CALLDATALOAD PUSH1 0xE0 SHR DUP1 PUSH4 0x8024E968 GT PUSH2 0x88 JUMPI DUP1 PUSH4 0xD259AB42 GT PUSH2 0x63 JUMPI DUP1 PUSH4 0xD259AB42 EQ PUSH2 0x15B JUMPI DUP1 PUSH4 0xD907813C EQ PUSH2 0x16E JUMPI DUP1 PUSH4 0xE458D453 EQ PUSH2 0x176 JUMPI DUP1 PUSH4 0xF2FDE38B EQ PUSH2 0x189 JUMPI PUSH0 PUSH0 REVERT JUMPDEST DUP1 PUSH4 0x8024E968 EQ PUSH2 0x122 JUMPI DUP1 PUSH4 0xA42DCE80 EQ PUSH2 0x135 JUMPI DUP1 PUSH4 0xCBAF2FA7 EQ PUSH2 0x148 JUMPI PUSH0 PUSH0 REVERT JUMPDEST DUP1 PUSH4 0x62776BF EQ PUSH2 0xCF JUMPI DUP1 PUSH4 0x29175B8C EQ PUSH2 0xD9 JUMPI DUP1 PUSH4 0x2F2A9165 EQ PUSH2 0xE1 JUMPI DUP1 PUSH4 0x37214AD0 EQ PUSH2 0xE9 JUMPI DUP1 PUSH4 0x617F3989 EQ PUSH2 0xFC JUMPI DUP1 PUSH4 0x798B4739 EQ PUSH2 0x10F JUMPI JUMPDEST PUSH0 PUSH0 REVERT JUMPDEST PUSH2 0xD7 PUSH2 0x19C JUMP JUMPDEST STOP JUMPDEST PUSH2 0xD7 PUSH2 0x26C JUMP JUMPDEST PUSH2 0xD7 PUSH2 0x318 JUMP JUMPDEST PUSH2 0xD7 PUSH2 0xF7 CALLDATASIZE PUSH1 0x4 PUSH2 0xCC1 JUMP JUMPDEST PUSH2 0x3C4 JUMP JUMPDEST PUSH2 0xD7 PUSH2 0x10A CALLDATASIZE PUSH1 0x4 PUSH2 0xCEE JUMP JUMPDEST PUSH2 0x47B JUMP JUMPDEST PUSH2 0xD7 PUSH2 0x11D CALLDATASIZE PUSH1 0x4 PUSH2 0xCC1 JUMP JUMPDEST PUSH2 0x521 JUMP JUMPDEST PUSH2 0xD7 PUSH2 0x130 CALLDATASIZE PUSH1 0x4 PUSH2 0xCC1 JUMP JUMPDEST PUSH2 0x647 JUMP JUMPDEST PUSH2 0xD7 PUSH2 0x143 CALLDATASIZE PUSH1 0x4 PUSH2 0xCC1 JUMP JUMPDEST PUSH2 0x6FE JUMP JUMPDEST PUSH2 0xD7 PUSH2 0x156 CALLDATASIZE PUSH1 0x4 PUSH2 0xCEE JUMP JUMPDEST PUSH2 0x7B5 JUMP JUMPDEST PUSH2 0xD7 PUSH2 0x169 CALLDATASIZE PUSH1 0x4 PUSH2 0xCC1 JUMP JUMPDEST PUSH2 0x870 JUMP JUMPDEST PUSH2 0xD7 PUSH2 0x927 JUMP JUMPDEST PUSH2 0xD7 PUSH2 0x184 CALLDATASIZE PUSH1 0x4 PUSH2 0xCC1 JUMP JUMPDEST PUSH2 0x9C7 JUMP JUMPDEST PUSH2 0xD7 PUSH2 0x197 CALLDATASIZE PUSH1 0x4 PUSH2 0xCC1 JUMP JUMPDEST PUSH2 0xA7E JUMP JUMPDEST PUSH2 0x1A4 PUSH2 0xB78 JUMP JUMPDEST PUSH0 PUSH2 0x1AD PUSH2 0xBD4 JUMP JUMPDEST PUSH1 0x9 DUP2 ADD SLOAD SWAP1 SWAP2 POP PUSH1 0x1 PUSH1 0x1 PUSH1 0xA0 SHL SUB AND CALLER EQ PUSH2 0x1DD JUMPI PUSH1 0x40 MLOAD PUSH4 0xEA8E4EB5 PUSH1 0xE0 SHL DUP2 MSTORE PUSH1 0x4 ADD PUSH1 0x40 MLOAD DUP1 SWAP2 SUB SWAP1 REVERT JUMPDEST DUP1 PUSH1 0xD ADD SLOAD PUSH0 SUB PUSH2 0x201 JUMPI PUSH1 0x40 MLOAD PUSH4 0x4716DB35 PUSH1 0xE0 SHL DUP2 MSTORE PUSH1 0x4 ADD PUSH1 0x40 MLOAD DUP1 SWAP2 SUB SWAP1 REVERT JUMPDEST PUSH1 0xD DUP2 ADD DUP1 SLOAD PUSH0 SWAP1 SWAP2 SSTORE PUSH1 0x9 DUP3 ADD SLOAD PUSH1 0x4 DUP4 ADD SLOAD PUSH2 0x22C SWAP2 PUSH1 0x1 PUSH1 0x1 PUSH1 0xA0 SHL SUB SWAP2 DUP3 AND SWAP2 AND DUP4 PUSH2 0xBF8 JUMP JUMPDEST PUSH1 0x40 MLOAD DUP2 DUP2 MSTORE PUSH32 0x860C0AA5520013080C2F65981705FCDEA474D9F7C3DAF954656ED5E65D692D1F SWAP1 PUSH1 0x20 ADD PUSH1 0x40 MLOAD DUP1 SWAP2 SUB SWAP1 LOG1 POP POP PUSH2 0x26A PUSH1 0x1 PUSH0 SSTORE JUMP JUMPDEST JUMP JUMPDEST PUSH0 PUSH2 0x275 PUSH2 0xBD4 JUMP JUMPDEST DUP1 SLOAD SWAP1 SWAP2 POP PUSH1 0x1 PUSH1 0x1 PUSH1 0xA0 SHL SUB AND CALLER EQ PUSH2 0x2A2 JUMPI PUSH1 0x40 MLOAD PUSH4 0xEA8E4EB5 PUSH1 0xE0 SHL DUP2 MSTORE PUSH1 0x4 ADD PUSH1 0x40 MLOAD DUP1 SWAP2 SUB SWAP1 REVERT JUMPDEST PUSH0 PUSH2 0x2AB PUSH2 0xBD4 JUMP JUMPDEST PUSH1 0x9 DUP2 ADD DUP1 SLOAD PUSH1 0xFF PUSH1 0x1 PUSH1 0xA0 SHL DUP1 DUP4 DIV DUP3 AND ISZERO DUP2 MUL PUSH1 0xFF PUSH1 0xA0 SHL NOT SWAP1 SWAP4 AND SWAP3 SWAP1 SWAP3 OR SWAP3 DUP4 SWAP1 SSTORE PUSH1 0x40 MLOAD SWAP4 SWAP5 POP PUSH32 0xF3017345AA4F4B1EDF82D1945BA8AAF39D9F284595B090260947F03BC53566F1 SWAP4 PUSH2 0x30C SWAP4 SWAP3 SWAP1 SWAP3 DIV AND ISZERO ISZERO DUP2 MSTORE PUSH1 0x20 ADD SWAP1 JUMP JUMPDEST PUSH1 0x40 MLOAD DUP1 SWAP2 SUB SWAP1 LOG1 POP POP JUMP JUMPDEST PUSH0 PUSH2 0x321 PUSH2 0xBD4 JUMP JUMPDEST DUP1 SLOAD SWAP1 SWAP2 POP PUSH1 0x1 PUSH1 0x1 PUSH1 0xA0 SHL SUB AND CALLER EQ PUSH2 0x34E JUMPI PUSH1 0x40 MLOAD PUSH4 0xEA8E4EB5 PUSH1 0xE0 SHL DUP2 MSTORE PUSH1 0x4 ADD PUSH1 0x40 MLOAD DUP1 SWAP2 SUB SWAP1 REVERT JUMPDEST PUSH0 PUSH2 0x357 PUSH2 0xBD4 JUMP JUMPDEST SWAP1 POP PUSH3 0x15180 DUP2 PUSH1 0xB ADD SLOAD PUSH2 0x36C SWAP2 SWAP1 PUSH2 0xD05 JUMP JUMPDEST TIMESTAMP LT ISZERO PUSH2 0x38C JUMPI PUSH1 0x40 MLOAD PUSH4 0xE10CEB11 PUSH1 0xE0 SHL DUP2 MSTORE PUSH1 0x4 ADD PUSH1 0x40 MLOAD DUP1 SWAP2 SUB SWAP1 REVERT JUMPDEST TIMESTAMP PUSH1 0xB DUP3 ADD DUP2 SWAP1 SSTORE PUSH1 0x40 MLOAD SWAP1 DUP2 MSTORE PUSH32 0x33774F379C2063E81904E4E67242B165586DFC117CB89F7BAEB19E04EF39A3BE SWAP1 PUSH1 0x20 ADD PUSH2 0x30C JUMP JUMPDEST PUSH0 PUSH2 0x3CD PUSH2 0xBD4 JUMP JUMPDEST DUP1 SLOAD SWAP1 SWAP2 POP PUSH1 0x1 PUSH1 0x1 PUSH1 0xA0 SHL SUB AND CALLER EQ PUSH2 0x3FA JUMPI PUSH1 0x40 MLOAD PUSH4 0xEA8E4EB5 PUSH1 0xE0 SHL DUP2 MSTORE PUSH1 0x4 ADD PUSH1 0x40 MLOAD DUP1 SWAP2 SUB SWAP1 REVERT JUMPDEST PUSH1 0x1 PUSH1 0x1 PUSH1 0xA0 SHL SUB DUP3 AND PUSH2 0x421 JUMPI PUSH1 0x40 MLOAD PUSH4 0xE6C4247B PUSH1 0xE0 SHL DUP2 MSTORE PUSH1 0x4 ADD PUSH1 0x40 MLOAD DUP1 SWAP2 SUB SWAP1 REVERT JUMPDEST PUSH0 PUSH2 0x42A PUSH2 0xBD4 JUMP JUMPDEST PUSH1 0x8 DUP2 ADD DUP1 SLOAD PUSH1 0x1 PUSH1 0x1 PUSH1 0xA0 SHL SUB NOT AND PUSH1 0x1 PUSH1 0x1 PUSH1 0xA0 SHL SUB DUP7 AND SWAP1 DUP2 OR SWAP1 SWAP2 SSTORE PUSH1 0x40 MLOAD SWAP2 SWAP3 POP SWAP1 PUSH32 0x66C8EE4F501025A135E9B302CEAD3D51CC5BF10C9496086853C1C961E6D91EE8 SWAP1 PUSH0 SWAP1 LOG2 POP POP POP JUMP JUMPDEST PUSH0 PUSH2 0x484 PUSH2 0xBD4 JUMP JUMPDEST DUP1 SLOAD SWAP1 SWAP2 POP PUSH1 0x1 PUSH1 0x1 PUSH1 0xA0 SHL SUB AND CALLER EQ PUSH2 0x4B1 JUMPI PUSH1 0x40 MLOAD PUSH4 0xEA8E4EB5 PUSH1 0xE0 SHL DUP2 MSTORE PUSH1 0x4 ADD PUSH1 0x40 MLOAD DUP1 SWAP2 SUB SWAP1 REVERT JUMPDEST PUSH0 PUSH2 0x4BA PUSH2 0xBD4 JUMP JUMPDEST SWAP1 POP PUSH0 PUSH2 0x4CA PUSH3 0x2A300 TIMESTAMP PUSH2 0xD05 JUMP JUMPDEST PUSH0 DUP6 DUP2 MSTORE PUSH1 0x1C DUP5 ADD PUSH1 0x20 MSTORE PUSH1 0x40 SWAP1 DUP2 SWAP1 KECCAK256 DUP3 SWAP1 SSTORE MLOAD SWAP1 SWAP2 POP DUP5 SWAP1 PUSH32 0x610F97886F7C2CFA9F3CB01126B63839D9B9EE8DA397C06B368A98856B214634 SWAP1 PUSH2 0x513 SWAP1 DUP5 DUP2 MSTORE PUSH1 0x20 ADD SWAP1 JUMP JUMPDEST PUSH1 0x40 MLOAD DUP1 SWAP2 SUB SWAP1 LOG2 POP POP POP POP JUMP JUMPDEST PUSH0 PUSH2 0x52A PUSH2 0xBD4 JUMP JUMPDEST DUP1 SLOAD SWAP1 SWAP2 POP PUSH1 0x1 PUSH1 0x1 PUSH1 0xA0 SHL SUB AND CALLER EQ PUSH2 0x557 JUMPI PUSH1 0x40 MLOAD PUSH4 0xEA8E4EB5 PUSH1 0xE0 SHL DUP2 MSTORE PUSH1 0x4 ADD PUSH1 0x40 MLOAD DUP1 SWAP2 SUB SWAP1 REVERT JUMPDEST PUSH1 0x1 PUSH1 0x1 PUSH1 0xA0 SHL SUB DUP3 AND PUSH2 0x57E JUMPI PUSH1 0x40 MLOAD PUSH4 0xE6C4247B PUSH1 0xE0 SHL DUP2 MSTORE PUSH1 0x4 ADD PUSH1 0x40 MLOAD DUP1 SWAP2 SUB SWAP1 REVERT JUMPDEST PUSH0 PUSH2 0x587 PUSH2 0xBD4 JUMP JUMPDEST SWAP1 POP PUSH0 DUP4 PUSH1 0x40 MLOAD PUSH1 0x20 ADD PUSH2 0x59B SWAP2 SWAP1 PUSH2 0xD2A JUMP JUMPDEST PUSH1 0x40 DUP1 MLOAD PUSH1 0x1F NOT DUP2 DUP5 SUB ADD DUP2 MSTORE SWAP2 DUP2 MSTORE DUP2 MLOAD PUSH1 0x20 SWAP3 DUP4 ADD KECCAK256 PUSH0 DUP2 DUP2 MSTORE PUSH1 0x1C DUP7 ADD SWAP1 SWAP4 MSTORE SWAP2 KECCAK256 SLOAD SWAP1 SWAP2 POP DUP1 ISZERO DUP1 PUSH2 0x5D0 JUMPI POP DUP1 TIMESTAMP LT JUMPDEST ISZERO PUSH2 0x5EE JUMPI PUSH1 0x40 MLOAD PUSH4 0xF800799B PUSH1 0xE0 SHL DUP2 MSTORE PUSH1 0x4 ADD PUSH1 0x40 MLOAD DUP1 SWAP2 SUB SWAP1 REVERT JUMPDEST DUP3 SLOAD PUSH1 0x1 PUSH1 0x1 PUSH1 0xA0 SHL SUB NOT AND PUSH1 0x1 PUSH1 0x1 PUSH1 0xA0 SHL SUB DUP7 AND OR DUP4 SSTORE PUSH0 DUP3 DUP2 MSTORE PUSH1 0x1C DUP5 ADD PUSH1 0x20 MSTORE PUSH1 0x40 DUP1 DUP3 KECCAK256 DUP3 SWAP1 SSTORE MLOAD DUP4 SWAP2 PUSH32 0x1277662F4B42B8A4069E99FB5E41CE8919D3C621156090AC08FB11ADBCEC66F9 SWAP2 LOG2 POP POP POP POP POP JUMP JUMPDEST PUSH0 PUSH2 0x650 PUSH2 0xBD4 JUMP JUMPDEST DUP1 SLOAD SWAP1 SWAP2 POP PUSH1 0x1 PUSH1 0x1 PUSH1 0xA0 SHL SUB AND CALLER EQ PUSH2 0x67D JUMPI PUSH1 0x40 MLOAD PUSH4 0xEA8E4EB5 PUSH1 0xE0 SHL DUP2 MSTORE PUSH1 0x4 ADD PUSH1 0x40 MLOAD DUP1 SWAP2 SUB SWAP1 REVERT JUMPDEST PUSH1 0x1 PUSH1 0x1 PUSH1 0xA0 SHL SUB DUP3 AND PUSH2 0x6A4 JUMPI PUSH1 0x40 MLOAD PUSH4 0xE6C4247B PUSH1 0xE0 SHL DUP2 MSTORE PUSH1 0x4 ADD PUSH1 0x40 MLOAD DUP1 SWAP2 SUB SWAP1 REVERT JUMPDEST PUSH0 PUSH2 0x6AD PUSH2 0xBD4 JUMP JUMPDEST PUSH1 0x7 DUP2 ADD DUP1 SLOAD PUSH1 0x1 PUSH1 0x1 PUSH1 0xA0 SHL SUB NOT AND PUSH1 0x1 PUSH1 0x1 PUSH1 0xA0 SHL SUB DUP7 AND SWAP1 DUP2 OR SWAP1 SWAP2 SSTORE PUSH1 0x40 MLOAD SWAP2 SWAP3 POP SWAP1 PUSH32 0xB72B4DD67DDCBCD61A6EBFFBE1CCA26D032C45F9D3A6F3C596E95E298717F746 SWAP1 PUSH0 SWAP1 LOG2 POP POP POP JUMP JUMPDEST PUSH0 PUSH2 0x707 PUSH2 0xBD4 JUMP JUMPDEST DUP1 SLOAD SWAP1 SWAP2 POP PUSH1 0x1 PUSH1 0x1 PUSH1 0xA0 SHL SUB AND CALLER EQ PUSH2 0x734 JUMPI PUSH1 0x40 MLOAD PUSH4 0xEA8E4EB5 PUSH1 0xE0 SHL DUP2 MSTORE PUSH1 0x4 ADD PUSH1 0x40 MLOAD DUP1 SWAP2 SUB SWAP1 REVERT JUMPDEST PUSH1 0x1 PUSH1 0x1 PUSH1 0xA0 SHL SUB DUP3 AND PUSH2 0x75B JUMPI PUSH1 0x40 MLOAD PUSH4 0xE6C4247B PUSH1 0xE0 SHL DUP2 MSTORE PUSH1 0x4 ADD PUSH1 0x40 MLOAD DUP1 SWAP2 SUB SWAP1 REVERT JUMPDEST PUSH0 PUSH2 0x764 PUSH2 0xBD4 JUMP JUMPDEST PUSH1 0x9 DUP2 ADD DUP1 SLOAD PUSH1 0x1 PUSH1 0x1 PUSH1 0xA0 SHL SUB NOT AND PUSH1 0x1 PUSH1 0x1 PUSH1 0xA0 SHL SUB DUP7 AND SWAP1 DUP2 OR SWAP1 SWAP2 SSTORE PUSH1 0x40 MLOAD SWAP2 SWAP3 POP SWAP1 PUSH32 0xE5693914D19C789BDEE50A362998C0BC8D035A835F9871DA5D51152F0582C34F SWAP1 PUSH0 SWAP1 LOG2 POP POP POP JUMP JUMPDEST PUSH0 PUSH2 0x7BE PUSH2 0xBD4 JUMP JUMPDEST DUP1 SLOAD SWAP1 SWAP2 POP PUSH1 0x1 PUSH1 0x1 PUSH1 0xA0 SHL SUB AND CALLER EQ PUSH2 0x7EB JUMPI PUSH1 0x40 MLOAD PUSH4 0xEA8E4EB5 PUSH1 0xE0 SHL DUP2 MSTORE PUSH1 0x4 ADD PUSH1 0x40 MLOAD DUP1 SWAP2 SUB SWAP1 REVERT JUMPDEST PUSH0 PUSH2 0x7F4 PUSH2 0xBD4 JUMP JUMPDEST PUSH0 DUP5 DUP2 MSTORE PUSH1 0x1C DUP3 ADD PUSH1 0x20 MSTORE PUSH1 0x40 SWAP1 KECCAK256 SLOAD SWAP1 SWAP2 POP DUP1 ISZERO DUP1 PUSH2 0x813 JUMPI POP DUP1 TIMESTAMP LT JUMPDEST ISZERO PUSH2 0x831 JUMPI PUSH1 0x40 MLOAD PUSH4 0xF800799B PUSH1 0xE0 SHL DUP2 MSTORE PUSH1 0x4 ADD PUSH1 0x40 MLOAD DUP1 SWAP2 SUB SWAP1 REVERT JUMPDEST PUSH0 DUP5 DUP2 MSTORE PUSH1 0x1C DUP4 ADD PUSH1 0x20 MSTORE PUSH1 0x40 DUP1 DUP3 KECCAK256 DUP3 SWAP1 SSTORE MLOAD DUP6 SWAP2 PUSH32 0x1277662F4B42B8A4069E99FB5E41CE8919D3C621156090AC08FB11ADBCEC66F9 SWAP2 LOG2 POP POP POP POP JUMP JUMPDEST PUSH0 PUSH2 0x879 PUSH2 0xBD4 JUMP JUMPDEST DUP1 SLOAD SWAP1 SWAP2 POP PUSH1 0x1 PUSH1 0x1 PUSH1 0xA0 SHL SUB AND CALLER EQ PUSH2 0x8A6 JUMPI PUSH1 0x40 MLOAD PUSH4 0xEA8E4EB5 PUSH1 0xE0 SHL DUP2 MSTORE PUSH1 0x4 ADD PUSH1 0x40 MLOAD DUP1 SWAP2 SUB SWAP1 REVERT JUMPDEST PUSH1 0x1 PUSH1 0x1 PUSH1 0xA0 SHL SUB DUP3 AND PUSH2 0x8CD JUMPI PUSH1 0x40 MLOAD PUSH4 0xE6C4247B PUSH1 0xE0 SHL DUP2 MSTORE PUSH1 0x4 ADD PUSH1 0x40 MLOAD DUP1 SWAP2 SUB SWAP1 REVERT JUMPDEST PUSH0 PUSH2 0x8D6 PUSH2 0xBD4 JUMP JUMPDEST PUSH1 0x5 DUP2 ADD DUP1 SLOAD PUSH1 0x1 PUSH1 0x1 PUSH1 0xA0 SHL SUB NOT AND PUSH1 0x1 PUSH1 0x1 PUSH1 0xA0 SHL SUB DUP7 AND SWAP1 DUP2 OR SWAP1 SWAP2 SSTORE PUSH1 0x40 MLOAD SWAP2 SWAP3 POP SWAP1 PUSH32 0x7A100DE36A66305ED9CA3998196D0FB9A1806F6DC498D570393B88AB275ED4DF SWAP1 PUSH0 SWAP1 LOG2 POP POP POP JUMP JUMPDEST PUSH0 PUSH2 0x930 PUSH2 0xBD4 JUMP JUMPDEST DUP1 SLOAD SWAP1 SWAP2 POP PUSH1 0x1 PUSH1 0x1 PUSH1 0xA0 SHL SUB AND CALLER EQ PUSH2 0x95D JUMPI PUSH1 0x40 MLOAD PUSH4 0xEA8E4EB5 PUSH1 0xE0 SHL DUP2 MSTORE PUSH1 0x4 ADD PUSH1 0x40 MLOAD DUP1 SWAP2 SUB SWAP1 REVERT JUMPDEST PUSH0 PUSH2 0x966 PUSH2 0xBD4 JUMP JUMPDEST PUSH1 0x9 DUP2 ADD DUP1 SLOAD PUSH1 0xFF PUSH1 0x1 PUSH1 0xA8 SHL DUP1 DUP4 DIV DUP3 AND ISZERO DUP2 MUL PUSH1 0xFF PUSH1 0xA8 SHL NOT SWAP1 SWAP4 AND SWAP3 SWAP1 SWAP3 OR SWAP3 DUP4 SWAP1 SSTORE PUSH1 0x40 MLOAD SWAP4 SWAP5 POP PUSH32 0x19115828B11DF7BF8355D95226507E6ED8D980FC277BDB99594291BF2A466DAB SWAP4 PUSH2 0x30C SWAP4 SWAP3 SWAP1 SWAP3 DIV AND ISZERO ISZERO DUP2 MSTORE PUSH1 0x20 ADD SWAP1 JUMP JUMPDEST PUSH0 PUSH2 0x9D0 PUSH2 0xBD4 JUMP JUMPDEST DUP1 SLOAD SWAP1 SWAP2 POP PUSH1 0x1 PUSH1 0x1 PUSH1 0xA0 SHL SUB AND CALLER EQ PUSH2 0x9FD JUMPI PUSH1 0x40 MLOAD PUSH4 0xEA8E4EB5 PUSH1 0xE0 SHL DUP2 MSTORE PUSH1 0x4 ADD PUSH1 0x40 MLOAD DUP1 SWAP2 SUB SWAP1 REVERT JUMPDEST PUSH1 0x1 PUSH1 0x1 PUSH1 0xA0 SHL SUB DUP3 AND PUSH2 0xA24 JUMPI PUSH1 0x40 MLOAD PUSH4 0xE6C4247B PUSH1 0xE0 SHL DUP2 MSTORE PUSH1 0x4 ADD PUSH1 0x40 MLOAD DUP1 SWAP2 SUB SWAP1 REVERT JUMPDEST PUSH0 PUSH2 0xA2D PUSH2 0xBD4 JUMP JUMPDEST PUSH1 0x6 DUP2 ADD DUP1 SLOAD PUSH1 0x1 PUSH1 0x1 PUSH1 0xA0 SHL SUB NOT AND PUSH1 0x1 PUSH1 0x1 PUSH1 0xA0 SHL SUB DUP7 AND SWAP1 DUP2 OR SWAP1 SWAP2 SSTORE PUSH1 0x40 MLOAD SWAP2 SWAP3 POP SWAP1 PUSH32 0xD97B0528DF15F8AE38AF640FF9002C863E7DDE420B1B18F78AE48F42F78DC5DB SWAP1 PUSH0 SWAP1 LOG2 POP POP POP JUMP JUMPDEST PUSH0 PUSH2 0xA87 PUSH2 0xBD4 JUMP JUMPDEST DUP1 SLOAD SWAP1 SWAP2 POP PUSH1 0x1 PUSH1 0x1 PUSH1 0xA0 SHL SUB AND CALLER EQ PUSH2 0xAB4 JUMPI PUSH1 0x40 MLOAD PUSH4 0xEA8E4EB5 PUSH1 0xE0 SHL DUP2 MSTORE PUSH1 0x4 ADD PUSH1 0x40 MLOAD DUP1 SWAP2 SUB SWAP1 REVERT JUMPDEST PUSH1 0x1 PUSH1 0x1 PUSH1 0xA0 SHL SUB DUP3 AND PUSH2 0xADB JUMPI PUSH1 0x40 MLOAD PUSH4 0xE6C4247B PUSH1 0xE0 SHL DUP2 MSTORE PUSH1 0x4 ADD PUSH1 0x40 MLOAD DUP1 SWAP2 SUB SWAP1 REVERT JUMPDEST PUSH0 PUSH2 0xAE4 PUSH2 0xBD4 JUMP JUMPDEST SWAP1 POP PUSH0 DUP4 PUSH1 0x40 MLOAD PUSH1 0x20 ADD PUSH2 0xAF8 SWAP2 SWAP1 PUSH2 0xD2A JUMP JUMPDEST PUSH1 0x40 MLOAD PUSH1 0x20 DUP2 DUP4 SUB SUB DUP2 MSTORE SWAP1 PUSH1 0x40 MSTORE DUP1 MLOAD SWAP1 PUSH1 0x20 ADD KECCAK256 SWAP1 POP PUSH0 PUSH3 0x2A300 TIMESTAMP PUSH2 0xB20 SWAP2 SWAP1 PUSH2 0xD05 JUMP JUMPDEST PUSH0 DUP4 DUP2 MSTORE PUSH1 0x1C DUP6 ADD PUSH1 0x20 MSTORE PUSH1 0x40 SWAP1 DUP2 SWAP1 KECCAK256 DUP3 SWAP1 SSTORE MLOAD SWAP1 SWAP2 POP DUP3 SWAP1 PUSH32 0x610F97886F7C2CFA9F3CB01126B63839D9B9EE8DA397C06B368A98856B214634 SWAP1 PUSH2 0xB69 SWAP1 DUP5 DUP2 MSTORE PUSH1 0x20 ADD SWAP1 JUMP JUMPDEST PUSH1 0x40 MLOAD DUP1 SWAP2 SUB SWAP1 LOG2 POP POP POP POP POP JUMP JUMPDEST PUSH1 0x2 PUSH0 SLOAD SUB PUSH2 0xBCE JUMPI PUSH1 0x40 MLOAD PUSH3 0x461BCD PUSH1 0xE5 SHL DUP2 MSTORE PUSH1 0x20 PUSH1 0x4 DUP3 ADD MSTORE PUSH1 0x1F PUSH1 0x24 DUP3 ADD MSTORE PUSH32 0x5265656E7472616E637947756172643A207265656E7472616E742063616C6C00 PUSH1 0x44 DUP3 ADD MSTORE PUSH1 0x64 ADD JUMPDEST PUSH1 0x40 MLOAD DUP1 SWAP2 SUB SWAP1 REVERT JUMPDEST PUSH1 0x2 PUSH0 SSTORE JUMP JUMPDEST PUSH32 0x5D15B553C07BE9B4A8CF4265C997D4479F22E1843183FA58504508C561FB9D50 SWAP1 JUMP JUMPDEST PUSH1 0x40 DUP1 MLOAD PUSH1 0x1 PUSH1 0x1 PUSH1 0xA0 SHL SUB DUP5 AND PUSH1 0x24 DUP3 ADD MSTORE PUSH1 0x44 DUP1 DUP3 ADD DUP5 SWAP1 MSTORE DUP3 MLOAD DUP1 DUP4 SUB SWAP1 SWAP2 ADD DUP2 MSTORE PUSH1 0x64 SWAP1 SWAP2 ADD SWAP1 SWAP2 MSTORE PUSH1 0x20 DUP2 ADD DUP1 MLOAD PUSH1 0x1 PUSH1 0x1 PUSH1 0xE0 SHL SUB AND PUSH4 0xA9059CBB PUSH1 0xE0 SHL OR SWAP1 MSTORE PUSH2 0xC4A SWAP1 DUP5 SWAP1 PUSH2 0xC4F JUMP JUMPDEST POP POP POP JUMP JUMPDEST PUSH0 PUSH0 PUSH1 0x20 PUSH0 DUP5 MLOAD PUSH1 0x20 DUP7 ADD PUSH0 DUP9 GAS CALL DUP1 PUSH2 0xC6E JUMPI PUSH1 0x40 MLOAD RETURNDATASIZE PUSH0 DUP3 RETURNDATACOPY RETURNDATASIZE DUP2 REVERT JUMPDEST POP POP PUSH0 MLOAD RETURNDATASIZE SWAP2 POP DUP2 ISZERO PUSH2 0xC85 JUMPI DUP1 PUSH1 0x1 EQ ISZERO PUSH2 0xC92 JUMP JUMPDEST PUSH1 0x1 PUSH1 0x1 PUSH1 0xA0 SHL SUB DUP5 AND EXTCODESIZE ISZERO JUMPDEST ISZERO PUSH2 0xCBB JUMPI PUSH1 0x40 MLOAD PUSH4 0x5274AFE7 PUSH1 0xE0 SHL DUP2 MSTORE PUSH1 0x1 PUSH1 0x1 PUSH1 0xA0 SHL SUB DUP6 AND PUSH1 0x4 DUP3 ADD MSTORE PUSH1 0x24 ADD PUSH2 0xBC5 JUMP JUMPDEST POP POP POP POP JUMP JUMPDEST PUSH0 PUSH1 0x20 DUP3 DUP5 SUB SLT ISZERO PUSH2 0xCD1 JUMPI PUSH0 PUSH0 REVERT JUMPDEST DUP2 CALLDATALOAD PUSH1 0x1 PUSH1 0x1 PUSH1 0xA0 SHL SUB DUP2 AND DUP2 EQ PUSH2 0xCE7 JUMPI PUSH0 PUSH0 REVERT JUMPDEST SWAP4 SWAP3 POP POP POP JUMP JUMPDEST PUSH0 PUSH1 0x20 DUP3 DUP5 SUB SLT ISZERO PUSH2 0xCFE JUMPI PUSH0 PUSH0 REVERT JUMPDEST POP CALLDATALOAD SWAP2 SWAP1 POP JUMP JUMPDEST DUP1 DUP3 ADD DUP1 DUP3 GT ISZERO PUSH2 0xD24 JUMPI PUSH4 0x4E487B71 PUSH1 0xE0 SHL PUSH0 MSTORE PUSH1 0x11 PUSH1 0x4 MSTORE PUSH1 0x24 PUSH0 REVERT JUMPDEST SWAP3 SWAP2 POP POP JUMP JUMPDEST PUSH17 0x7472616E736665724F776E65727368697 PUSH1 0x7C SHL DUP2 MSTORE PUSH1 0x60 SWAP2 SWAP1 SWAP2 SHL PUSH12 0xFFFFFFFFFFFFFFFFFFFFFFFF NOT AND PUSH1 0x11 DUP3 ADD MSTORE PUSH1 0x25 ADD SWAP1 JUMP INVALID LOG2 PUSH5 0x6970667358 0x22 SLT KECCAK256 CREATE2 JUMPF 0x6854 0xB5 SWAP1 DATALOADN 0xB620 0x29 0xC7 DIV SUB SUB 0xBB 0xC4 PUSH22 0x8535B289728C98991AB766788DCC9364736F6C634300 ADDMOD SAR STOP CALLER "
				},
				"gasEstimates": {
					"creation": {
						"codeDepositCost": "695800",
						"executionCost": "22831",
						"totalCost": "718631"
					},
					"external": {
						"collectAccumulatedFees()": "infinite",
						"completeOwnershipTransfer(address)": "infinite",
						"executeOperation(bytes32)": "infinite",
						"queueOperation(bytes32)": "infinite",
						"setFeeCollector(address)": "infinite",
						"setLidoWithdrawalAddress(address)": "infinite",
						"setReceiverContract(address)": "infinite",
						"setSwapContract(address)": "infinite",
						"setWstETHAddress(address)": "infinite",
						"toggleDeposits()": "infinite",
						"toggleEmergencyShutdown()": "infinite",
						"transferOwnership(address)": "infinite",
						"triggerDailyUpdate()": "infinite"
					}
				},
				"methodIdentifiers": {
					"collectAccumulatedFees()": "062776bf",
					"completeOwnershipTransfer(address)": "798b4739",
					"executeOperation(bytes32)": "cbaf2fa7",
					"queueOperation(bytes32)": "617f3989",
					"setFeeCollector(address)": "a42dce80",
					"setLidoWithdrawalAddress(address)": "e458d453",
					"setReceiverContract(address)": "37214ad0",
					"setSwapContract(address)": "d259ab42",
					"setWstETHAddress(address)": "8024e968",
					"toggleDeposits()": "d907813c",
					"toggleEmergencyShutdown()": "29175b8c",
					"transferOwnership(address)": "f2fde38b",
					"triggerDailyUpdate()": "2f2a9165"
				}
			},
			"storageLayout": {
				"storage": [
					{
						"astId": 100,
						"contract": "Vault_forge/src/Diamond/AdminFacet.sol:AdminFacet",
						"label": "_status",
						"offset": 0,
						"slot": "0",
						"type": "t_uint256"
					}
				],
				"types": {
					"t_uint256": {
						"encoding": "inplace",
						"label": "uint256",
						"numberOfBytes": "32"
					}
				}
			},
			"userdoc": {
				"kind": "user",
				"methods": {},
				"version": 1
			}
		}
	}
}