{
	"Vault_forge/src/Diamond/DepositFacet.sol": {
		"DepositFacet": {
			"abi": [
				{
					"inputs": [],
					"name": "AmountTooSmall",
					"type": "error"
				},
				{
					"inputs": [],
					"name": "BatchAlreadyProcessed",
					"type": "error"
				},
				{
					"inputs": [],
					"name": "DepositAlreadyQueued",
					"type": "error"
				},
				{
					"inputs": [],
					"name": "DepositsPaused",
					"type": "error"
				},
				{
					"inputs": [],
					"name": "EmergencyShutdown",
					"type": "error"
				},
				{
					"inputs": [],
					"name": "LargeDepositNotTimelocked",
					"type": "error"
				},
				{
					"inputs": [],
					"name": "MinimumDepositNotMet",
					"type": "error"
				},
				{
					"inputs": [],
					"name": "NoETHReceived",
					"type": "error"
				},
				{
					"inputs": [],
					"name": "NoSharesMinted",
					"type": "error"
				},
				{
					"inputs": [
						{
							"internalType": "address",
							"name": "token",
							"type": "address"
						}
					],
					"name": "SafeERC20FailedOperation",
					"type": "error"
				},
				{
					"inputs": [],
					"name": "SwapContractNotSet",
					"type": "error"
				},
				{
					"inputs": [],
					"name": "USDCApprovalFailed",
					"type": "error"
				},
				{
					"inputs": [],
					"name": "ZeroAmount",
					"type": "error"
				},
				{
					"anonymous": false,
					"inputs": [
						{
							"indexed": true,
							"internalType": "address",
							"name": "sender",
							"type": "address"
						},
						{
							"indexed": true,
							"internalType": "address",
							"name": "owner",
							"type": "address"
						},
						{
							"indexed": false,
							"internalType": "uint256",
							"name": "assets",
							"type": "uint256"
						},
						{
							"indexed": false,
							"internalType": "uint256",
							"name": "shares",
							"type": "uint256"
						}
					],
					"name": "Deposit",
					"type": "event"
				},
				{
					"anonymous": false,
					"inputs": [
						{
							"indexed": true,
							"internalType": "address",
							"name": "user",
							"type": "address"
						},
						{
							"indexed": false,
							"internalType": "uint256",
							"name": "amount",
							"type": "uint256"
						},
						{
							"indexed": false,
							"internalType": "uint256",
							"name": "unlockTime",
							"type": "uint256"
						}
					],
					"name": "StakeInitiated",
					"type": "event"
				},
				{
					"anonymous": false,
					"inputs": [
						{
							"indexed": true,
							"internalType": "address",
							"name": "user",
							"type": "address"
						},
						{
							"indexed": false,
							"internalType": "uint256",
							"name": "stakedAmount",
							"type": "uint256"
						},
						{
							"indexed": false,
							"internalType": "uint256",
							"name": "unlockTime",
							"type": "uint256"
						}
					],
					"name": "SwapInitiated",
					"type": "event"
				},
				{
					"anonymous": false,
					"inputs": [
						{
							"indexed": true,
							"internalType": "address",
							"name": "user",
							"type": "address"
						},
						{
							"indexed": false,
							"internalType": "uint256",
							"name": "stakedUSDC",
							"type": "uint256"
						},
						{
							"indexed": false,
							"internalType": "uint256",
							"name": "wstETHReceived",
							"type": "uint256"
						}
					],
					"name": "WstETHBalanceUpdated",
					"type": "event"
				},
				{
					"inputs": [
						{
							"internalType": "uint256",
							"name": "assets",
							"type": "uint256"
						}
					],
					"name": "convertToShares",
					"outputs": [
						{
							"internalType": "uint256",
							"name": "",
							"type": "uint256"
						}
					],
					"stateMutability": "view",
					"type": "function"
				},
				{
					"inputs": [
						{
							"internalType": "uint256",
							"name": "assets",
							"type": "uint256"
						},
						{
							"internalType": "address",
							"name": "receiver",
							"type": "address"
						}
					],
					"name": "deposit",
					"outputs": [
						{
							"internalType": "uint256",
							"name": "",
							"type": "uint256"
						}
					],
					"stateMutability": "nonpayable",
					"type": "function"
				},
				{
					"inputs": [
						{
							"internalType": "address",
							"name": "receiver",
							"type": "address"
						}
					],
					"name": "maxDeposit",
					"outputs": [
						{
							"internalType": "uint256",
							"name": "",
							"type": "uint256"
						}
					],
					"stateMutability": "view",
					"type": "function"
				},
				{
					"inputs": [
						{
							"internalType": "uint256",
							"name": "assets",
							"type": "uint256"
						}
					],
					"name": "previewDeposit",
					"outputs": [
						{
							"internalType": "uint256",
							"name": "",
							"type": "uint256"
						}
					],
					"stateMutability": "view",
					"type": "function"
				},
				{
					"inputs": [],
					"name": "queueLargeDeposit",
					"outputs": [],
					"stateMutability": "nonpayable",
					"type": "function"
				}
			],
			"devdoc": {
				"errors": {
					"SafeERC20FailedOperation(address)": [
						{
							"details": "An operation with an ERC-20 token failed."
						}
					]
				},
				"kind": "dev",
				"methods": {},
				"version": 1
			},
			"evm": {
				"assembly": "    /* \"Vault_forge/src/Diamond/DepositFacet.sol\":1319:8788  contract DepositFacet is ReentrancyGuard {... */\n  mstore(0x40, 0x80)\n  callvalue\n  dup1\n  iszero\n  tag_1\n  jumpi\n  revert(0x00, 0x00)\ntag_1:\n  pop\n    /* \"@openzeppelin/contracts/security/ReentrancyGuard.sol\":1716:1717  1 */\n  0x01\n    /* \"@openzeppelin/contracts/security/ReentrancyGuard.sol\":1821:1828  _status */\n  0x00\n    /* \"@openzeppelin/contracts/security/ReentrancyGuard.sol\":1821:1843  _status = _NOT_ENTERED */\n  dup2\n  swap1\n  sstore\n  pop\n    /* \"Vault_forge/src/Diamond/DepositFacet.sol\":1319:8788  contract DepositFacet is ReentrancyGuard {... */\n  dataSize(sub_0)\n  dup1\n  dataOffset(sub_0)\n  0x00\n  codecopy\n  0x00\n  return\nstop\n\nsub_0: assembly {\n        /* \"Vault_forge/src/Diamond/DepositFacet.sol\":1319:8788  contract DepositFacet is ReentrancyGuard {... */\n      mstore(0x40, 0x80)\n      callvalue\n      dup1\n      iszero\n      tag_1\n      jumpi\n      revert(0x00, 0x00)\n    tag_1:\n      pop\n      jumpi(tag_2, lt(calldatasize, 0x04))\n      shr(0xe0, calldataload(0x00))\n      dup1\n      0x402d267d\n      eq\n      tag_3\n      jumpi\n      dup1\n      0x6e553f65\n      eq\n      tag_4\n      jumpi\n      dup1\n      0x94dddda1\n      eq\n      tag_5\n      jumpi\n      dup1\n      0xc6e6f592\n      eq\n      tag_6\n      jumpi\n      dup1\n      0xef8b30f7\n      eq\n      tag_7\n      jumpi\n    tag_2:\n      revert(0x00, 0x00)\n        /* \"Vault_forge/src/Diamond/DepositFacet.sol\":5267:5613  function maxDeposit(address receiver) public view returns (uint256) {... */\n    tag_3:\n      tag_8\n      0x04\n      dup1\n      calldatasize\n      sub\n      dup2\n      add\n      swap1\n      tag_9\n      swap2\n      swap1\n      tag_10\n      jump\t// in\n    tag_9:\n      tag_11\n      jump\t// in\n    tag_8:\n      mload(0x40)\n      tag_12\n      swap2\n      swap1\n      tag_13\n      jump\t// in\n    tag_12:\n      mload(0x40)\n      dup1\n      swap2\n      sub\n      swap1\n      return\n        /* \"Vault_forge/src/Diamond/DepositFacet.sol\":2336:4716  function deposit(... */\n    tag_4:\n      tag_14\n      0x04\n      dup1\n      calldatasize\n      sub\n      dup2\n      add\n      swap1\n      tag_15\n      swap2\n      swap1\n      tag_16\n      jump\t// in\n    tag_15:\n      tag_17\n      jump\t// in\n    tag_14:\n      mload(0x40)\n      tag_18\n      swap2\n      swap1\n      tag_13\n      jump\t// in\n    tag_18:\n      mload(0x40)\n      dup1\n      swap2\n      sub\n      swap1\n      return\n        /* \"Vault_forge/src/Diamond/DepositFacet.sol\":8489:8785  function queueLargeDeposit() external {... */\n    tag_5:\n      tag_19\n      tag_20\n      jump\t// in\n    tag_19:\n      stop\n        /* \"Vault_forge/src/Diamond/DepositFacet.sol\":4931:5255  function convertToShares(uint256 assets) public view returns (uint256) {... */\n    tag_6:\n      tag_21\n      0x04\n      dup1\n      calldatasize\n      sub\n      dup2\n      add\n      swap1\n      tag_22\n      swap2\n      swap1\n      tag_23\n      jump\t// in\n    tag_22:\n      tag_24\n      jump\t// in\n    tag_21:\n      mload(0x40)\n      tag_25\n      swap2\n      swap1\n      tag_13\n      jump\t// in\n    tag_25:\n      mload(0x40)\n      dup1\n      swap2\n      sub\n      swap1\n      return\n        /* \"Vault_forge/src/Diamond/DepositFacet.sol\":4753:4919  function previewDeposit(uint256 assets) public view returns (uint256) {... */\n    tag_7:\n      tag_26\n      0x04\n      dup1\n      calldatasize\n      sub\n      dup2\n      add\n      swap1\n      tag_27\n      swap2\n      swap1\n      tag_23\n      jump\t// in\n    tag_27:\n      tag_28\n      jump\t// in\n    tag_26:\n      mload(0x40)\n      tag_29\n      swap2\n      swap1\n      tag_13\n      jump\t// in\n    tag_29:\n      mload(0x40)\n      dup1\n      swap2\n      sub\n      swap1\n      return\n        /* \"Vault_forge/src/Diamond/DepositFacet.sol\":5267:5613  function maxDeposit(address receiver) public view returns (uint256) {... */\n    tag_11:\n        /* \"Vault_forge/src/Diamond/DepositFacet.sol\":5326:5333  uint256 */\n      0x00\n        /* \"Vault_forge/src/Diamond/DepositFacet.sol\":5346:5382  DiamondStorage.VaultState storage ds */\n      0x00\n        /* \"Vault_forge/src/Diamond/DepositFacet.sol\":5385:5412  DiamondStorage.getStorage() */\n      tag_31\n        /* \"Vault_forge/src/Diamond/DepositFacet.sol\":5385:5410  DiamondStorage.getStorage */\n      tag_32\n        /* \"Vault_forge/src/Diamond/DepositFacet.sol\":5385:5412  DiamondStorage.getStorage() */\n      jump\t// in\n    tag_31:\n        /* \"Vault_forge/src/Diamond/DepositFacet.sol\":5346:5412  DiamondStorage.VaultState storage ds = DiamondStorage.getStorage() */\n      swap1\n      pop\n        /* \"Vault_forge/src/Diamond/DepositFacet.sol\":5423:5440  uint256 deposited */\n      0x00\n        /* \"Vault_forge/src/Diamond/DepositFacet.sol\":5443:5445  ds */\n      dup2\n        /* \"Vault_forge/src/Diamond/DepositFacet.sol\":5443:5458  ds.userDeposits */\n      0x10\n      add\n        /* \"Vault_forge/src/Diamond/DepositFacet.sol\":5443:5468  ds.userDeposits[receiver] */\n      0x00\n        /* \"Vault_forge/src/Diamond/DepositFacet.sol\":5459:5467  receiver */\n      dup6\n        /* \"Vault_forge/src/Diamond/DepositFacet.sol\":5443:5468  ds.userDeposits[receiver] */\n      0xffffffffffffffffffffffffffffffffffffffff\n      and\n      0xffffffffffffffffffffffffffffffffffffffff\n      and\n      dup2\n      mstore\n      0x20\n      add\n      swap1\n      dup2\n      mstore\n      0x20\n      add\n      0x00\n      keccak256\n      sload\n        /* \"Vault_forge/src/Diamond/DepositFacet.sol\":5423:5468  uint256 deposited = ds.userDeposits[receiver] */\n      swap1\n      pop\n        /* \"Vault_forge/src/Diamond/DepositFacet.sol\":1538:1548  4999 * 1e6 */\n      0x0129f6afc0\n        /* \"Vault_forge/src/Diamond/DepositFacet.sol\":5499:5508  deposited */\n      dup2\n        /* \"Vault_forge/src/Diamond/DepositFacet.sol\":5499:5532  deposited >= MAX_DEPOSIT_PER_USER */\n      lt\n      iszero\n        /* \"Vault_forge/src/Diamond/DepositFacet.sol\":5499:5605  deposited >= MAX_DEPOSIT_PER_USER... */\n      tag_33\n      jumpi\n        /* \"Vault_forge/src/Diamond/DepositFacet.sol\":5596:5605  deposited */\n      dup1\n        /* \"Vault_forge/src/Diamond/DepositFacet.sol\":1538:1548  4999 * 1e6 */\n      0x0129f6afc0\n        /* \"Vault_forge/src/Diamond/DepositFacet.sol\":5573:5605  MAX_DEPOSIT_PER_USER - deposited */\n      tag_34\n      swap2\n      swap1\n      tag_35\n      jump\t// in\n    tag_34:\n        /* \"Vault_forge/src/Diamond/DepositFacet.sol\":5499:5605  deposited >= MAX_DEPOSIT_PER_USER... */\n      jump(tag_36)\n    tag_33:\n        /* \"Vault_forge/src/Diamond/DepositFacet.sol\":5552:5553  0 */\n      0x00\n        /* \"Vault_forge/src/Diamond/DepositFacet.sol\":5499:5605  deposited >= MAX_DEPOSIT_PER_USER... */\n    tag_36:\n        /* \"Vault_forge/src/Diamond/DepositFacet.sol\":5479:5605  return... */\n      swap3\n      pop\n      pop\n      pop\n        /* \"Vault_forge/src/Diamond/DepositFacet.sol\":5267:5613  function maxDeposit(address receiver) public view returns (uint256) {... */\n      swap2\n      swap1\n      pop\n      jump\t// out\n        /* \"Vault_forge/src/Diamond/DepositFacet.sol\":2336:4716  function deposit(... */\n    tag_17:\n        /* \"Vault_forge/src/Diamond/DepositFacet.sol\":2443:2450  uint256 */\n      0x00\n        /* \"@openzeppelin/contracts/security/ReentrancyGuard.sol\":2261:2282  _nonReentrantBefore() */\n      tag_38\n        /* \"@openzeppelin/contracts/security/ReentrancyGuard.sol\":2261:2280  _nonReentrantBefore */\n      tag_39\n        /* \"@openzeppelin/contracts/security/ReentrancyGuard.sol\":2261:2282  _nonReentrantBefore() */\n      jump\t// in\n    tag_38:\n        /* \"Vault_forge/src/Diamond/DepositFacet.sol\":2463:2499  DiamondStorage.VaultState storage ds */\n      0x00\n        /* \"Vault_forge/src/Diamond/DepositFacet.sol\":2502:2529  DiamondStorage.getStorage() */\n      tag_41\n        /* \"Vault_forge/src/Diamond/DepositFacet.sol\":2502:2527  DiamondStorage.getStorage */\n      tag_32\n        /* \"Vault_forge/src/Diamond/DepositFacet.sol\":2502:2529  DiamondStorage.getStorage() */\n      jump\t// in\n    tag_41:\n        /* \"Vault_forge/src/Diamond/DepositFacet.sol\":2463:2529  DiamondStorage.VaultState storage ds = DiamondStorage.getStorage() */\n      swap1\n      pop\n        /* \"Vault_forge/src/Diamond/DepositFacet.sol\":2588:2589  0 */\n      0x00\n        /* \"Vault_forge/src/Diamond/DepositFacet.sol\":2578:2584  assets */\n      dup5\n        /* \"Vault_forge/src/Diamond/DepositFacet.sol\":2578:2589  assets == 0 */\n      sub\n        /* \"Vault_forge/src/Diamond/DepositFacet.sol\":2574:2610  if (assets == 0) revert ZeroAmount() */\n      tag_42\n      jumpi\n        /* \"Vault_forge/src/Diamond/DepositFacet.sol\":2598:2610  ZeroAmount() */\n      mload(0x40)\n      0x1f2a200500000000000000000000000000000000000000000000000000000000\n      dup2\n      mstore\n      0x04\n      add\n      mload(0x40)\n      dup1\n      swap2\n      sub\n      swap1\n      revert\n        /* \"Vault_forge/src/Diamond/DepositFacet.sol\":2574:2610  if (assets == 0) revert ZeroAmount() */\n    tag_42:\n        /* \"Vault_forge/src/Diamond/DepositFacet.sol\":2625:2627  ds */\n      dup1\n        /* \"Vault_forge/src/Diamond/DepositFacet.sol\":2625:2642  ds.depositsPaused */\n      0x09\n      add\n      0x15\n      swap1\n      sload\n      swap1\n      0x0100\n      exp\n      swap1\n      div\n      0xff\n      and\n        /* \"Vault_forge/src/Diamond/DepositFacet.sol\":2621:2667  if (ds.depositsPaused) revert DepositsPaused() */\n      iszero\n      tag_43\n      jumpi\n        /* \"Vault_forge/src/Diamond/DepositFacet.sol\":2651:2667  DepositsPaused() */\n      mload(0x40)\n      0xdeeb694300000000000000000000000000000000000000000000000000000000\n      dup2\n      mstore\n      0x04\n      add\n      mload(0x40)\n      dup1\n      swap2\n      sub\n      swap1\n      revert\n        /* \"Vault_forge/src/Diamond/DepositFacet.sol\":2621:2667  if (ds.depositsPaused) revert DepositsPaused() */\n    tag_43:\n        /* \"Vault_forge/src/Diamond/DepositFacet.sol\":1601:1610  100 * 1e6 */\n      0x05f5e100\n        /* \"Vault_forge/src/Diamond/DepositFacet.sol\":2682:2688  assets */\n      dup5\n        /* \"Vault_forge/src/Diamond/DepositFacet.sol\":2682:2709  assets < MIN_DEPOSIT_AMOUNT */\n      lt\n        /* \"Vault_forge/src/Diamond/DepositFacet.sol\":2678:2740  if (assets < MIN_DEPOSIT_AMOUNT) revert MinimumDepositNotMet() */\n      iszero\n      tag_44\n      jumpi\n        /* \"Vault_forge/src/Diamond/DepositFacet.sol\":2718:2740  MinimumDepositNotMet() */\n      mload(0x40)\n      0x20d01f0600000000000000000000000000000000000000000000000000000000\n      dup2\n      mstore\n      0x04\n      add\n      mload(0x40)\n      dup1\n      swap2\n      sub\n      swap1\n      revert\n        /* \"Vault_forge/src/Diamond/DepositFacet.sol\":2678:2740  if (assets < MIN_DEPOSIT_AMOUNT) revert MinimumDepositNotMet() */\n    tag_44:\n        /* \"Vault_forge/src/Diamond/DepositFacet.sol\":2755:2757  ds */\n      dup1\n        /* \"Vault_forge/src/Diamond/DepositFacet.sol\":2755:2775  ds.emergencyShutdown */\n      0x09\n      add\n      0x14\n      swap1\n      sload\n      swap1\n      0x0100\n      exp\n      swap1\n      div\n      0xff\n      and\n        /* \"Vault_forge/src/Diamond/DepositFacet.sol\":2751:2803  if (ds.emergencyShutdown) revert EmergencyShutdown() */\n      iszero\n      tag_45\n      jumpi\n        /* \"Vault_forge/src/Diamond/DepositFacet.sol\":2784:2803  EmergencyShutdown() */\n      mload(0x40)\n      0xf443ecad00000000000000000000000000000000000000000000000000000000\n      dup2\n      mstore\n      0x04\n      add\n      mload(0x40)\n      dup1\n      swap2\n      sub\n      swap1\n      revert\n        /* \"Vault_forge/src/Diamond/DepositFacet.sol\":2751:2803  if (ds.emergencyShutdown) revert EmergencyShutdown() */\n    tag_45:\n        /* \"Vault_forge/src/Diamond/DepositFacet.sol\":2853:2867  uint256 shares */\n      0x00\n        /* \"Vault_forge/src/Diamond/DepositFacet.sol\":2870:2892  previewDeposit(assets) */\n      tag_46\n        /* \"Vault_forge/src/Diamond/DepositFacet.sol\":2885:2891  assets */\n      dup6\n        /* \"Vault_forge/src/Diamond/DepositFacet.sol\":2870:2884  previewDeposit */\n      tag_28\n        /* \"Vault_forge/src/Diamond/DepositFacet.sol\":2870:2892  previewDeposit(assets) */\n      jump\t// in\n    tag_46:\n        /* \"Vault_forge/src/Diamond/DepositFacet.sol\":2853:2892  uint256 shares = previewDeposit(assets) */\n      swap1\n      pop\n        /* \"Vault_forge/src/Diamond/DepositFacet.sol\":2917:2918  0 */\n      0x00\n        /* \"Vault_forge/src/Diamond/DepositFacet.sol\":2907:2913  shares */\n      dup2\n        /* \"Vault_forge/src/Diamond/DepositFacet.sol\":2907:2918  shares == 0 */\n      sub\n        /* \"Vault_forge/src/Diamond/DepositFacet.sol\":2903:2943  if (shares == 0) revert NoSharesMinted() */\n      tag_47\n      jumpi\n        /* \"Vault_forge/src/Diamond/DepositFacet.sol\":2927:2943  NoSharesMinted() */\n      mload(0x40)\n      0x77f43aca00000000000000000000000000000000000000000000000000000000\n      dup2\n      mstore\n      0x04\n      add\n      mload(0x40)\n      dup1\n      swap2\n      sub\n      swap1\n      revert\n        /* \"Vault_forge/src/Diamond/DepositFacet.sol\":2903:2943  if (shares == 0) revert NoSharesMinted() */\n    tag_47:\n        /* \"Vault_forge/src/Diamond/DepositFacet.sol\":3050:3052  10 */\n      0x0a\n        /* \"Vault_forge/src/Diamond/DepositFacet.sol\":3033:3035  ds */\n      dup3\n        /* \"Vault_forge/src/Diamond/DepositFacet.sol\":3033:3047  ds.totalAssets */\n      0x01\n      add\n      sload\n        /* \"Vault_forge/src/Diamond/DepositFacet.sol\":3033:3052  ds.totalAssets / 10 */\n      tag_48\n      swap2\n      swap1\n      tag_49\n      jump\t// in\n    tag_48:\n        /* \"Vault_forge/src/Diamond/DepositFacet.sol\":3024:3030  assets */\n      dup6\n        /* \"Vault_forge/src/Diamond/DepositFacet.sol\":3024:3052  assets > ds.totalAssets / 10 */\n      gt\n        /* \"Vault_forge/src/Diamond/DepositFacet.sol\":3020:3344  if (assets > ds.totalAssets / 10) {... */\n      iszero\n      tag_50\n      jumpi\n        /* \"Vault_forge/src/Diamond/DepositFacet.sol\":3132:3133  0 */\n      0x00\n        /* \"Vault_forge/src/Diamond/DepositFacet.sol\":3091:3093  ds */\n      dup3\n        /* \"Vault_forge/src/Diamond/DepositFacet.sol\":3091:3116  ds.largeDepositUnlockTime */\n      0x18\n      add\n        /* \"Vault_forge/src/Diamond/DepositFacet.sol\":3091:3128  ds.largeDepositUnlockTime[msg.sender] */\n      0x00\n        /* \"Vault_forge/src/Diamond/DepositFacet.sol\":3117:3127  msg.sender */\n      caller\n        /* \"Vault_forge/src/Diamond/DepositFacet.sol\":3091:3128  ds.largeDepositUnlockTime[msg.sender] */\n      0xffffffffffffffffffffffffffffffffffffffff\n      and\n      0xffffffffffffffffffffffffffffffffffffffff\n      and\n      dup2\n      mstore\n      0x20\n      add\n      swap1\n      dup2\n      mstore\n      0x20\n      add\n      0x00\n      keccak256\n      sload\n        /* \"Vault_forge/src/Diamond/DepositFacet.sol\":3091:3133  ds.largeDepositUnlockTime[msg.sender] == 0 */\n      eq\n        /* \"Vault_forge/src/Diamond/DepositFacet.sol\":3091:3209  ds.largeDepositUnlockTime[msg.sender] == 0 ||... */\n      dup1\n      tag_51\n      jumpi\n      pop\n        /* \"Vault_forge/src/Diamond/DepositFacet.sol\":3172:3174  ds */\n      dup2\n        /* \"Vault_forge/src/Diamond/DepositFacet.sol\":3172:3197  ds.largeDepositUnlockTime */\n      0x18\n      add\n        /* \"Vault_forge/src/Diamond/DepositFacet.sol\":3172:3209  ds.largeDepositUnlockTime[msg.sender] */\n      0x00\n        /* \"Vault_forge/src/Diamond/DepositFacet.sol\":3198:3208  msg.sender */\n      caller\n        /* \"Vault_forge/src/Diamond/DepositFacet.sol\":3172:3209  ds.largeDepositUnlockTime[msg.sender] */\n      0xffffffffffffffffffffffffffffffffffffffff\n      and\n      0xffffffffffffffffffffffffffffffffffffffff\n      and\n      dup2\n      mstore\n      0x20\n      add\n      swap1\n      dup2\n      mstore\n      0x20\n      add\n      0x00\n      keccak256\n      sload\n        /* \"Vault_forge/src/Diamond/DepositFacet.sol\":3154:3169  block.timestamp */\n      timestamp\n        /* \"Vault_forge/src/Diamond/DepositFacet.sol\":3154:3209  block.timestamp < ds.largeDepositUnlockTime[msg.sender] */\n      lt\n        /* \"Vault_forge/src/Diamond/DepositFacet.sol\":3091:3209  ds.largeDepositUnlockTime[msg.sender] == 0 ||... */\n    tag_51:\n        /* \"Vault_forge/src/Diamond/DepositFacet.sol\":3069:3259  if (... */\n      iszero\n      tag_52\n      jumpi\n        /* \"Vault_forge/src/Diamond/DepositFacet.sol\":3232:3259  LargeDepositNotTimelocked() */\n      mload(0x40)\n      0x23e4dc4300000000000000000000000000000000000000000000000000000000\n      dup2\n      mstore\n      0x04\n      add\n      mload(0x40)\n      dup1\n      swap2\n      sub\n      swap1\n      revert\n        /* \"Vault_forge/src/Diamond/DepositFacet.sol\":3069:3259  if (... */\n    tag_52:\n        /* \"Vault_forge/src/Diamond/DepositFacet.sol\":3295:3297  ds */\n      dup2\n        /* \"Vault_forge/src/Diamond/DepositFacet.sol\":3295:3320  ds.largeDepositUnlockTime */\n      0x18\n      add\n        /* \"Vault_forge/src/Diamond/DepositFacet.sol\":3295:3332  ds.largeDepositUnlockTime[msg.sender] */\n      0x00\n        /* \"Vault_forge/src/Diamond/DepositFacet.sol\":3321:3331  msg.sender */\n      caller\n        /* \"Vault_forge/src/Diamond/DepositFacet.sol\":3295:3332  ds.largeDepositUnlockTime[msg.sender] */\n      0xffffffffffffffffffffffffffffffffffffffff\n      and\n      0xffffffffffffffffffffffffffffffffffffffff\n      and\n      dup2\n      mstore\n      0x20\n      add\n      swap1\n      dup2\n      mstore\n      0x20\n      add\n      0x00\n      keccak256\n        /* \"Vault_forge/src/Diamond/DepositFacet.sol\":3288:3332  delete ds.largeDepositUnlockTime[msg.sender] */\n      0x00\n      swap1\n      sstore\n        /* \"Vault_forge/src/Diamond/DepositFacet.sol\":3020:3344  if (assets > ds.totalAssets / 10) {... */\n    tag_50:\n        /* \"Vault_forge/src/Diamond/DepositFacet.sol\":3409:3411  ds */\n      dup2\n        /* \"Vault_forge/src/Diamond/DepositFacet.sol\":3409:3426  ds.isExistingUser */\n      0x14\n      add\n        /* \"Vault_forge/src/Diamond/DepositFacet.sol\":3409:3436  ds.isExistingUser[receiver] */\n      0x00\n        /* \"Vault_forge/src/Diamond/DepositFacet.sol\":3427:3435  receiver */\n      dup6\n        /* \"Vault_forge/src/Diamond/DepositFacet.sol\":3409:3436  ds.isExistingUser[receiver] */\n      0xffffffffffffffffffffffffffffffffffffffff\n      and\n      0xffffffffffffffffffffffffffffffffffffffff\n      and\n      dup2\n      mstore\n      0x20\n      add\n      swap1\n      dup2\n      mstore\n      0x20\n      add\n      0x00\n      keccak256\n      0x00\n      swap1\n      sload\n      swap1\n      0x0100\n      exp\n      swap1\n      div\n      0xff\n      and\n        /* \"Vault_forge/src/Diamond/DepositFacet.sol\":3404:3545  if (!ds.isExistingUser[receiver]) {... */\n      tag_53\n      jumpi\n        /* \"Vault_forge/src/Diamond/DepositFacet.sol\":3453:3455  ds */\n      dup2\n        /* \"Vault_forge/src/Diamond/DepositFacet.sol\":3453:3469  ds.userAddresses */\n      0x0e\n      add\n        /* \"Vault_forge/src/Diamond/DepositFacet.sol\":3475:3483  receiver */\n      dup5\n        /* \"Vault_forge/src/Diamond/DepositFacet.sol\":3453:3484  ds.userAddresses.push(receiver) */\n      swap1\n      dup1\n      0x01\n      dup2\n      sload\n      add\n      dup1\n      dup3\n      sstore\n      dup1\n      swap2\n      pop\n      pop\n      0x01\n      swap1\n      sub\n      swap1\n      0x00\n      mstore\n      keccak256(0x00, 0x20)\n      add\n      0x00\n      swap1\n      swap2\n      swap1\n      swap2\n      swap1\n      swap2\n      0x0100\n      exp\n      dup2\n      sload\n      dup2\n      0xffffffffffffffffffffffffffffffffffffffff\n      mul\n      not\n      and\n      swap1\n      dup4\n      0xffffffffffffffffffffffffffffffffffffffff\n      and\n      mul\n      or\n      swap1\n      sstore\n      pop\n        /* \"Vault_forge/src/Diamond/DepositFacet.sol\":3529:3533  true */\n      0x01\n        /* \"Vault_forge/src/Diamond/DepositFacet.sol\":3499:3501  ds */\n      dup3\n        /* \"Vault_forge/src/Diamond/DepositFacet.sol\":3499:3516  ds.isExistingUser */\n      0x14\n      add\n        /* \"Vault_forge/src/Diamond/DepositFacet.sol\":3499:3526  ds.isExistingUser[receiver] */\n      0x00\n        /* \"Vault_forge/src/Diamond/DepositFacet.sol\":3517:3525  receiver */\n      dup7\n        /* \"Vault_forge/src/Diamond/DepositFacet.sol\":3499:3526  ds.isExistingUser[receiver] */\n      0xffffffffffffffffffffffffffffffffffffffff\n      and\n      0xffffffffffffffffffffffffffffffffffffffff\n      and\n      dup2\n      mstore\n      0x20\n      add\n      swap1\n      dup2\n      mstore\n      0x20\n      add\n      0x00\n      keccak256\n      0x00\n        /* \"Vault_forge/src/Diamond/DepositFacet.sol\":3499:3533  ds.isExistingUser[receiver] = true */\n      0x0100\n      exp\n      dup2\n      sload\n      dup2\n      0xff\n      mul\n      not\n      and\n      swap1\n      dup4\n      iszero\n      iszero\n      mul\n      or\n      swap1\n      sstore\n      pop\n        /* \"Vault_forge/src/Diamond/DepositFacet.sol\":3404:3545  if (!ds.isExistingUser[receiver]) {... */\n    tag_53:\n        /* \"Vault_forge/src/Diamond/DepositFacet.sol\":3609:3630  uint256 amountToStake */\n      0x00\n        /* \"Vault_forge/src/Diamond/DepositFacet.sol\":3661:3664  100 */\n      0x64\n        /* \"Vault_forge/src/Diamond/DepositFacet.sol\":1660:1662  40 */\n      0x28\n        /* \"Vault_forge/src/Diamond/DepositFacet.sol\":3634:3640  assets */\n      dup8\n        /* \"Vault_forge/src/Diamond/DepositFacet.sol\":3634:3657  assets * STAKED_PORTION */\n      tag_55\n      swap2\n      swap1\n      tag_56\n      jump\t// in\n    tag_55:\n        /* \"Vault_forge/src/Diamond/DepositFacet.sol\":3633:3664  (assets * STAKED_PORTION) / 100 */\n      tag_57\n      swap2\n      swap1\n      tag_49\n      jump\t// in\n    tag_57:\n        /* \"Vault_forge/src/Diamond/DepositFacet.sol\":3609:3664  uint256 amountToStake = (assets * STAKED_PORTION) / 100 */\n      swap1\n      pop\n        /* \"Vault_forge/src/Diamond/DepositFacet.sol\":3741:3760  uint256 expectedEth */\n      0x00\n        /* \"Vault_forge/src/Diamond/DepositFacet.sol\":3777:3779  ds */\n      dup4\n        /* \"Vault_forge/src/Diamond/DepositFacet.sol\":3777:3792  ds.swapContract */\n      0x05\n      add\n      0x00\n      swap1\n      sload\n      swap1\n      0x0100\n      exp\n      swap1\n      div\n      0xffffffffffffffffffffffffffffffffffffffff\n      and\n        /* \"Vault_forge/src/Diamond/DepositFacet.sol\":3763:3809  ISwapContract(ds.swapContract).getETHAmountOut */\n      0xffffffffffffffffffffffffffffffffffffffff\n      and\n      0xcd192db5\n        /* \"Vault_forge/src/Diamond/DepositFacet.sol\":3810:3823  amountToStake */\n      dup4\n        /* \"Vault_forge/src/Diamond/DepositFacet.sol\":3763:3824  ISwapContract(ds.swapContract).getETHAmountOut(amountToStake) */\n      mload(0x40)\n      dup3\n      0xffffffff\n      and\n      0xe0\n      shl\n      dup2\n      mstore\n      0x04\n      add\n      tag_58\n      swap2\n      swap1\n      tag_13\n      jump\t// in\n    tag_58:\n      0x20\n      mload(0x40)\n      dup1\n      dup4\n      sub\n      dup2\n      dup7\n      gas\n      staticcall\n      iszero\n      dup1\n      iszero\n      tag_60\n      jumpi\n      returndatacopy(0x00, 0x00, returndatasize)\n      revert(0x00, returndatasize)\n    tag_60:\n      pop\n      pop\n      pop\n      pop\n      mload(0x40)\n      returndatasize\n      not(0x1f)\n      0x1f\n      dup3\n      add\n      and\n      dup3\n      add\n      dup1\n      0x40\n      mstore\n      pop\n      dup2\n      add\n      swap1\n      tag_61\n      swap2\n      swap1\n      tag_62\n      jump\t// in\n    tag_61:\n        /* \"Vault_forge/src/Diamond/DepositFacet.sol\":3741:3824  uint256 expectedEth = ISwapContract(ds.swapContract).getETHAmountOut(amountToStake) */\n      swap1\n      pop\n        /* \"Vault_forge/src/Diamond/DepositFacet.sol\":3835:3857  uint256 minExpectedEth */\n      0x00\n        /* \"Vault_forge/src/Diamond/DepositFacet.sol\":3881:3884  100 */\n      0x64\n        /* \"Vault_forge/src/Diamond/DepositFacet.sol\":3875:3877  99 */\n      0x63\n        /* \"Vault_forge/src/Diamond/DepositFacet.sol\":3861:3872  expectedEth */\n      dup4\n        /* \"Vault_forge/src/Diamond/DepositFacet.sol\":3861:3877  expectedEth * 99 */\n      tag_63\n      swap2\n      swap1\n      tag_56\n      jump\t// in\n    tag_63:\n        /* \"Vault_forge/src/Diamond/DepositFacet.sol\":3860:3884  (expectedEth * 99) / 100 */\n      tag_64\n      swap2\n      swap1\n      tag_49\n      jump\t// in\n    tag_64:\n        /* \"Vault_forge/src/Diamond/DepositFacet.sol\":3835:3884  uint256 minExpectedEth = (expectedEth * 99) / 100 */\n      swap1\n      pop\n        /* \"Vault_forge/src/Diamond/DepositFacet.sol\":3959:3965  assets */\n      dup8\n        /* \"Vault_forge/src/Diamond/DepositFacet.sol\":3930:3932  ds */\n      dup6\n        /* \"Vault_forge/src/Diamond/DepositFacet.sol\":3930:3945  ds.userDeposits */\n      0x10\n      add\n        /* \"Vault_forge/src/Diamond/DepositFacet.sol\":3930:3955  ds.userDeposits[receiver] */\n      0x00\n        /* \"Vault_forge/src/Diamond/DepositFacet.sol\":3946:3954  receiver */\n      dup10\n        /* \"Vault_forge/src/Diamond/DepositFacet.sol\":3930:3955  ds.userDeposits[receiver] */\n      0xffffffffffffffffffffffffffffffffffffffff\n      and\n      0xffffffffffffffffffffffffffffffffffffffff\n      and\n      dup2\n      mstore\n      0x20\n      add\n      swap1\n      dup2\n      mstore\n      0x20\n      add\n      0x00\n      keccak256\n      0x00\n        /* \"Vault_forge/src/Diamond/DepositFacet.sol\":3930:3965  ds.userDeposits[receiver] += assets */\n      dup3\n      dup3\n      sload\n      tag_65\n      swap2\n      swap1\n      tag_66\n      jump\t// in\n    tag_65:\n      swap3\n      pop\n      pop\n      dup2\n      swap1\n      sstore\n      pop\n        /* \"Vault_forge/src/Diamond/DepositFacet.sol\":4001:4007  shares */\n      dup4\n        /* \"Vault_forge/src/Diamond/DepositFacet.sol\":3976:3978  ds */\n      dup6\n        /* \"Vault_forge/src/Diamond/DepositFacet.sol\":3976:3987  ds.balances */\n      0x0f\n      add\n        /* \"Vault_forge/src/Diamond/DepositFacet.sol\":3976:3997  ds.balances[receiver] */\n      0x00\n        /* \"Vault_forge/src/Diamond/DepositFacet.sol\":3988:3996  receiver */\n      dup10\n        /* \"Vault_forge/src/Diamond/DepositFacet.sol\":3976:3997  ds.balances[receiver] */\n      0xffffffffffffffffffffffffffffffffffffffff\n      and\n      0xffffffffffffffffffffffffffffffffffffffff\n      and\n      dup2\n      mstore\n      0x20\n      add\n      swap1\n      dup2\n      mstore\n      0x20\n      add\n      0x00\n      keccak256\n      0x00\n        /* \"Vault_forge/src/Diamond/DepositFacet.sol\":3976:4007  ds.balances[receiver] += shares */\n      dup3\n      dup3\n      sload\n      tag_67\n      swap2\n      swap1\n      tag_66\n      jump\t// in\n    tag_67:\n      swap3\n      pop\n      pop\n      dup2\n      swap1\n      sstore\n      pop\n        /* \"Vault_forge/src/Diamond/DepositFacet.sol\":4036:4042  assets */\n      dup8\n        /* \"Vault_forge/src/Diamond/DepositFacet.sol\":4018:4020  ds */\n      dup6\n        /* \"Vault_forge/src/Diamond/DepositFacet.sol\":4018:4032  ds.totalAssets */\n      0x01\n      add\n      0x00\n        /* \"Vault_forge/src/Diamond/DepositFacet.sol\":4018:4042  ds.totalAssets += assets */\n      dup3\n      dup3\n      sload\n      tag_68\n      swap2\n      swap1\n      tag_66\n      jump\t// in\n    tag_68:\n      swap3\n      pop\n      pop\n      dup2\n      swap1\n      sstore\n      pop\n        /* \"Vault_forge/src/Diamond/DepositFacet.sol\":4071:4077  shares */\n      dup4\n        /* \"Vault_forge/src/Diamond/DepositFacet.sol\":4053:4055  ds */\n      dup6\n        /* \"Vault_forge/src/Diamond/DepositFacet.sol\":4053:4067  ds.totalShares */\n      0x02\n      add\n      0x00\n        /* \"Vault_forge/src/Diamond/DepositFacet.sol\":4053:4077  ds.totalShares += shares */\n      dup3\n      dup3\n      sload\n      tag_69\n      swap2\n      swap1\n      tag_66\n      jump\t// in\n    tag_69:\n      swap3\n      pop\n      pop\n      dup2\n      swap1\n      sstore\n      pop\n        /* \"Vault_forge/src/Diamond/DepositFacet.sol\":4121:4136  block.timestamp */\n      timestamp\n        /* \"Vault_forge/src/Diamond/DepositFacet.sol\":4088:4090  ds */\n      dup6\n        /* \"Vault_forge/src/Diamond/DepositFacet.sol\":4088:4108  ds.depositTimestamps */\n      0x11\n      add\n        /* \"Vault_forge/src/Diamond/DepositFacet.sol\":4088:4118  ds.depositTimestamps[receiver] */\n      0x00\n        /* \"Vault_forge/src/Diamond/DepositFacet.sol\":4109:4117  receiver */\n      dup10\n        /* \"Vault_forge/src/Diamond/DepositFacet.sol\":4088:4118  ds.depositTimestamps[receiver] */\n      0xffffffffffffffffffffffffffffffffffffffff\n      and\n      0xffffffffffffffffffffffffffffffffffffffff\n      and\n      dup2\n      mstore\n      0x20\n      add\n      swap1\n      dup2\n      mstore\n      0x20\n      add\n      0x00\n      keccak256\n        /* \"Vault_forge/src/Diamond/DepositFacet.sol\":4088:4136  ds.depositTimestamps[receiver] = block.timestamp */\n      dup2\n      swap1\n      sstore\n      pop\n        /* \"Vault_forge/src/Diamond/DepositFacet.sol\":4204:4286  IERC20(ds.ASSET_TOKEN_ADDRESS).safeTransferFrom(msg.sender, address(this), assets) */\n      tag_70\n        /* \"Vault_forge/src/Diamond/DepositFacet.sol\":4252:4262  msg.sender */\n      caller\n        /* \"Vault_forge/src/Diamond/DepositFacet.sol\":4272:4276  this */\n      address\n        /* \"Vault_forge/src/Diamond/DepositFacet.sol\":4279:4285  assets */\n      dup11\n        /* \"Vault_forge/src/Diamond/DepositFacet.sol\":4211:4213  ds */\n      dup9\n        /* \"Vault_forge/src/Diamond/DepositFacet.sol\":4211:4233  ds.ASSET_TOKEN_ADDRESS */\n      0x04\n      add\n      0x00\n      swap1\n      sload\n      swap1\n      0x0100\n      exp\n      swap1\n      div\n      0xffffffffffffffffffffffffffffffffffffffff\n      and\n        /* \"Vault_forge/src/Diamond/DepositFacet.sol\":4204:4251  IERC20(ds.ASSET_TOKEN_ADDRESS).safeTransferFrom */\n      0xffffffffffffffffffffffffffffffffffffffff\n      and\n      tag_71\n      swap1\n        /* \"Vault_forge/src/Diamond/DepositFacet.sol\":4204:4286  IERC20(ds.ASSET_TOKEN_ADDRESS).safeTransferFrom(msg.sender, address(this), assets) */\n      swap4\n      swap3\n      swap2\n      swap1\n      0xffffffff\n      and\n      jump\t// in\n    tag_70:\n        /* \"Vault_forge/src/Diamond/DepositFacet.sol\":4378:4379  0 */\n      0x00\n        /* \"Vault_forge/src/Diamond/DepositFacet.sol\":4362:4375  amountToStake */\n      dup4\n        /* \"Vault_forge/src/Diamond/DepositFacet.sol\":4362:4379  amountToStake > 0 */\n      gt\n        /* \"Vault_forge/src/Diamond/DepositFacet.sol\":4358:4468  if (amountToStake > 0) {... */\n      iszero\n      tag_72\n      jumpi\n        /* \"Vault_forge/src/Diamond/DepositFacet.sol\":4396:4456  safeTransferAndSwap(minExpectedEth, receiver, amountToStake) */\n      tag_73\n        /* \"Vault_forge/src/Diamond/DepositFacet.sol\":4416:4430  minExpectedEth */\n      dup2\n        /* \"Vault_forge/src/Diamond/DepositFacet.sol\":4432:4440  receiver */\n      dup9\n        /* \"Vault_forge/src/Diamond/DepositFacet.sol\":4442:4455  amountToStake */\n      dup6\n        /* \"Vault_forge/src/Diamond/DepositFacet.sol\":4396:4415  safeTransferAndSwap */\n      tag_74\n        /* \"Vault_forge/src/Diamond/DepositFacet.sol\":4396:4456  safeTransferAndSwap(minExpectedEth, receiver, amountToStake) */\n      jump\t// in\n    tag_73:\n      pop\n        /* \"Vault_forge/src/Diamond/DepositFacet.sol\":4358:4468  if (amountToStake > 0) {... */\n    tag_72:\n        /* \"Vault_forge/src/Diamond/DepositFacet.sol\":4513:4521  receiver */\n      dup7\n        /* \"Vault_forge/src/Diamond/DepositFacet.sol\":4493:4538  Deposit(msg.sender, receiver, assets, shares) */\n      0xffffffffffffffffffffffffffffffffffffffff\n      and\n        /* \"Vault_forge/src/Diamond/DepositFacet.sol\":4501:4511  msg.sender */\n      caller\n        /* \"Vault_forge/src/Diamond/DepositFacet.sol\":4493:4538  Deposit(msg.sender, receiver, assets, shares) */\n      0xffffffffffffffffffffffffffffffffffffffff\n      and\n      0xdcbc1c05240f31ff3ad067ef1ee35ce4997762752e3a095284754544f4c709d7\n        /* \"Vault_forge/src/Diamond/DepositFacet.sol\":4523:4529  assets */\n      dup11\n        /* \"Vault_forge/src/Diamond/DepositFacet.sol\":4531:4537  shares */\n      dup8\n        /* \"Vault_forge/src/Diamond/DepositFacet.sol\":4493:4538  Deposit(msg.sender, receiver, assets, shares) */\n      mload(0x40)\n      tag_75\n      swap3\n      swap2\n      swap1\n      tag_76\n      jump\t// in\n    tag_75:\n      mload(0x40)\n      dup1\n      swap2\n      sub\n      swap1\n      log3\n        /* \"Vault_forge/src/Diamond/DepositFacet.sol\":4583:4591  receiver */\n      dup7\n        /* \"Vault_forge/src/Diamond/DepositFacet.sol\":4554:4674  StakeInitiated(... */\n      0xffffffffffffffffffffffffffffffffffffffff\n      and\n      0xca8f7b7916f133917db8d4b2e3566194ad8a65ad8eda78f72f5b9872c059227b\n        /* \"Vault_forge/src/Diamond/DepositFacet.sol\":4606:4619  amountToStake */\n      dup5\n        /* \"Vault_forge/src/Diamond/DepositFacet.sol\":1709:1716  30 days */\n      0x278d00\n        /* \"Vault_forge/src/Diamond/DepositFacet.sol\":4634:4649  block.timestamp */\n      timestamp\n        /* \"Vault_forge/src/Diamond/DepositFacet.sol\":4634:4663  block.timestamp + LOCK_PERIOD */\n      tag_77\n      swap2\n      swap1\n      tag_66\n      jump\t// in\n    tag_77:\n        /* \"Vault_forge/src/Diamond/DepositFacet.sol\":4554:4674  StakeInitiated(... */\n      mload(0x40)\n      tag_78\n      swap3\n      swap2\n      swap1\n      tag_76\n      jump\t// in\n    tag_78:\n      mload(0x40)\n      dup1\n      swap2\n      sub\n      swap1\n      log2\n        /* \"Vault_forge/src/Diamond/DepositFacet.sol\":4702:4708  shares */\n      dup4\n        /* \"Vault_forge/src/Diamond/DepositFacet.sol\":4695:4708  return shares */\n      swap6\n      pop\n      pop\n      pop\n      pop\n      pop\n      pop\n        /* \"@openzeppelin/contracts/security/ReentrancyGuard.sol\":2303:2323  _nonReentrantAfter() */\n      tag_79\n        /* \"@openzeppelin/contracts/security/ReentrancyGuard.sol\":2303:2321  _nonReentrantAfter */\n      tag_80\n        /* \"@openzeppelin/contracts/security/ReentrancyGuard.sol\":2303:2323  _nonReentrantAfter() */\n      jump\t// in\n    tag_79:\n        /* \"Vault_forge/src/Diamond/DepositFacet.sol\":2336:4716  function deposit(... */\n      swap3\n      swap2\n      pop\n      pop\n      jump\t// out\n        /* \"Vault_forge/src/Diamond/DepositFacet.sol\":8489:8785  function queueLargeDeposit() external {... */\n    tag_20:\n        /* \"Vault_forge/src/Diamond/DepositFacet.sol\":8538:8574  DiamondStorage.VaultState storage ds */\n      0x00\n        /* \"Vault_forge/src/Diamond/DepositFacet.sol\":8577:8604  DiamondStorage.getStorage() */\n      tag_82\n        /* \"Vault_forge/src/Diamond/DepositFacet.sol\":8577:8602  DiamondStorage.getStorage */\n      tag_32\n        /* \"Vault_forge/src/Diamond/DepositFacet.sol\":8577:8604  DiamondStorage.getStorage() */\n      jump\t// in\n    tag_82:\n        /* \"Vault_forge/src/Diamond/DepositFacet.sol\":8538:8604  DiamondStorage.VaultState storage ds = DiamondStorage.getStorage() */\n      swap1\n      pop\n        /* \"Vault_forge/src/Diamond/DepositFacet.sol\":8660:8661  0 */\n      0x00\n        /* \"Vault_forge/src/Diamond/DepositFacet.sol\":8619:8621  ds */\n      dup2\n        /* \"Vault_forge/src/Diamond/DepositFacet.sol\":8619:8644  ds.largeDepositUnlockTime */\n      0x18\n      add\n        /* \"Vault_forge/src/Diamond/DepositFacet.sol\":8619:8656  ds.largeDepositUnlockTime[msg.sender] */\n      0x00\n        /* \"Vault_forge/src/Diamond/DepositFacet.sol\":8645:8655  msg.sender */\n      caller\n        /* \"Vault_forge/src/Diamond/DepositFacet.sol\":8619:8656  ds.largeDepositUnlockTime[msg.sender] */\n      0xffffffffffffffffffffffffffffffffffffffff\n      and\n      0xffffffffffffffffffffffffffffffffffffffff\n      and\n      dup2\n      mstore\n      0x20\n      add\n      swap1\n      dup2\n      mstore\n      0x20\n      add\n      0x00\n      keccak256\n      sload\n        /* \"Vault_forge/src/Diamond/DepositFacet.sol\":8619:8661  ds.largeDepositUnlockTime[msg.sender] != 0 */\n      eq\n        /* \"Vault_forge/src/Diamond/DepositFacet.sol\":8615:8692  if (ds.largeDepositUnlockTime[msg.sender] != 0) revert DepositAlreadyQueued() */\n      tag_83\n      jumpi\n        /* \"Vault_forge/src/Diamond/DepositFacet.sol\":8670:8692  DepositAlreadyQueued() */\n      mload(0x40)\n      0x1297a3a700000000000000000000000000000000000000000000000000000000\n      dup2\n      mstore\n      0x04\n      add\n      mload(0x40)\n      dup1\n      swap2\n      sub\n      swap1\n      revert\n        /* \"Vault_forge/src/Diamond/DepositFacet.sol\":8615:8692  if (ds.largeDepositUnlockTime[msg.sender] != 0) revert DepositAlreadyQueued() */\n    tag_83:\n        /* \"Vault_forge/src/Diamond/DepositFacet.sol\":1767:1774  1 hours */\n      0x0e10\n        /* \"Vault_forge/src/Diamond/DepositFacet.sol\":8743:8758  block.timestamp */\n      timestamp\n        /* \"Vault_forge/src/Diamond/DepositFacet.sol\":8743:8777  block.timestamp + DEPOSIT_TIMELOCK */\n      tag_84\n      swap2\n      swap1\n      tag_66\n      jump\t// in\n    tag_84:\n        /* \"Vault_forge/src/Diamond/DepositFacet.sol\":8703:8705  ds */\n      dup2\n        /* \"Vault_forge/src/Diamond/DepositFacet.sol\":8703:8728  ds.largeDepositUnlockTime */\n      0x18\n      add\n        /* \"Vault_forge/src/Diamond/DepositFacet.sol\":8703:8740  ds.largeDepositUnlockTime[msg.sender] */\n      0x00\n        /* \"Vault_forge/src/Diamond/DepositFacet.sol\":8729:8739  msg.sender */\n      caller\n        /* \"Vault_forge/src/Diamond/DepositFacet.sol\":8703:8740  ds.largeDepositUnlockTime[msg.sender] */\n      0xffffffffffffffffffffffffffffffffffffffff\n      and\n      0xffffffffffffffffffffffffffffffffffffffff\n      and\n      dup2\n      mstore\n      0x20\n      add\n      swap1\n      dup2\n      mstore\n      0x20\n      add\n      0x00\n      keccak256\n        /* \"Vault_forge/src/Diamond/DepositFacet.sol\":8703:8777  ds.largeDepositUnlockTime[msg.sender] = block.timestamp + DEPOSIT_TIMELOCK */\n      dup2\n      swap1\n      sstore\n      pop\n        /* \"Vault_forge/src/Diamond/DepositFacet.sol\":8527:8785  {... */\n      pop\n        /* \"Vault_forge/src/Diamond/DepositFacet.sol\":8489:8785  function queueLargeDeposit() external {... */\n      jump\t// out\n        /* \"Vault_forge/src/Diamond/DepositFacet.sol\":4931:5255  function convertToShares(uint256 assets) public view returns (uint256) {... */\n    tag_24:\n        /* \"Vault_forge/src/Diamond/DepositFacet.sol\":4993:5000  uint256 */\n      0x00\n        /* \"Vault_forge/src/Diamond/DepositFacet.sol\":5013:5049  DiamondStorage.VaultState storage ds */\n      0x00\n        /* \"Vault_forge/src/Diamond/DepositFacet.sol\":5052:5079  DiamondStorage.getStorage() */\n      tag_86\n        /* \"Vault_forge/src/Diamond/DepositFacet.sol\":5052:5077  DiamondStorage.getStorage */\n      tag_32\n        /* \"Vault_forge/src/Diamond/DepositFacet.sol\":5052:5079  DiamondStorage.getStorage() */\n      jump\t// in\n    tag_86:\n        /* \"Vault_forge/src/Diamond/DepositFacet.sol\":5013:5079  DiamondStorage.VaultState storage ds = DiamondStorage.getStorage() */\n      swap1\n      pop\n        /* \"Vault_forge/src/Diamond/DepositFacet.sol\":5122:5123  0 */\n      0x00\n        /* \"Vault_forge/src/Diamond/DepositFacet.sol\":5104:5106  ds */\n      dup2\n        /* \"Vault_forge/src/Diamond/DepositFacet.sol\":5104:5118  ds.totalAssets */\n      0x01\n      add\n      sload\n        /* \"Vault_forge/src/Diamond/DepositFacet.sol\":5104:5123  ds.totalAssets == 0 */\n      eq\n        /* \"Vault_forge/src/Diamond/DepositFacet.sol\":5104:5146  ds.totalAssets == 0 || ds.totalShares == 0 */\n      dup1\n      tag_87\n      jumpi\n      pop\n        /* \"Vault_forge/src/Diamond/DepositFacet.sol\":5145:5146  0 */\n      0x00\n        /* \"Vault_forge/src/Diamond/DepositFacet.sol\":5127:5129  ds */\n      dup2\n        /* \"Vault_forge/src/Diamond/DepositFacet.sol\":5127:5141  ds.totalShares */\n      0x02\n      add\n      sload\n        /* \"Vault_forge/src/Diamond/DepositFacet.sol\":5127:5146  ds.totalShares == 0 */\n      eq\n        /* \"Vault_forge/src/Diamond/DepositFacet.sol\":5104:5146  ds.totalAssets == 0 || ds.totalShares == 0 */\n    tag_87:\n        /* \"Vault_forge/src/Diamond/DepositFacet.sol\":5100:5188  if (ds.totalAssets == 0 || ds.totalShares == 0) {... */\n      iszero\n      tag_88\n      jumpi\n        /* \"Vault_forge/src/Diamond/DepositFacet.sol\":5170:5176  assets */\n      dup3\n        /* \"Vault_forge/src/Diamond/DepositFacet.sol\":5163:5176  return assets */\n      swap2\n      pop\n      pop\n      jump(tag_85)\n        /* \"Vault_forge/src/Diamond/DepositFacet.sol\":5100:5188  if (ds.totalAssets == 0 || ds.totalShares == 0) {... */\n    tag_88:\n        /* \"Vault_forge/src/Diamond/DepositFacet.sol\":5233:5235  ds */\n      dup1\n        /* \"Vault_forge/src/Diamond/DepositFacet.sol\":5233:5247  ds.totalAssets */\n      0x01\n      add\n      sload\n        /* \"Vault_forge/src/Diamond/DepositFacet.sol\":5215:5217  ds */\n      dup2\n        /* \"Vault_forge/src/Diamond/DepositFacet.sol\":5215:5229  ds.totalShares */\n      0x02\n      add\n      sload\n        /* \"Vault_forge/src/Diamond/DepositFacet.sol\":5206:5212  assets */\n      dup5\n        /* \"Vault_forge/src/Diamond/DepositFacet.sol\":5206:5229  assets * ds.totalShares */\n      tag_89\n      swap2\n      swap1\n      tag_56\n      jump\t// in\n    tag_89:\n        /* \"Vault_forge/src/Diamond/DepositFacet.sol\":5205:5247  (assets * ds.totalShares) / ds.totalAssets */\n      tag_90\n      swap2\n      swap1\n      tag_49\n      jump\t// in\n    tag_90:\n        /* \"Vault_forge/src/Diamond/DepositFacet.sol\":5198:5247  return (assets * ds.totalShares) / ds.totalAssets */\n      swap2\n      pop\n      pop\n        /* \"Vault_forge/src/Diamond/DepositFacet.sol\":4931:5255  function convertToShares(uint256 assets) public view returns (uint256) {... */\n    tag_85:\n      swap2\n      swap1\n      pop\n      jump\t// out\n        /* \"Vault_forge/src/Diamond/DepositFacet.sol\":4753:4919  function previewDeposit(uint256 assets) public view returns (uint256) {... */\n    tag_28:\n        /* \"Vault_forge/src/Diamond/DepositFacet.sol\":4814:4821  uint256 */\n      0x00\n        /* \"Vault_forge/src/Diamond/DepositFacet.sol\":4848:4849  0 */\n      0x00\n        /* \"Vault_forge/src/Diamond/DepositFacet.sol\":4838:4844  assets */\n      dup3\n        /* \"Vault_forge/src/Diamond/DepositFacet.sol\":4838:4849  assets == 0 */\n      sub\n        /* \"Vault_forge/src/Diamond/DepositFacet.sol\":4834:4870  if (assets == 0) revert ZeroAmount() */\n      tag_92\n      jumpi\n        /* \"Vault_forge/src/Diamond/DepositFacet.sol\":4858:4870  ZeroAmount() */\n      mload(0x40)\n      0x1f2a200500000000000000000000000000000000000000000000000000000000\n      dup2\n      mstore\n      0x04\n      add\n      mload(0x40)\n      dup1\n      swap2\n      sub\n      swap1\n      revert\n        /* \"Vault_forge/src/Diamond/DepositFacet.sol\":4834:4870  if (assets == 0) revert ZeroAmount() */\n    tag_92:\n        /* \"Vault_forge/src/Diamond/DepositFacet.sol\":4888:4911  convertToShares(assets) */\n      tag_93\n        /* \"Vault_forge/src/Diamond/DepositFacet.sol\":4904:4910  assets */\n      dup3\n        /* \"Vault_forge/src/Diamond/DepositFacet.sol\":4888:4903  convertToShares */\n      tag_24\n        /* \"Vault_forge/src/Diamond/DepositFacet.sol\":4888:4911  convertToShares(assets) */\n      jump\t// in\n    tag_93:\n        /* \"Vault_forge/src/Diamond/DepositFacet.sol\":4881:4911  return convertToShares(assets) */\n      swap1\n      pop\n        /* \"Vault_forge/src/Diamond/DepositFacet.sol\":4753:4919  function previewDeposit(uint256 assets) public view returns (uint256) {... */\n      swap2\n      swap1\n      pop\n      jump\t// out\n        /* \"Vault_forge/src/Diamond/DiamondStorage.sol\":2118:2312  function getStorage() internal pure returns (VaultState storage ds) {... */\n    tag_32:\n        /* \"Vault_forge/src/Diamond/DiamondStorage.sol\":2163:2184  VaultState storage ds */\n      0x00\n        /* \"Vault_forge/src/Diamond/DiamondStorage.sol\":2197:2213  bytes32 position */\n      0x00\n        /* \"Vault_forge/src/Diamond/DiamondStorage.sol\":135:174  keccak256(\"diamond.storage.yield.bull\") */\n      0x5d15b553c07be9b4a8cf4265c997d4479f22e1843183fa58504508c561fb9d50\n        /* \"Vault_forge/src/Diamond/DiamondStorage.sol\":2197:2240  bytes32 position = DIAMOND_STORAGE_POSITION */\n      swap1\n      pop\n        /* \"Vault_forge/src/Diamond/DiamondStorage.sol\":2286:2294  position */\n      dup1\n        /* \"Vault_forge/src/Diamond/DiamondStorage.sol\":2275:2294  ds.slot := position */\n      swap2\n      pop\n        /* \"Vault_forge/src/Diamond/DiamondStorage.sol\":2260:2305  {... */\n      pop\n        /* \"Vault_forge/src/Diamond/DiamondStorage.sol\":2118:2312  function getStorage() internal pure returns (VaultState storage ds) {... */\n      swap1\n      jump\t// out\n        /* \"@openzeppelin/contracts/security/ReentrancyGuard.sol\":2336:2623  function _nonReentrantBefore() private {... */\n    tag_39:\n        /* \"@openzeppelin/contracts/security/ReentrancyGuard.sol\":1759:1760  2 */\n      0x02\n        /* \"@openzeppelin/contracts/security/ReentrancyGuard.sol\":2468:2475  _status */\n      sload(0x00)\n        /* \"@openzeppelin/contracts/security/ReentrancyGuard.sol\":2468:2487  _status != _ENTERED */\n      sub\n        /* \"@openzeppelin/contracts/security/ReentrancyGuard.sol\":2460:2523  require(_status != _ENTERED, \"ReentrancyGuard: reentrant call\") */\n      tag_96\n      jumpi\n      mload(0x40)\n      0x08c379a000000000000000000000000000000000000000000000000000000000\n      dup2\n      mstore\n      0x04\n      add\n      tag_97\n      swap1\n      tag_98\n      jump\t// in\n    tag_97:\n      mload(0x40)\n      dup1\n      swap2\n      sub\n      swap1\n      revert\n    tag_96:\n        /* \"@openzeppelin/contracts/security/ReentrancyGuard.sol\":1759:1760  2 */\n      0x02\n        /* \"@openzeppelin/contracts/security/ReentrancyGuard.sol\":2598:2605  _status */\n      0x00\n        /* \"@openzeppelin/contracts/security/ReentrancyGuard.sol\":2598:2616  _status = _ENTERED */\n      dup2\n      swap1\n      sstore\n      pop\n        /* \"@openzeppelin/contracts/security/ReentrancyGuard.sol\":2336:2623  function _nonReentrantBefore() private {... */\n      jump\t// out\n        /* \"@openzeppelin/contracts/token/ERC20/utils/SafeERC20.sol\":1618:1806  function safeTransferFrom(IERC20 token, address from, address to, uint256 value) internal {... */\n    tag_71:\n        /* \"@openzeppelin/contracts/token/ERC20/utils/SafeERC20.sol\":1718:1799  _callOptionalReturn(token, abi.encodeCall(token.transferFrom, (from, to, value))) */\n      tag_100\n        /* \"@openzeppelin/contracts/token/ERC20/utils/SafeERC20.sol\":1738:1743  token */\n      dup5\n        /* \"@openzeppelin/contracts/token/ERC20/utils/SafeERC20.sol\":1760:1765  token */\n      dup6\n        /* \"@openzeppelin/contracts/token/ERC20/utils/SafeERC20.sol\":1760:1778  token.transferFrom */\n      0xffffffffffffffffffffffffffffffffffffffff\n      and\n      0x23b872dd\n        /* \"@openzeppelin/contracts/token/ERC20/utils/SafeERC20.sol\":1781:1785  from */\n      dup7\n        /* \"@openzeppelin/contracts/token/ERC20/utils/SafeERC20.sol\":1787:1789  to */\n      dup7\n        /* \"@openzeppelin/contracts/token/ERC20/utils/SafeERC20.sol\":1791:1796  value */\n      dup7\n        /* \"@openzeppelin/contracts/token/ERC20/utils/SafeERC20.sol\":1745:1798  abi.encodeCall(token.transferFrom, (from, to, value)) */\n      add(0x24, mload(0x40))\n      tag_101\n      swap4\n      swap3\n      swap2\n      swap1\n      tag_102\n      jump\t// in\n    tag_101:\n      mload(0x40)\n      0x20\n      dup2\n      dup4\n      sub\n      sub\n      dup2\n      mstore\n      swap1\n      0x40\n      mstore\n      swap2\n      pop\n      0xe0\n      shl\n      0x20\n      dup3\n      add\n      dup1\n      mload\n      0xffffffffffffffffffffffffffffffffffffffffffffffffffffffff\n      dup4\n      dup2\n      dup4\n      and\n      or\n      dup4\n      mstore\n      pop\n      pop\n      pop\n      pop\n        /* \"@openzeppelin/contracts/token/ERC20/utils/SafeERC20.sol\":1718:1737  _callOptionalReturn */\n      tag_103\n        /* \"@openzeppelin/contracts/token/ERC20/utils/SafeERC20.sol\":1718:1799  _callOptionalReturn(token, abi.encodeCall(token.transferFrom, (from, to, value))) */\n      jump\t// in\n    tag_100:\n        /* \"@openzeppelin/contracts/token/ERC20/utils/SafeERC20.sol\":1618:1806  function safeTransferFrom(IERC20 token, address from, address to, uint256 value) internal {... */\n      pop\n      pop\n      pop\n      pop\n      jump\t// out\n        /* \"Vault_forge/src/Diamond/DepositFacet.sol\":5625:8477  function safeTransferAndSwap(... */\n    tag_74:\n        /* \"Vault_forge/src/Diamond/DepositFacet.sol\":5772:5779  uint256 */\n      0x00\n        /* \"Vault_forge/src/Diamond/DepositFacet.sol\":5792:5828  DiamondStorage.VaultState storage ds */\n      0x00\n        /* \"Vault_forge/src/Diamond/DepositFacet.sol\":5831:5858  DiamondStorage.getStorage() */\n      tag_105\n        /* \"Vault_forge/src/Diamond/DepositFacet.sol\":5831:5856  DiamondStorage.getStorage */\n      tag_32\n        /* \"Vault_forge/src/Diamond/DepositFacet.sol\":5831:5858  DiamondStorage.getStorage() */\n      jump\t// in\n    tag_105:\n        /* \"Vault_forge/src/Diamond/DepositFacet.sol\":5792:5858  DiamondStorage.VaultState storage ds = DiamondStorage.getStorage() */\n      swap1\n      pop\n        /* \"Vault_forge/src/Diamond/DepositFacet.sol\":5910:5911  0 */\n      0x00\n        /* \"Vault_forge/src/Diamond/DepositFacet.sol\":5883:5912  ds.swapContract == address(0) */\n      0xffffffffffffffffffffffffffffffffffffffff\n      and\n        /* \"Vault_forge/src/Diamond/DepositFacet.sol\":5883:5885  ds */\n      dup2\n        /* \"Vault_forge/src/Diamond/DepositFacet.sol\":5883:5898  ds.swapContract */\n      0x05\n      add\n      0x00\n      swap1\n      sload\n      swap1\n      0x0100\n      exp\n      swap1\n      div\n      0xffffffffffffffffffffffffffffffffffffffff\n      and\n        /* \"Vault_forge/src/Diamond/DepositFacet.sol\":5883:5912  ds.swapContract == address(0) */\n      0xffffffffffffffffffffffffffffffffffffffff\n      and\n      sub\n        /* \"Vault_forge/src/Diamond/DepositFacet.sol\":5879:5941  if (ds.swapContract == address(0)) revert SwapContractNotSet() */\n      tag_106\n      jumpi\n        /* \"Vault_forge/src/Diamond/DepositFacet.sol\":5921:5941  SwapContractNotSet() */\n      mload(0x40)\n      0x567e930e00000000000000000000000000000000000000000000000000000000\n      dup2\n      mstore\n      0x04\n      add\n      mload(0x40)\n      dup1\n      swap2\n      sub\n      swap1\n      revert\n        /* \"Vault_forge/src/Diamond/DepositFacet.sol\":5879:5941  if (ds.swapContract == address(0)) revert SwapContractNotSet() */\n    tag_106:\n        /* \"Vault_forge/src/Diamond/DepositFacet.sol\":5973:5974  0 */\n      0x00\n        /* \"Vault_forge/src/Diamond/DepositFacet.sol\":5956:5969  amountToStake */\n      dup4\n        /* \"Vault_forge/src/Diamond/DepositFacet.sol\":5956:5974  amountToStake == 0 */\n      sub\n        /* \"Vault_forge/src/Diamond/DepositFacet.sol\":5952:5999  if (amountToStake == 0) revert AmountTooSmall() */\n      tag_107\n      jumpi\n        /* \"Vault_forge/src/Diamond/DepositFacet.sol\":5983:5999  AmountTooSmall() */\n      mload(0x40)\n      0xc2f5625a00000000000000000000000000000000000000000000000000000000\n      dup2\n      mstore\n      0x04\n      add\n      mload(0x40)\n      dup1\n      swap2\n      sub\n      swap1\n      revert\n        /* \"Vault_forge/src/Diamond/DepositFacet.sol\":5952:5999  if (amountToStake == 0) revert AmountTooSmall() */\n    tag_107:\n        /* \"Vault_forge/src/Diamond/DepositFacet.sol\":6020:6035  bytes32 batchId */\n      0x00\n        /* \"Vault_forge/src/Diamond/DepositFacet.sol\":6079:6094  block.timestamp */\n      timestamp\n        /* \"Vault_forge/src/Diamond/DepositFacet.sol\":6096:6107  beneficiary */\n      dup6\n        /* \"Vault_forge/src/Diamond/DepositFacet.sol\":6109:6122  amountToStake */\n      dup6\n        /* \"Vault_forge/src/Diamond/DepositFacet.sol\":6062:6123  abi.encodePacked(block.timestamp, beneficiary, amountToStake) */\n      add(0x20, mload(0x40))\n      tag_108\n      swap4\n      swap3\n      swap2\n      swap1\n      tag_109\n      jump\t// in\n    tag_108:\n      mload(0x40)\n      0x20\n      dup2\n      dup4\n      sub\n      sub\n      dup2\n      mstore\n      swap1\n      0x40\n      mstore\n        /* \"Vault_forge/src/Diamond/DepositFacet.sol\":6038:6134  keccak256(... */\n      dup1\n      mload\n      swap1\n      0x20\n      add\n      keccak256\n        /* \"Vault_forge/src/Diamond/DepositFacet.sol\":6020:6134  bytes32 batchId = keccak256(... */\n      swap1\n      pop\n        /* \"Vault_forge/src/Diamond/DepositFacet.sol\":6178:6191  amountToStake */\n      dup4\n        /* \"Vault_forge/src/Diamond/DepositFacet.sol\":6155:6157  ds */\n      dup3\n        /* \"Vault_forge/src/Diamond/DepositFacet.sol\":6155:6174  ds.totalStakedValue */\n      0x03\n      add\n      0x00\n        /* \"Vault_forge/src/Diamond/DepositFacet.sol\":6155:6191  ds.totalStakedValue += amountToStake */\n      dup3\n      dup3\n      sload\n      tag_110\n      swap2\n      swap1\n      tag_66\n      jump\t// in\n    tag_110:\n      swap3\n      pop\n      pop\n      dup2\n      swap1\n      sstore\n      pop\n        /* \"Vault_forge/src/Diamond/DepositFacet.sol\":6236:6249  amountToStake */\n      dup4\n        /* \"Vault_forge/src/Diamond/DepositFacet.sol\":6202:6204  ds */\n      dup3\n        /* \"Vault_forge/src/Diamond/DepositFacet.sol\":6202:6219  ds.stakedPortions */\n      0x12\n      add\n        /* \"Vault_forge/src/Diamond/DepositFacet.sol\":6202:6232  ds.stakedPortions[beneficiary] */\n      0x00\n        /* \"Vault_forge/src/Diamond/DepositFacet.sol\":6220:6231  beneficiary */\n      dup8\n        /* \"Vault_forge/src/Diamond/DepositFacet.sol\":6202:6232  ds.stakedPortions[beneficiary] */\n      0xffffffffffffffffffffffffffffffffffffffff\n      and\n      0xffffffffffffffffffffffffffffffffffffffff\n      and\n      dup2\n      mstore\n      0x20\n      add\n      swap1\n      dup2\n      mstore\n      0x20\n      add\n      0x00\n      keccak256\n      0x00\n        /* \"Vault_forge/src/Diamond/DepositFacet.sol\":6202:6249  ds.stakedPortions[beneficiary] += amountToStake */\n      dup3\n      dup3\n      sload\n      tag_111\n      swap2\n      swap1\n      tag_66\n      jump\t// in\n    tag_111:\n      swap3\n      pop\n      pop\n      dup2\n      swap1\n      sstore\n      pop\n        /* \"Vault_forge/src/Diamond/DepositFacet.sol\":6307:6317  IUSDC usdc */\n      0x00\n        /* \"Vault_forge/src/Diamond/DepositFacet.sol\":6326:6328  ds */\n      dup3\n        /* \"Vault_forge/src/Diamond/DepositFacet.sol\":6326:6348  ds.ASSET_TOKEN_ADDRESS */\n      0x04\n      add\n      0x00\n      swap1\n      sload\n      swap1\n      0x0100\n      exp\n      swap1\n      div\n      0xffffffffffffffffffffffffffffffffffffffff\n      and\n        /* \"Vault_forge/src/Diamond/DepositFacet.sol\":6307:6349  IUSDC usdc = IUSDC(ds.ASSET_TOKEN_ADDRESS) */\n      swap1\n      pop\n        /* \"Vault_forge/src/Diamond/DepositFacet.sol\":6360:6372  bool success */\n      0x00\n        /* \"Vault_forge/src/Diamond/DepositFacet.sol\":6375:6379  usdc */\n      dup2\n        /* \"Vault_forge/src/Diamond/DepositFacet.sol\":6375:6387  usdc.approve */\n      0xffffffffffffffffffffffffffffffffffffffff\n      and\n      0x095ea7b3\n        /* \"Vault_forge/src/Diamond/DepositFacet.sol\":6388:6390  ds */\n      dup6\n        /* \"Vault_forge/src/Diamond/DepositFacet.sol\":6388:6403  ds.swapContract */\n      0x05\n      add\n      0x00\n      swap1\n      sload\n      swap1\n      0x0100\n      exp\n      swap1\n      div\n      0xffffffffffffffffffffffffffffffffffffffff\n      and\n        /* \"Vault_forge/src/Diamond/DepositFacet.sol\":6405:6418  amountToStake */\n      dup9\n        /* \"Vault_forge/src/Diamond/DepositFacet.sol\":6375:6419  usdc.approve(ds.swapContract, amountToStake) */\n      mload(0x40)\n      dup4\n      0xffffffff\n      and\n      0xe0\n      shl\n      dup2\n      mstore\n      0x04\n      add\n      tag_112\n      swap3\n      swap2\n      swap1\n      tag_113\n      jump\t// in\n    tag_112:\n      0x20\n      mload(0x40)\n      dup1\n      dup4\n      sub\n      dup2\n      0x00\n      dup8\n      gas\n      call\n      iszero\n      dup1\n      iszero\n      tag_115\n      jumpi\n      returndatacopy(0x00, 0x00, returndatasize)\n      revert(0x00, returndatasize)\n    tag_115:\n      pop\n      pop\n      pop\n      pop\n      mload(0x40)\n      returndatasize\n      not(0x1f)\n      0x1f\n      dup3\n      add\n      and\n      dup3\n      add\n      dup1\n      0x40\n      mstore\n      pop\n      dup2\n      add\n      swap1\n      tag_116\n      swap2\n      swap1\n      tag_117\n      jump\t// in\n    tag_116:\n        /* \"Vault_forge/src/Diamond/DepositFacet.sol\":6360:6419  bool success = usdc.approve(ds.swapContract, amountToStake) */\n      swap1\n      pop\n        /* \"Vault_forge/src/Diamond/DepositFacet.sol\":6435:6442  success */\n      dup1\n        /* \"Vault_forge/src/Diamond/DepositFacet.sol\":6430:6471  if (!success) revert USDCApprovalFailed() */\n      tag_118\n      jumpi\n        /* \"Vault_forge/src/Diamond/DepositFacet.sol\":6451:6471  USDCApprovalFailed() */\n      mload(0x40)\n      0x8a2133b500000000000000000000000000000000000000000000000000000000\n      dup2\n      mstore\n      0x04\n      add\n      mload(0x40)\n      dup1\n      swap2\n      sub\n      swap1\n      revert\n        /* \"Vault_forge/src/Diamond/DepositFacet.sol\":6430:6471  if (!success) revert USDCApprovalFailed() */\n    tag_118:\n        /* \"Vault_forge/src/Diamond/DepositFacet.sol\":6544:6560  uint256 deadline */\n      0x00\n        /* \"Vault_forge/src/Diamond/DepositFacet.sol\":6581:6584  300 */\n      0x012c\n        /* \"Vault_forge/src/Diamond/DepositFacet.sol\":6563:6578  block.timestamp */\n      timestamp\n        /* \"Vault_forge/src/Diamond/DepositFacet.sol\":6563:6584  block.timestamp + 300 */\n      tag_119\n      swap2\n      swap1\n      tag_66\n      jump\t// in\n    tag_119:\n        /* \"Vault_forge/src/Diamond/DepositFacet.sol\":6544:6584  uint256 deadline = block.timestamp + 300 */\n      swap1\n      pop\n        /* \"Vault_forge/src/Diamond/DepositFacet.sol\":6648:6652  usdc */\n      dup3\n        /* \"Vault_forge/src/Diamond/DepositFacet.sol\":6648:6665  usdc.transferFrom */\n      0xffffffffffffffffffffffffffffffffffffffff\n      and\n      0x23b872dd\n        /* \"Vault_forge/src/Diamond/DepositFacet.sol\":6674:6678  this */\n      address\n        /* \"Vault_forge/src/Diamond/DepositFacet.sol\":6681:6683  ds */\n      dup8\n        /* \"Vault_forge/src/Diamond/DepositFacet.sol\":6681:6696  ds.swapContract */\n      0x05\n      add\n      0x00\n      swap1\n      sload\n      swap1\n      0x0100\n      exp\n      swap1\n      div\n      0xffffffffffffffffffffffffffffffffffffffff\n      and\n        /* \"Vault_forge/src/Diamond/DepositFacet.sol\":6698:6711  amountToStake */\n      dup11\n        /* \"Vault_forge/src/Diamond/DepositFacet.sol\":6648:6712  usdc.transferFrom(address(this), ds.swapContract, amountToStake) */\n      mload(0x40)\n      dup5\n      0xffffffff\n      and\n      0xe0\n      shl\n      dup2\n      mstore\n      0x04\n      add\n      tag_120\n      swap4\n      swap3\n      swap2\n      swap1\n      tag_102\n      jump\t// in\n    tag_120:\n      0x20\n      mload(0x40)\n      dup1\n      dup4\n      sub\n      dup2\n      0x00\n      dup8\n      gas\n      call\n      iszero\n      dup1\n      iszero\n      tag_122\n      jumpi\n      returndatacopy(0x00, 0x00, returndatasize)\n      revert(0x00, returndatasize)\n    tag_122:\n      pop\n      pop\n      pop\n      pop\n      mload(0x40)\n      returndatasize\n      not(0x1f)\n      0x1f\n      dup3\n      add\n      and\n      dup3\n      add\n      dup1\n      0x40\n      mstore\n      pop\n      dup2\n      add\n      swap1\n      tag_123\n      swap2\n      swap1\n      tag_117\n      jump\t// in\n    tag_123:\n      pop\n        /* \"Vault_forge/src/Diamond/DepositFacet.sol\":6764:6783  uint256 ethReceived */\n      0x00\n        /* \"Vault_forge/src/Diamond/DepositFacet.sol\":6800:6802  ds */\n      dup6\n        /* \"Vault_forge/src/Diamond/DepositFacet.sol\":6800:6815  ds.swapContract */\n      0x05\n      add\n      0x00\n      swap1\n      sload\n      swap1\n      0x0100\n      exp\n      swap1\n      div\n      0xffffffffffffffffffffffffffffffffffffffff\n      and\n        /* \"Vault_forge/src/Diamond/DepositFacet.sol\":6786:6836  ISwapContract(ds.swapContract).swapExactUSDCForETH */\n      0xffffffffffffffffffffffffffffffffffffffff\n      and\n      0x64898d23\n        /* \"Vault_forge/src/Diamond/DepositFacet.sol\":6851:6864  amountToStake */\n      dup10\n        /* \"Vault_forge/src/Diamond/DepositFacet.sol\":6879:6891  amountOutMin */\n      dup13\n        /* \"Vault_forge/src/Diamond/DepositFacet.sol\":6906:6908  ds */\n      dup10\n        /* \"Vault_forge/src/Diamond/DepositFacet.sol\":6906:6925  ds.receiverContract */\n      0x08\n      add\n      0x00\n      swap1\n      sload\n      swap1\n      0x0100\n      exp\n      swap1\n      div\n      0xffffffffffffffffffffffffffffffffffffffff\n      and\n        /* \"Vault_forge/src/Diamond/DepositFacet.sol\":6940:6948  deadline */\n      dup7\n        /* \"Vault_forge/src/Diamond/DepositFacet.sol\":6786:6959  ISwapContract(ds.swapContract).swapExactUSDCForETH(... */\n      mload(0x40)\n      dup6\n      0xffffffff\n      and\n      0xe0\n      shl\n      dup2\n      mstore\n      0x04\n      add\n      tag_124\n      swap5\n      swap4\n      swap3\n      swap2\n      swap1\n      tag_125\n      jump\t// in\n    tag_124:\n      0x20\n      mload(0x40)\n      dup1\n      dup4\n      sub\n      dup2\n      0x00\n      dup8\n      gas\n      call\n      iszero\n      dup1\n      iszero\n      tag_127\n      jumpi\n      returndatacopy(0x00, 0x00, returndatasize)\n      revert(0x00, returndatasize)\n    tag_127:\n      pop\n      pop\n      pop\n      pop\n      mload(0x40)\n      returndatasize\n      not(0x1f)\n      0x1f\n      dup3\n      add\n      and\n      dup3\n      add\n      dup1\n      0x40\n      mstore\n      pop\n      dup2\n      add\n      swap1\n      tag_128\n      swap2\n      swap1\n      tag_62\n      jump\t// in\n    tag_128:\n        /* \"Vault_forge/src/Diamond/DepositFacet.sol\":6764:6959  uint256 ethReceived = ISwapContract(ds.swapContract).swapExactUSDCForETH(... */\n      swap1\n      pop\n        /* \"Vault_forge/src/Diamond/DepositFacet.sol\":6999:7000  0 */\n      0x00\n        /* \"Vault_forge/src/Diamond/DepositFacet.sol\":6984:6995  ethReceived */\n      dup2\n        /* \"Vault_forge/src/Diamond/DepositFacet.sol\":6984:7000  ethReceived == 0 */\n      sub\n        /* \"Vault_forge/src/Diamond/DepositFacet.sol\":6980:7024  if (ethReceived == 0) revert NoETHReceived() */\n      tag_129\n      jumpi\n        /* \"Vault_forge/src/Diamond/DepositFacet.sol\":7009:7024  NoETHReceived() */\n      mload(0x40)\n      0xa9ffdc9600000000000000000000000000000000000000000000000000000000\n      dup2\n      mstore\n      0x04\n      add\n      mload(0x40)\n      dup1\n      swap2\n      sub\n      swap1\n      revert\n        /* \"Vault_forge/src/Diamond/DepositFacet.sol\":6980:7024  if (ethReceived == 0) revert NoETHReceived() */\n    tag_129:\n        /* \"Vault_forge/src/Diamond/DepositFacet.sol\":7123:7134  ethReceived */\n      dup1\n        /* \"Vault_forge/src/Diamond/DepositFacet.sol\":7088:7090  ds */\n      dup7\n        /* \"Vault_forge/src/Diamond/DepositFacet.sol\":7088:7107  ds.pendingEthStakes */\n      0x19\n      add\n        /* \"Vault_forge/src/Diamond/DepositFacet.sol\":7088:7120  ds.pendingEthStakes[beneficiary] */\n      0x00\n        /* \"Vault_forge/src/Diamond/DepositFacet.sol\":7108:7119  beneficiary */\n      dup12\n        /* \"Vault_forge/src/Diamond/DepositFacet.sol\":7088:7120  ds.pendingEthStakes[beneficiary] */\n      0xffffffffffffffffffffffffffffffffffffffff\n      and\n      0xffffffffffffffffffffffffffffffffffffffff\n      and\n      dup2\n      mstore\n      0x20\n      add\n      swap1\n      dup2\n      mstore\n      0x20\n      add\n      0x00\n      keccak256\n        /* \"Vault_forge/src/Diamond/DepositFacet.sol\":7088:7134  ds.pendingEthStakes[beneficiary] = ethReceived */\n      dup2\n      swap1\n      sstore\n      pop\n        /* \"Vault_forge/src/Diamond/DepositFacet.sol\":7193:7195  ds */\n      dup6\n        /* \"Vault_forge/src/Diamond/DepositFacet.sol\":7193:7208  ds.stakeBatches */\n      0x1a\n      add\n        /* \"Vault_forge/src/Diamond/DepositFacet.sol\":7193:7217  ds.stakeBatches[batchId] */\n      0x00\n        /* \"Vault_forge/src/Diamond/DepositFacet.sol\":7209:7216  batchId */\n      dup7\n        /* \"Vault_forge/src/Diamond/DepositFacet.sol\":7193:7217  ds.stakeBatches[batchId] */\n      dup2\n      mstore\n      0x20\n      add\n      swap1\n      dup2\n      mstore\n      0x20\n      add\n      0x00\n      keccak256\n        /* \"Vault_forge/src/Diamond/DepositFacet.sol\":7223:7234  beneficiary */\n      dup10\n        /* \"Vault_forge/src/Diamond/DepositFacet.sol\":7193:7235  ds.stakeBatches[batchId].push(beneficiary) */\n      swap1\n      dup1\n      0x01\n      dup2\n      sload\n      add\n      dup1\n      dup3\n      sstore\n      dup1\n      swap2\n      pop\n      pop\n      0x01\n      swap1\n      sub\n      swap1\n      0x00\n      mstore\n      keccak256(0x00, 0x20)\n      add\n      0x00\n      swap1\n      swap2\n      swap1\n      swap2\n      swap1\n      swap2\n      0x0100\n      exp\n      dup2\n      sload\n      dup2\n      0xffffffffffffffffffffffffffffffffffffffff\n      mul\n      not\n      and\n      swap1\n      dup4\n      0xffffffffffffffffffffffffffffffffffffffff\n      and\n      mul\n      or\n      swap1\n      sstore\n      pop\n        /* \"Vault_forge/src/Diamond/DepositFacet.sol\":7296:7318  uint256 wstETHReceived */\n      0x00\n        /* \"Vault_forge/src/Diamond/DepositFacet.sol\":7331:7333  ds */\n      dup7\n        /* \"Vault_forge/src/Diamond/DepositFacet.sol\":7331:7350  ds.receiverContract */\n      0x08\n      add\n      0x00\n      swap1\n      sload\n      swap1\n      0x0100\n      exp\n      swap1\n      div\n      0xffffffffffffffffffffffffffffffffffffffff\n      and\n        /* \"Vault_forge/src/Diamond/DepositFacet.sol\":7321:7370  IReceiver(ds.receiverContract).batchStakeWithLido */\n      0xffffffffffffffffffffffffffffffffffffffff\n      and\n      0x3641bd02\n        /* \"Vault_forge/src/Diamond/DepositFacet.sol\":7392:7393  0 */\n      0x00\n        /* \"Vault_forge/src/Diamond/DepositFacet.sol\":7405:7412  batchId */\n      dup9\n        /* \"Vault_forge/src/Diamond/DepositFacet.sol\":7321:7413  IReceiver(ds.receiverContract).batchStakeWithLido{... */\n      mload(0x40)\n      dup4\n      0xffffffff\n      and\n      0xe0\n      shl\n      dup2\n      mstore\n      0x04\n      add\n      tag_131\n      swap2\n      swap1\n      tag_132\n      jump\t// in\n    tag_131:\n      0x20\n      mload(0x40)\n      dup1\n      dup4\n      sub\n      dup2\n      dup6\n      dup9\n      gas\n      call\n      iszero\n      dup1\n      iszero\n      tag_134\n      jumpi\n      returndatacopy(0x00, 0x00, returndatasize)\n      revert(0x00, returndatasize)\n    tag_134:\n      pop\n      pop\n      pop\n      pop\n      pop\n      mload(0x40)\n      returndatasize\n      not(0x1f)\n      0x1f\n      dup3\n      add\n      and\n      dup3\n      add\n      dup1\n      0x40\n      mstore\n      pop\n      dup2\n      add\n      swap1\n      tag_135\n      swap2\n      swap1\n      tag_62\n      jump\t// in\n    tag_135:\n        /* \"Vault_forge/src/Diamond/DepositFacet.sol\":7296:7413  uint256 wstETHReceived = IReceiver(ds.receiverContract).batchStakeWithLido{... */\n      swap1\n      pop\n        /* \"Vault_forge/src/Diamond/DepositFacet.sol\":7438:7440  ds */\n      dup7\n        /* \"Vault_forge/src/Diamond/DepositFacet.sol\":7438:7457  ds.processedBatches */\n      0x1b\n      add\n        /* \"Vault_forge/src/Diamond/DepositFacet.sol\":7438:7466  ds.processedBatches[batchId] */\n      0x00\n        /* \"Vault_forge/src/Diamond/DepositFacet.sol\":7458:7465  batchId */\n      dup8\n        /* \"Vault_forge/src/Diamond/DepositFacet.sol\":7438:7466  ds.processedBatches[batchId] */\n      dup2\n      mstore\n      0x20\n      add\n      swap1\n      dup2\n      mstore\n      0x20\n      add\n      0x00\n      keccak256\n      0x00\n      swap1\n      sload\n      swap1\n      0x0100\n      exp\n      swap1\n      div\n      0xff\n      and\n        /* \"Vault_forge/src/Diamond/DepositFacet.sol\":7434:7498  if (ds.processedBatches[batchId]) revert BatchAlreadyProcessed() */\n      iszero\n      tag_136\n      jumpi\n        /* \"Vault_forge/src/Diamond/DepositFacet.sol\":7475:7498  BatchAlreadyProcessed() */\n      mload(0x40)\n      0xe2b1f19400000000000000000000000000000000000000000000000000000000\n      dup2\n      mstore\n      0x04\n      add\n      mload(0x40)\n      dup1\n      swap2\n      sub\n      swap1\n      revert\n        /* \"Vault_forge/src/Diamond/DepositFacet.sol\":7434:7498  if (ds.processedBatches[batchId]) revert BatchAlreadyProcessed() */\n    tag_136:\n        /* \"Vault_forge/src/Diamond/DepositFacet.sol\":7540:7544  true */\n      0x01\n        /* \"Vault_forge/src/Diamond/DepositFacet.sol\":7509:7511  ds */\n      dup8\n        /* \"Vault_forge/src/Diamond/DepositFacet.sol\":7509:7528  ds.processedBatches */\n      0x1b\n      add\n        /* \"Vault_forge/src/Diamond/DepositFacet.sol\":7509:7537  ds.processedBatches[batchId] */\n      0x00\n        /* \"Vault_forge/src/Diamond/DepositFacet.sol\":7529:7536  batchId */\n      dup9\n        /* \"Vault_forge/src/Diamond/DepositFacet.sol\":7509:7537  ds.processedBatches[batchId] */\n      dup2\n      mstore\n      0x20\n      add\n      swap1\n      dup2\n      mstore\n      0x20\n      add\n      0x00\n      keccak256\n      0x00\n        /* \"Vault_forge/src/Diamond/DepositFacet.sol\":7509:7544  ds.processedBatches[batchId] = true */\n      0x0100\n      exp\n      dup2\n      sload\n      dup2\n      0xff\n      mul\n      not\n      and\n      swap1\n      dup4\n      iszero\n      iszero\n      mul\n      or\n      swap1\n      sstore\n      pop\n        /* \"Vault_forge/src/Diamond/DepositFacet.sol\":7600:7617  uint256 userShare */\n      0x00\n        /* \"Vault_forge/src/Diamond/DepositFacet.sol\":7620:7634  wstETHReceived */\n      dup2\n        /* \"Vault_forge/src/Diamond/DepositFacet.sol\":7600:7634  uint256 userShare = wstETHReceived */\n      swap1\n      pop\n        /* \"Vault_forge/src/Diamond/DepositFacet.sol\":7682:7691  userShare */\n      dup1\n        /* \"Vault_forge/src/Diamond/DepositFacet.sol\":7645:7647  ds */\n      dup9\n        /* \"Vault_forge/src/Diamond/DepositFacet.sol\":7645:7665  ds.userWstETHBalance */\n      0x15\n      add\n        /* \"Vault_forge/src/Diamond/DepositFacet.sol\":7645:7678  ds.userWstETHBalance[beneficiary] */\n      0x00\n        /* \"Vault_forge/src/Diamond/DepositFacet.sol\":7666:7677  beneficiary */\n      dup14\n        /* \"Vault_forge/src/Diamond/DepositFacet.sol\":7645:7678  ds.userWstETHBalance[beneficiary] */\n      0xffffffffffffffffffffffffffffffffffffffff\n      and\n      0xffffffffffffffffffffffffffffffffffffffff\n      and\n      dup2\n      mstore\n      0x20\n      add\n      swap1\n      dup2\n      mstore\n      0x20\n      add\n      0x00\n      keccak256\n      0x00\n        /* \"Vault_forge/src/Diamond/DepositFacet.sol\":7645:7691  ds.userWstETHBalance[beneficiary] += userShare */\n      dup3\n      dup3\n      sload\n      tag_137\n      swap2\n      swap1\n      tag_66\n      jump\t// in\n    tag_137:\n      swap3\n      pop\n      pop\n      dup2\n      swap1\n      sstore\n      pop\n        /* \"Vault_forge/src/Diamond/DepositFacet.sol\":7753:7755  ds */\n      dup8\n        /* \"Vault_forge/src/Diamond/DepositFacet.sol\":7753:7774  ds.userStakedDeposits */\n      0x1d\n      add\n        /* \"Vault_forge/src/Diamond/DepositFacet.sol\":7753:7787  ds.userStakedDeposits[beneficiary] */\n      0x00\n        /* \"Vault_forge/src/Diamond/DepositFacet.sol\":7775:7786  beneficiary */\n      dup13\n        /* \"Vault_forge/src/Diamond/DepositFacet.sol\":7753:7787  ds.userStakedDeposits[beneficiary] */\n      0xffffffffffffffffffffffffffffffffffffffff\n      and\n      0xffffffffffffffffffffffffffffffffffffffff\n      and\n      dup2\n      mstore\n      0x20\n      add\n      swap1\n      dup2\n      mstore\n      0x20\n      add\n      0x00\n      keccak256\n        /* \"Vault_forge/src/Diamond/DepositFacet.sol\":7807:8014  DiamondStorage.StakedDeposit({... */\n      mload(0x40)\n      dup1\n      0x80\n      add\n      0x40\n      mstore\n      dup1\n        /* \"Vault_forge/src/Diamond/DepositFacet.sol\":7863:7876  amountToStake */\n      dup13\n        /* \"Vault_forge/src/Diamond/DepositFacet.sol\":7807:8014  DiamondStorage.StakedDeposit({... */\n      dup2\n      mstore\n      0x20\n      add\n        /* \"Vault_forge/src/Diamond/DepositFacet.sol\":7906:7921  block.timestamp */\n      timestamp\n        /* \"Vault_forge/src/Diamond/DepositFacet.sol\":7807:8014  DiamondStorage.StakedDeposit({... */\n      dup2\n      mstore\n      0x20\n      add\n        /* \"Vault_forge/src/Diamond/DepositFacet.sol\":7954:7963  userShare */\n      dup4\n        /* \"Vault_forge/src/Diamond/DepositFacet.sol\":7807:8014  DiamondStorage.StakedDeposit({... */\n      dup2\n      mstore\n      0x20\n      add\n        /* \"Vault_forge/src/Diamond/DepositFacet.sol\":7993:7998  false */\n      0x00\n        /* \"Vault_forge/src/Diamond/DepositFacet.sol\":7807:8014  DiamondStorage.StakedDeposit({... */\n      iszero\n      iszero\n      dup2\n      mstore\n      pop\n        /* \"Vault_forge/src/Diamond/DepositFacet.sol\":7753:8025  ds.userStakedDeposits[beneficiary].push(... */\n      swap1\n      dup1\n      0x01\n      dup2\n      sload\n      add\n      dup1\n      dup3\n      sstore\n      dup1\n      swap2\n      pop\n      pop\n      0x01\n      swap1\n      sub\n      swap1\n      0x00\n      mstore\n      keccak256(0x00, 0x20)\n      swap1\n      0x04\n      mul\n      add\n      0x00\n      swap1\n      swap2\n      swap1\n      swap2\n      swap1\n      swap2\n      pop\n      0x00\n      dup3\n      add\n      mload\n      dup2\n      0x00\n      add\n      sstore\n      0x20\n      dup3\n      add\n      mload\n      dup2\n      0x01\n      add\n      sstore\n      0x40\n      dup3\n      add\n      mload\n      dup2\n      0x02\n      add\n      sstore\n      0x60\n      dup3\n      add\n      mload\n      dup2\n      0x03\n      add\n      exp(0x0100, 0x00)\n      dup2\n      sload\n      dup2\n      0xff\n      mul\n      not\n      and\n      swap1\n      dup4\n      iszero\n      iszero\n      mul\n      or\n      swap1\n      sstore\n      pop\n      pop\n      pop\n        /* \"Vault_forge/src/Diamond/DepositFacet.sol\":8113:8114  0 */\n      0x00\n        /* \"Vault_forge/src/Diamond/DepositFacet.sol\":8078:8080  ds */\n      dup9\n        /* \"Vault_forge/src/Diamond/DepositFacet.sol\":8078:8097  ds.pendingEthStakes */\n      0x19\n      add\n        /* \"Vault_forge/src/Diamond/DepositFacet.sol\":8078:8110  ds.pendingEthStakes[beneficiary] */\n      0x00\n        /* \"Vault_forge/src/Diamond/DepositFacet.sol\":8098:8109  beneficiary */\n      dup14\n        /* \"Vault_forge/src/Diamond/DepositFacet.sol\":8078:8110  ds.pendingEthStakes[beneficiary] */\n      0xffffffffffffffffffffffffffffffffffffffff\n      and\n      0xffffffffffffffffffffffffffffffffffffffff\n      and\n      dup2\n      mstore\n      0x20\n      add\n      swap1\n      dup2\n      mstore\n      0x20\n      add\n      0x00\n      keccak256\n        /* \"Vault_forge/src/Diamond/DepositFacet.sol\":8078:8114  ds.pendingEthStakes[beneficiary] = 0 */\n      dup2\n      swap1\n      sstore\n      pop\n        /* \"Vault_forge/src/Diamond/DepositFacet.sol\":8168:8179  beneficiary */\n      dup11\n        /* \"Vault_forge/src/Diamond/DepositFacet.sol\":8140:8262  SwapInitiated(... */\n      0xffffffffffffffffffffffffffffffffffffffff\n      and\n      0x447dbdbfde1cf015fc6f055a0c7a32d270f68eaf5f9ae394c3d3963a1bbc0a75\n        /* \"Vault_forge/src/Diamond/DepositFacet.sol\":8194:8207  amountToStake */\n      dup12\n        /* \"Vault_forge/src/Diamond/DepositFacet.sol\":1709:1716  30 days */\n      0x278d00\n        /* \"Vault_forge/src/Diamond/DepositFacet.sol\":8222:8237  block.timestamp */\n      timestamp\n        /* \"Vault_forge/src/Diamond/DepositFacet.sol\":8222:8251  block.timestamp + LOCK_PERIOD */\n      tag_139\n      swap2\n      swap1\n      tag_66\n      jump\t// in\n    tag_139:\n        /* \"Vault_forge/src/Diamond/DepositFacet.sol\":8140:8262  SwapInitiated(... */\n      mload(0x40)\n      tag_140\n      swap3\n      swap2\n      swap1\n      tag_76\n      jump\t// in\n    tag_140:\n      mload(0x40)\n      dup1\n      swap2\n      sub\n      swap1\n      log2\n        /* \"Vault_forge/src/Diamond/DepositFacet.sol\":8309:8320  beneficiary */\n      dup11\n        /* \"Vault_forge/src/Diamond/DepositFacet.sol\":8288:8352  WstETHBalanceUpdated(beneficiary, amountToStake, wstETHReceived) */\n      0xffffffffffffffffffffffffffffffffffffffff\n      and\n      0x923a5113d2791c84f9eeefac7ed7e03aaf0525bcc930d31be60bd241a5133dcc\n        /* \"Vault_forge/src/Diamond/DepositFacet.sol\":8322:8335  amountToStake */\n      dup12\n        /* \"Vault_forge/src/Diamond/DepositFacet.sol\":8337:8351  wstETHReceived */\n      dup5\n        /* \"Vault_forge/src/Diamond/DepositFacet.sol\":8288:8352  WstETHBalanceUpdated(beneficiary, amountToStake, wstETHReceived) */\n      mload(0x40)\n      tag_141\n      swap3\n      swap2\n      swap1\n      tag_76\n      jump\t// in\n    tag_141:\n      mload(0x40)\n      dup1\n      swap2\n      sub\n      swap1\n      log2\n        /* \"Vault_forge/src/Diamond/DepositFacet.sol\":8400:8404  usdc */\n      dup6\n        /* \"Vault_forge/src/Diamond/DepositFacet.sol\":8400:8412  usdc.approve */\n      0xffffffffffffffffffffffffffffffffffffffff\n      and\n      0x095ea7b3\n        /* \"Vault_forge/src/Diamond/DepositFacet.sol\":8413:8415  ds */\n      dup10\n        /* \"Vault_forge/src/Diamond/DepositFacet.sol\":8413:8428  ds.swapContract */\n      0x05\n      add\n      0x00\n      swap1\n      sload\n      swap1\n      0x0100\n      exp\n      swap1\n      div\n      0xffffffffffffffffffffffffffffffffffffffff\n      and\n        /* \"Vault_forge/src/Diamond/DepositFacet.sol\":8430:8431  0 */\n      0x00\n        /* \"Vault_forge/src/Diamond/DepositFacet.sol\":8400:8432  usdc.approve(ds.swapContract, 0) */\n      mload(0x40)\n      dup4\n      0xffffffff\n      and\n      0xe0\n      shl\n      dup2\n      mstore\n      0x04\n      add\n      tag_142\n      swap3\n      swap2\n      swap1\n      tag_143\n      jump\t// in\n    tag_142:\n      0x20\n      mload(0x40)\n      dup1\n      dup4\n      sub\n      dup2\n      0x00\n      dup8\n      gas\n      call\n      iszero\n      dup1\n      iszero\n      tag_145\n      jumpi\n      returndatacopy(0x00, 0x00, returndatasize)\n      revert(0x00, returndatasize)\n    tag_145:\n      pop\n      pop\n      pop\n      pop\n      mload(0x40)\n      returndatasize\n      not(0x1f)\n      0x1f\n      dup3\n      add\n      and\n      dup3\n      add\n      dup1\n      0x40\n      mstore\n      pop\n      dup2\n      add\n      swap1\n      tag_146\n      swap2\n      swap1\n      tag_117\n      jump\t// in\n    tag_146:\n      pop\n        /* \"Vault_forge/src/Diamond/DepositFacet.sol\":8460:8469  userShare */\n      dup1\n        /* \"Vault_forge/src/Diamond/DepositFacet.sol\":8453:8469  return userShare */\n      swap9\n      pop\n      pop\n      pop\n      pop\n      pop\n      pop\n      pop\n      pop\n      pop\n        /* \"Vault_forge/src/Diamond/DepositFacet.sol\":5625:8477  function safeTransferAndSwap(... */\n      swap4\n      swap3\n      pop\n      pop\n      pop\n      jump\t// out\n        /* \"@openzeppelin/contracts/security/ReentrancyGuard.sol\":2629:2838  function _nonReentrantAfter() private {... */\n    tag_80:\n        /* \"@openzeppelin/contracts/security/ReentrancyGuard.sol\":1716:1717  1 */\n      0x01\n        /* \"@openzeppelin/contracts/security/ReentrancyGuard.sol\":2809:2816  _status */\n      0x00\n        /* \"@openzeppelin/contracts/security/ReentrancyGuard.sol\":2809:2831  _status = _NOT_ENTERED */\n      dup2\n      swap1\n      sstore\n      pop\n        /* \"@openzeppelin/contracts/security/ReentrancyGuard.sol\":2629:2838  function _nonReentrantAfter() private {... */\n      jump\t// out\n        /* \"@openzeppelin/contracts/token/ERC20/utils/SafeERC20.sol\":8370:9090  function _callOptionalReturn(IERC20 token, bytes memory data) private {... */\n    tag_103:\n        /* \"@openzeppelin/contracts/token/ERC20/utils/SafeERC20.sol\":8450:8468  uint256 returnSize */\n      0x00\n        /* \"@openzeppelin/contracts/token/ERC20/utils/SafeERC20.sol\":8478:8497  uint256 returnValue */\n      0x00\n        /* \"@openzeppelin/contracts/token/ERC20/utils/SafeERC20.sol\":8616:8620  0x20 */\n      0x20\n        /* \"@openzeppelin/contracts/token/ERC20/utils/SafeERC20.sol\":8613:8614  0 */\n      0x00\n        /* \"@openzeppelin/contracts/token/ERC20/utils/SafeERC20.sol\":8606:8610  data */\n      dup5\n        /* \"@openzeppelin/contracts/token/ERC20/utils/SafeERC20.sol\":8600:8611  mload(data) */\n      mload\n        /* \"@openzeppelin/contracts/token/ERC20/utils/SafeERC20.sol\":8593:8597  0x20 */\n      0x20\n        /* \"@openzeppelin/contracts/token/ERC20/utils/SafeERC20.sol\":8587:8591  data */\n      dup7\n        /* \"@openzeppelin/contracts/token/ERC20/utils/SafeERC20.sol\":8583:8598  add(data, 0x20) */\n      add\n        /* \"@openzeppelin/contracts/token/ERC20/utils/SafeERC20.sol\":8580:8581  0 */\n      0x00\n        /* \"@openzeppelin/contracts/token/ERC20/utils/SafeERC20.sol\":8573:8578  token */\n      dup9\n        /* \"@openzeppelin/contracts/token/ERC20/utils/SafeERC20.sol\":8566:8571  gas() */\n      gas\n        /* \"@openzeppelin/contracts/token/ERC20/utils/SafeERC20.sol\":8561:8621  call(gas(), token, 0, add(data, 0x20), mload(data), 0, 0x20) */\n      call\n        /* \"@openzeppelin/contracts/token/ERC20/utils/SafeERC20.sol\":8673:8680  success */\n      dup1\n        /* \"@openzeppelin/contracts/token/ERC20/utils/SafeERC20.sol\":8663:8839  if iszero(success) {... */\n      tag_149\n      jumpi\n        /* \"@openzeppelin/contracts/token/ERC20/utils/SafeERC20.sol\":8717:8721  0x40 */\n      0x40\n        /* \"@openzeppelin/contracts/token/ERC20/utils/SafeERC20.sol\":8711:8722  mload(0x40) */\n      mload\n        /* \"@openzeppelin/contracts/token/ERC20/utils/SafeERC20.sol\":8762:8778  returndatasize() */\n      returndatasize\n        /* \"@openzeppelin/contracts/token/ERC20/utils/SafeERC20.sol\":8759:8760  0 */\n      0x00\n        /* \"@openzeppelin/contracts/token/ERC20/utils/SafeERC20.sol\":8754:8757  ptr */\n      dup3\n        /* \"@openzeppelin/contracts/token/ERC20/utils/SafeERC20.sol\":8739:8779  returndatacopy(ptr, 0, returndatasize()) */\n      returndatacopy\n        /* \"@openzeppelin/contracts/token/ERC20/utils/SafeERC20.sol\":8808:8824  returndatasize() */\n      returndatasize\n        /* \"@openzeppelin/contracts/token/ERC20/utils/SafeERC20.sol\":8803:8806  ptr */\n      dup2\n        /* \"@openzeppelin/contracts/token/ERC20/utils/SafeERC20.sol\":8796:8825  revert(ptr, returndatasize()) */\n      revert\n        /* \"@openzeppelin/contracts/token/ERC20/utils/SafeERC20.sol\":8663:8839  if iszero(success) {... */\n    tag_149:\n        /* \"@openzeppelin/contracts/token/ERC20/utils/SafeERC20.sol\":8866:8882  returndatasize() */\n      returndatasize\n        /* \"@openzeppelin/contracts/token/ERC20/utils/SafeERC20.sol\":8852:8882  returnSize := returndatasize() */\n      swap3\n      pop\n        /* \"@openzeppelin/contracts/token/ERC20/utils/SafeERC20.sol\":8916:8917  0 */\n      0x00\n        /* \"@openzeppelin/contracts/token/ERC20/utils/SafeERC20.sol\":8910:8918  mload(0) */\n      mload\n        /* \"@openzeppelin/contracts/token/ERC20/utils/SafeERC20.sol\":8895:8918  returnValue := mload(0) */\n      swap2\n      pop\n        /* \"@openzeppelin/contracts/token/ERC20/utils/SafeERC20.sol\":8532:8928  {... */\n      pop\n        /* \"@openzeppelin/contracts/token/ERC20/utils/SafeERC20.sol\":8956:8957  0 */\n      0x00\n        /* \"@openzeppelin/contracts/token/ERC20/utils/SafeERC20.sol\":8942:8952  returnSize */\n      dup3\n        /* \"@openzeppelin/contracts/token/ERC20/utils/SafeERC20.sol\":8942:8957  returnSize == 0 */\n      eq\n        /* \"@openzeppelin/contracts/token/ERC20/utils/SafeERC20.sol\":8942:9010  returnSize == 0 ? address(token).code.length == 0 : returnValue != 1 */\n      tag_150\n      jumpi\n        /* \"@openzeppelin/contracts/token/ERC20/utils/SafeERC20.sol\":9009:9010  1 */\n      0x01\n        /* \"@openzeppelin/contracts/token/ERC20/utils/SafeERC20.sol\":8994:9005  returnValue */\n      dup2\n        /* \"@openzeppelin/contracts/token/ERC20/utils/SafeERC20.sol\":8994:9010  returnValue != 1 */\n      eq\n      iszero\n        /* \"@openzeppelin/contracts/token/ERC20/utils/SafeERC20.sol\":8942:9010  returnSize == 0 ? address(token).code.length == 0 : returnValue != 1 */\n      jump(tag_151)\n    tag_150:\n        /* \"@openzeppelin/contracts/token/ERC20/utils/SafeERC20.sol\":8990:8991  0 */\n      0x00\n        /* \"@openzeppelin/contracts/token/ERC20/utils/SafeERC20.sol\":8968:8973  token */\n      dup5\n        /* \"@openzeppelin/contracts/token/ERC20/utils/SafeERC20.sol\":8960:8986  address(token).code.length */\n      0xffffffffffffffffffffffffffffffffffffffff\n      and\n      extcodesize\n        /* \"@openzeppelin/contracts/token/ERC20/utils/SafeERC20.sol\":8960:8991  address(token).code.length == 0 */\n      eq\n        /* \"@openzeppelin/contracts/token/ERC20/utils/SafeERC20.sol\":8942:9010  returnSize == 0 ? address(token).code.length == 0 : returnValue != 1 */\n    tag_151:\n        /* \"@openzeppelin/contracts/token/ERC20/utils/SafeERC20.sol\":8938:9084  if (returnSize == 0 ? address(token).code.length == 0 : returnValue != 1) {... */\n      iszero\n      tag_152\n      jumpi\n        /* \"@openzeppelin/contracts/token/ERC20/utils/SafeERC20.sol\":9066:9071  token */\n      dup4\n        /* \"@openzeppelin/contracts/token/ERC20/utils/SafeERC20.sol\":9033:9073  SafeERC20FailedOperation(address(token)) */\n      mload(0x40)\n      0x5274afe700000000000000000000000000000000000000000000000000000000\n      dup2\n      mstore\n      0x04\n      add\n      tag_153\n      swap2\n      swap1\n      tag_154\n      jump\t// in\n    tag_153:\n      mload(0x40)\n      dup1\n      swap2\n      sub\n      swap1\n      revert\n        /* \"@openzeppelin/contracts/token/ERC20/utils/SafeERC20.sol\":8938:9084  if (returnSize == 0 ? address(token).code.length == 0 : returnValue != 1) {... */\n    tag_152:\n        /* \"@openzeppelin/contracts/token/ERC20/utils/SafeERC20.sol\":8440:9090  {... */\n      pop\n      pop\n        /* \"@openzeppelin/contracts/token/ERC20/utils/SafeERC20.sol\":8370:9090  function _callOptionalReturn(IERC20 token, bytes memory data) private {... */\n      pop\n      pop\n      jump\t// out\n        /* \"#utility.yul\":88:205   */\n    tag_156:\n        /* \"#utility.yul\":197:198   */\n      0x00\n        /* \"#utility.yul\":194:195   */\n      0x00\n        /* \"#utility.yul\":187:199   */\n      revert\n        /* \"#utility.yul\":334:460   */\n    tag_158:\n        /* \"#utility.yul\":371:378   */\n      0x00\n        /* \"#utility.yul\":411:453   */\n      0xffffffffffffffffffffffffffffffffffffffff\n        /* \"#utility.yul\":404:409   */\n      dup3\n        /* \"#utility.yul\":400:454   */\n      and\n        /* \"#utility.yul\":389:454   */\n      swap1\n      pop\n        /* \"#utility.yul\":334:460   */\n      swap2\n      swap1\n      pop\n      jump\t// out\n        /* \"#utility.yul\":466:562   */\n    tag_159:\n        /* \"#utility.yul\":503:510   */\n      0x00\n        /* \"#utility.yul\":532:556   */\n      tag_194\n        /* \"#utility.yul\":550:555   */\n      dup3\n        /* \"#utility.yul\":532:556   */\n      tag_158\n      jump\t// in\n    tag_194:\n        /* \"#utility.yul\":521:556   */\n      swap1\n      pop\n        /* \"#utility.yul\":466:562   */\n      swap2\n      swap1\n      pop\n      jump\t// out\n        /* \"#utility.yul\":568:690   */\n    tag_160:\n        /* \"#utility.yul\":641:665   */\n      tag_196\n        /* \"#utility.yul\":659:664   */\n      dup2\n        /* \"#utility.yul\":641:665   */\n      tag_159\n      jump\t// in\n    tag_196:\n        /* \"#utility.yul\":634:639   */\n      dup2\n        /* \"#utility.yul\":631:666   */\n      eq\n        /* \"#utility.yul\":621:684   */\n      tag_197\n      jumpi\n        /* \"#utility.yul\":680:681   */\n      0x00\n        /* \"#utility.yul\":677:678   */\n      0x00\n        /* \"#utility.yul\":670:682   */\n      revert\n        /* \"#utility.yul\":621:684   */\n    tag_197:\n        /* \"#utility.yul\":568:690   */\n      pop\n      jump\t// out\n        /* \"#utility.yul\":696:835   */\n    tag_161:\n        /* \"#utility.yul\":742:747   */\n      0x00\n        /* \"#utility.yul\":780:786   */\n      dup2\n        /* \"#utility.yul\":767:787   */\n      calldataload\n        /* \"#utility.yul\":758:787   */\n      swap1\n      pop\n        /* \"#utility.yul\":796:829   */\n      tag_199\n        /* \"#utility.yul\":823:828   */\n      dup2\n        /* \"#utility.yul\":796:829   */\n      tag_160\n      jump\t// in\n    tag_199:\n        /* \"#utility.yul\":696:835   */\n      swap3\n      swap2\n      pop\n      pop\n      jump\t// out\n        /* \"#utility.yul\":841:1170   */\n    tag_10:\n        /* \"#utility.yul\":900:906   */\n      0x00\n        /* \"#utility.yul\":949:951   */\n      0x20\n        /* \"#utility.yul\":937:946   */\n      dup3\n        /* \"#utility.yul\":928:935   */\n      dup5\n        /* \"#utility.yul\":924:947   */\n      sub\n        /* \"#utility.yul\":920:952   */\n      slt\n        /* \"#utility.yul\":917:1036   */\n      iszero\n      tag_201\n      jumpi\n        /* \"#utility.yul\":955:1034   */\n      tag_202\n      tag_156\n      jump\t// in\n    tag_202:\n        /* \"#utility.yul\":917:1036   */\n    tag_201:\n        /* \"#utility.yul\":1075:1076   */\n      0x00\n        /* \"#utility.yul\":1100:1153   */\n      tag_203\n        /* \"#utility.yul\":1145:1152   */\n      dup5\n        /* \"#utility.yul\":1136:1142   */\n      dup3\n        /* \"#utility.yul\":1125:1134   */\n      dup6\n        /* \"#utility.yul\":1121:1143   */\n      add\n        /* \"#utility.yul\":1100:1153   */\n      tag_161\n      jump\t// in\n    tag_203:\n        /* \"#utility.yul\":1090:1153   */\n      swap2\n      pop\n        /* \"#utility.yul\":1046:1163   */\n      pop\n        /* \"#utility.yul\":841:1170   */\n      swap3\n      swap2\n      pop\n      pop\n      jump\t// out\n        /* \"#utility.yul\":1176:1253   */\n    tag_162:\n        /* \"#utility.yul\":1213:1220   */\n      0x00\n        /* \"#utility.yul\":1242:1247   */\n      dup2\n        /* \"#utility.yul\":1231:1247   */\n      swap1\n      pop\n        /* \"#utility.yul\":1176:1253   */\n      swap2\n      swap1\n      pop\n      jump\t// out\n        /* \"#utility.yul\":1259:1377   */\n    tag_163:\n        /* \"#utility.yul\":1346:1370   */\n      tag_206\n        /* \"#utility.yul\":1364:1369   */\n      dup2\n        /* \"#utility.yul\":1346:1370   */\n      tag_162\n      jump\t// in\n    tag_206:\n        /* \"#utility.yul\":1341:1344   */\n      dup3\n        /* \"#utility.yul\":1334:1371   */\n      mstore\n        /* \"#utility.yul\":1259:1377   */\n      pop\n      pop\n      jump\t// out\n        /* \"#utility.yul\":1383:1605   */\n    tag_13:\n        /* \"#utility.yul\":1476:1480   */\n      0x00\n        /* \"#utility.yul\":1514:1516   */\n      0x20\n        /* \"#utility.yul\":1503:1512   */\n      dup3\n        /* \"#utility.yul\":1499:1517   */\n      add\n        /* \"#utility.yul\":1491:1517   */\n      swap1\n      pop\n        /* \"#utility.yul\":1527:1598   */\n      tag_208\n        /* \"#utility.yul\":1595:1596   */\n      0x00\n        /* \"#utility.yul\":1584:1593   */\n      dup4\n        /* \"#utility.yul\":1580:1597   */\n      add\n        /* \"#utility.yul\":1571:1577   */\n      dup5\n        /* \"#utility.yul\":1527:1598   */\n      tag_163\n      jump\t// in\n    tag_208:\n        /* \"#utility.yul\":1383:1605   */\n      swap3\n      swap2\n      pop\n      pop\n      jump\t// out\n        /* \"#utility.yul\":1611:1733   */\n    tag_164:\n        /* \"#utility.yul\":1684:1708   */\n      tag_210\n        /* \"#utility.yul\":1702:1707   */\n      dup2\n        /* \"#utility.yul\":1684:1708   */\n      tag_162\n      jump\t// in\n    tag_210:\n        /* \"#utility.yul\":1677:1682   */\n      dup2\n        /* \"#utility.yul\":1674:1709   */\n      eq\n        /* \"#utility.yul\":1664:1727   */\n      tag_211\n      jumpi\n        /* \"#utility.yul\":1723:1724   */\n      0x00\n        /* \"#utility.yul\":1720:1721   */\n      0x00\n        /* \"#utility.yul\":1713:1725   */\n      revert\n        /* \"#utility.yul\":1664:1727   */\n    tag_211:\n        /* \"#utility.yul\":1611:1733   */\n      pop\n      jump\t// out\n        /* \"#utility.yul\":1739:1878   */\n    tag_165:\n        /* \"#utility.yul\":1785:1790   */\n      0x00\n        /* \"#utility.yul\":1823:1829   */\n      dup2\n        /* \"#utility.yul\":1810:1830   */\n      calldataload\n        /* \"#utility.yul\":1801:1830   */\n      swap1\n      pop\n        /* \"#utility.yul\":1839:1872   */\n      tag_213\n        /* \"#utility.yul\":1866:1871   */\n      dup2\n        /* \"#utility.yul\":1839:1872   */\n      tag_164\n      jump\t// in\n    tag_213:\n        /* \"#utility.yul\":1739:1878   */\n      swap3\n      swap2\n      pop\n      pop\n      jump\t// out\n        /* \"#utility.yul\":1884:2358   */\n    tag_16:\n        /* \"#utility.yul\":1952:1958   */\n      0x00\n        /* \"#utility.yul\":1960:1966   */\n      0x00\n        /* \"#utility.yul\":2009:2011   */\n      0x40\n        /* \"#utility.yul\":1997:2006   */\n      dup4\n        /* \"#utility.yul\":1988:1995   */\n      dup6\n        /* \"#utility.yul\":1984:2007   */\n      sub\n        /* \"#utility.yul\":1980:2012   */\n      slt\n        /* \"#utility.yul\":1977:2096   */\n      iszero\n      tag_215\n      jumpi\n        /* \"#utility.yul\":2015:2094   */\n      tag_216\n      tag_156\n      jump\t// in\n    tag_216:\n        /* \"#utility.yul\":1977:2096   */\n    tag_215:\n        /* \"#utility.yul\":2135:2136   */\n      0x00\n        /* \"#utility.yul\":2160:2213   */\n      tag_217\n        /* \"#utility.yul\":2205:2212   */\n      dup6\n        /* \"#utility.yul\":2196:2202   */\n      dup3\n        /* \"#utility.yul\":2185:2194   */\n      dup7\n        /* \"#utility.yul\":2181:2203   */\n      add\n        /* \"#utility.yul\":2160:2213   */\n      tag_165\n      jump\t// in\n    tag_217:\n        /* \"#utility.yul\":2150:2213   */\n      swap3\n      pop\n        /* \"#utility.yul\":2106:2223   */\n      pop\n        /* \"#utility.yul\":2262:2264   */\n      0x20\n        /* \"#utility.yul\":2288:2341   */\n      tag_218\n        /* \"#utility.yul\":2333:2340   */\n      dup6\n        /* \"#utility.yul\":2324:2330   */\n      dup3\n        /* \"#utility.yul\":2313:2322   */\n      dup7\n        /* \"#utility.yul\":2309:2331   */\n      add\n        /* \"#utility.yul\":2288:2341   */\n      tag_161\n      jump\t// in\n    tag_218:\n        /* \"#utility.yul\":2278:2341   */\n      swap2\n      pop\n        /* \"#utility.yul\":2233:2351   */\n      pop\n        /* \"#utility.yul\":1884:2358   */\n      swap3\n      pop\n      swap3\n      swap1\n      pop\n      jump\t// out\n        /* \"#utility.yul\":2364:2693   */\n    tag_23:\n        /* \"#utility.yul\":2423:2429   */\n      0x00\n        /* \"#utility.yul\":2472:2474   */\n      0x20\n        /* \"#utility.yul\":2460:2469   */\n      dup3\n        /* \"#utility.yul\":2451:2458   */\n      dup5\n        /* \"#utility.yul\":2447:2470   */\n      sub\n        /* \"#utility.yul\":2443:2475   */\n      slt\n        /* \"#utility.yul\":2440:2559   */\n      iszero\n      tag_220\n      jumpi\n        /* \"#utility.yul\":2478:2557   */\n      tag_221\n      tag_156\n      jump\t// in\n    tag_221:\n        /* \"#utility.yul\":2440:2559   */\n    tag_220:\n        /* \"#utility.yul\":2598:2599   */\n      0x00\n        /* \"#utility.yul\":2623:2676   */\n      tag_222\n        /* \"#utility.yul\":2668:2675   */\n      dup5\n        /* \"#utility.yul\":2659:2665   */\n      dup3\n        /* \"#utility.yul\":2648:2657   */\n      dup6\n        /* \"#utility.yul\":2644:2666   */\n      add\n        /* \"#utility.yul\":2623:2676   */\n      tag_165\n      jump\t// in\n    tag_222:\n        /* \"#utility.yul\":2613:2676   */\n      swap2\n      pop\n        /* \"#utility.yul\":2569:2686   */\n      pop\n        /* \"#utility.yul\":2364:2693   */\n      swap3\n      swap2\n      pop\n      pop\n      jump\t// out\n        /* \"#utility.yul\":2699:2879   */\n    tag_166:\n        /* \"#utility.yul\":2747:2824   */\n      0x4e487b7100000000000000000000000000000000000000000000000000000000\n        /* \"#utility.yul\":2744:2745   */\n      0x00\n        /* \"#utility.yul\":2737:2825   */\n      mstore\n        /* \"#utility.yul\":2844:2848   */\n      0x11\n        /* \"#utility.yul\":2841:2842   */\n      0x04\n        /* \"#utility.yul\":2834:2849   */\n      mstore\n        /* \"#utility.yul\":2868:2872   */\n      0x24\n        /* \"#utility.yul\":2865:2866   */\n      0x00\n        /* \"#utility.yul\":2858:2873   */\n      revert\n        /* \"#utility.yul\":2885:3079   */\n    tag_35:\n        /* \"#utility.yul\":2925:2929   */\n      0x00\n        /* \"#utility.yul\":2945:2965   */\n      tag_225\n        /* \"#utility.yul\":2963:2964   */\n      dup3\n        /* \"#utility.yul\":2945:2965   */\n      tag_162\n      jump\t// in\n    tag_225:\n        /* \"#utility.yul\":2940:2965   */\n      swap2\n      pop\n        /* \"#utility.yul\":2979:2999   */\n      tag_226\n        /* \"#utility.yul\":2997:2998   */\n      dup4\n        /* \"#utility.yul\":2979:2999   */\n      tag_162\n      jump\t// in\n    tag_226:\n        /* \"#utility.yul\":2974:2999   */\n      swap3\n      pop\n        /* \"#utility.yul\":3023:3024   */\n      dup3\n        /* \"#utility.yul\":3020:3021   */\n      dup3\n        /* \"#utility.yul\":3016:3025   */\n      sub\n        /* \"#utility.yul\":3008:3025   */\n      swap1\n      pop\n        /* \"#utility.yul\":3047:3048   */\n      dup2\n        /* \"#utility.yul\":3041:3045   */\n      dup2\n        /* \"#utility.yul\":3038:3049   */\n      gt\n        /* \"#utility.yul\":3035:3072   */\n      iszero\n      tag_227\n      jumpi\n        /* \"#utility.yul\":3052:3070   */\n      tag_228\n      tag_166\n      jump\t// in\n    tag_228:\n        /* \"#utility.yul\":3035:3072   */\n    tag_227:\n        /* \"#utility.yul\":2885:3079   */\n      swap3\n      swap2\n      pop\n      pop\n      jump\t// out\n        /* \"#utility.yul\":3085:3265   */\n    tag_167:\n        /* \"#utility.yul\":3133:3210   */\n      0x4e487b7100000000000000000000000000000000000000000000000000000000\n        /* \"#utility.yul\":3130:3131   */\n      0x00\n        /* \"#utility.yul\":3123:3211   */\n      mstore\n        /* \"#utility.yul\":3230:3234   */\n      0x12\n        /* \"#utility.yul\":3227:3228   */\n      0x04\n        /* \"#utility.yul\":3220:3235   */\n      mstore\n        /* \"#utility.yul\":3254:3258   */\n      0x24\n        /* \"#utility.yul\":3251:3252   */\n      0x00\n        /* \"#utility.yul\":3244:3259   */\n      revert\n        /* \"#utility.yul\":3271:3456   */\n    tag_49:\n        /* \"#utility.yul\":3311:3312   */\n      0x00\n        /* \"#utility.yul\":3328:3348   */\n      tag_231\n        /* \"#utility.yul\":3346:3347   */\n      dup3\n        /* \"#utility.yul\":3328:3348   */\n      tag_162\n      jump\t// in\n    tag_231:\n        /* \"#utility.yul\":3323:3348   */\n      swap2\n      pop\n        /* \"#utility.yul\":3362:3382   */\n      tag_232\n        /* \"#utility.yul\":3380:3381   */\n      dup4\n        /* \"#utility.yul\":3362:3382   */\n      tag_162\n      jump\t// in\n    tag_232:\n        /* \"#utility.yul\":3357:3382   */\n      swap3\n      pop\n        /* \"#utility.yul\":3401:3402   */\n      dup3\n        /* \"#utility.yul\":3391:3426   */\n      tag_233\n      jumpi\n        /* \"#utility.yul\":3406:3424   */\n      tag_234\n      tag_167\n      jump\t// in\n    tag_234:\n        /* \"#utility.yul\":3391:3426   */\n    tag_233:\n        /* \"#utility.yul\":3448:3449   */\n      dup3\n        /* \"#utility.yul\":3445:3446   */\n      dup3\n        /* \"#utility.yul\":3441:3450   */\n      div\n        /* \"#utility.yul\":3436:3450   */\n      swap1\n      pop\n        /* \"#utility.yul\":3271:3456   */\n      swap3\n      swap2\n      pop\n      pop\n      jump\t// out\n        /* \"#utility.yul\":3462:3872   */\n    tag_56:\n        /* \"#utility.yul\":3502:3509   */\n      0x00\n        /* \"#utility.yul\":3525:3545   */\n      tag_236\n        /* \"#utility.yul\":3543:3544   */\n      dup3\n        /* \"#utility.yul\":3525:3545   */\n      tag_162\n      jump\t// in\n    tag_236:\n        /* \"#utility.yul\":3520:3545   */\n      swap2\n      pop\n        /* \"#utility.yul\":3559:3579   */\n      tag_237\n        /* \"#utility.yul\":3577:3578   */\n      dup4\n        /* \"#utility.yul\":3559:3579   */\n      tag_162\n      jump\t// in\n    tag_237:\n        /* \"#utility.yul\":3554:3579   */\n      swap3\n      pop\n        /* \"#utility.yul\":3614:3615   */\n      dup3\n        /* \"#utility.yul\":3611:3612   */\n      dup3\n        /* \"#utility.yul\":3607:3616   */\n      mul\n        /* \"#utility.yul\":3636:3666   */\n      tag_238\n        /* \"#utility.yul\":3654:3665   */\n      dup2\n        /* \"#utility.yul\":3636:3666   */\n      tag_162\n      jump\t// in\n    tag_238:\n        /* \"#utility.yul\":3625:3666   */\n      swap2\n      pop\n        /* \"#utility.yul\":3815:3816   */\n      dup3\n        /* \"#utility.yul\":3806:3813   */\n      dup3\n        /* \"#utility.yul\":3802:3817   */\n      div\n        /* \"#utility.yul\":3799:3800   */\n      dup5\n        /* \"#utility.yul\":3796:3818   */\n      eq\n        /* \"#utility.yul\":3776:3777   */\n      dup4\n        /* \"#utility.yul\":3769:3778   */\n      iszero\n        /* \"#utility.yul\":3749:3832   */\n      or\n        /* \"#utility.yul\":3726:3865   */\n      tag_239\n      jumpi\n        /* \"#utility.yul\":3845:3863   */\n      tag_240\n      tag_166\n      jump\t// in\n    tag_240:\n        /* \"#utility.yul\":3726:3865   */\n    tag_239:\n        /* \"#utility.yul\":3510:3872   */\n      pop\n        /* \"#utility.yul\":3462:3872   */\n      swap3\n      swap2\n      pop\n      pop\n      jump\t// out\n        /* \"#utility.yul\":3878:4021   */\n    tag_168:\n        /* \"#utility.yul\":3935:3940   */\n      0x00\n        /* \"#utility.yul\":3966:3972   */\n      dup2\n        /* \"#utility.yul\":3960:3973   */\n      mload\n        /* \"#utility.yul\":3951:3973   */\n      swap1\n      pop\n        /* \"#utility.yul\":3982:4015   */\n      tag_242\n        /* \"#utility.yul\":4009:4014   */\n      dup2\n        /* \"#utility.yul\":3982:4015   */\n      tag_164\n      jump\t// in\n    tag_242:\n        /* \"#utility.yul\":3878:4021   */\n      swap3\n      swap2\n      pop\n      pop\n      jump\t// out\n        /* \"#utility.yul\":4027:4378   */\n    tag_62:\n        /* \"#utility.yul\":4097:4103   */\n      0x00\n        /* \"#utility.yul\":4146:4148   */\n      0x20\n        /* \"#utility.yul\":4134:4143   */\n      dup3\n        /* \"#utility.yul\":4125:4132   */\n      dup5\n        /* \"#utility.yul\":4121:4144   */\n      sub\n        /* \"#utility.yul\":4117:4149   */\n      slt\n        /* \"#utility.yul\":4114:4233   */\n      iszero\n      tag_244\n      jumpi\n        /* \"#utility.yul\":4152:4231   */\n      tag_245\n      tag_156\n      jump\t// in\n    tag_245:\n        /* \"#utility.yul\":4114:4233   */\n    tag_244:\n        /* \"#utility.yul\":4272:4273   */\n      0x00\n        /* \"#utility.yul\":4297:4361   */\n      tag_246\n        /* \"#utility.yul\":4353:4360   */\n      dup5\n        /* \"#utility.yul\":4344:4350   */\n      dup3\n        /* \"#utility.yul\":4333:4342   */\n      dup6\n        /* \"#utility.yul\":4329:4351   */\n      add\n        /* \"#utility.yul\":4297:4361   */\n      tag_168\n      jump\t// in\n    tag_246:\n        /* \"#utility.yul\":4287:4361   */\n      swap2\n      pop\n        /* \"#utility.yul\":4243:4371   */\n      pop\n        /* \"#utility.yul\":4027:4378   */\n      swap3\n      swap2\n      pop\n      pop\n      jump\t// out\n        /* \"#utility.yul\":4384:4575   */\n    tag_66:\n        /* \"#utility.yul\":4424:4427   */\n      0x00\n        /* \"#utility.yul\":4443:4463   */\n      tag_248\n        /* \"#utility.yul\":4461:4462   */\n      dup3\n        /* \"#utility.yul\":4443:4463   */\n      tag_162\n      jump\t// in\n    tag_248:\n        /* \"#utility.yul\":4438:4463   */\n      swap2\n      pop\n        /* \"#utility.yul\":4477:4497   */\n      tag_249\n        /* \"#utility.yul\":4495:4496   */\n      dup4\n        /* \"#utility.yul\":4477:4497   */\n      tag_162\n      jump\t// in\n    tag_249:\n        /* \"#utility.yul\":4472:4497   */\n      swap3\n      pop\n        /* \"#utility.yul\":4520:4521   */\n      dup3\n        /* \"#utility.yul\":4517:4518   */\n      dup3\n        /* \"#utility.yul\":4513:4522   */\n      add\n        /* \"#utility.yul\":4506:4522   */\n      swap1\n      pop\n        /* \"#utility.yul\":4541:4544   */\n      dup1\n        /* \"#utility.yul\":4538:4539   */\n      dup3\n        /* \"#utility.yul\":4535:4545   */\n      gt\n        /* \"#utility.yul\":4532:4568   */\n      iszero\n      tag_250\n      jumpi\n        /* \"#utility.yul\":4548:4566   */\n      tag_251\n      tag_166\n      jump\t// in\n    tag_251:\n        /* \"#utility.yul\":4532:4568   */\n    tag_250:\n        /* \"#utility.yul\":4384:4575   */\n      swap3\n      swap2\n      pop\n      pop\n      jump\t// out\n        /* \"#utility.yul\":4581:4913   */\n    tag_76:\n        /* \"#utility.yul\":4702:4706   */\n      0x00\n        /* \"#utility.yul\":4740:4742   */\n      0x40\n        /* \"#utility.yul\":4729:4738   */\n      dup3\n        /* \"#utility.yul\":4725:4743   */\n      add\n        /* \"#utility.yul\":4717:4743   */\n      swap1\n      pop\n        /* \"#utility.yul\":4753:4824   */\n      tag_253\n        /* \"#utility.yul\":4821:4822   */\n      0x00\n        /* \"#utility.yul\":4810:4819   */\n      dup4\n        /* \"#utility.yul\":4806:4823   */\n      add\n        /* \"#utility.yul\":4797:4803   */\n      dup6\n        /* \"#utility.yul\":4753:4824   */\n      tag_163\n      jump\t// in\n    tag_253:\n        /* \"#utility.yul\":4834:4906   */\n      tag_254\n        /* \"#utility.yul\":4902:4904   */\n      0x20\n        /* \"#utility.yul\":4891:4900   */\n      dup4\n        /* \"#utility.yul\":4887:4905   */\n      add\n        /* \"#utility.yul\":4878:4884   */\n      dup5\n        /* \"#utility.yul\":4834:4906   */\n      tag_163\n      jump\t// in\n    tag_254:\n        /* \"#utility.yul\":4581:4913   */\n      swap4\n      swap3\n      pop\n      pop\n      pop\n      jump\t// out\n        /* \"#utility.yul\":4919:5088   */\n    tag_169:\n        /* \"#utility.yul\":5003:5014   */\n      0x00\n        /* \"#utility.yul\":5037:5043   */\n      dup3\n        /* \"#utility.yul\":5032:5035   */\n      dup3\n        /* \"#utility.yul\":5025:5044   */\n      mstore\n        /* \"#utility.yul\":5077:5081   */\n      0x20\n        /* \"#utility.yul\":5072:5075   */\n      dup3\n        /* \"#utility.yul\":5068:5082   */\n      add\n        /* \"#utility.yul\":5053:5082   */\n      swap1\n      pop\n        /* \"#utility.yul\":4919:5088   */\n      swap3\n      swap2\n      pop\n      pop\n      jump\t// out\n        /* \"#utility.yul\":5094:5275   */\n    tag_170:\n        /* \"#utility.yul\":5234:5267   */\n      0x5265656e7472616e637947756172643a207265656e7472616e742063616c6c00\n        /* \"#utility.yul\":5230:5231   */\n      0x00\n        /* \"#utility.yul\":5222:5228   */\n      dup3\n        /* \"#utility.yul\":5218:5232   */\n      add\n        /* \"#utility.yul\":5211:5268   */\n      mstore\n        /* \"#utility.yul\":5094:5275   */\n      pop\n      jump\t// out\n        /* \"#utility.yul\":5281:5647   */\n    tag_171:\n        /* \"#utility.yul\":5423:5426   */\n      0x00\n        /* \"#utility.yul\":5444:5511   */\n      tag_258\n        /* \"#utility.yul\":5508:5510   */\n      0x1f\n        /* \"#utility.yul\":5503:5506   */\n      dup4\n        /* \"#utility.yul\":5444:5511   */\n      tag_169\n      jump\t// in\n    tag_258:\n        /* \"#utility.yul\":5437:5511   */\n      swap2\n      pop\n        /* \"#utility.yul\":5520:5613   */\n      tag_259\n        /* \"#utility.yul\":5609:5612   */\n      dup3\n        /* \"#utility.yul\":5520:5613   */\n      tag_170\n      jump\t// in\n    tag_259:\n        /* \"#utility.yul\":5638:5640   */\n      0x20\n        /* \"#utility.yul\":5633:5636   */\n      dup3\n        /* \"#utility.yul\":5629:5641   */\n      add\n        /* \"#utility.yul\":5622:5641   */\n      swap1\n      pop\n        /* \"#utility.yul\":5281:5647   */\n      swap2\n      swap1\n      pop\n      jump\t// out\n        /* \"#utility.yul\":5653:6072   */\n    tag_98:\n        /* \"#utility.yul\":5819:5823   */\n      0x00\n        /* \"#utility.yul\":5857:5859   */\n      0x20\n        /* \"#utility.yul\":5846:5855   */\n      dup3\n        /* \"#utility.yul\":5842:5860   */\n      add\n        /* \"#utility.yul\":5834:5860   */\n      swap1\n      pop\n        /* \"#utility.yul\":5906:5915   */\n      dup2\n        /* \"#utility.yul\":5900:5904   */\n      dup2\n        /* \"#utility.yul\":5896:5916   */\n      sub\n        /* \"#utility.yul\":5892:5893   */\n      0x00\n        /* \"#utility.yul\":5881:5890   */\n      dup4\n        /* \"#utility.yul\":5877:5894   */\n      add\n        /* \"#utility.yul\":5870:5917   */\n      mstore\n        /* \"#utility.yul\":5934:6065   */\n      tag_261\n        /* \"#utility.yul\":6060:6064   */\n      dup2\n        /* \"#utility.yul\":5934:6065   */\n      tag_171\n      jump\t// in\n    tag_261:\n        /* \"#utility.yul\":5926:6065   */\n      swap1\n      pop\n        /* \"#utility.yul\":5653:6072   */\n      swap2\n      swap1\n      pop\n      jump\t// out\n        /* \"#utility.yul\":6078:6196   */\n    tag_172:\n        /* \"#utility.yul\":6165:6189   */\n      tag_263\n        /* \"#utility.yul\":6183:6188   */\n      dup2\n        /* \"#utility.yul\":6165:6189   */\n      tag_159\n      jump\t// in\n    tag_263:\n        /* \"#utility.yul\":6160:6163   */\n      dup3\n        /* \"#utility.yul\":6153:6190   */\n      mstore\n        /* \"#utility.yul\":6078:6196   */\n      pop\n      pop\n      jump\t// out\n        /* \"#utility.yul\":6202:6644   */\n    tag_102:\n        /* \"#utility.yul\":6351:6355   */\n      0x00\n        /* \"#utility.yul\":6389:6391   */\n      0x60\n        /* \"#utility.yul\":6378:6387   */\n      dup3\n        /* \"#utility.yul\":6374:6392   */\n      add\n        /* \"#utility.yul\":6366:6392   */\n      swap1\n      pop\n        /* \"#utility.yul\":6402:6473   */\n      tag_265\n        /* \"#utility.yul\":6470:6471   */\n      0x00\n        /* \"#utility.yul\":6459:6468   */\n      dup4\n        /* \"#utility.yul\":6455:6472   */\n      add\n        /* \"#utility.yul\":6446:6452   */\n      dup7\n        /* \"#utility.yul\":6402:6473   */\n      tag_172\n      jump\t// in\n    tag_265:\n        /* \"#utility.yul\":6483:6555   */\n      tag_266\n        /* \"#utility.yul\":6551:6553   */\n      0x20\n        /* \"#utility.yul\":6540:6549   */\n      dup4\n        /* \"#utility.yul\":6536:6554   */\n      add\n        /* \"#utility.yul\":6527:6533   */\n      dup6\n        /* \"#utility.yul\":6483:6555   */\n      tag_172\n      jump\t// in\n    tag_266:\n        /* \"#utility.yul\":6565:6637   */\n      tag_267\n        /* \"#utility.yul\":6633:6635   */\n      0x40\n        /* \"#utility.yul\":6622:6631   */\n      dup4\n        /* \"#utility.yul\":6618:6636   */\n      add\n        /* \"#utility.yul\":6609:6615   */\n      dup5\n        /* \"#utility.yul\":6565:6637   */\n      tag_163\n      jump\t// in\n    tag_267:\n        /* \"#utility.yul\":6202:6644   */\n      swap5\n      swap4\n      pop\n      pop\n      pop\n      pop\n      jump\t// out\n        /* \"#utility.yul\":6650:6729   */\n    tag_173:\n        /* \"#utility.yul\":6689:6696   */\n      0x00\n        /* \"#utility.yul\":6718:6723   */\n      dup2\n        /* \"#utility.yul\":6707:6723   */\n      swap1\n      pop\n        /* \"#utility.yul\":6650:6729   */\n      swap2\n      swap1\n      pop\n      jump\t// out\n        /* \"#utility.yul\":6735:6892   */\n    tag_174:\n        /* \"#utility.yul\":6840:6885   */\n      tag_270\n        /* \"#utility.yul\":6860:6884   */\n      tag_271\n        /* \"#utility.yul\":6878:6883   */\n      dup3\n        /* \"#utility.yul\":6860:6884   */\n      tag_162\n      jump\t// in\n    tag_271:\n        /* \"#utility.yul\":6840:6885   */\n      tag_173\n      jump\t// in\n    tag_270:\n        /* \"#utility.yul\":6835:6838   */\n      dup3\n        /* \"#utility.yul\":6828:6886   */\n      mstore\n        /* \"#utility.yul\":6735:6892   */\n      pop\n      pop\n      jump\t// out\n        /* \"#utility.yul\":6898:6992   */\n    tag_175:\n        /* \"#utility.yul\":6931:6939   */\n      0x00\n        /* \"#utility.yul\":6979:6984   */\n      dup2\n        /* \"#utility.yul\":6975:6977   */\n      0x60\n        /* \"#utility.yul\":6971:6985   */\n      shl\n        /* \"#utility.yul\":6950:6985   */\n      swap1\n      pop\n        /* \"#utility.yul\":6898:6992   */\n      swap2\n      swap1\n      pop\n      jump\t// out\n        /* \"#utility.yul\":6998:7092   */\n    tag_176:\n        /* \"#utility.yul\":7037:7044   */\n      0x00\n        /* \"#utility.yul\":7066:7086   */\n      tag_274\n        /* \"#utility.yul\":7080:7085   */\n      dup3\n        /* \"#utility.yul\":7066:7086   */\n      tag_175\n      jump\t// in\n    tag_274:\n        /* \"#utility.yul\":7055:7086   */\n      swap1\n      pop\n        /* \"#utility.yul\":6998:7092   */\n      swap2\n      swap1\n      pop\n      jump\t// out\n        /* \"#utility.yul\":7098:7198   */\n    tag_177:\n        /* \"#utility.yul\":7137:7144   */\n      0x00\n        /* \"#utility.yul\":7166:7192   */\n      tag_276\n        /* \"#utility.yul\":7186:7191   */\n      dup3\n        /* \"#utility.yul\":7166:7192   */\n      tag_176\n      jump\t// in\n    tag_276:\n        /* \"#utility.yul\":7155:7192   */\n      swap1\n      pop\n        /* \"#utility.yul\":7098:7198   */\n      swap2\n      swap1\n      pop\n      jump\t// out\n        /* \"#utility.yul\":7204:7361   */\n    tag_178:\n        /* \"#utility.yul\":7309:7354   */\n      tag_278\n        /* \"#utility.yul\":7329:7353   */\n      tag_279\n        /* \"#utility.yul\":7347:7352   */\n      dup3\n        /* \"#utility.yul\":7329:7353   */\n      tag_159\n      jump\t// in\n    tag_279:\n        /* \"#utility.yul\":7309:7354   */\n      tag_177\n      jump\t// in\n    tag_278:\n        /* \"#utility.yul\":7304:7307   */\n      dup3\n        /* \"#utility.yul\":7297:7355   */\n      mstore\n        /* \"#utility.yul\":7204:7361   */\n      pop\n      pop\n      jump\t// out\n        /* \"#utility.yul\":7367:7905   */\n    tag_109:\n        /* \"#utility.yul\":7535:7538   */\n      0x00\n        /* \"#utility.yul\":7550:7625   */\n      tag_281\n        /* \"#utility.yul\":7621:7624   */\n      dup3\n        /* \"#utility.yul\":7612:7618   */\n      dup7\n        /* \"#utility.yul\":7550:7625   */\n      tag_174\n      jump\t// in\n    tag_281:\n        /* \"#utility.yul\":7650:7652   */\n      0x20\n        /* \"#utility.yul\":7645:7648   */\n      dup3\n        /* \"#utility.yul\":7641:7653   */\n      add\n        /* \"#utility.yul\":7634:7653   */\n      swap2\n      pop\n        /* \"#utility.yul\":7663:7738   */\n      tag_282\n        /* \"#utility.yul\":7734:7737   */\n      dup3\n        /* \"#utility.yul\":7725:7731   */\n      dup6\n        /* \"#utility.yul\":7663:7738   */\n      tag_178\n      jump\t// in\n    tag_282:\n        /* \"#utility.yul\":7763:7765   */\n      0x14\n        /* \"#utility.yul\":7758:7761   */\n      dup3\n        /* \"#utility.yul\":7754:7766   */\n      add\n        /* \"#utility.yul\":7747:7766   */\n      swap2\n      pop\n        /* \"#utility.yul\":7776:7851   */\n      tag_283\n        /* \"#utility.yul\":7847:7850   */\n      dup3\n        /* \"#utility.yul\":7838:7844   */\n      dup5\n        /* \"#utility.yul\":7776:7851   */\n      tag_174\n      jump\t// in\n    tag_283:\n        /* \"#utility.yul\":7876:7878   */\n      0x20\n        /* \"#utility.yul\":7871:7874   */\n      dup3\n        /* \"#utility.yul\":7867:7879   */\n      add\n        /* \"#utility.yul\":7860:7879   */\n      swap2\n      pop\n        /* \"#utility.yul\":7896:7899   */\n      dup2\n        /* \"#utility.yul\":7889:7899   */\n      swap1\n      pop\n        /* \"#utility.yul\":7367:7905   */\n      swap5\n      swap4\n      pop\n      pop\n      pop\n      pop\n      jump\t// out\n        /* \"#utility.yul\":7911:8243   */\n    tag_113:\n        /* \"#utility.yul\":8032:8036   */\n      0x00\n        /* \"#utility.yul\":8070:8072   */\n      0x40\n        /* \"#utility.yul\":8059:8068   */\n      dup3\n        /* \"#utility.yul\":8055:8073   */\n      add\n        /* \"#utility.yul\":8047:8073   */\n      swap1\n      pop\n        /* \"#utility.yul\":8083:8154   */\n      tag_285\n        /* \"#utility.yul\":8151:8152   */\n      0x00\n        /* \"#utility.yul\":8140:8149   */\n      dup4\n        /* \"#utility.yul\":8136:8153   */\n      add\n        /* \"#utility.yul\":8127:8133   */\n      dup6\n        /* \"#utility.yul\":8083:8154   */\n      tag_172\n      jump\t// in\n    tag_285:\n        /* \"#utility.yul\":8164:8236   */\n      tag_286\n        /* \"#utility.yul\":8232:8234   */\n      0x20\n        /* \"#utility.yul\":8221:8230   */\n      dup4\n        /* \"#utility.yul\":8217:8235   */\n      add\n        /* \"#utility.yul\":8208:8214   */\n      dup5\n        /* \"#utility.yul\":8164:8236   */\n      tag_163\n      jump\t// in\n    tag_286:\n        /* \"#utility.yul\":7911:8243   */\n      swap4\n      swap3\n      pop\n      pop\n      pop\n      jump\t// out\n        /* \"#utility.yul\":8249:8339   */\n    tag_179:\n        /* \"#utility.yul\":8283:8290   */\n      0x00\n        /* \"#utility.yul\":8326:8331   */\n      dup2\n        /* \"#utility.yul\":8319:8332   */\n      iszero\n        /* \"#utility.yul\":8312:8333   */\n      iszero\n        /* \"#utility.yul\":8301:8333   */\n      swap1\n      pop\n        /* \"#utility.yul\":8249:8339   */\n      swap2\n      swap1\n      pop\n      jump\t// out\n        /* \"#utility.yul\":8345:8461   */\n    tag_180:\n        /* \"#utility.yul\":8415:8436   */\n      tag_289\n        /* \"#utility.yul\":8430:8435   */\n      dup2\n        /* \"#utility.yul\":8415:8436   */\n      tag_179\n      jump\t// in\n    tag_289:\n        /* \"#utility.yul\":8408:8413   */\n      dup2\n        /* \"#utility.yul\":8405:8437   */\n      eq\n        /* \"#utility.yul\":8395:8455   */\n      tag_290\n      jumpi\n        /* \"#utility.yul\":8451:8452   */\n      0x00\n        /* \"#utility.yul\":8448:8449   */\n      0x00\n        /* \"#utility.yul\":8441:8453   */\n      revert\n        /* \"#utility.yul\":8395:8455   */\n    tag_290:\n        /* \"#utility.yul\":8345:8461   */\n      pop\n      jump\t// out\n        /* \"#utility.yul\":8467:8604   */\n    tag_181:\n        /* \"#utility.yul\":8521:8526   */\n      0x00\n        /* \"#utility.yul\":8552:8558   */\n      dup2\n        /* \"#utility.yul\":8546:8559   */\n      mload\n        /* \"#utility.yul\":8537:8559   */\n      swap1\n      pop\n        /* \"#utility.yul\":8568:8598   */\n      tag_292\n        /* \"#utility.yul\":8592:8597   */\n      dup2\n        /* \"#utility.yul\":8568:8598   */\n      tag_180\n      jump\t// in\n    tag_292:\n        /* \"#utility.yul\":8467:8604   */\n      swap3\n      swap2\n      pop\n      pop\n      jump\t// out\n        /* \"#utility.yul\":8610:8955   */\n    tag_117:\n        /* \"#utility.yul\":8677:8683   */\n      0x00\n        /* \"#utility.yul\":8726:8728   */\n      0x20\n        /* \"#utility.yul\":8714:8723   */\n      dup3\n        /* \"#utility.yul\":8705:8712   */\n      dup5\n        /* \"#utility.yul\":8701:8724   */\n      sub\n        /* \"#utility.yul\":8697:8729   */\n      slt\n        /* \"#utility.yul\":8694:8813   */\n      iszero\n      tag_294\n      jumpi\n        /* \"#utility.yul\":8732:8811   */\n      tag_295\n      tag_156\n      jump\t// in\n    tag_295:\n        /* \"#utility.yul\":8694:8813   */\n    tag_294:\n        /* \"#utility.yul\":8852:8853   */\n      0x00\n        /* \"#utility.yul\":8877:8938   */\n      tag_296\n        /* \"#utility.yul\":8930:8937   */\n      dup5\n        /* \"#utility.yul\":8921:8927   */\n      dup3\n        /* \"#utility.yul\":8910:8919   */\n      dup6\n        /* \"#utility.yul\":8906:8928   */\n      add\n        /* \"#utility.yul\":8877:8938   */\n      tag_181\n      jump\t// in\n    tag_296:\n        /* \"#utility.yul\":8867:8938   */\n      swap2\n      pop\n        /* \"#utility.yul\":8823:8948   */\n      pop\n        /* \"#utility.yul\":8610:8955   */\n      swap3\n      swap2\n      pop\n      pop\n      jump\t// out\n        /* \"#utility.yul\":8961:9514   */\n    tag_125:\n        /* \"#utility.yul\":9138:9142   */\n      0x00\n        /* \"#utility.yul\":9176:9179   */\n      0x80\n        /* \"#utility.yul\":9165:9174   */\n      dup3\n        /* \"#utility.yul\":9161:9180   */\n      add\n        /* \"#utility.yul\":9153:9180   */\n      swap1\n      pop\n        /* \"#utility.yul\":9190:9261   */\n      tag_298\n        /* \"#utility.yul\":9258:9259   */\n      0x00\n        /* \"#utility.yul\":9247:9256   */\n      dup4\n        /* \"#utility.yul\":9243:9260   */\n      add\n        /* \"#utility.yul\":9234:9240   */\n      dup8\n        /* \"#utility.yul\":9190:9261   */\n      tag_163\n      jump\t// in\n    tag_298:\n        /* \"#utility.yul\":9271:9343   */\n      tag_299\n        /* \"#utility.yul\":9339:9341   */\n      0x20\n        /* \"#utility.yul\":9328:9337   */\n      dup4\n        /* \"#utility.yul\":9324:9342   */\n      add\n        /* \"#utility.yul\":9315:9321   */\n      dup7\n        /* \"#utility.yul\":9271:9343   */\n      tag_163\n      jump\t// in\n    tag_299:\n        /* \"#utility.yul\":9353:9425   */\n      tag_300\n        /* \"#utility.yul\":9421:9423   */\n      0x40\n        /* \"#utility.yul\":9410:9419   */\n      dup4\n        /* \"#utility.yul\":9406:9424   */\n      add\n        /* \"#utility.yul\":9397:9403   */\n      dup6\n        /* \"#utility.yul\":9353:9425   */\n      tag_172\n      jump\t// in\n    tag_300:\n        /* \"#utility.yul\":9435:9507   */\n      tag_301\n        /* \"#utility.yul\":9503:9505   */\n      0x60\n        /* \"#utility.yul\":9492:9501   */\n      dup4\n        /* \"#utility.yul\":9488:9506   */\n      add\n        /* \"#utility.yul\":9479:9485   */\n      dup5\n        /* \"#utility.yul\":9435:9507   */\n      tag_163\n      jump\t// in\n    tag_301:\n        /* \"#utility.yul\":8961:9514   */\n      swap6\n      swap5\n      pop\n      pop\n      pop\n      pop\n      pop\n      jump\t// out\n        /* \"#utility.yul\":9520:9597   */\n    tag_182:\n        /* \"#utility.yul\":9557:9564   */\n      0x00\n        /* \"#utility.yul\":9586:9591   */\n      dup2\n        /* \"#utility.yul\":9575:9591   */\n      swap1\n      pop\n        /* \"#utility.yul\":9520:9597   */\n      swap2\n      swap1\n      pop\n      jump\t// out\n        /* \"#utility.yul\":9603:9721   */\n    tag_183:\n        /* \"#utility.yul\":9690:9714   */\n      tag_304\n        /* \"#utility.yul\":9708:9713   */\n      dup2\n        /* \"#utility.yul\":9690:9714   */\n      tag_182\n      jump\t// in\n    tag_304:\n        /* \"#utility.yul\":9685:9688   */\n      dup3\n        /* \"#utility.yul\":9678:9715   */\n      mstore\n        /* \"#utility.yul\":9603:9721   */\n      pop\n      pop\n      jump\t// out\n        /* \"#utility.yul\":9727:9949   */\n    tag_132:\n        /* \"#utility.yul\":9820:9824   */\n      0x00\n        /* \"#utility.yul\":9858:9860   */\n      0x20\n        /* \"#utility.yul\":9847:9856   */\n      dup3\n        /* \"#utility.yul\":9843:9861   */\n      add\n        /* \"#utility.yul\":9835:9861   */\n      swap1\n      pop\n        /* \"#utility.yul\":9871:9942   */\n      tag_306\n        /* \"#utility.yul\":9939:9940   */\n      0x00\n        /* \"#utility.yul\":9928:9937   */\n      dup4\n        /* \"#utility.yul\":9924:9941   */\n      add\n        /* \"#utility.yul\":9915:9921   */\n      dup5\n        /* \"#utility.yul\":9871:9942   */\n      tag_183\n      jump\t// in\n    tag_306:\n        /* \"#utility.yul\":9727:9949   */\n      swap3\n      swap2\n      pop\n      pop\n      jump\t// out\n        /* \"#utility.yul\":9955:10040   */\n    tag_184:\n        /* \"#utility.yul\":10000:10007   */\n      0x00\n        /* \"#utility.yul\":10029:10034   */\n      dup2\n        /* \"#utility.yul\":10018:10034   */\n      swap1\n      pop\n        /* \"#utility.yul\":9955:10040   */\n      swap2\n      swap1\n      pop\n      jump\t// out\n        /* \"#utility.yul\":10046:10106   */\n    tag_185:\n        /* \"#utility.yul\":10074:10077   */\n      0x00\n        /* \"#utility.yul\":10095:10100   */\n      dup2\n        /* \"#utility.yul\":10088:10100   */\n      swap1\n      pop\n        /* \"#utility.yul\":10046:10106   */\n      swap2\n      swap1\n      pop\n      jump\t// out\n        /* \"#utility.yul\":10112:10270   */\n    tag_186:\n        /* \"#utility.yul\":10170:10179   */\n      0x00\n        /* \"#utility.yul\":10203:10264   */\n      tag_310\n        /* \"#utility.yul\":10221:10263   */\n      tag_311\n        /* \"#utility.yul\":10230:10262   */\n      tag_312\n        /* \"#utility.yul\":10256:10261   */\n      dup5\n        /* \"#utility.yul\":10230:10262   */\n      tag_184\n      jump\t// in\n    tag_312:\n        /* \"#utility.yul\":10221:10263   */\n      tag_185\n      jump\t// in\n    tag_311:\n        /* \"#utility.yul\":10203:10264   */\n      tag_162\n      jump\t// in\n    tag_310:\n        /* \"#utility.yul\":10190:10264   */\n      swap1\n      pop\n        /* \"#utility.yul\":10112:10270   */\n      swap2\n      swap1\n      pop\n      jump\t// out\n        /* \"#utility.yul\":10276:10423   */\n    tag_187:\n        /* \"#utility.yul\":10371:10416   */\n      tag_314\n        /* \"#utility.yul\":10410:10415   */\n      dup2\n        /* \"#utility.yul\":10371:10416   */\n      tag_186\n      jump\t// in\n    tag_314:\n        /* \"#utility.yul\":10366:10369   */\n      dup3\n        /* \"#utility.yul\":10359:10417   */\n      mstore\n        /* \"#utility.yul\":10276:10423   */\n      pop\n      pop\n      jump\t// out\n        /* \"#utility.yul\":10429:10777   */\n    tag_143:\n        /* \"#utility.yul\":10558:10562   */\n      0x00\n        /* \"#utility.yul\":10596:10598   */\n      0x40\n        /* \"#utility.yul\":10585:10594   */\n      dup3\n        /* \"#utility.yul\":10581:10599   */\n      add\n        /* \"#utility.yul\":10573:10599   */\n      swap1\n      pop\n        /* \"#utility.yul\":10609:10680   */\n      tag_316\n        /* \"#utility.yul\":10677:10678   */\n      0x00\n        /* \"#utility.yul\":10666:10675   */\n      dup4\n        /* \"#utility.yul\":10662:10679   */\n      add\n        /* \"#utility.yul\":10653:10659   */\n      dup6\n        /* \"#utility.yul\":10609:10680   */\n      tag_172\n      jump\t// in\n    tag_316:\n        /* \"#utility.yul\":10690:10770   */\n      tag_317\n        /* \"#utility.yul\":10766:10768   */\n      0x20\n        /* \"#utility.yul\":10755:10764   */\n      dup4\n        /* \"#utility.yul\":10751:10769   */\n      add\n        /* \"#utility.yul\":10742:10748   */\n      dup5\n        /* \"#utility.yul\":10690:10770   */\n      tag_187\n      jump\t// in\n    tag_317:\n        /* \"#utility.yul\":10429:10777   */\n      swap4\n      swap3\n      pop\n      pop\n      pop\n      jump\t// out\n        /* \"#utility.yul\":10783:11005   */\n    tag_154:\n        /* \"#utility.yul\":10876:10880   */\n      0x00\n        /* \"#utility.yul\":10914:10916   */\n      0x20\n        /* \"#utility.yul\":10903:10912   */\n      dup3\n        /* \"#utility.yul\":10899:10917   */\n      add\n        /* \"#utility.yul\":10891:10917   */\n      swap1\n      pop\n        /* \"#utility.yul\":10927:10998   */\n      tag_319\n        /* \"#utility.yul\":10995:10996   */\n      0x00\n        /* \"#utility.yul\":10984:10993   */\n      dup4\n        /* \"#utility.yul\":10980:10997   */\n      add\n        /* \"#utility.yul\":10971:10977   */\n      dup5\n        /* \"#utility.yul\":10927:10998   */\n      tag_172\n      jump\t// in\n    tag_319:\n        /* \"#utility.yul\":10783:11005   */\n      swap3\n      swap2\n      pop\n      pop\n      jump\t// out\n\n    auxdata: 0xa2646970667358221220cb55f1d24912f2016ba5d0110ea184981837ca77f572895fdb7028c4e11a777664736f6c634300081d0033\n}\n",
				"bytecode": {
					"linkReferences": {},
					"object": "6080604052348015600e575f5ffd5b5060015f81905550611a21806100235f395ff3fe608060405234801561000f575f5ffd5b5060043610610055575f3560e01c8063402d267d146100595780636e553f651461008957806394dddda1146100b9578063c6e6f592146100c3578063ef8b30f7146100f3575b5f5ffd5b610073600480360381019061006e919061148b565b610123565b60405161008091906114ce565b60405180910390f35b6100a3600480360381019061009e9190611511565b6101a0565b6040516100b091906114ce565b60405180910390f35b6100c1610861565b005b6100dd60048036038101906100d8919061154f565b610938565b6040516100ea91906114ce565b60405180910390f35b61010d6004803603810190610108919061154f565b61098f565b60405161011a91906114ce565b60405180910390f35b5f5f61012d6109d9565b90505f816010015f8573ffffffffffffffffffffffffffffffffffffffff1673ffffffffffffffffffffffffffffffffffffffff1681526020019081526020015f20549050640129f6afc08110156101955780640129f6afc061019091906115a7565b610197565b5f5b92505050919050565b5f6101a9610a05565b5f6101b26109d9565b90505f84036101ed576040517f1f2a200500000000000000000000000000000000000000000000000000000000815260040160405180910390fd5b8060090160159054906101000a900460ff1615610236576040517fdeeb694300000000000000000000000000000000000000000000000000000000815260040160405180910390fd5b6305f5e100841015610274576040517f20d01f0600000000000000000000000000000000000000000000000000000000815260040160405180910390fd5b8060090160149054906101000a900460ff16156102bd576040517ff443ecad00000000000000000000000000000000000000000000000000000000815260040160405180910390fd5b5f6102c78561098f565b90505f8103610302576040517f77f43aca00000000000000000000000000000000000000000000000000000000815260040160405180910390fd5b600a82600101546103139190611607565b85111561041f575f826018015f3373ffffffffffffffffffffffffffffffffffffffff1673ffffffffffffffffffffffffffffffffffffffff1681526020019081526020015f205414806103a55750816018015f3373ffffffffffffffffffffffffffffffffffffffff1673ffffffffffffffffffffffffffffffffffffffff1681526020019081526020015f205442105b156103dc576040517f23e4dc4300000000000000000000000000000000000000000000000000000000815260040160405180910390fd5b816018015f3373ffffffffffffffffffffffffffffffffffffffff1673ffffffffffffffffffffffffffffffffffffffff1681526020019081526020015f205f90555b816014015f8573ffffffffffffffffffffffffffffffffffffffff1673ffffffffffffffffffffffffffffffffffffffff1681526020019081526020015f205f9054906101000a900460ff166105295781600e0184908060018154018082558091505060019003905f5260205f20015f9091909190916101000a81548173ffffffffffffffffffffffffffffffffffffffff021916908373ffffffffffffffffffffffffffffffffffffffff1602179055506001826014015f8673ffffffffffffffffffffffffffffffffffffffff1673ffffffffffffffffffffffffffffffffffffffff1681526020019081526020015f205f6101000a81548160ff0219169083151502179055505b5f60646028876105399190611637565b6105439190611607565b90505f836005015f9054906101000a900473ffffffffffffffffffffffffffffffffffffffff1673ffffffffffffffffffffffffffffffffffffffff1663cd192db5836040518263ffffffff1660e01b81526004016105a291906114ce565b602060405180830381865afa1580156105bd573d5f5f3e3d5ffd5b505050506040513d601f19601f820116820180604052508101906105e1919061168c565b90505f60646063836105f39190611637565b6105fd9190611607565b905087856010015f8973ffffffffffffffffffffffffffffffffffffffff1673ffffffffffffffffffffffffffffffffffffffff1681526020019081526020015f205f82825461064d91906116b7565b925050819055508385600f015f8973ffffffffffffffffffffffffffffffffffffffff1673ffffffffffffffffffffffffffffffffffffffff1681526020019081526020015f205f8282546106a291906116b7565b9250508190555087856001015f8282546106bc91906116b7565b9250508190555083856002015f8282546106d691906116b7565b9250508190555042856011015f8973ffffffffffffffffffffffffffffffffffffffff1673ffffffffffffffffffffffffffffffffffffffff1681526020019081526020015f208190555061077133308a886004015f9054906101000a900473ffffffffffffffffffffffffffffffffffffffff1673ffffffffffffffffffffffffffffffffffffffff16610a52909392919063ffffffff16565b5f83111561078657610784818885610ad4565b505b8673ffffffffffffffffffffffffffffffffffffffff163373ffffffffffffffffffffffffffffffffffffffff167fdcbc1c05240f31ff3ad067ef1ee35ce4997762752e3a095284754544f4c709d78a876040516107e59291906116ea565b60405180910390a38673ffffffffffffffffffffffffffffffffffffffff167fca8f7b7916f133917db8d4b2e3566194ad8a65ad8eda78f72f5b9872c059227b8462278d004261083591906116b7565b6040516108439291906116ea565b60405180910390a2839550505050505061085b611389565b92915050565b5f61086a6109d9565b90505f816018015f3373ffffffffffffffffffffffffffffffffffffffff1673ffffffffffffffffffffffffffffffffffffffff1681526020019081526020015f2054146108e4576040517f1297a3a700000000000000000000000000000000000000000000000000000000815260040160405180910390fd5b610e10426108f291906116b7565b816018015f3373ffffffffffffffffffffffffffffffffffffffff1673ffffffffffffffffffffffffffffffffffffffff1681526020019081526020015f208190555050565b5f5f6109426109d9565b90505f8160010154148061095957505f8160020154145b15610967578291505061098a565b806001015481600201548461097c9190611637565b6109869190611607565b9150505b919050565b5f5f82036109c9576040517f1f2a200500000000000000000000000000000000000000000000000000000000815260040160405180910390fd5b6109d282610938565b9050919050565b5f5f7f5d15b553c07be9b4a8cf4265c997d4479f22e1843183fa58504508c561fb9d5090508091505090565b60025f5403610a49576040517f08c379a0000000000000000000000000000000000000000000000000000000008152600401610a409061176b565b60405180910390fd5b60025f81905550565b610ace848573ffffffffffffffffffffffffffffffffffffffff166323b872dd868686604051602401610a8793929190611798565b604051602081830303815290604052915060e01b6020820180517bffffffffffffffffffffffffffffffffffffffffffffffffffffffff8381831617835250505050611392565b50505050565b5f5f610ade6109d9565b90505f73ffffffffffffffffffffffffffffffffffffffff16816005015f9054906101000a900473ffffffffffffffffffffffffffffffffffffffff1673ffffffffffffffffffffffffffffffffffffffff1603610b68576040517f567e930e00000000000000000000000000000000000000000000000000000000815260040160405180910390fd5b5f8303610ba1576040517fc2f5625a00000000000000000000000000000000000000000000000000000000815260040160405180910390fd5b5f428585604051602001610bb793929190611832565b60405160208183030381529060405280519060200120905083826003015f828254610be291906116b7565b9250508190555083826012015f8773ffffffffffffffffffffffffffffffffffffffff1673ffffffffffffffffffffffffffffffffffffffff1681526020019081526020015f205f828254610c3791906116b7565b925050819055505f826004015f9054906101000a900473ffffffffffffffffffffffffffffffffffffffff1690505f8173ffffffffffffffffffffffffffffffffffffffff1663095ea7b3856005015f9054906101000a900473ffffffffffffffffffffffffffffffffffffffff16886040518363ffffffff1660e01b8152600401610cc492919061186e565b6020604051808303815f875af1158015610ce0573d5f5f3e3d5ffd5b505050506040513d601f19601f82011682018060405250810190610d0491906118ca565b905080610d3d576040517f8a2133b500000000000000000000000000000000000000000000000000000000815260040160405180910390fd5b5f61012c42610d4c91906116b7565b90508273ffffffffffffffffffffffffffffffffffffffff166323b872dd30876005015f9054906101000a900473ffffffffffffffffffffffffffffffffffffffff168a6040518463ffffffff1660e01b8152600401610dae93929190611798565b6020604051808303815f875af1158015610dca573d5f5f3e3d5ffd5b505050506040513d601f19601f82011682018060405250810190610dee91906118ca565b505f856005015f9054906101000a900473ffffffffffffffffffffffffffffffffffffffff1673ffffffffffffffffffffffffffffffffffffffff166364898d23898c896008015f9054906101000a900473ffffffffffffffffffffffffffffffffffffffff16866040518563ffffffff1660e01b8152600401610e7594939291906118f5565b6020604051808303815f875af1158015610e91573d5f5f3e3d5ffd5b505050506040513d601f19601f82011682018060405250810190610eb5919061168c565b90505f8103610ef0576040517fa9ffdc9600000000000000000000000000000000000000000000000000000000815260040160405180910390fd5b80866019015f8b73ffffffffffffffffffffffffffffffffffffffff1673ffffffffffffffffffffffffffffffffffffffff1681526020019081526020015f208190555085601a015f8681526020019081526020015f2089908060018154018082558091505060019003905f5260205f20015f9091909190916101000a81548173ffffffffffffffffffffffffffffffffffffffff021916908373ffffffffffffffffffffffffffffffffffffffff1602179055505f866008015f9054906101000a900473ffffffffffffffffffffffffffffffffffffffff1673ffffffffffffffffffffffffffffffffffffffff16633641bd025f886040518363ffffffff1660e01b81526004016110039190611950565b60206040518083038185885af115801561101f573d5f5f3e3d5ffd5b50505050506040513d601f19601f82011682018060405250810190611044919061168c565b905086601b015f8781526020019081526020015f205f9054906101000a900460ff161561109d576040517fe2b1f19400000000000000000000000000000000000000000000000000000000815260040160405180910390fd5b600187601b015f8881526020019081526020015f205f6101000a81548160ff0219169083151502179055505f81905080886015015f8d73ffffffffffffffffffffffffffffffffffffffff1673ffffffffffffffffffffffffffffffffffffffff1681526020019081526020015f205f82825461111a91906116b7565b9250508190555087601d015f8c73ffffffffffffffffffffffffffffffffffffffff1673ffffffffffffffffffffffffffffffffffffffff1681526020019081526020015f2060405180608001604052808c81526020014281526020018381526020015f1515815250908060018154018082558091505060019003905f5260205f2090600402015f909190919091505f820151815f015560208201518160010155604082015181600201556060820151816003015f6101000a81548160ff02191690831515021790555050505f886019015f8d73ffffffffffffffffffffffffffffffffffffffff1673ffffffffffffffffffffffffffffffffffffffff1681526020019081526020015f20819055508a73ffffffffffffffffffffffffffffffffffffffff167f447dbdbfde1cf015fc6f055a0c7a32d270f68eaf5f9ae394c3d3963a1bbc0a758b62278d004261127291906116b7565b6040516112809291906116ea565b60405180910390a28a73ffffffffffffffffffffffffffffffffffffffff167f923a5113d2791c84f9eeefac7ed7e03aaf0525bcc930d31be60bd241a5133dcc8b846040516112d09291906116ea565b60405180910390a28573ffffffffffffffffffffffffffffffffffffffff1663095ea7b3896005015f9054906101000a900473ffffffffffffffffffffffffffffffffffffffff165f6040518363ffffffff1660e01b81526004016113369291906119ab565b6020604051808303815f875af1158015611352573d5f5f3e3d5ffd5b505050506040513d601f19601f8201168201806040525081019061137691906118ca565b5080985050505050505050509392505050565b60015f81905550565b5f5f60205f8451602086015f885af1806113b1576040513d5f823e3d81fd5b3d92505f519150505f82146113ca5760018114156113e5565b5f8473ffffffffffffffffffffffffffffffffffffffff163b145b1561142757836040517f5274afe700000000000000000000000000000000000000000000000000000000815260040161141e91906119d2565b60405180910390fd5b50505050565b5f5ffd5b5f73ffffffffffffffffffffffffffffffffffffffff82169050919050565b5f61145a82611431565b9050919050565b61146a81611450565b8114611474575f5ffd5b50565b5f8135905061148581611461565b92915050565b5f602082840312156114a05761149f61142d565b5b5f6114ad84828501611477565b91505092915050565b5f819050919050565b6114c8816114b6565b82525050565b5f6020820190506114e15f8301846114bf565b92915050565b6114f0816114b6565b81146114fa575f5ffd5b50565b5f8135905061150b816114e7565b92915050565b5f5f604083850312156115275761152661142d565b5b5f611534858286016114fd565b925050602061154585828601611477565b9150509250929050565b5f602082840312156115645761156361142d565b5b5f611571848285016114fd565b91505092915050565b7f4e487b71000000000000000000000000000000000000000000000000000000005f52601160045260245ffd5b5f6115b1826114b6565b91506115bc836114b6565b92508282039050818111156115d4576115d361157a565b5b92915050565b7f4e487b71000000000000000000000000000000000000000000000000000000005f52601260045260245ffd5b5f611611826114b6565b915061161c836114b6565b92508261162c5761162b6115da565b5b828204905092915050565b5f611641826114b6565b915061164c836114b6565b925082820261165a816114b6565b915082820484148315176116715761167061157a565b5b5092915050565b5f81519050611686816114e7565b92915050565b5f602082840312156116a1576116a061142d565b5b5f6116ae84828501611678565b91505092915050565b5f6116c1826114b6565b91506116cc836114b6565b92508282019050808211156116e4576116e361157a565b5b92915050565b5f6040820190506116fd5f8301856114bf565b61170a60208301846114bf565b9392505050565b5f82825260208201905092915050565b7f5265656e7472616e637947756172643a207265656e7472616e742063616c6c005f82015250565b5f611755601f83611711565b915061176082611721565b602082019050919050565b5f6020820190508181035f83015261178281611749565b9050919050565b61179281611450565b82525050565b5f6060820190506117ab5f830186611789565b6117b86020830185611789565b6117c560408301846114bf565b949350505050565b5f819050919050565b6117e76117e2826114b6565b6117cd565b82525050565b5f8160601b9050919050565b5f611803826117ed565b9050919050565b5f611814826117f9565b9050919050565b61182c61182782611450565b61180a565b82525050565b5f61183d82866117d6565b60208201915061184d828561181b565b60148201915061185d82846117d6565b602082019150819050949350505050565b5f6040820190506118815f830185611789565b61188e60208301846114bf565b9392505050565b5f8115159050919050565b6118a981611895565b81146118b3575f5ffd5b50565b5f815190506118c4816118a0565b92915050565b5f602082840312156118df576118de61142d565b5b5f6118ec848285016118b6565b91505092915050565b5f6080820190506119085f8301876114bf565b61191560208301866114bf565b6119226040830185611789565b61192f60608301846114bf565b95945050505050565b5f819050919050565b61194a81611938565b82525050565b5f6020820190506119635f830184611941565b92915050565b5f819050919050565b5f819050919050565b5f61199561199061198b84611969565b611972565b6114b6565b9050919050565b6119a58161197b565b82525050565b5f6040820190506119be5f830185611789565b6119cb602083018461199c565b9392505050565b5f6020820190506119e55f830184611789565b9291505056fea2646970667358221220cb55f1d24912f2016ba5d0110ea184981837ca77f572895fdb7028c4e11a777664736f6c634300081d0033",
					"opcodes": "PUSH1 0x80 PUSH1 0x40 MSTORE CALLVALUE DUP1 ISZERO PUSH1 0xE JUMPI PUSH0 PUSH0 REVERT JUMPDEST POP PUSH1 0x1 PUSH0 DUP2 SWAP1 SSTORE POP PUSH2 0x1A21 DUP1 PUSH2 0x23 PUSH0 CODECOPY PUSH0 RETURN INVALID PUSH1 0x80 PUSH1 0x40 MSTORE CALLVALUE DUP1 ISZERO PUSH2 0xF JUMPI PUSH0 PUSH0 REVERT JUMPDEST POP PUSH1 0x4 CALLDATASIZE LT PUSH2 0x55 JUMPI PUSH0 CALLDATALOAD PUSH1 0xE0 SHR DUP1 PUSH4 0x402D267D EQ PUSH2 0x59 JUMPI DUP1 PUSH4 0x6E553F65 EQ PUSH2 0x89 JUMPI DUP1 PUSH4 0x94DDDDA1 EQ PUSH2 0xB9 JUMPI DUP1 PUSH4 0xC6E6F592 EQ PUSH2 0xC3 JUMPI DUP1 PUSH4 0xEF8B30F7 EQ PUSH2 0xF3 JUMPI JUMPDEST PUSH0 PUSH0 REVERT JUMPDEST PUSH2 0x73 PUSH1 0x4 DUP1 CALLDATASIZE SUB DUP2 ADD SWAP1 PUSH2 0x6E SWAP2 SWAP1 PUSH2 0x148B JUMP JUMPDEST PUSH2 0x123 JUMP JUMPDEST PUSH1 0x40 MLOAD PUSH2 0x80 SWAP2 SWAP1 PUSH2 0x14CE JUMP JUMPDEST PUSH1 0x40 MLOAD DUP1 SWAP2 SUB SWAP1 RETURN JUMPDEST PUSH2 0xA3 PUSH1 0x4 DUP1 CALLDATASIZE SUB DUP2 ADD SWAP1 PUSH2 0x9E SWAP2 SWAP1 PUSH2 0x1511 JUMP JUMPDEST PUSH2 0x1A0 JUMP JUMPDEST PUSH1 0x40 MLOAD PUSH2 0xB0 SWAP2 SWAP1 PUSH2 0x14CE JUMP JUMPDEST PUSH1 0x40 MLOAD DUP1 SWAP2 SUB SWAP1 RETURN JUMPDEST PUSH2 0xC1 PUSH2 0x861 JUMP JUMPDEST STOP JUMPDEST PUSH2 0xDD PUSH1 0x4 DUP1 CALLDATASIZE SUB DUP2 ADD SWAP1 PUSH2 0xD8 SWAP2 SWAP1 PUSH2 0x154F JUMP JUMPDEST PUSH2 0x938 JUMP JUMPDEST PUSH1 0x40 MLOAD PUSH2 0xEA SWAP2 SWAP1 PUSH2 0x14CE JUMP JUMPDEST PUSH1 0x40 MLOAD DUP1 SWAP2 SUB SWAP1 RETURN JUMPDEST PUSH2 0x10D PUSH1 0x4 DUP1 CALLDATASIZE SUB DUP2 ADD SWAP1 PUSH2 0x108 SWAP2 SWAP1 PUSH2 0x154F JUMP JUMPDEST PUSH2 0x98F JUMP JUMPDEST PUSH1 0x40 MLOAD PUSH2 0x11A SWAP2 SWAP1 PUSH2 0x14CE JUMP JUMPDEST PUSH1 0x40 MLOAD DUP1 SWAP2 SUB SWAP1 RETURN JUMPDEST PUSH0 PUSH0 PUSH2 0x12D PUSH2 0x9D9 JUMP JUMPDEST SWAP1 POP PUSH0 DUP2 PUSH1 0x10 ADD PUSH0 DUP6 PUSH20 0xFFFFFFFFFFFFFFFFFFFFFFFFFFFFFFFFFFFFFFFF AND PUSH20 0xFFFFFFFFFFFFFFFFFFFFFFFFFFFFFFFFFFFFFFFF AND DUP2 MSTORE PUSH1 0x20 ADD SWAP1 DUP2 MSTORE PUSH1 0x20 ADD PUSH0 KECCAK256 SLOAD SWAP1 POP PUSH5 0x129F6AFC0 DUP2 LT ISZERO PUSH2 0x195 JUMPI DUP1 PUSH5 0x129F6AFC0 PUSH2 0x190 SWAP2 SWAP1 PUSH2 0x15A7 JUMP JUMPDEST PUSH2 0x197 JUMP JUMPDEST PUSH0 JUMPDEST SWAP3 POP POP POP SWAP2 SWAP1 POP JUMP JUMPDEST PUSH0 PUSH2 0x1A9 PUSH2 0xA05 JUMP JUMPDEST PUSH0 PUSH2 0x1B2 PUSH2 0x9D9 JUMP JUMPDEST SWAP1 POP PUSH0 DUP5 SUB PUSH2 0x1ED JUMPI PUSH1 0x40 MLOAD PUSH32 0x1F2A200500000000000000000000000000000000000000000000000000000000 DUP2 MSTORE PUSH1 0x4 ADD PUSH1 0x40 MLOAD DUP1 SWAP2 SUB SWAP1 REVERT JUMPDEST DUP1 PUSH1 0x9 ADD PUSH1 0x15 SWAP1 SLOAD SWAP1 PUSH2 0x100 EXP SWAP1 DIV PUSH1 0xFF AND ISZERO PUSH2 0x236 JUMPI PUSH1 0x40 MLOAD PUSH32 0xDEEB694300000000000000000000000000000000000000000000000000000000 DUP2 MSTORE PUSH1 0x4 ADD PUSH1 0x40 MLOAD DUP1 SWAP2 SUB SWAP1 REVERT JUMPDEST PUSH4 0x5F5E100 DUP5 LT ISZERO PUSH2 0x274 JUMPI PUSH1 0x40 MLOAD PUSH32 0x20D01F0600000000000000000000000000000000000000000000000000000000 DUP2 MSTORE PUSH1 0x4 ADD PUSH1 0x40 MLOAD DUP1 SWAP2 SUB SWAP1 REVERT JUMPDEST DUP1 PUSH1 0x9 ADD PUSH1 0x14 SWAP1 SLOAD SWAP1 PUSH2 0x100 EXP SWAP1 DIV PUSH1 0xFF AND ISZERO PUSH2 0x2BD JUMPI PUSH1 0x40 MLOAD PUSH32 0xF443ECAD00000000000000000000000000000000000000000000000000000000 DUP2 MSTORE PUSH1 0x4 ADD PUSH1 0x40 MLOAD DUP1 SWAP2 SUB SWAP1 REVERT JUMPDEST PUSH0 PUSH2 0x2C7 DUP6 PUSH2 0x98F JUMP JUMPDEST SWAP1 POP PUSH0 DUP2 SUB PUSH2 0x302 JUMPI PUSH1 0x40 MLOAD PUSH32 0x77F43ACA00000000000000000000000000000000000000000000000000000000 DUP2 MSTORE PUSH1 0x4 ADD PUSH1 0x40 MLOAD DUP1 SWAP2 SUB SWAP1 REVERT JUMPDEST PUSH1 0xA DUP3 PUSH1 0x1 ADD SLOAD PUSH2 0x313 SWAP2 SWAP1 PUSH2 0x1607 JUMP JUMPDEST DUP6 GT ISZERO PUSH2 0x41F JUMPI PUSH0 DUP3 PUSH1 0x18 ADD PUSH0 CALLER PUSH20 0xFFFFFFFFFFFFFFFFFFFFFFFFFFFFFFFFFFFFFFFF AND PUSH20 0xFFFFFFFFFFFFFFFFFFFFFFFFFFFFFFFFFFFFFFFF AND DUP2 MSTORE PUSH1 0x20 ADD SWAP1 DUP2 MSTORE PUSH1 0x20 ADD PUSH0 KECCAK256 SLOAD EQ DUP1 PUSH2 0x3A5 JUMPI POP DUP2 PUSH1 0x18 ADD PUSH0 CALLER PUSH20 0xFFFFFFFFFFFFFFFFFFFFFFFFFFFFFFFFFFFFFFFF AND PUSH20 0xFFFFFFFFFFFFFFFFFFFFFFFFFFFFFFFFFFFFFFFF AND DUP2 MSTORE PUSH1 0x20 ADD SWAP1 DUP2 MSTORE PUSH1 0x20 ADD PUSH0 KECCAK256 SLOAD TIMESTAMP LT JUMPDEST ISZERO PUSH2 0x3DC JUMPI PUSH1 0x40 MLOAD PUSH32 0x23E4DC4300000000000000000000000000000000000000000000000000000000 DUP2 MSTORE PUSH1 0x4 ADD PUSH1 0x40 MLOAD DUP1 SWAP2 SUB SWAP1 REVERT JUMPDEST DUP2 PUSH1 0x18 ADD PUSH0 CALLER PUSH20 0xFFFFFFFFFFFFFFFFFFFFFFFFFFFFFFFFFFFFFFFF AND PUSH20 0xFFFFFFFFFFFFFFFFFFFFFFFFFFFFFFFFFFFFFFFF AND DUP2 MSTORE PUSH1 0x20 ADD SWAP1 DUP2 MSTORE PUSH1 0x20 ADD PUSH0 KECCAK256 PUSH0 SWAP1 SSTORE JUMPDEST DUP2 PUSH1 0x14 ADD PUSH0 DUP6 PUSH20 0xFFFFFFFFFFFFFFFFFFFFFFFFFFFFFFFFFFFFFFFF AND PUSH20 0xFFFFFFFFFFFFFFFFFFFFFFFFFFFFFFFFFFFFFFFF AND DUP2 MSTORE PUSH1 0x20 ADD SWAP1 DUP2 MSTORE PUSH1 0x20 ADD PUSH0 KECCAK256 PUSH0 SWAP1 SLOAD SWAP1 PUSH2 0x100 EXP SWAP1 DIV PUSH1 0xFF AND PUSH2 0x529 JUMPI DUP2 PUSH1 0xE ADD DUP5 SWAP1 DUP1 PUSH1 0x1 DUP2 SLOAD ADD DUP1 DUP3 SSTORE DUP1 SWAP2 POP POP PUSH1 0x1 SWAP1 SUB SWAP1 PUSH0 MSTORE PUSH1 0x20 PUSH0 KECCAK256 ADD PUSH0 SWAP1 SWAP2 SWAP1 SWAP2 SWAP1 SWAP2 PUSH2 0x100 EXP DUP2 SLOAD DUP2 PUSH20 0xFFFFFFFFFFFFFFFFFFFFFFFFFFFFFFFFFFFFFFFF MUL NOT AND SWAP1 DUP4 PUSH20 0xFFFFFFFFFFFFFFFFFFFFFFFFFFFFFFFFFFFFFFFF AND MUL OR SWAP1 SSTORE POP PUSH1 0x1 DUP3 PUSH1 0x14 ADD PUSH0 DUP7 PUSH20 0xFFFFFFFFFFFFFFFFFFFFFFFFFFFFFFFFFFFFFFFF AND PUSH20 0xFFFFFFFFFFFFFFFFFFFFFFFFFFFFFFFFFFFFFFFF AND DUP2 MSTORE PUSH1 0x20 ADD SWAP1 DUP2 MSTORE PUSH1 0x20 ADD PUSH0 KECCAK256 PUSH0 PUSH2 0x100 EXP DUP2 SLOAD DUP2 PUSH1 0xFF MUL NOT AND SWAP1 DUP4 ISZERO ISZERO MUL OR SWAP1 SSTORE POP JUMPDEST PUSH0 PUSH1 0x64 PUSH1 0x28 DUP8 PUSH2 0x539 SWAP2 SWAP1 PUSH2 0x1637 JUMP JUMPDEST PUSH2 0x543 SWAP2 SWAP1 PUSH2 0x1607 JUMP JUMPDEST SWAP1 POP PUSH0 DUP4 PUSH1 0x5 ADD PUSH0 SWAP1 SLOAD SWAP1 PUSH2 0x100 EXP SWAP1 DIV PUSH20 0xFFFFFFFFFFFFFFFFFFFFFFFFFFFFFFFFFFFFFFFF AND PUSH20 0xFFFFFFFFFFFFFFFFFFFFFFFFFFFFFFFFFFFFFFFF AND PUSH4 0xCD192DB5 DUP4 PUSH1 0x40 MLOAD DUP3 PUSH4 0xFFFFFFFF AND PUSH1 0xE0 SHL DUP2 MSTORE PUSH1 0x4 ADD PUSH2 0x5A2 SWAP2 SWAP1 PUSH2 0x14CE JUMP JUMPDEST PUSH1 0x20 PUSH1 0x40 MLOAD DUP1 DUP4 SUB DUP2 DUP7 GAS STATICCALL ISZERO DUP1 ISZERO PUSH2 0x5BD JUMPI RETURNDATASIZE PUSH0 PUSH0 RETURNDATACOPY RETURNDATASIZE PUSH0 REVERT JUMPDEST POP POP POP POP PUSH1 0x40 MLOAD RETURNDATASIZE PUSH1 0x1F NOT PUSH1 0x1F DUP3 ADD AND DUP3 ADD DUP1 PUSH1 0x40 MSTORE POP DUP2 ADD SWAP1 PUSH2 0x5E1 SWAP2 SWAP1 PUSH2 0x168C JUMP JUMPDEST SWAP1 POP PUSH0 PUSH1 0x64 PUSH1 0x63 DUP4 PUSH2 0x5F3 SWAP2 SWAP1 PUSH2 0x1637 JUMP JUMPDEST PUSH2 0x5FD SWAP2 SWAP1 PUSH2 0x1607 JUMP JUMPDEST SWAP1 POP DUP8 DUP6 PUSH1 0x10 ADD PUSH0 DUP10 PUSH20 0xFFFFFFFFFFFFFFFFFFFFFFFFFFFFFFFFFFFFFFFF AND PUSH20 0xFFFFFFFFFFFFFFFFFFFFFFFFFFFFFFFFFFFFFFFF AND DUP2 MSTORE PUSH1 0x20 ADD SWAP1 DUP2 MSTORE PUSH1 0x20 ADD PUSH0 KECCAK256 PUSH0 DUP3 DUP3 SLOAD PUSH2 0x64D SWAP2 SWAP1 PUSH2 0x16B7 JUMP JUMPDEST SWAP3 POP POP DUP2 SWAP1 SSTORE POP DUP4 DUP6 PUSH1 0xF ADD PUSH0 DUP10 PUSH20 0xFFFFFFFFFFFFFFFFFFFFFFFFFFFFFFFFFFFFFFFF AND PUSH20 0xFFFFFFFFFFFFFFFFFFFFFFFFFFFFFFFFFFFFFFFF AND DUP2 MSTORE PUSH1 0x20 ADD SWAP1 DUP2 MSTORE PUSH1 0x20 ADD PUSH0 KECCAK256 PUSH0 DUP3 DUP3 SLOAD PUSH2 0x6A2 SWAP2 SWAP1 PUSH2 0x16B7 JUMP JUMPDEST SWAP3 POP POP DUP2 SWAP1 SSTORE POP DUP8 DUP6 PUSH1 0x1 ADD PUSH0 DUP3 DUP3 SLOAD PUSH2 0x6BC SWAP2 SWAP1 PUSH2 0x16B7 JUMP JUMPDEST SWAP3 POP POP DUP2 SWAP1 SSTORE POP DUP4 DUP6 PUSH1 0x2 ADD PUSH0 DUP3 DUP3 SLOAD PUSH2 0x6D6 SWAP2 SWAP1 PUSH2 0x16B7 JUMP JUMPDEST SWAP3 POP POP DUP2 SWAP1 SSTORE POP TIMESTAMP DUP6 PUSH1 0x11 ADD PUSH0 DUP10 PUSH20 0xFFFFFFFFFFFFFFFFFFFFFFFFFFFFFFFFFFFFFFFF AND PUSH20 0xFFFFFFFFFFFFFFFFFFFFFFFFFFFFFFFFFFFFFFFF AND DUP2 MSTORE PUSH1 0x20 ADD SWAP1 DUP2 MSTORE PUSH1 0x20 ADD PUSH0 KECCAK256 DUP2 SWAP1 SSTORE POP PUSH2 0x771 CALLER ADDRESS DUP11 DUP9 PUSH1 0x4 ADD PUSH0 SWAP1 SLOAD SWAP1 PUSH2 0x100 EXP SWAP1 DIV PUSH20 0xFFFFFFFFFFFFFFFFFFFFFFFFFFFFFFFFFFFFFFFF AND PUSH20 0xFFFFFFFFFFFFFFFFFFFFFFFFFFFFFFFFFFFFFFFF AND PUSH2 0xA52 SWAP1 SWAP4 SWAP3 SWAP2 SWAP1 PUSH4 0xFFFFFFFF AND JUMP JUMPDEST PUSH0 DUP4 GT ISZERO PUSH2 0x786 JUMPI PUSH2 0x784 DUP2 DUP9 DUP6 PUSH2 0xAD4 JUMP JUMPDEST POP JUMPDEST DUP7 PUSH20 0xFFFFFFFFFFFFFFFFFFFFFFFFFFFFFFFFFFFFFFFF AND CALLER PUSH20 0xFFFFFFFFFFFFFFFFFFFFFFFFFFFFFFFFFFFFFFFF AND PUSH32 0xDCBC1C05240F31FF3AD067EF1EE35CE4997762752E3A095284754544F4C709D7 DUP11 DUP8 PUSH1 0x40 MLOAD PUSH2 0x7E5 SWAP3 SWAP2 SWAP1 PUSH2 0x16EA JUMP JUMPDEST PUSH1 0x40 MLOAD DUP1 SWAP2 SUB SWAP1 LOG3 DUP7 PUSH20 0xFFFFFFFFFFFFFFFFFFFFFFFFFFFFFFFFFFFFFFFF AND PUSH32 0xCA8F7B7916F133917DB8D4B2E3566194AD8A65AD8EDA78F72F5B9872C059227B DUP5 PUSH3 0x278D00 TIMESTAMP PUSH2 0x835 SWAP2 SWAP1 PUSH2 0x16B7 JUMP JUMPDEST PUSH1 0x40 MLOAD PUSH2 0x843 SWAP3 SWAP2 SWAP1 PUSH2 0x16EA JUMP JUMPDEST PUSH1 0x40 MLOAD DUP1 SWAP2 SUB SWAP1 LOG2 DUP4 SWAP6 POP POP POP POP POP POP PUSH2 0x85B PUSH2 0x1389 JUMP JUMPDEST SWAP3 SWAP2 POP POP JUMP JUMPDEST PUSH0 PUSH2 0x86A PUSH2 0x9D9 JUMP JUMPDEST SWAP1 POP PUSH0 DUP2 PUSH1 0x18 ADD PUSH0 CALLER PUSH20 0xFFFFFFFFFFFFFFFFFFFFFFFFFFFFFFFFFFFFFFFF AND PUSH20 0xFFFFFFFFFFFFFFFFFFFFFFFFFFFFFFFFFFFFFFFF AND DUP2 MSTORE PUSH1 0x20 ADD SWAP1 DUP2 MSTORE PUSH1 0x20 ADD PUSH0 KECCAK256 SLOAD EQ PUSH2 0x8E4 JUMPI PUSH1 0x40 MLOAD PUSH32 0x1297A3A700000000000000000000000000000000000000000000000000000000 DUP2 MSTORE PUSH1 0x4 ADD PUSH1 0x40 MLOAD DUP1 SWAP2 SUB SWAP1 REVERT JUMPDEST PUSH2 0xE10 TIMESTAMP PUSH2 0x8F2 SWAP2 SWAP1 PUSH2 0x16B7 JUMP JUMPDEST DUP2 PUSH1 0x18 ADD PUSH0 CALLER PUSH20 0xFFFFFFFFFFFFFFFFFFFFFFFFFFFFFFFFFFFFFFFF AND PUSH20 0xFFFFFFFFFFFFFFFFFFFFFFFFFFFFFFFFFFFFFFFF AND DUP2 MSTORE PUSH1 0x20 ADD SWAP1 DUP2 MSTORE PUSH1 0x20 ADD PUSH0 KECCAK256 DUP2 SWAP1 SSTORE POP POP JUMP JUMPDEST PUSH0 PUSH0 PUSH2 0x942 PUSH2 0x9D9 JUMP JUMPDEST SWAP1 POP PUSH0 DUP2 PUSH1 0x1 ADD SLOAD EQ DUP1 PUSH2 0x959 JUMPI POP PUSH0 DUP2 PUSH1 0x2 ADD SLOAD EQ JUMPDEST ISZERO PUSH2 0x967 JUMPI DUP3 SWAP2 POP POP PUSH2 0x98A JUMP JUMPDEST DUP1 PUSH1 0x1 ADD SLOAD DUP2 PUSH1 0x2 ADD SLOAD DUP5 PUSH2 0x97C SWAP2 SWAP1 PUSH2 0x1637 JUMP JUMPDEST PUSH2 0x986 SWAP2 SWAP1 PUSH2 0x1607 JUMP JUMPDEST SWAP2 POP POP JUMPDEST SWAP2 SWAP1 POP JUMP JUMPDEST PUSH0 PUSH0 DUP3 SUB PUSH2 0x9C9 JUMPI PUSH1 0x40 MLOAD PUSH32 0x1F2A200500000000000000000000000000000000000000000000000000000000 DUP2 MSTORE PUSH1 0x4 ADD PUSH1 0x40 MLOAD DUP1 SWAP2 SUB SWAP1 REVERT JUMPDEST PUSH2 0x9D2 DUP3 PUSH2 0x938 JUMP JUMPDEST SWAP1 POP SWAP2 SWAP1 POP JUMP JUMPDEST PUSH0 PUSH0 PUSH32 0x5D15B553C07BE9B4A8CF4265C997D4479F22E1843183FA58504508C561FB9D50 SWAP1 POP DUP1 SWAP2 POP POP SWAP1 JUMP JUMPDEST PUSH1 0x2 PUSH0 SLOAD SUB PUSH2 0xA49 JUMPI PUSH1 0x40 MLOAD PUSH32 0x8C379A000000000000000000000000000000000000000000000000000000000 DUP2 MSTORE PUSH1 0x4 ADD PUSH2 0xA40 SWAP1 PUSH2 0x176B JUMP JUMPDEST PUSH1 0x40 MLOAD DUP1 SWAP2 SUB SWAP1 REVERT JUMPDEST PUSH1 0x2 PUSH0 DUP2 SWAP1 SSTORE POP JUMP JUMPDEST PUSH2 0xACE DUP5 DUP6 PUSH20 0xFFFFFFFFFFFFFFFFFFFFFFFFFFFFFFFFFFFFFFFF AND PUSH4 0x23B872DD DUP7 DUP7 DUP7 PUSH1 0x40 MLOAD PUSH1 0x24 ADD PUSH2 0xA87 SWAP4 SWAP3 SWAP2 SWAP1 PUSH2 0x1798 JUMP JUMPDEST PUSH1 0x40 MLOAD PUSH1 0x20 DUP2 DUP4 SUB SUB DUP2 MSTORE SWAP1 PUSH1 0x40 MSTORE SWAP2 POP PUSH1 0xE0 SHL PUSH1 0x20 DUP3 ADD DUP1 MLOAD PUSH28 0xFFFFFFFFFFFFFFFFFFFFFFFFFFFFFFFFFFFFFFFFFFFFFFFFFFFFFFFF DUP4 DUP2 DUP4 AND OR DUP4 MSTORE POP POP POP POP PUSH2 0x1392 JUMP JUMPDEST POP POP POP POP JUMP JUMPDEST PUSH0 PUSH0 PUSH2 0xADE PUSH2 0x9D9 JUMP JUMPDEST SWAP1 POP PUSH0 PUSH20 0xFFFFFFFFFFFFFFFFFFFFFFFFFFFFFFFFFFFFFFFF AND DUP2 PUSH1 0x5 ADD PUSH0 SWAP1 SLOAD SWAP1 PUSH2 0x100 EXP SWAP1 DIV PUSH20 0xFFFFFFFFFFFFFFFFFFFFFFFFFFFFFFFFFFFFFFFF AND PUSH20 0xFFFFFFFFFFFFFFFFFFFFFFFFFFFFFFFFFFFFFFFF AND SUB PUSH2 0xB68 JUMPI PUSH1 0x40 MLOAD PUSH32 0x567E930E00000000000000000000000000000000000000000000000000000000 DUP2 MSTORE PUSH1 0x4 ADD PUSH1 0x40 MLOAD DUP1 SWAP2 SUB SWAP1 REVERT JUMPDEST PUSH0 DUP4 SUB PUSH2 0xBA1 JUMPI PUSH1 0x40 MLOAD PUSH32 0xC2F5625A00000000000000000000000000000000000000000000000000000000 DUP2 MSTORE PUSH1 0x4 ADD PUSH1 0x40 MLOAD DUP1 SWAP2 SUB SWAP1 REVERT JUMPDEST PUSH0 TIMESTAMP DUP6 DUP6 PUSH1 0x40 MLOAD PUSH1 0x20 ADD PUSH2 0xBB7 SWAP4 SWAP3 SWAP2 SWAP1 PUSH2 0x1832 JUMP JUMPDEST PUSH1 0x40 MLOAD PUSH1 0x20 DUP2 DUP4 SUB SUB DUP2 MSTORE SWAP1 PUSH1 0x40 MSTORE DUP1 MLOAD SWAP1 PUSH1 0x20 ADD KECCAK256 SWAP1 POP DUP4 DUP3 PUSH1 0x3 ADD PUSH0 DUP3 DUP3 SLOAD PUSH2 0xBE2 SWAP2 SWAP1 PUSH2 0x16B7 JUMP JUMPDEST SWAP3 POP POP DUP2 SWAP1 SSTORE POP DUP4 DUP3 PUSH1 0x12 ADD PUSH0 DUP8 PUSH20 0xFFFFFFFFFFFFFFFFFFFFFFFFFFFFFFFFFFFFFFFF AND PUSH20 0xFFFFFFFFFFFFFFFFFFFFFFFFFFFFFFFFFFFFFFFF AND DUP2 MSTORE PUSH1 0x20 ADD SWAP1 DUP2 MSTORE PUSH1 0x20 ADD PUSH0 KECCAK256 PUSH0 DUP3 DUP3 SLOAD PUSH2 0xC37 SWAP2 SWAP1 PUSH2 0x16B7 JUMP JUMPDEST SWAP3 POP POP DUP2 SWAP1 SSTORE POP PUSH0 DUP3 PUSH1 0x4 ADD PUSH0 SWAP1 SLOAD SWAP1 PUSH2 0x100 EXP SWAP1 DIV PUSH20 0xFFFFFFFFFFFFFFFFFFFFFFFFFFFFFFFFFFFFFFFF AND SWAP1 POP PUSH0 DUP2 PUSH20 0xFFFFFFFFFFFFFFFFFFFFFFFFFFFFFFFFFFFFFFFF AND PUSH4 0x95EA7B3 DUP6 PUSH1 0x5 ADD PUSH0 SWAP1 SLOAD SWAP1 PUSH2 0x100 EXP SWAP1 DIV PUSH20 0xFFFFFFFFFFFFFFFFFFFFFFFFFFFFFFFFFFFFFFFF AND DUP9 PUSH1 0x40 MLOAD DUP4 PUSH4 0xFFFFFFFF AND PUSH1 0xE0 SHL DUP2 MSTORE PUSH1 0x4 ADD PUSH2 0xCC4 SWAP3 SWAP2 SWAP1 PUSH2 0x186E JUMP JUMPDEST PUSH1 0x20 PUSH1 0x40 MLOAD DUP1 DUP4 SUB DUP2 PUSH0 DUP8 GAS CALL ISZERO DUP1 ISZERO PUSH2 0xCE0 JUMPI RETURNDATASIZE PUSH0 PUSH0 RETURNDATACOPY RETURNDATASIZE PUSH0 REVERT JUMPDEST POP POP POP POP PUSH1 0x40 MLOAD RETURNDATASIZE PUSH1 0x1F NOT PUSH1 0x1F DUP3 ADD AND DUP3 ADD DUP1 PUSH1 0x40 MSTORE POP DUP2 ADD SWAP1 PUSH2 0xD04 SWAP2 SWAP1 PUSH2 0x18CA JUMP JUMPDEST SWAP1 POP DUP1 PUSH2 0xD3D JUMPI PUSH1 0x40 MLOAD PUSH32 0x8A2133B500000000000000000000000000000000000000000000000000000000 DUP2 MSTORE PUSH1 0x4 ADD PUSH1 0x40 MLOAD DUP1 SWAP2 SUB SWAP1 REVERT JUMPDEST PUSH0 PUSH2 0x12C TIMESTAMP PUSH2 0xD4C SWAP2 SWAP1 PUSH2 0x16B7 JUMP JUMPDEST SWAP1 POP DUP3 PUSH20 0xFFFFFFFFFFFFFFFFFFFFFFFFFFFFFFFFFFFFFFFF AND PUSH4 0x23B872DD ADDRESS DUP8 PUSH1 0x5 ADD PUSH0 SWAP1 SLOAD SWAP1 PUSH2 0x100 EXP SWAP1 DIV PUSH20 0xFFFFFFFFFFFFFFFFFFFFFFFFFFFFFFFFFFFFFFFF AND DUP11 PUSH1 0x40 MLOAD DUP5 PUSH4 0xFFFFFFFF AND PUSH1 0xE0 SHL DUP2 MSTORE PUSH1 0x4 ADD PUSH2 0xDAE SWAP4 SWAP3 SWAP2 SWAP1 PUSH2 0x1798 JUMP JUMPDEST PUSH1 0x20 PUSH1 0x40 MLOAD DUP1 DUP4 SUB DUP2 PUSH0 DUP8 GAS CALL ISZERO DUP1 ISZERO PUSH2 0xDCA JUMPI RETURNDATASIZE PUSH0 PUSH0 RETURNDATACOPY RETURNDATASIZE PUSH0 REVERT JUMPDEST POP POP POP POP PUSH1 0x40 MLOAD RETURNDATASIZE PUSH1 0x1F NOT PUSH1 0x1F DUP3 ADD AND DUP3 ADD DUP1 PUSH1 0x40 MSTORE POP DUP2 ADD SWAP1 PUSH2 0xDEE SWAP2 SWAP1 PUSH2 0x18CA JUMP JUMPDEST POP PUSH0 DUP6 PUSH1 0x5 ADD PUSH0 SWAP1 SLOAD SWAP1 PUSH2 0x100 EXP SWAP1 DIV PUSH20 0xFFFFFFFFFFFFFFFFFFFFFFFFFFFFFFFFFFFFFFFF AND PUSH20 0xFFFFFFFFFFFFFFFFFFFFFFFFFFFFFFFFFFFFFFFF AND PUSH4 0x64898D23 DUP10 DUP13 DUP10 PUSH1 0x8 ADD PUSH0 SWAP1 SLOAD SWAP1 PUSH2 0x100 EXP SWAP1 DIV PUSH20 0xFFFFFFFFFFFFFFFFFFFFFFFFFFFFFFFFFFFFFFFF AND DUP7 PUSH1 0x40 MLOAD DUP6 PUSH4 0xFFFFFFFF AND PUSH1 0xE0 SHL DUP2 MSTORE PUSH1 0x4 ADD PUSH2 0xE75 SWAP5 SWAP4 SWAP3 SWAP2 SWAP1 PUSH2 0x18F5 JUMP JUMPDEST PUSH1 0x20 PUSH1 0x40 MLOAD DUP1 DUP4 SUB DUP2 PUSH0 DUP8 GAS CALL ISZERO DUP1 ISZERO PUSH2 0xE91 JUMPI RETURNDATASIZE PUSH0 PUSH0 RETURNDATACOPY RETURNDATASIZE PUSH0 REVERT JUMPDEST POP POP POP POP PUSH1 0x40 MLOAD RETURNDATASIZE PUSH1 0x1F NOT PUSH1 0x1F DUP3 ADD AND DUP3 ADD DUP1 PUSH1 0x40 MSTORE POP DUP2 ADD SWAP1 PUSH2 0xEB5 SWAP2 SWAP1 PUSH2 0x168C JUMP JUMPDEST SWAP1 POP PUSH0 DUP2 SUB PUSH2 0xEF0 JUMPI PUSH1 0x40 MLOAD PUSH32 0xA9FFDC9600000000000000000000000000000000000000000000000000000000 DUP2 MSTORE PUSH1 0x4 ADD PUSH1 0x40 MLOAD DUP1 SWAP2 SUB SWAP1 REVERT JUMPDEST DUP1 DUP7 PUSH1 0x19 ADD PUSH0 DUP12 PUSH20 0xFFFFFFFFFFFFFFFFFFFFFFFFFFFFFFFFFFFFFFFF AND PUSH20 0xFFFFFFFFFFFFFFFFFFFFFFFFFFFFFFFFFFFFFFFF AND DUP2 MSTORE PUSH1 0x20 ADD SWAP1 DUP2 MSTORE PUSH1 0x20 ADD PUSH0 KECCAK256 DUP2 SWAP1 SSTORE POP DUP6 PUSH1 0x1A ADD PUSH0 DUP7 DUP2 MSTORE PUSH1 0x20 ADD SWAP1 DUP2 MSTORE PUSH1 0x20 ADD PUSH0 KECCAK256 DUP10 SWAP1 DUP1 PUSH1 0x1 DUP2 SLOAD ADD DUP1 DUP3 SSTORE DUP1 SWAP2 POP POP PUSH1 0x1 SWAP1 SUB SWAP1 PUSH0 MSTORE PUSH1 0x20 PUSH0 KECCAK256 ADD PUSH0 SWAP1 SWAP2 SWAP1 SWAP2 SWAP1 SWAP2 PUSH2 0x100 EXP DUP2 SLOAD DUP2 PUSH20 0xFFFFFFFFFFFFFFFFFFFFFFFFFFFFFFFFFFFFFFFF MUL NOT AND SWAP1 DUP4 PUSH20 0xFFFFFFFFFFFFFFFFFFFFFFFFFFFFFFFFFFFFFFFF AND MUL OR SWAP1 SSTORE POP PUSH0 DUP7 PUSH1 0x8 ADD PUSH0 SWAP1 SLOAD SWAP1 PUSH2 0x100 EXP SWAP1 DIV PUSH20 0xFFFFFFFFFFFFFFFFFFFFFFFFFFFFFFFFFFFFFFFF AND PUSH20 0xFFFFFFFFFFFFFFFFFFFFFFFFFFFFFFFFFFFFFFFF AND PUSH4 0x3641BD02 PUSH0 DUP9 PUSH1 0x40 MLOAD DUP4 PUSH4 0xFFFFFFFF AND PUSH1 0xE0 SHL DUP2 MSTORE PUSH1 0x4 ADD PUSH2 0x1003 SWAP2 SWAP1 PUSH2 0x1950 JUMP JUMPDEST PUSH1 0x20 PUSH1 0x40 MLOAD DUP1 DUP4 SUB DUP2 DUP6 DUP9 GAS CALL ISZERO DUP1 ISZERO PUSH2 0x101F JUMPI RETURNDATASIZE PUSH0 PUSH0 RETURNDATACOPY RETURNDATASIZE PUSH0 REVERT JUMPDEST POP POP POP POP POP PUSH1 0x40 MLOAD RETURNDATASIZE PUSH1 0x1F NOT PUSH1 0x1F DUP3 ADD AND DUP3 ADD DUP1 PUSH1 0x40 MSTORE POP DUP2 ADD SWAP1 PUSH2 0x1044 SWAP2 SWAP1 PUSH2 0x168C JUMP JUMPDEST SWAP1 POP DUP7 PUSH1 0x1B ADD PUSH0 DUP8 DUP2 MSTORE PUSH1 0x20 ADD SWAP1 DUP2 MSTORE PUSH1 0x20 ADD PUSH0 KECCAK256 PUSH0 SWAP1 SLOAD SWAP1 PUSH2 0x100 EXP SWAP1 DIV PUSH1 0xFF AND ISZERO PUSH2 0x109D JUMPI PUSH1 0x40 MLOAD PUSH32 0xE2B1F19400000000000000000000000000000000000000000000000000000000 DUP2 MSTORE PUSH1 0x4 ADD PUSH1 0x40 MLOAD DUP1 SWAP2 SUB SWAP1 REVERT JUMPDEST PUSH1 0x1 DUP8 PUSH1 0x1B ADD PUSH0 DUP9 DUP2 MSTORE PUSH1 0x20 ADD SWAP1 DUP2 MSTORE PUSH1 0x20 ADD PUSH0 KECCAK256 PUSH0 PUSH2 0x100 EXP DUP2 SLOAD DUP2 PUSH1 0xFF MUL NOT AND SWAP1 DUP4 ISZERO ISZERO MUL OR SWAP1 SSTORE POP PUSH0 DUP2 SWAP1 POP DUP1 DUP9 PUSH1 0x15 ADD PUSH0 DUP14 PUSH20 0xFFFFFFFFFFFFFFFFFFFFFFFFFFFFFFFFFFFFFFFF AND PUSH20 0xFFFFFFFFFFFFFFFFFFFFFFFFFFFFFFFFFFFFFFFF AND DUP2 MSTORE PUSH1 0x20 ADD SWAP1 DUP2 MSTORE PUSH1 0x20 ADD PUSH0 KECCAK256 PUSH0 DUP3 DUP3 SLOAD PUSH2 0x111A SWAP2 SWAP1 PUSH2 0x16B7 JUMP JUMPDEST SWAP3 POP POP DUP2 SWAP1 SSTORE POP DUP8 PUSH1 0x1D ADD PUSH0 DUP13 PUSH20 0xFFFFFFFFFFFFFFFFFFFFFFFFFFFFFFFFFFFFFFFF AND PUSH20 0xFFFFFFFFFFFFFFFFFFFFFFFFFFFFFFFFFFFFFFFF AND DUP2 MSTORE PUSH1 0x20 ADD SWAP1 DUP2 MSTORE PUSH1 0x20 ADD PUSH0 KECCAK256 PUSH1 0x40 MLOAD DUP1 PUSH1 0x80 ADD PUSH1 0x40 MSTORE DUP1 DUP13 DUP2 MSTORE PUSH1 0x20 ADD TIMESTAMP DUP2 MSTORE PUSH1 0x20 ADD DUP4 DUP2 MSTORE PUSH1 0x20 ADD PUSH0 ISZERO ISZERO DUP2 MSTORE POP SWAP1 DUP1 PUSH1 0x1 DUP2 SLOAD ADD DUP1 DUP3 SSTORE DUP1 SWAP2 POP POP PUSH1 0x1 SWAP1 SUB SWAP1 PUSH0 MSTORE PUSH1 0x20 PUSH0 KECCAK256 SWAP1 PUSH1 0x4 MUL ADD PUSH0 SWAP1 SWAP2 SWAP1 SWAP2 SWAP1 SWAP2 POP PUSH0 DUP3 ADD MLOAD DUP2 PUSH0 ADD SSTORE PUSH1 0x20 DUP3 ADD MLOAD DUP2 PUSH1 0x1 ADD SSTORE PUSH1 0x40 DUP3 ADD MLOAD DUP2 PUSH1 0x2 ADD SSTORE PUSH1 0x60 DUP3 ADD MLOAD DUP2 PUSH1 0x3 ADD PUSH0 PUSH2 0x100 EXP DUP2 SLOAD DUP2 PUSH1 0xFF MUL NOT AND SWAP1 DUP4 ISZERO ISZERO MUL OR SWAP1 SSTORE POP POP POP PUSH0 DUP9 PUSH1 0x19 ADD PUSH0 DUP14 PUSH20 0xFFFFFFFFFFFFFFFFFFFFFFFFFFFFFFFFFFFFFFFF AND PUSH20 0xFFFFFFFFFFFFFFFFFFFFFFFFFFFFFFFFFFFFFFFF AND DUP2 MSTORE PUSH1 0x20 ADD SWAP1 DUP2 MSTORE PUSH1 0x20 ADD PUSH0 KECCAK256 DUP2 SWAP1 SSTORE POP DUP11 PUSH20 0xFFFFFFFFFFFFFFFFFFFFFFFFFFFFFFFFFFFFFFFF AND PUSH32 0x447DBDBFDE1CF015FC6F055A0C7A32D270F68EAF5F9AE394C3D3963A1BBC0A75 DUP12 PUSH3 0x278D00 TIMESTAMP PUSH2 0x1272 SWAP2 SWAP1 PUSH2 0x16B7 JUMP JUMPDEST PUSH1 0x40 MLOAD PUSH2 0x1280 SWAP3 SWAP2 SWAP1 PUSH2 0x16EA JUMP JUMPDEST PUSH1 0x40 MLOAD DUP1 SWAP2 SUB SWAP1 LOG2 DUP11 PUSH20 0xFFFFFFFFFFFFFFFFFFFFFFFFFFFFFFFFFFFFFFFF AND PUSH32 0x923A5113D2791C84F9EEEFAC7ED7E03AAF0525BCC930D31BE60BD241A5133DCC DUP12 DUP5 PUSH1 0x40 MLOAD PUSH2 0x12D0 SWAP3 SWAP2 SWAP1 PUSH2 0x16EA JUMP JUMPDEST PUSH1 0x40 MLOAD DUP1 SWAP2 SUB SWAP1 LOG2 DUP6 PUSH20 0xFFFFFFFFFFFFFFFFFFFFFFFFFFFFFFFFFFFFFFFF AND PUSH4 0x95EA7B3 DUP10 PUSH1 0x5 ADD PUSH0 SWAP1 SLOAD SWAP1 PUSH2 0x100 EXP SWAP1 DIV PUSH20 0xFFFFFFFFFFFFFFFFFFFFFFFFFFFFFFFFFFFFFFFF AND PUSH0 PUSH1 0x40 MLOAD DUP4 PUSH4 0xFFFFFFFF AND PUSH1 0xE0 SHL DUP2 MSTORE PUSH1 0x4 ADD PUSH2 0x1336 SWAP3 SWAP2 SWAP1 PUSH2 0x19AB JUMP JUMPDEST PUSH1 0x20 PUSH1 0x40 MLOAD DUP1 DUP4 SUB DUP2 PUSH0 DUP8 GAS CALL ISZERO DUP1 ISZERO PUSH2 0x1352 JUMPI RETURNDATASIZE PUSH0 PUSH0 RETURNDATACOPY RETURNDATASIZE PUSH0 REVERT JUMPDEST POP POP POP POP PUSH1 0x40 MLOAD RETURNDATASIZE PUSH1 0x1F NOT PUSH1 0x1F DUP3 ADD AND DUP3 ADD DUP1 PUSH1 0x40 MSTORE POP DUP2 ADD SWAP1 PUSH2 0x1376 SWAP2 SWAP1 PUSH2 0x18CA JUMP JUMPDEST POP DUP1 SWAP9 POP POP POP POP POP POP POP POP POP SWAP4 SWAP3 POP POP POP JUMP JUMPDEST PUSH1 0x1 PUSH0 DUP2 SWAP1 SSTORE POP JUMP JUMPDEST PUSH0 PUSH0 PUSH1 0x20 PUSH0 DUP5 MLOAD PUSH1 0x20 DUP7 ADD PUSH0 DUP9 GAS CALL DUP1 PUSH2 0x13B1 JUMPI PUSH1 0x40 MLOAD RETURNDATASIZE PUSH0 DUP3 RETURNDATACOPY RETURNDATASIZE DUP2 REVERT JUMPDEST RETURNDATASIZE SWAP3 POP PUSH0 MLOAD SWAP2 POP POP PUSH0 DUP3 EQ PUSH2 0x13CA JUMPI PUSH1 0x1 DUP2 EQ ISZERO PUSH2 0x13E5 JUMP JUMPDEST PUSH0 DUP5 PUSH20 0xFFFFFFFFFFFFFFFFFFFFFFFFFFFFFFFFFFFFFFFF AND EXTCODESIZE EQ JUMPDEST ISZERO PUSH2 0x1427 JUMPI DUP4 PUSH1 0x40 MLOAD PUSH32 0x5274AFE700000000000000000000000000000000000000000000000000000000 DUP2 MSTORE PUSH1 0x4 ADD PUSH2 0x141E SWAP2 SWAP1 PUSH2 0x19D2 JUMP JUMPDEST PUSH1 0x40 MLOAD DUP1 SWAP2 SUB SWAP1 REVERT JUMPDEST POP POP POP POP JUMP JUMPDEST PUSH0 PUSH0 REVERT JUMPDEST PUSH0 PUSH20 0xFFFFFFFFFFFFFFFFFFFFFFFFFFFFFFFFFFFFFFFF DUP3 AND SWAP1 POP SWAP2 SWAP1 POP JUMP JUMPDEST PUSH0 PUSH2 0x145A DUP3 PUSH2 0x1431 JUMP JUMPDEST SWAP1 POP SWAP2 SWAP1 POP JUMP JUMPDEST PUSH2 0x146A DUP2 PUSH2 0x1450 JUMP JUMPDEST DUP2 EQ PUSH2 0x1474 JUMPI PUSH0 PUSH0 REVERT JUMPDEST POP JUMP JUMPDEST PUSH0 DUP2 CALLDATALOAD SWAP1 POP PUSH2 0x1485 DUP2 PUSH2 0x1461 JUMP JUMPDEST SWAP3 SWAP2 POP POP JUMP JUMPDEST PUSH0 PUSH1 0x20 DUP3 DUP5 SUB SLT ISZERO PUSH2 0x14A0 JUMPI PUSH2 0x149F PUSH2 0x142D JUMP JUMPDEST JUMPDEST PUSH0 PUSH2 0x14AD DUP5 DUP3 DUP6 ADD PUSH2 0x1477 JUMP JUMPDEST SWAP2 POP POP SWAP3 SWAP2 POP POP JUMP JUMPDEST PUSH0 DUP2 SWAP1 POP SWAP2 SWAP1 POP JUMP JUMPDEST PUSH2 0x14C8 DUP2 PUSH2 0x14B6 JUMP JUMPDEST DUP3 MSTORE POP POP JUMP JUMPDEST PUSH0 PUSH1 0x20 DUP3 ADD SWAP1 POP PUSH2 0x14E1 PUSH0 DUP4 ADD DUP5 PUSH2 0x14BF JUMP JUMPDEST SWAP3 SWAP2 POP POP JUMP JUMPDEST PUSH2 0x14F0 DUP2 PUSH2 0x14B6 JUMP JUMPDEST DUP2 EQ PUSH2 0x14FA JUMPI PUSH0 PUSH0 REVERT JUMPDEST POP JUMP JUMPDEST PUSH0 DUP2 CALLDATALOAD SWAP1 POP PUSH2 0x150B DUP2 PUSH2 0x14E7 JUMP JUMPDEST SWAP3 SWAP2 POP POP JUMP JUMPDEST PUSH0 PUSH0 PUSH1 0x40 DUP4 DUP6 SUB SLT ISZERO PUSH2 0x1527 JUMPI PUSH2 0x1526 PUSH2 0x142D JUMP JUMPDEST JUMPDEST PUSH0 PUSH2 0x1534 DUP6 DUP3 DUP7 ADD PUSH2 0x14FD JUMP JUMPDEST SWAP3 POP POP PUSH1 0x20 PUSH2 0x1545 DUP6 DUP3 DUP7 ADD PUSH2 0x1477 JUMP JUMPDEST SWAP2 POP POP SWAP3 POP SWAP3 SWAP1 POP JUMP JUMPDEST PUSH0 PUSH1 0x20 DUP3 DUP5 SUB SLT ISZERO PUSH2 0x1564 JUMPI PUSH2 0x1563 PUSH2 0x142D JUMP JUMPDEST JUMPDEST PUSH0 PUSH2 0x1571 DUP5 DUP3 DUP6 ADD PUSH2 0x14FD JUMP JUMPDEST SWAP2 POP POP SWAP3 SWAP2 POP POP JUMP JUMPDEST PUSH32 0x4E487B7100000000000000000000000000000000000000000000000000000000 PUSH0 MSTORE PUSH1 0x11 PUSH1 0x4 MSTORE PUSH1 0x24 PUSH0 REVERT JUMPDEST PUSH0 PUSH2 0x15B1 DUP3 PUSH2 0x14B6 JUMP JUMPDEST SWAP2 POP PUSH2 0x15BC DUP4 PUSH2 0x14B6 JUMP JUMPDEST SWAP3 POP DUP3 DUP3 SUB SWAP1 POP DUP2 DUP2 GT ISZERO PUSH2 0x15D4 JUMPI PUSH2 0x15D3 PUSH2 0x157A JUMP JUMPDEST JUMPDEST SWAP3 SWAP2 POP POP JUMP JUMPDEST PUSH32 0x4E487B7100000000000000000000000000000000000000000000000000000000 PUSH0 MSTORE PUSH1 0x12 PUSH1 0x4 MSTORE PUSH1 0x24 PUSH0 REVERT JUMPDEST PUSH0 PUSH2 0x1611 DUP3 PUSH2 0x14B6 JUMP JUMPDEST SWAP2 POP PUSH2 0x161C DUP4 PUSH2 0x14B6 JUMP JUMPDEST SWAP3 POP DUP3 PUSH2 0x162C JUMPI PUSH2 0x162B PUSH2 0x15DA JUMP JUMPDEST JUMPDEST DUP3 DUP3 DIV SWAP1 POP SWAP3 SWAP2 POP POP JUMP JUMPDEST PUSH0 PUSH2 0x1641 DUP3 PUSH2 0x14B6 JUMP JUMPDEST SWAP2 POP PUSH2 0x164C DUP4 PUSH2 0x14B6 JUMP JUMPDEST SWAP3 POP DUP3 DUP3 MUL PUSH2 0x165A DUP2 PUSH2 0x14B6 JUMP JUMPDEST SWAP2 POP DUP3 DUP3 DIV DUP5 EQ DUP4 ISZERO OR PUSH2 0x1671 JUMPI PUSH2 0x1670 PUSH2 0x157A JUMP JUMPDEST JUMPDEST POP SWAP3 SWAP2 POP POP JUMP JUMPDEST PUSH0 DUP2 MLOAD SWAP1 POP PUSH2 0x1686 DUP2 PUSH2 0x14E7 JUMP JUMPDEST SWAP3 SWAP2 POP POP JUMP JUMPDEST PUSH0 PUSH1 0x20 DUP3 DUP5 SUB SLT ISZERO PUSH2 0x16A1 JUMPI PUSH2 0x16A0 PUSH2 0x142D JUMP JUMPDEST JUMPDEST PUSH0 PUSH2 0x16AE DUP5 DUP3 DUP6 ADD PUSH2 0x1678 JUMP JUMPDEST SWAP2 POP POP SWAP3 SWAP2 POP POP JUMP JUMPDEST PUSH0 PUSH2 0x16C1 DUP3 PUSH2 0x14B6 JUMP JUMPDEST SWAP2 POP PUSH2 0x16CC DUP4 PUSH2 0x14B6 JUMP JUMPDEST SWAP3 POP DUP3 DUP3 ADD SWAP1 POP DUP1 DUP3 GT ISZERO PUSH2 0x16E4 JUMPI PUSH2 0x16E3 PUSH2 0x157A JUMP JUMPDEST JUMPDEST SWAP3 SWAP2 POP POP JUMP JUMPDEST PUSH0 PUSH1 0x40 DUP3 ADD SWAP1 POP PUSH2 0x16FD PUSH0 DUP4 ADD DUP6 PUSH2 0x14BF JUMP JUMPDEST PUSH2 0x170A PUSH1 0x20 DUP4 ADD DUP5 PUSH2 0x14BF JUMP JUMPDEST SWAP4 SWAP3 POP POP POP JUMP JUMPDEST PUSH0 DUP3 DUP3 MSTORE PUSH1 0x20 DUP3 ADD SWAP1 POP SWAP3 SWAP2 POP POP JUMP JUMPDEST PUSH32 0x5265656E7472616E637947756172643A207265656E7472616E742063616C6C00 PUSH0 DUP3 ADD MSTORE POP JUMP JUMPDEST PUSH0 PUSH2 0x1755 PUSH1 0x1F DUP4 PUSH2 0x1711 JUMP JUMPDEST SWAP2 POP PUSH2 0x1760 DUP3 PUSH2 0x1721 JUMP JUMPDEST PUSH1 0x20 DUP3 ADD SWAP1 POP SWAP2 SWAP1 POP JUMP JUMPDEST PUSH0 PUSH1 0x20 DUP3 ADD SWAP1 POP DUP2 DUP2 SUB PUSH0 DUP4 ADD MSTORE PUSH2 0x1782 DUP2 PUSH2 0x1749 JUMP JUMPDEST SWAP1 POP SWAP2 SWAP1 POP JUMP JUMPDEST PUSH2 0x1792 DUP2 PUSH2 0x1450 JUMP JUMPDEST DUP3 MSTORE POP POP JUMP JUMPDEST PUSH0 PUSH1 0x60 DUP3 ADD SWAP1 POP PUSH2 0x17AB PUSH0 DUP4 ADD DUP7 PUSH2 0x1789 JUMP JUMPDEST PUSH2 0x17B8 PUSH1 0x20 DUP4 ADD DUP6 PUSH2 0x1789 JUMP JUMPDEST PUSH2 0x17C5 PUSH1 0x40 DUP4 ADD DUP5 PUSH2 0x14BF JUMP JUMPDEST SWAP5 SWAP4 POP POP POP POP JUMP JUMPDEST PUSH0 DUP2 SWAP1 POP SWAP2 SWAP1 POP JUMP JUMPDEST PUSH2 0x17E7 PUSH2 0x17E2 DUP3 PUSH2 0x14B6 JUMP JUMPDEST PUSH2 0x17CD JUMP JUMPDEST DUP3 MSTORE POP POP JUMP JUMPDEST PUSH0 DUP2 PUSH1 0x60 SHL SWAP1 POP SWAP2 SWAP1 POP JUMP JUMPDEST PUSH0 PUSH2 0x1803 DUP3 PUSH2 0x17ED JUMP JUMPDEST SWAP1 POP SWAP2 SWAP1 POP JUMP JUMPDEST PUSH0 PUSH2 0x1814 DUP3 PUSH2 0x17F9 JUMP JUMPDEST SWAP1 POP SWAP2 SWAP1 POP JUMP JUMPDEST PUSH2 0x182C PUSH2 0x1827 DUP3 PUSH2 0x1450 JUMP JUMPDEST PUSH2 0x180A JUMP JUMPDEST DUP3 MSTORE POP POP JUMP JUMPDEST PUSH0 PUSH2 0x183D DUP3 DUP7 PUSH2 0x17D6 JUMP JUMPDEST PUSH1 0x20 DUP3 ADD SWAP2 POP PUSH2 0x184D DUP3 DUP6 PUSH2 0x181B JUMP JUMPDEST PUSH1 0x14 DUP3 ADD SWAP2 POP PUSH2 0x185D DUP3 DUP5 PUSH2 0x17D6 JUMP JUMPDEST PUSH1 0x20 DUP3 ADD SWAP2 POP DUP2 SWAP1 POP SWAP5 SWAP4 POP POP POP POP JUMP JUMPDEST PUSH0 PUSH1 0x40 DUP3 ADD SWAP1 POP PUSH2 0x1881 PUSH0 DUP4 ADD DUP6 PUSH2 0x1789 JUMP JUMPDEST PUSH2 0x188E PUSH1 0x20 DUP4 ADD DUP5 PUSH2 0x14BF JUMP JUMPDEST SWAP4 SWAP3 POP POP POP JUMP JUMPDEST PUSH0 DUP2 ISZERO ISZERO SWAP1 POP SWAP2 SWAP1 POP JUMP JUMPDEST PUSH2 0x18A9 DUP2 PUSH2 0x1895 JUMP JUMPDEST DUP2 EQ PUSH2 0x18B3 JUMPI PUSH0 PUSH0 REVERT JUMPDEST POP JUMP JUMPDEST PUSH0 DUP2 MLOAD SWAP1 POP PUSH2 0x18C4 DUP2 PUSH2 0x18A0 JUMP JUMPDEST SWAP3 SWAP2 POP POP JUMP JUMPDEST PUSH0 PUSH1 0x20 DUP3 DUP5 SUB SLT ISZERO PUSH2 0x18DF JUMPI PUSH2 0x18DE PUSH2 0x142D JUMP JUMPDEST JUMPDEST PUSH0 PUSH2 0x18EC DUP5 DUP3 DUP6 ADD PUSH2 0x18B6 JUMP JUMPDEST SWAP2 POP POP SWAP3 SWAP2 POP POP JUMP JUMPDEST PUSH0 PUSH1 0x80 DUP3 ADD SWAP1 POP PUSH2 0x1908 PUSH0 DUP4 ADD DUP8 PUSH2 0x14BF JUMP JUMPDEST PUSH2 0x1915 PUSH1 0x20 DUP4 ADD DUP7 PUSH2 0x14BF JUMP JUMPDEST PUSH2 0x1922 PUSH1 0x40 DUP4 ADD DUP6 PUSH2 0x1789 JUMP JUMPDEST PUSH2 0x192F PUSH1 0x60 DUP4 ADD DUP5 PUSH2 0x14BF JUMP JUMPDEST SWAP6 SWAP5 POP POP POP POP POP JUMP JUMPDEST PUSH0 DUP2 SWAP1 POP SWAP2 SWAP1 POP JUMP JUMPDEST PUSH2 0x194A DUP2 PUSH2 0x1938 JUMP JUMPDEST DUP3 MSTORE POP POP JUMP JUMPDEST PUSH0 PUSH1 0x20 DUP3 ADD SWAP1 POP PUSH2 0x1963 PUSH0 DUP4 ADD DUP5 PUSH2 0x1941 JUMP JUMPDEST SWAP3 SWAP2 POP POP JUMP JUMPDEST PUSH0 DUP2 SWAP1 POP SWAP2 SWAP1 POP JUMP JUMPDEST PUSH0 DUP2 SWAP1 POP SWAP2 SWAP1 POP JUMP JUMPDEST PUSH0 PUSH2 0x1995 PUSH2 0x1990 PUSH2 0x198B DUP5 PUSH2 0x1969 JUMP JUMPDEST PUSH2 0x1972 JUMP JUMPDEST PUSH2 0x14B6 JUMP JUMPDEST SWAP1 POP SWAP2 SWAP1 POP JUMP JUMPDEST PUSH2 0x19A5 DUP2 PUSH2 0x197B JUMP JUMPDEST DUP3 MSTORE POP POP JUMP JUMPDEST PUSH0 PUSH1 0x40 DUP3 ADD SWAP1 POP PUSH2 0x19BE PUSH0 DUP4 ADD DUP6 PUSH2 0x1789 JUMP JUMPDEST PUSH2 0x19CB PUSH1 0x20 DUP4 ADD DUP5 PUSH2 0x199C JUMP JUMPDEST SWAP4 SWAP3 POP POP POP JUMP JUMPDEST PUSH0 PUSH1 0x20 DUP3 ADD SWAP1 POP PUSH2 0x19E5 PUSH0 DUP4 ADD DUP5 PUSH2 0x1789 JUMP JUMPDEST SWAP3 SWAP2 POP POP JUMP INVALID LOG2 PUSH5 0x6970667358 0x22 SLT KECCAK256 0xCB SSTORE CALL 0xD2 BLOBHASH SLT CALLCODE ADD PUSH12 0xA5D0110EA184981837CA77F5 PUSH19 0x895FDB7028C4E11A777664736F6C634300081D STOP CALLER "
				},
				"gasEstimates": {
					"creation": {
						"codeDepositCost": "1337800",
						"executionCost": "23508",
						"totalCost": "1361308"
					},
					"external": {
						"convertToShares(uint256)": "infinite",
						"deposit(uint256,address)": "infinite",
						"maxDeposit(address)": "infinite",
						"previewDeposit(uint256)": "infinite",
						"queueLargeDeposit()": "infinite"
					},
					"internal": {
						"safeTransferAndSwap(uint256,address,uint256)": "infinite"
					}
				},
				"methodIdentifiers": {
					"convertToShares(uint256)": "c6e6f592",
					"deposit(uint256,address)": "6e553f65",
					"maxDeposit(address)": "402d267d",
					"previewDeposit(uint256)": "ef8b30f7",
					"queueLargeDeposit()": "94dddda1"
				}
			},
			"storageLayout": {
				"storage": [
					{
						"astId": 100,
						"contract": "Vault_forge/src/Diamond/DepositFacet.sol:DepositFacet",
						"label": "_status",
						"offset": 0,
						"slot": "0",
						"type": "t_uint256"
					}
				],
				"types": {
					"t_uint256": {
						"encoding": "inplace",
						"label": "uint256",
						"numberOfBytes": "32"
					}
				}
			},
			"userdoc": {
				"kind": "user",
				"methods": {},
				"version": 1
			}
		}
	}
}