{
	"data": {
		"bytecode": {
			"linkReferences": {},
			"object": "6080604052348015600e575f5ffd5b5060015f55610d97806100205f395ff3fe608060405234801561000f575f5ffd5b50600436106100cb575f3560e01c80638024e96811610088578063d259ab4211610063578063d259ab421461015b578063d907813c1461016e578063e458d45314610176578063f2fde38b14610189575f5ffd5b80638024e96814610122578063a42dce8014610135578063cbaf2fa714610148575f5ffd5b8063062776bf146100cf57806329175b8c146100d95780632f2a9165146100e157806337214ad0146100e9578063617f3989146100fc578063798b47391461010f575b5f5ffd5b6100d761019c565b005b6100d761026c565b6100d7610318565b6100d76100f7366004610cc1565b6103c4565b6100d761010a366004610cee565b61047b565b6100d761011d366004610cc1565b610521565b6100d7610130366004610cc1565b610647565b6100d7610143366004610cc1565b6106fe565b6100d7610156366004610cee565b6107b5565b6100d7610169366004610cc1565b610870565b6100d7610927565b6100d7610184366004610cc1565b6109c7565b6100d7610197366004610cc1565b610a7e565b6101a4610b78565b5f6101ad610bd4565b60098101549091506001600160a01b031633146101dd5760405163ea8e4eb560e01b815260040160405180910390fd5b80600d01545f0361020157604051634716db3560e01b815260040160405180910390fd5b600d810180545f9091556009820154600483015461022c916001600160a01b03918216911683610bf8565b6040518181527f860c0aa5520013080c2f65981705fcdea474d9f7c3daf954656ed5e65d692d1f9060200160405180910390a1505061026a60015f55565b565b5f610275610bd4565b80549091506001600160a01b031633146102a25760405163ea8e4eb560e01b815260040160405180910390fd5b5f6102ab610bd4565b60098101805460ff600160a01b808304821615810260ff60a01b1990931692909217928390556040519394507ff3017345aa4f4b1edf82d1945ba8aaf39d9f284595b090260947f03bc53566f19361030c9392909204161515815260200190565b60405180910390a15050565b5f610321610bd4565b80549091506001600160a01b0316331461034e5760405163ea8e4eb560e01b815260040160405180910390fd5b5f610357610bd4565b90506201518081600b015461036c9190610d05565b42101561038c5760405163e10ceb1160e01b815260040160405180910390fd5b42600b82018190556040519081527f33774f379c2063e81904e4e67242b165586dfc117cb89f7baeb19e04ef39a3be9060200161030c565b5f6103cd610bd4565b80549091506001600160a01b031633146103fa5760405163ea8e4eb560e01b815260040160405180910390fd5b6001600160a01b0382166104215760405163e6c4247b60e01b815260040160405180910390fd5b5f61042a610bd4565b6008810180546001600160a01b0319166001600160a01b038616908117909155604051919250907f66c8ee4f501025a135e9b302cead3d51cc5bf10c9496086853c1c961e6d91ee8905f90a2505050565b5f610484610bd4565b80549091506001600160a01b031633146104b15760405163ea8e4eb560e01b815260040160405180910390fd5b5f6104ba610bd4565b90505f6104ca6202a30042610d05565b5f858152601c84016020526040908190208290555190915084907f610f97886f7c2cfa9f3cb01126b63839d9b9ee8da397c06b368a98856b214634906105139084815260200190565b60405180910390a250505050565b5f61052a610bd4565b80549091506001600160a01b031633146105575760405163ea8e4eb560e01b815260040160405180910390fd5b6001600160a01b03821661057e5760405163e6c4247b60e01b815260040160405180910390fd5b5f610587610bd4565b90505f8360405160200161059b9190610d2a565b60408051601f1981840301815291815281516020928301205f818152601c86019093529120549091508015806105d057508042105b156105ee5760405163f800799b60e01b815260040160405180910390fd5b82546001600160a01b0319166001600160a01b0386161783555f828152601c840160205260408082208290555183917f1277662f4b42b8a4069e99fb5e41ce8919d3c621156090ac08fb11adbcec66f991a25050505050565b5f610650610bd4565b80549091506001600160a01b0316331461067d5760405163ea8e4eb560e01b815260040160405180910390fd5b6001600160a01b0382166106a45760405163e6c4247b60e01b815260040160405180910390fd5b5f6106ad610bd4565b6007810180546001600160a01b0319166001600160a01b038616908117909155604051919250907fb72b4dd67ddcbcd61a6ebffbe1cca26d032c45f9d3a6f3c596e95e298717f746905f90a2505050565b5f610707610bd4565b80549091506001600160a01b031633146107345760405163ea8e4eb560e01b815260040160405180910390fd5b6001600160a01b03821661075b5760405163e6c4247b60e01b815260040160405180910390fd5b5f610764610bd4565b6009810180546001600160a01b0319166001600160a01b038616908117909155604051919250907fe5693914d19c789bdee50a362998c0bc8d035a835f9871da5d51152f0582c34f905f90a2505050565b5f6107be610bd4565b80549091506001600160a01b031633146107eb5760405163ea8e4eb560e01b815260040160405180910390fd5b5f6107f4610bd4565b5f848152601c8201602052604090205490915080158061081357508042105b156108315760405163f800799b60e01b815260040160405180910390fd5b5f848152601c830160205260408082208290555185917f1277662f4b42b8a4069e99fb5e41ce8919d3c621156090ac08fb11adbcec66f991a250505050565b5f610879610bd4565b80549091506001600160a01b031633146108a65760405163ea8e4eb560e01b815260040160405180910390fd5b6001600160a01b0382166108cd5760405163e6c4247b60e01b815260040160405180910390fd5b5f6108d6610bd4565b6005810180546001600160a01b0319166001600160a01b038616908117909155604051919250907f7a100de36a66305ed9ca3998196d0fb9a1806f6dc498d570393b88ab275ed4df905f90a2505050565b5f610930610bd4565b80549091506001600160a01b0316331461095d5760405163ea8e4eb560e01b815260040160405180910390fd5b5f610966610bd4565b60098101805460ff600160a81b808304821615810260ff60a81b1990931692909217928390556040519394507f19115828b11df7bf8355d95226507e6ed8d980fc277bdb99594291bf2a466dab9361030c9392909204161515815260200190565b5f6109d0610bd4565b80549091506001600160a01b031633146109fd5760405163ea8e4eb560e01b815260040160405180910390fd5b6001600160a01b038216610a245760405163e6c4247b60e01b815260040160405180910390fd5b5f610a2d610bd4565b6006810180546001600160a01b0319166001600160a01b038616908117909155604051919250907fd97b0528df15f8ae38af640ff9002c863e7dde420b1b18f78ae48f42f78dc5db905f90a2505050565b5f610a87610bd4565b80549091506001600160a01b03163314610ab45760405163ea8e4eb560e01b815260040160405180910390fd5b6001600160a01b038216610adb5760405163e6c4247b60e01b815260040160405180910390fd5b5f610ae4610bd4565b90505f83604051602001610af89190610d2a565b6040516020818303038152906040528051906020012090505f6202a30042610b209190610d05565b5f838152601c85016020526040908190208290555190915082907f610f97886f7c2cfa9f3cb01126b63839d9b9ee8da397c06b368a98856b21463490610b699084815260200190565b60405180910390a25050505050565b60025f5403610bce5760405162461bcd60e51b815260206004820152601f60248201527f5265656e7472616e637947756172643a207265656e7472616e742063616c6c0060448201526064015b60405180910390fd5b60025f55565b7f5d15b553c07be9b4a8cf4265c997d4479f22e1843183fa58504508c561fb9d5090565b604080516001600160a01b038416602482015260448082018490528251808303909101815260649091019091526020810180516001600160e01b031663a9059cbb60e01b179052610c4a908490610c4f565b505050565b5f5f60205f8451602086015f885af180610c6e576040513d5f823e3d81fd5b50505f513d91508115610c85578060011415610c92565b6001600160a01b0384163b155b15610cbb57604051635274afe760e01b81526001600160a01b0385166004820152602401610bc5565b50505050565b5f60208284031215610cd1575f5ffd5b81356001600160a01b0381168114610ce7575f5ffd5b9392505050565b5f60208284031215610cfe575f5ffd5b5035919050565b80820180821115610d2457634e487b7160e01b5f52601160045260245ffd5b92915050565b7007472616e736665724f776e65727368697607c1b815260609190911b6bffffffffffffffffffffffff191660118201526025019056fea2646970667358221220f5e56854b590d1b62029c7040303bbc4758535b289728c98991ab766788dcc9364736f6c634300081d0033",
			"opcodes": "PUSH1 0x80 PUSH1 0x40 MSTORE CALLVALUE DUP1 ISZERO PUSH1 0xE JUMPI PUSH0 PUSH0 REVERT JUMPDEST POP PUSH1 0x1 PUSH0 SSTORE PUSH2 0xD97 DUP1 PUSH2 0x20 PUSH0 CODECOPY PUSH0 RETURN INVALID PUSH1 0x80 PUSH1 0x40 MSTORE CALLVALUE DUP1 ISZERO PUSH2 0xF JUMPI PUSH0 PUSH0 REVERT JUMPDEST POP PUSH1 0x4 CALLDATASIZE LT PUSH2 0xCB JUMPI PUSH0 CALLDATALOAD PUSH1 0xE0 SHR DUP1 PUSH4 0x8024E968 GT PUSH2 0x88 JUMPI DUP1 PUSH4 0xD259AB42 GT PUSH2 0x63 JUMPI DUP1 PUSH4 0xD259AB42 EQ PUSH2 0x15B JUMPI DUP1 PUSH4 0xD907813C EQ PUSH2 0x16E JUMPI DUP1 PUSH4 0xE458D453 EQ PUSH2 0x176 JUMPI DUP1 PUSH4 0xF2FDE38B EQ PUSH2 0x189 JUMPI PUSH0 PUSH0 REVERT JUMPDEST DUP1 PUSH4 0x8024E968 EQ PUSH2 0x122 JUMPI DUP1 PUSH4 0xA42DCE80 EQ PUSH2 0x135 JUMPI DUP1 PUSH4 0xCBAF2FA7 EQ PUSH2 0x148 JUMPI PUSH0 PUSH0 REVERT JUMPDEST DUP1 PUSH4 0x62776BF EQ PUSH2 0xCF JUMPI DUP1 PUSH4 0x29175B8C EQ PUSH2 0xD9 JUMPI DUP1 PUSH4 0x2F2A9165 EQ PUSH2 0xE1 JUMPI DUP1 PUSH4 0x37214AD0 EQ PUSH2 0xE9 JUMPI DUP1 PUSH4 0x617F3989 EQ PUSH2 0xFC JUMPI DUP1 PUSH4 0x798B4739 EQ PUSH2 0x10F JUMPI JUMPDEST PUSH0 PUSH0 REVERT JUMPDEST PUSH2 0xD7 PUSH2 0x19C JUMP JUMPDEST STOP JUMPDEST PUSH2 0xD7 PUSH2 0x26C JUMP JUMPDEST PUSH2 0xD7 PUSH2 0x318 JUMP JUMPDEST PUSH2 0xD7 PUSH2 0xF7 CALLDATASIZE PUSH1 0x4 PUSH2 0xCC1 JUMP JUMPDEST PUSH2 0x3C4 JUMP JUMPDEST PUSH2 0xD7 PUSH2 0x10A CALLDATASIZE PUSH1 0x4 PUSH2 0xCEE JUMP JUMPDEST PUSH2 0x47B JUMP JUMPDEST PUSH2 0xD7 PUSH2 0x11D CALLDATASIZE PUSH1 0x4 PUSH2 0xCC1 JUMP JUMPDEST PUSH2 0x521 JUMP JUMPDEST PUSH2 0xD7 PUSH2 0x130 CALLDATASIZE PUSH1 0x4 PUSH2 0xCC1 JUMP JUMPDEST PUSH2 0x647 JUMP JUMPDEST PUSH2 0xD7 PUSH2 0x143 CALLDATASIZE PUSH1 0x4 PUSH2 0xCC1 JUMP JUMPDEST PUSH2 0x6FE JUMP JUMPDEST PUSH2 0xD7 PUSH2 0x156 CALLDATASIZE PUSH1 0x4 PUSH2 0xCEE JUMP JUMPDEST PUSH2 0x7B5 JUMP JUMPDEST PUSH2 0xD7 PUSH2 0x169 CALLDATASIZE PUSH1 0x4 PUSH2 0xCC1 JUMP JUMPDEST PUSH2 0x870 JUMP JUMPDEST PUSH2 0xD7 PUSH2 0x927 JUMP JUMPDEST PUSH2 0xD7 PUSH2 0x184 CALLDATASIZE PUSH1 0x4 PUSH2 0xCC1 JUMP JUMPDEST PUSH2 0x9C7 JUMP JUMPDEST PUSH2 0xD7 PUSH2 0x197 CALLDATASIZE PUSH1 0x4 PUSH2 0xCC1 JUMP JUMPDEST PUSH2 0xA7E JUMP JUMPDEST PUSH2 0x1A4 PUSH2 0xB78 JUMP JUMPDEST PUSH0 PUSH2 0x1AD PUSH2 0xBD4 JUMP JUMPDEST PUSH1 0x9 DUP2 ADD SLOAD SWAP1 SWAP2 POP PUSH1 0x1 PUSH1 0x1 PUSH1 0xA0 SHL SUB AND CALLER EQ PUSH2 0x1DD JUMPI PUSH1 0x40 MLOAD PUSH4 0xEA8E4EB5 PUSH1 0xE0 SHL DUP2 MSTORE PUSH1 0x4 ADD PUSH1 0x40 MLOAD DUP1 SWAP2 SUB SWAP1 REVERT JUMPDEST DUP1 PUSH1 0xD ADD SLOAD PUSH0 SUB PUSH2 0x201 JUMPI PUSH1 0x40 MLOAD PUSH4 0x4716DB35 PUSH1 0xE0 SHL DUP2 MSTORE PUSH1 0x4 ADD PUSH1 0x40 MLOAD DUP1 SWAP2 SUB SWAP1 REVERT JUMPDEST PUSH1 0xD DUP2 ADD DUP1 SLOAD PUSH0 SWAP1 SWAP2 SSTORE PUSH1 0x9 DUP3 ADD SLOAD PUSH1 0x4 DUP4 ADD SLOAD PUSH2 0x22C SWAP2 PUSH1 0x1 PUSH1 0x1 PUSH1 0xA0 SHL SUB SWAP2 DUP3 AND SWAP2 AND DUP4 PUSH2 0xBF8 JUMP JUMPDEST PUSH1 0x40 MLOAD DUP2 DUP2 MSTORE PUSH32 0x860C0AA5520013080C2F65981705FCDEA474D9F7C3DAF954656ED5E65D692D1F SWAP1 PUSH1 0x20 ADD PUSH1 0x40 MLOAD DUP1 SWAP2 SUB SWAP1 LOG1 POP POP PUSH2 0x26A PUSH1 0x1 PUSH0 SSTORE JUMP JUMPDEST JUMP JUMPDEST PUSH0 PUSH2 0x275 PUSH2 0xBD4 JUMP JUMPDEST DUP1 SLOAD SWAP1 SWAP2 POP PUSH1 0x1 PUSH1 0x1 PUSH1 0xA0 SHL SUB AND CALLER EQ PUSH2 0x2A2 JUMPI PUSH1 0x40 MLOAD PUSH4 0xEA8E4EB5 PUSH1 0xE0 SHL DUP2 MSTORE PUSH1 0x4 ADD PUSH1 0x40 MLOAD DUP1 SWAP2 SUB SWAP1 REVERT JUMPDEST PUSH0 PUSH2 0x2AB PUSH2 0xBD4 JUMP JUMPDEST PUSH1 0x9 DUP2 ADD DUP1 SLOAD PUSH1 0xFF PUSH1 0x1 PUSH1 0xA0 SHL DUP1 DUP4 DIV DUP3 AND ISZERO DUP2 MUL PUSH1 0xFF PUSH1 0xA0 SHL NOT SWAP1 SWAP4 AND SWAP3 SWAP1 SWAP3 OR SWAP3 DUP4 SWAP1 SSTORE PUSH1 0x40 MLOAD SWAP4 SWAP5 POP PUSH32 0xF3017345AA4F4B1EDF82D1945BA8AAF39D9F284595B090260947F03BC53566F1 SWAP4 PUSH2 0x30C SWAP4 SWAP3 SWAP1 SWAP3 DIV AND ISZERO ISZERO DUP2 MSTORE PUSH1 0x20 ADD SWAP1 JUMP JUMPDEST PUSH1 0x40 MLOAD DUP1 SWAP2 SUB SWAP1 LOG1 POP POP JUMP JUMPDEST PUSH0 PUSH2 0x321 PUSH2 0xBD4 JUMP JUMPDEST DUP1 SLOAD SWAP1 SWAP2 POP PUSH1 0x1 PUSH1 0x1 PUSH1 0xA0 SHL SUB AND CALLER EQ PUSH2 0x34E JUMPI PUSH1 0x40 MLOAD PUSH4 0xEA8E4EB5 PUSH1 0xE0 SHL DUP2 MSTORE PUSH1 0x4 ADD PUSH1 0x40 MLOAD DUP1 SWAP2 SUB SWAP1 REVERT JUMPDEST PUSH0 PUSH2 0x357 PUSH2 0xBD4 JUMP JUMPDEST SWAP1 POP PUSH3 0x15180 DUP2 PUSH1 0xB ADD SLOAD PUSH2 0x36C SWAP2 SWAP1 PUSH2 0xD05 JUMP JUMPDEST TIMESTAMP LT ISZERO PUSH2 0x38C JUMPI PUSH1 0x40 MLOAD PUSH4 0xE10CEB11 PUSH1 0xE0 SHL DUP2 MSTORE PUSH1 0x4 ADD PUSH1 0x40 MLOAD DUP1 SWAP2 SUB SWAP1 REVERT JUMPDEST TIMESTAMP PUSH1 0xB DUP3 ADD DUP2 SWAP1 SSTORE PUSH1 0x40 MLOAD SWAP1 DUP2 MSTORE PUSH32 0x33774F379C2063E81904E4E67242B165586DFC117CB89F7BAEB19E04EF39A3BE SWAP1 PUSH1 0x20 ADD PUSH2 0x30C JUMP JUMPDEST PUSH0 PUSH2 0x3CD PUSH2 0xBD4 JUMP JUMPDEST DUP1 SLOAD SWAP1 SWAP2 POP PUSH1 0x1 PUSH1 0x1 PUSH1 0xA0 SHL SUB AND CALLER EQ PUSH2 0x3FA JUMPI PUSH1 0x40 MLOAD PUSH4 0xEA8E4EB5 PUSH1 0xE0 SHL DUP2 MSTORE PUSH1 0x4 ADD PUSH1 0x40 MLOAD DUP1 SWAP2 SUB SWAP1 REVERT JUMPDEST PUSH1 0x1 PUSH1 0x1 PUSH1 0xA0 SHL SUB DUP3 AND PUSH2 0x421 JUMPI PUSH1 0x40 MLOAD PUSH4 0xE6C4247B PUSH1 0xE0 SHL DUP2 MSTORE PUSH1 0x4 ADD PUSH1 0x40 MLOAD DUP1 SWAP2 SUB SWAP1 REVERT JUMPDEST PUSH0 PUSH2 0x42A PUSH2 0xBD4 JUMP JUMPDEST PUSH1 0x8 DUP2 ADD DUP1 SLOAD PUSH1 0x1 PUSH1 0x1 PUSH1 0xA0 SHL SUB NOT AND PUSH1 0x1 PUSH1 0x1 PUSH1 0xA0 SHL SUB DUP7 AND SWAP1 DUP2 OR SWAP1 SWAP2 SSTORE PUSH1 0x40 MLOAD SWAP2 SWAP3 POP SWAP1 PUSH32 0x66C8EE4F501025A135E9B302CEAD3D51CC5BF10C9496086853C1C961E6D91EE8 SWAP1 PUSH0 SWAP1 LOG2 POP POP POP JUMP JUMPDEST PUSH0 PUSH2 0x484 PUSH2 0xBD4 JUMP JUMPDEST DUP1 SLOAD SWAP1 SWAP2 POP PUSH1 0x1 PUSH1 0x1 PUSH1 0xA0 SHL SUB AND CALLER EQ PUSH2 0x4B1 JUMPI PUSH1 0x40 MLOAD PUSH4 0xEA8E4EB5 PUSH1 0xE0 SHL DUP2 MSTORE PUSH1 0x4 ADD PUSH1 0x40 MLOAD DUP1 SWAP2 SUB SWAP1 REVERT JUMPDEST PUSH0 PUSH2 0x4BA PUSH2 0xBD4 JUMP JUMPDEST SWAP1 POP PUSH0 PUSH2 0x4CA PUSH3 0x2A300 TIMESTAMP PUSH2 0xD05 JUMP JUMPDEST PUSH0 DUP6 DUP2 MSTORE PUSH1 0x1C DUP5 ADD PUSH1 0x20 MSTORE PUSH1 0x40 SWAP1 DUP2 SWAP1 KECCAK256 DUP3 SWAP1 SSTORE MLOAD SWAP1 SWAP2 POP DUP5 SWAP1 PUSH32 0x610F97886F7C2CFA9F3CB01126B63839D9B9EE8DA397C06B368A98856B214634 SWAP1 PUSH2 0x513 SWAP1 DUP5 DUP2 MSTORE PUSH1 0x20 ADD SWAP1 JUMP JUMPDEST PUSH1 0x40 MLOAD DUP1 SWAP2 SUB SWAP1 LOG2 POP POP POP POP JUMP JUMPDEST PUSH0 PUSH2 0x52A PUSH2 0xBD4 JUMP JUMPDEST DUP1 SLOAD SWAP1 SWAP2 POP PUSH1 0x1 PUSH1 0x1 PUSH1 0xA0 SHL SUB AND CALLER EQ PUSH2 0x557 JUMPI PUSH1 0x40 MLOAD PUSH4 0xEA8E4EB5 PUSH1 0xE0 SHL DUP2 MSTORE PUSH1 0x4 ADD PUSH1 0x40 MLOAD DUP1 SWAP2 SUB SWAP1 REVERT JUMPDEST PUSH1 0x1 PUSH1 0x1 PUSH1 0xA0 SHL SUB DUP3 AND PUSH2 0x57E JUMPI PUSH1 0x40 MLOAD PUSH4 0xE6C4247B PUSH1 0xE0 SHL DUP2 MSTORE PUSH1 0x4 ADD PUSH1 0x40 MLOAD DUP1 SWAP2 SUB SWAP1 REVERT JUMPDEST PUSH0 PUSH2 0x587 PUSH2 0xBD4 JUMP JUMPDEST SWAP1 POP PUSH0 DUP4 PUSH1 0x40 MLOAD PUSH1 0x20 ADD PUSH2 0x59B SWAP2 SWAP1 PUSH2 0xD2A JUMP JUMPDEST PUSH1 0x40 DUP1 MLOAD PUSH1 0x1F NOT DUP2 DUP5 SUB ADD DUP2 MSTORE SWAP2 DUP2 MSTORE DUP2 MLOAD PUSH1 0x20 SWAP3 DUP4 ADD KECCAK256 PUSH0 DUP2 DUP2 MSTORE PUSH1 0x1C DUP7 ADD SWAP1 SWAP4 MSTORE SWAP2 KECCAK256 SLOAD SWAP1 SWAP2 POP DUP1 ISZERO DUP1 PUSH2 0x5D0 JUMPI POP DUP1 TIMESTAMP LT JUMPDEST ISZERO PUSH2 0x5EE JUMPI PUSH1 0x40 MLOAD PUSH4 0xF800799B PUSH1 0xE0 SHL DUP2 MSTORE PUSH1 0x4 ADD PUSH1 0x40 MLOAD DUP1 SWAP2 SUB SWAP1 REVERT JUMPDEST DUP3 SLOAD PUSH1 0x1 PUSH1 0x1 PUSH1 0xA0 SHL SUB NOT AND PUSH1 0x1 PUSH1 0x1 PUSH1 0xA0 SHL SUB DUP7 AND OR DUP4 SSTORE PUSH0 DUP3 DUP2 MSTORE PUSH1 0x1C DUP5 ADD PUSH1 0x20 MSTORE PUSH1 0x40 DUP1 DUP3 KECCAK256 DUP3 SWAP1 SSTORE MLOAD DUP4 SWAP2 PUSH32 0x1277662F4B42B8A4069E99FB5E41CE8919D3C621156090AC08FB11ADBCEC66F9 SWAP2 LOG2 POP POP POP POP POP JUMP JUMPDEST PUSH0 PUSH2 0x650 PUSH2 0xBD4 JUMP JUMPDEST DUP1 SLOAD SWAP1 SWAP2 POP PUSH1 0x1 PUSH1 0x1 PUSH1 0xA0 SHL SUB AND CALLER EQ PUSH2 0x67D JUMPI PUSH1 0x40 MLOAD PUSH4 0xEA8E4EB5 PUSH1 0xE0 SHL DUP2 MSTORE PUSH1 0x4 ADD PUSH1 0x40 MLOAD DUP1 SWAP2 SUB SWAP1 REVERT JUMPDEST PUSH1 0x1 PUSH1 0x1 PUSH1 0xA0 SHL SUB DUP3 AND PUSH2 0x6A4 JUMPI PUSH1 0x40 MLOAD PUSH4 0xE6C4247B PUSH1 0xE0 SHL DUP2 MSTORE PUSH1 0x4 ADD PUSH1 0x40 MLOAD DUP1 SWAP2 SUB SWAP1 REVERT JUMPDEST PUSH0 PUSH2 0x6AD PUSH2 0xBD4 JUMP JUMPDEST PUSH1 0x7 DUP2 ADD DUP1 SLOAD PUSH1 0x1 PUSH1 0x1 PUSH1 0xA0 SHL SUB NOT AND PUSH1 0x1 PUSH1 0x1 PUSH1 0xA0 SHL SUB DUP7 AND SWAP1 DUP2 OR SWAP1 SWAP2 SSTORE PUSH1 0x40 MLOAD SWAP2 SWAP3 POP SWAP1 PUSH32 0xB72B4DD67DDCBCD61A6EBFFBE1CCA26D032C45F9D3A6F3C596E95E298717F746 SWAP1 PUSH0 SWAP1 LOG2 POP POP POP JUMP JUMPDEST PUSH0 PUSH2 0x707 PUSH2 0xBD4 JUMP JUMPDEST DUP1 SLOAD SWAP1 SWAP2 POP PUSH1 0x1 PUSH1 0x1 PUSH1 0xA0 SHL SUB AND CALLER EQ PUSH2 0x734 JUMPI PUSH1 0x40 MLOAD PUSH4 0xEA8E4EB5 PUSH1 0xE0 SHL DUP2 MSTORE PUSH1 0x4 ADD PUSH1 0x40 MLOAD DUP1 SWAP2 SUB SWAP1 REVERT JUMPDEST PUSH1 0x1 PUSH1 0x1 PUSH1 0xA0 SHL SUB DUP3 AND PUSH2 0x75B JUMPI PUSH1 0x40 MLOAD PUSH4 0xE6C4247B PUSH1 0xE0 SHL DUP2 MSTORE PUSH1 0x4 ADD PUSH1 0x40 MLOAD DUP1 SWAP2 SUB SWAP1 REVERT JUMPDEST PUSH0 PUSH2 0x764 PUSH2 0xBD4 JUMP JUMPDEST PUSH1 0x9 DUP2 ADD DUP1 SLOAD PUSH1 0x1 PUSH1 0x1 PUSH1 0xA0 SHL SUB NOT AND PUSH1 0x1 PUSH1 0x1 PUSH1 0xA0 SHL SUB DUP7 AND SWAP1 DUP2 OR SWAP1 SWAP2 SSTORE PUSH1 0x40 MLOAD SWAP2 SWAP3 POP SWAP1 PUSH32 0xE5693914D19C789BDEE50A362998C0BC8D035A835F9871DA5D51152F0582C34F SWAP1 PUSH0 SWAP1 LOG2 POP POP POP JUMP JUMPDEST PUSH0 PUSH2 0x7BE PUSH2 0xBD4 JUMP JUMPDEST DUP1 SLOAD SWAP1 SWAP2 POP PUSH1 0x1 PUSH1 0x1 PUSH1 0xA0 SHL SUB AND CALLER EQ PUSH2 0x7EB JUMPI PUSH1 0x40 MLOAD PUSH4 0xEA8E4EB5 PUSH1 0xE0 SHL DUP2 MSTORE PUSH1 0x4 ADD PUSH1 0x40 MLOAD DUP1 SWAP2 SUB SWAP1 REVERT JUMPDEST PUSH0 PUSH2 0x7F4 PUSH2 0xBD4 JUMP JUMPDEST PUSH0 DUP5 DUP2 MSTORE PUSH1 0x1C DUP3 ADD PUSH1 0x20 MSTORE PUSH1 0x40 SWAP1 KECCAK256 SLOAD SWAP1 SWAP2 POP DUP1 ISZERO DUP1 PUSH2 0x813 JUMPI POP DUP1 TIMESTAMP LT JUMPDEST ISZERO PUSH2 0x831 JUMPI PUSH1 0x40 MLOAD PUSH4 0xF800799B PUSH1 0xE0 SHL DUP2 MSTORE PUSH1 0x4 ADD PUSH1 0x40 MLOAD DUP1 SWAP2 SUB SWAP1 REVERT JUMPDEST PUSH0 DUP5 DUP2 MSTORE PUSH1 0x1C DUP4 ADD PUSH1 0x20 MSTORE PUSH1 0x40 DUP1 DUP3 KECCAK256 DUP3 SWAP1 SSTORE MLOAD DUP6 SWAP2 PUSH32 0x1277662F4B42B8A4069E99FB5E41CE8919D3C621156090AC08FB11ADBCEC66F9 SWAP2 LOG2 POP POP POP POP JUMP JUMPDEST PUSH0 PUSH2 0x879 PUSH2 0xBD4 JUMP JUMPDEST DUP1 SLOAD SWAP1 SWAP2 POP PUSH1 0x1 PUSH1 0x1 PUSH1 0xA0 SHL SUB AND CALLER EQ PUSH2 0x8A6 JUMPI PUSH1 0x40 MLOAD PUSH4 0xEA8E4EB5 PUSH1 0xE0 SHL DUP2 MSTORE PUSH1 0x4 ADD PUSH1 0x40 MLOAD DUP1 SWAP2 SUB SWAP1 REVERT JUMPDEST PUSH1 0x1 PUSH1 0x1 PUSH1 0xA0 SHL SUB DUP3 AND PUSH2 0x8CD JUMPI PUSH1 0x40 MLOAD PUSH4 0xE6C4247B PUSH1 0xE0 SHL DUP2 MSTORE PUSH1 0x4 ADD PUSH1 0x40 MLOAD DUP1 SWAP2 SUB SWAP1 REVERT JUMPDEST PUSH0 PUSH2 0x8D6 PUSH2 0xBD4 JUMP JUMPDEST PUSH1 0x5 DUP2 ADD DUP1 SLOAD PUSH1 0x1 PUSH1 0x1 PUSH1 0xA0 SHL SUB NOT AND PUSH1 0x1 PUSH1 0x1 PUSH1 0xA0 SHL SUB DUP7 AND SWAP1 DUP2 OR SWAP1 SWAP2 SSTORE PUSH1 0x40 MLOAD SWAP2 SWAP3 POP SWAP1 PUSH32 0x7A100DE36A66305ED9CA3998196D0FB9A1806F6DC498D570393B88AB275ED4DF SWAP1 PUSH0 SWAP1 LOG2 POP POP POP JUMP JUMPDEST PUSH0 PUSH2 0x930 PUSH2 0xBD4 JUMP JUMPDEST DUP1 SLOAD SWAP1 SWAP2 POP PUSH1 0x1 PUSH1 0x1 PUSH1 0xA0 SHL SUB AND CALLER EQ PUSH2 0x95D JUMPI PUSH1 0x40 MLOAD PUSH4 0xEA8E4EB5 PUSH1 0xE0 SHL DUP2 MSTORE PUSH1 0x4 ADD PUSH1 0x40 MLOAD DUP1 SWAP2 SUB SWAP1 REVERT JUMPDEST PUSH0 PUSH2 0x966 PUSH2 0xBD4 JUMP JUMPDEST PUSH1 0x9 DUP2 ADD DUP1 SLOAD PUSH1 0xFF PUSH1 0x1 PUSH1 0xA8 SHL DUP1 DUP4 DIV DUP3 AND ISZERO DUP2 MUL PUSH1 0xFF PUSH1 0xA8 SHL NOT SWAP1 SWAP4 AND SWAP3 SWAP1 SWAP3 OR SWAP3 DUP4 SWAP1 SSTORE PUSH1 0x40 MLOAD SWAP4 SWAP5 POP PUSH32 0x19115828B11DF7BF8355D95226507E6ED8D980FC277BDB99594291BF2A466DAB SWAP4 PUSH2 0x30C SWAP4 SWAP3 SWAP1 SWAP3 DIV AND ISZERO ISZERO DUP2 MSTORE PUSH1 0x20 ADD SWAP1 JUMP JUMPDEST PUSH0 PUSH2 0x9D0 PUSH2 0xBD4 JUMP JUMPDEST DUP1 SLOAD SWAP1 SWAP2 POP PUSH1 0x1 PUSH1 0x1 PUSH1 0xA0 SHL SUB AND CALLER EQ PUSH2 0x9FD JUMPI PUSH1 0x40 MLOAD PUSH4 0xEA8E4EB5 PUSH1 0xE0 SHL DUP2 MSTORE PUSH1 0x4 ADD PUSH1 0x40 MLOAD DUP1 SWAP2 SUB SWAP1 REVERT JUMPDEST PUSH1 0x1 PUSH1 0x1 PUSH1 0xA0 SHL SUB DUP3 AND PUSH2 0xA24 JUMPI PUSH1 0x40 MLOAD PUSH4 0xE6C4247B PUSH1 0xE0 SHL DUP2 MSTORE PUSH1 0x4 ADD PUSH1 0x40 MLOAD DUP1 SWAP2 SUB SWAP1 REVERT JUMPDEST PUSH0 PUSH2 0xA2D PUSH2 0xBD4 JUMP JUMPDEST PUSH1 0x6 DUP2 ADD DUP1 SLOAD PUSH1 0x1 PUSH1 0x1 PUSH1 0xA0 SHL SUB NOT AND PUSH1 0x1 PUSH1 0x1 PUSH1 0xA0 SHL SUB DUP7 AND SWAP1 DUP2 OR SWAP1 SWAP2 SSTORE PUSH1 0x40 MLOAD SWAP2 SWAP3 POP SWAP1 PUSH32 0xD97B0528DF15F8AE38AF640FF9002C863E7DDE420B1B18F78AE48F42F78DC5DB SWAP1 PUSH0 SWAP1 LOG2 POP POP POP JUMP JUMPDEST PUSH0 PUSH2 0xA87 PUSH2 0xBD4 JUMP JUMPDEST DUP1 SLOAD SWAP1 SWAP2 POP PUSH1 0x1 PUSH1 0x1 PUSH1 0xA0 SHL SUB AND CALLER EQ PUSH2 0xAB4 JUMPI PUSH1 0x40 MLOAD PUSH4 0xEA8E4EB5 PUSH1 0xE0 SHL DUP2 MSTORE PUSH1 0x4 ADD PUSH1 0x40 MLOAD DUP1 SWAP2 SUB SWAP1 REVERT JUMPDEST PUSH1 0x1 PUSH1 0x1 PUSH1 0xA0 SHL SUB DUP3 AND PUSH2 0xADB JUMPI PUSH1 0x40 MLOAD PUSH4 0xE6C4247B PUSH1 0xE0 SHL DUP2 MSTORE PUSH1 0x4 ADD PUSH1 0x40 MLOAD DUP1 SWAP2 SUB SWAP1 REVERT JUMPDEST PUSH0 PUSH2 0xAE4 PUSH2 0xBD4 JUMP JUMPDEST SWAP1 POP PUSH0 DUP4 PUSH1 0x40 MLOAD PUSH1 0x20 ADD PUSH2 0xAF8 SWAP2 SWAP1 PUSH2 0xD2A JUMP JUMPDEST PUSH1 0x40 MLOAD PUSH1 0x20 DUP2 DUP4 SUB SUB DUP2 MSTORE SWAP1 PUSH1 0x40 MSTORE DUP1 MLOAD SWAP1 PUSH1 0x20 ADD KECCAK256 SWAP1 POP PUSH0 PUSH3 0x2A300 TIMESTAMP PUSH2 0xB20 SWAP2 SWAP1 PUSH2 0xD05 JUMP JUMPDEST PUSH0 DUP4 DUP2 MSTORE PUSH1 0x1C DUP6 ADD PUSH1 0x20 MSTORE PUSH1 0x40 SWAP1 DUP2 SWAP1 KECCAK256 DUP3 SWAP1 SSTORE MLOAD SWAP1 SWAP2 POP DUP3 SWAP1 PUSH32 0x610F97886F7C2CFA9F3CB01126B63839D9B9EE8DA397C06B368A98856B214634 SWAP1 PUSH2 0xB69 SWAP1 DUP5 DUP2 MSTORE PUSH1 0x20 ADD SWAP1 JUMP JUMPDEST PUSH1 0x40 MLOAD DUP1 SWAP2 SUB SWAP1 LOG2 POP POP POP POP POP JUMP JUMPDEST PUSH1 0x2 PUSH0 SLOAD SUB PUSH2 0xBCE JUMPI PUSH1 0x40 MLOAD PUSH3 0x461BCD PUSH1 0xE5 SHL DUP2 MSTORE PUSH1 0x20 PUSH1 0x4 DUP3 ADD MSTORE PUSH1 0x1F PUSH1 0x24 DUP3 ADD MSTORE PUSH32 0x5265656E7472616E637947756172643A207265656E7472616E742063616C6C00 PUSH1 0x44 DUP3 ADD MSTORE PUSH1 0x64 ADD JUMPDEST PUSH1 0x40 MLOAD DUP1 SWAP2 SUB SWAP1 REVERT JUMPDEST PUSH1 0x2 PUSH0 SSTORE JUMP JUMPDEST PUSH32 0x5D15B553C07BE9B4A8CF4265C997D4479F22E1843183FA58504508C561FB9D50 SWAP1 JUMP JUMPDEST PUSH1 0x40 DUP1 MLOAD PUSH1 0x1 PUSH1 0x1 PUSH1 0xA0 SHL SUB DUP5 AND PUSH1 0x24 DUP3 ADD MSTORE PUSH1 0x44 DUP1 DUP3 ADD DUP5 SWAP1 MSTORE DUP3 MLOAD DUP1 DUP4 SUB SWAP1 SWAP2 ADD DUP2 MSTORE PUSH1 0x64 SWAP1 SWAP2 ADD SWAP1 SWAP2 MSTORE PUSH1 0x20 DUP2 ADD DUP1 MLOAD PUSH1 0x1 PUSH1 0x1 PUSH1 0xE0 SHL SUB AND PUSH4 0xA9059CBB PUSH1 0xE0 SHL OR SWAP1 MSTORE PUSH2 0xC4A SWAP1 DUP5 SWAP1 PUSH2 0xC4F JUMP JUMPDEST POP POP POP JUMP JUMPDEST PUSH0 PUSH0 PUSH1 0x20 PUSH0 DUP5 MLOAD PUSH1 0x20 DUP7 ADD PUSH0 DUP9 GAS CALL DUP1 PUSH2 0xC6E JUMPI PUSH1 0x40 MLOAD RETURNDATASIZE PUSH0 DUP3 RETURNDATACOPY RETURNDATASIZE DUP2 REVERT JUMPDEST POP POP PUSH0 MLOAD RETURNDATASIZE SWAP2 POP DUP2 ISZERO PUSH2 0xC85 JUMPI DUP1 PUSH1 0x1 EQ ISZERO PUSH2 0xC92 JUMP JUMPDEST PUSH1 0x1 PUSH1 0x1 PUSH1 0xA0 SHL SUB DUP5 AND EXTCODESIZE ISZERO JUMPDEST ISZERO PUSH2 0xCBB JUMPI PUSH1 0x40 MLOAD PUSH4 0x5274AFE7 PUSH1 0xE0 SHL DUP2 MSTORE PUSH1 0x1 PUSH1 0x1 PUSH1 0xA0 SHL SUB DUP6 AND PUSH1 0x4 DUP3 ADD MSTORE PUSH1 0x24 ADD PUSH2 0xBC5 JUMP JUMPDEST POP POP POP POP JUMP JUMPDEST PUSH0 PUSH1 0x20 DUP3 DUP5 SUB SLT ISZERO PUSH2 0xCD1 JUMPI PUSH0 PUSH0 REVERT JUMPDEST DUP2 CALLDATALOAD PUSH1 0x1 PUSH1 0x1 PUSH1 0xA0 SHL SUB DUP2 AND DUP2 EQ PUSH2 0xCE7 JUMPI PUSH0 PUSH0 REVERT JUMPDEST SWAP4 SWAP3 POP POP POP JUMP JUMPDEST PUSH0 PUSH1 0x20 DUP3 DUP5 SUB SLT ISZERO PUSH2 0xCFE JUMPI PUSH0 PUSH0 REVERT JUMPDEST POP CALLDATALOAD SWAP2 SWAP1 POP JUMP JUMPDEST DUP1 DUP3 ADD DUP1 DUP3 GT ISZERO PUSH2 0xD24 JUMPI PUSH4 0x4E487B71 PUSH1 0xE0 SHL PUSH0 MSTORE PUSH1 0x11 PUSH1 0x4 MSTORE PUSH1 0x24 PUSH0 REVERT JUMPDEST SWAP3 SWAP2 POP POP JUMP JUMPDEST PUSH17 0x7472616E736665724F776E65727368697 PUSH1 0x7C SHL DUP2 MSTORE PUSH1 0x60 SWAP2 SWAP1 SWAP2 SHL PUSH12 0xFFFFFFFFFFFFFFFFFFFFFFFF NOT AND PUSH1 0x11 DUP3 ADD MSTORE PUSH1 0x25 ADD SWAP1 JUMP INVALID LOG2 PUSH5 0x6970667358 0x22 SLT KECCAK256 CREATE2 JUMPF 0x6854 0xB5 SWAP1 DATALOADN 0xB620 0x29 0xC7 DIV SUB SUB 0xBB 0xC4 PUSH22 0x8535B289728C98991AB766788DCC9364736F6C634300 ADDMOD SAR STOP CALLER "
		},
		"gasEstimates": {
			"creation": {
				"codeDepositCost": "695800",
				"executionCost": "22831",
				"totalCost": "718631"
			},
			"external": {
				"collectAccumulatedFees()": "infinite",
				"completeOwnershipTransfer(address)": "infinite",
				"executeOperation(bytes32)": "infinite",
				"queueOperation(bytes32)": "infinite",
				"setFeeCollector(address)": "infinite",
				"setLidoWithdrawalAddress(address)": "infinite",
				"setReceiverContract(address)": "infinite",
				"setSwapContract(address)": "infinite",
				"setWstETHAddress(address)": "infinite",
				"toggleDeposits()": "infinite",
				"toggleEmergencyShutdown()": "infinite",
				"transferOwnership(address)": "infinite",
				"triggerDailyUpdate()": "infinite"
			}
		},
		"methodIdentifiers": {
			"collectAccumulatedFees()": "062776bf",
			"completeOwnershipTransfer(address)": "798b4739",
			"executeOperation(bytes32)": "cbaf2fa7",
			"queueOperation(bytes32)": "617f3989",
			"setFeeCollector(address)": "a42dce80",
			"setLidoWithdrawalAddress(address)": "e458d453",
			"setReceiverContract(address)": "37214ad0",
			"setSwapContract(address)": "d259ab42",
			"setWstETHAddress(address)": "8024e968",
			"toggleDeposits()": "d907813c",
			"toggleEmergencyShutdown()": "29175b8c",
			"transferOwnership(address)": "f2fde38b",
			"triggerDailyUpdate()": "2f2a9165"
		}
	},
	"abi": [
		{
			"inputs": [],
			"name": "InvalidAddress",
			"type": "error"
		},
		{
			"inputs": [],
			"name": "NotAuthorized",
			"type": "error"
		},
		{
			"inputs": [],
			"name": "OperationNotReady",
			"type": "error"
		},
		{
			"inputs": [
				{
					"internalType": "address",
					"name": "token",
					"type": "address"
				}
			],
			"name": "SafeERC20FailedOperation",
			"type": "error"
		},
		{
			"inputs": [],
			"name": "TooSoonToUpdate",
			"type": "error"
		},
		{
			"inputs": [],
			"name": "ZeroFees",
			"type": "error"
		},
		{
			"anonymous": false,
			"inputs": [
				{
					"indexed": false,
					"internalType": "uint256",
					"name": "timestamp",
					"type": "uint256"
				}
			],
			"name": "DailyUpdateTriggered",
			"type": "event"
		},
		{
			"anonymous": false,
			"inputs": [
				{
					"indexed": false,
					"internalType": "bool",
					"name": "paused",
					"type": "bool"
				}
			],
			"name": "DepositsPausedToggled",
			"type": "event"
		},
		{
			"anonymous": false,
			"inputs": [
				{
					"indexed": false,
					"internalType": "bool",
					"name": "enabled",
					"type": "bool"
				}
			],
			"name": "EmergencyShutdownToggled",
			"type": "event"
		},
		{
			"anonymous": false,
			"inputs": [
				{
					"indexed": true,
					"internalType": "address",
					"name": "newFeeCollector",
					"type": "address"
				}
			],
			"name": "FeeCollectorUpdated",
			"type": "event"
		},
		{
			"anonymous": false,
			"inputs": [
				{
					"indexed": false,
					"internalType": "uint256",
					"name": "amount",
					"type": "uint256"
				}
			],
			"name": "FeesCollected",
			"type": "event"
		},
		{
			"anonymous": false,
			"inputs": [
				{
					"indexed": true,
					"internalType": "address",
					"name": "newAddress",
					"type": "address"
				}
			],
			"name": "LidoWithdrawalAddressUpdated",
			"type": "event"
		},
		{
			"anonymous": false,
			"inputs": [
				{
					"indexed": true,
					"internalType": "bytes32",
					"name": "operationId",
					"type": "bytes32"
				}
			],
			"name": "OperationExecuted",
			"type": "event"
		},
		{
			"anonymous": false,
			"inputs": [
				{
					"indexed": true,
					"internalType": "bytes32",
					"name": "operationId",
					"type": "bytes32"
				},
				{
					"indexed": false,
					"internalType": "uint256",
					"name": "unlockTime",
					"type": "uint256"
				}
			],
			"name": "OperationQueued",
			"type": "event"
		},
		{
			"anonymous": false,
			"inputs": [
				{
					"indexed": true,
					"internalType": "address",
					"name": "newAddress",
					"type": "address"
				}
			],
			"name": "ReceiverContractUpdated",
			"type": "event"
		},
		{
			"anonymous": false,
			"inputs": [
				{
					"indexed": true,
					"internalType": "address",
					"name": "newAddress",
					"type": "address"
				}
			],
			"name": "SwapContractUpdated",
			"type": "event"
		},
		{
			"anonymous": false,
			"inputs": [
				{
					"indexed": true,
					"internalType": "address",
					"name": "newAddress",
					"type": "address"
				}
			],
			"name": "WstETHAddressUpdated",
			"type": "event"
		},
		{
			"inputs": [],
			"name": "collectAccumulatedFees",
			"outputs": [],
			"stateMutability": "nonpayable",
			"type": "function"
		},
		{
			"inputs": [
				{
					"internalType": "address",
					"name": "newOwner",
					"type": "address"
				}
			],
			"name": "completeOwnershipTransfer",
			"outputs": [],
			"stateMutability": "nonpayable",
			"type": "function"
		},
		{
			"inputs": [
				{
					"internalType": "bytes32",
					"name": "operationId",
					"type": "bytes32"
				}
			],
			"name": "executeOperation",
			"outputs": [],
			"stateMutability": "nonpayable",
			"type": "function"
		},
		{
			"inputs": [
				{
					"internalType": "bytes32",
					"name": "operationId",
					"type": "bytes32"
				}
			],
			"name": "queueOperation",
			"outputs": [],
			"stateMutability": "nonpayable",
			"type": "function"
		},
		{
			"inputs": [
				{
					"internalType": "address",
					"name": "_feeCollector",
					"type": "address"
				}
			],
			"name": "setFeeCollector",
			"outputs": [],
			"stateMutability": "nonpayable",
			"type": "function"
		},
		{
			"inputs": [
				{
					"internalType": "address",
					"name": "_lidoWithdrawal",
					"type": "address"
				}
			],
			"name": "setLidoWithdrawalAddress",
			"outputs": [],
			"stateMutability": "nonpayable",
			"type": "function"
		},
		{
			"inputs": [
				{
					"internalType": "address",
					"name": "_receiver",
					"type": "address"
				}
			],
			"name": "setReceiverContract",
			"outputs": [],
			"stateMutability": "nonpayable",
			"type": "function"
		},
		{
			"inputs": [
				{
					"internalType": "address",
					"name": "_swapContract",
					"type": "address"
				}
			],
			"name": "setSwapContract",
			"outputs": [],
			"stateMutability": "nonpayable",
			"type": "function"
		},
		{
			"inputs": [
				{
					"internalType": "address",
					"name": "_wstETH",
					"type": "address"
				}
			],
			"name": "setWstETHAddress",
			"outputs": [],
			"stateMutability": "nonpayable",
			"type": "function"
		},
		{
			"inputs": [],
			"name": "toggleDeposits",
			"outputs": [],
			"stateMutability": "nonpayable",
			"type": "function"
		},
		{
			"inputs": [],
			"name": "toggleEmergencyShutdown",
			"outputs": [],
			"stateMutability": "nonpayable",
			"type": "function"
		},
		{
			"inputs": [
				{
					"internalType": "address",
					"name": "newOwner",
					"type": "address"
				}
			],
			"name": "transferOwnership",
			"outputs": [],
			"stateMutability": "nonpayable",
			"type": "function"
		},
		{
			"inputs": [],
			"name": "triggerDailyUpdate",
			"outputs": [],
			"stateMutability": "nonpayable",
			"type": "function"
		}
	]
}