{
	"data": {
		"bytecode": {
			"linkReferences": {},
			"object": "6080604052348015600e575f5ffd5b506112708061001c5f395ff3fe608060405234801561000f575f5ffd5b506004361061011c575f3560e01c8063929ec537116100a9578063d1260edd1161006e578063d1260edd14610415578063dbed1e881461045c578063dee7db901461047c578063f677717514610484578063f85503b914610497575f5ffd5b8063929ec5371461036e578063981ef661146103815780639bd18fb014610394578063be5e8d11146103bb578063c6e6f59214610402575f5ffd5b80633ba0b9a9116100ef5780633ba0b9a9146101b35780635df45a37146101bb5780636bd50cef146101e257806370a08231146103295780637491687e1461033c575f5ffd5b806301e1d1141461012057806307a2d13a1461015657806335a058f5146101695780633a98ef391461018c575b5f5ffd5b7f5d15b553c07be9b4a8cf4265c997d4479f22e1843183fa58504508c561fb9d51545b6040519081526020015b60405180910390f35b61014361016436600461103c565b6104af565b61017c610177366004611053565b610528565b60405161014d94939291906110b3565b7f5d15b553c07be9b4a8cf4265c997d4479f22e1843183fa58504508c561fb9d5254610143565b6101436107b9565b7f5d15b553c07be9b4a8cf4265c997d4479f22e1843183fa58504508c561fb9d5d54610143565b5f51602061121b5f395f51905f52547f5d15b553c07be9b4a8cf4265c997d4479f22e1843183fa58504508c561fb9d59547f5d15b553c07be9b4a8cf4265c997d4479f22e1843183fa58504508c561fb9d54547f5d15b553c07be9b4a8cf4265c997d4479f22e1843183fa58504508c561fb9d56547f5d15b553c07be9b4a8cf4265c997d4479f22e1843183fa58504508c561fb9d57547f5d15b553c07be9b4a8cf4265c997d4479f22e1843183fa58504508c561fb9d58547f5d15b553c07be9b4a8cf4265c997d4479f22e1843183fa58504508c561fb9d5554604080516001600160a01b03988916815288881660208201529588169086015292861660608501529085166080840152841660a08301529290921660c083015260ff600160a01b82048116151560e0840152600160a81b9091041615156101008201526101200161014d565b610143610337366004611053565b610837565b61034f61034a366004611053565b610870565b604080519315158452602084019290925215159082015260600161014d565b61014361037c366004611053565b610966565b61014361038f366004611053565b6109a2565b7f5d15b553c07be9b4a8cf4265c997d4479f22e1843183fa58504508c561fb9d5354610143565b6101436103c9366004611053565b6001600160a01b03165f9081527f5d15b553c07be9b4a8cf4265c997d4479f22e1843183fa58504508c561fb9d65602052604090205490565b61014361041036600461103c565b6109e1565b610143610423366004611053565b6001600160a01b03165f9081527f5d15b553c07be9b4a8cf4265c997d4479f22e1843183fa58504508c561fb9d60602052604090205490565b61046f61046a366004611053565b610a62565b60405161014d9190611133565b610143610ccb565b610143610492366004611053565b610da6565b61049f610fef565b604051901515815260200161014d565b7f5d15b553c07be9b4a8cf4265c997d4479f22e1843183fa58504508c561fb9d52545f905f51602061121b5f395f51905f529082036104ef575090919050565b5f816003015482600101546105049190611159565b60028301549091506105168286611172565b6105209190611189565b949350505050565b6001600160a01b0381165f9081527f5d15b553c07be9b4a8cf4265c997d4479f22e1843183fa58504508c561fb9d6d6020526040902080546060918291829182915f51602061121b5f395f51905f5291908067ffffffffffffffff811115610592576105926111a8565b6040519080825280602002602001820160405280156105bb578160200160208202803683370190505b5096508067ffffffffffffffff8111156105d7576105d76111a8565b604051908082528060200260200182016040528015610600578160200160208202803683370190505b5095508067ffffffffffffffff81111561061c5761061c6111a8565b604051908082528060200260200182016040528015610645578160200160208202803683370190505b5094508067ffffffffffffffff811115610661576106616111a8565b60405190808252806020026020018201604052801561068a578160200160208202803683370190505b5093505f5b818110156107ae578281815481106106a9576106a96111bc565b905f5260205f2090600402015f01548882815181106106ca576106ca6111bc565b6020026020010181815250508281815481106106e8576106e86111bc565b905f5260205f2090600402016001015487828151811061070a5761070a6111bc565b602002602001018181525050828181548110610728576107286111bc565b905f5260205f2090600402016002015486828151811061074a5761074a6111bc565b602002602001018181525050828181548110610768576107686111bc565b905f5260205f2090600402016003015f9054906101000a900460ff16858281518110610796576107966111bc565b9115156020928302919091019091015260010161068f565b505050509193509193565b7f5d15b553c07be9b4a8cf4265c997d4479f22e1843183fa58504508c561fb9d52545f905f51602061121b5f395f51905f529082036107fc57620f424091505090565b5f816003015482600101546108119190611159565b600283015490915061082682620f4240611172565b6108309190611189565b9250505090565b6001600160a01b03165f9081527f5d15b553c07be9b4a8cf4265c997d4479f22e1843183fa58504508c561fb9d5f602052604090205490565b6001600160a01b0381165f9081527f5d15b553c07be9b4a8cf4265c997d4479f22e1843183fa58504508c561fb9d6660209081526040808320547f5d15b553c07be9b4a8cf4265c997d4479f22e1843183fa58504508c561fb9d6790925282205460ff909116915f51602061121b5f395f51905f52826108f0575f61095d565b60068101546040516311e040dd60e31b8152600481018590526001600160a01b0390911690638f0206e890602401602060405180830381865afa158015610939573d5f5f3e3d5ffd5b505050506040513d601f19601f8201168201806040525081019061095d91906111d0565b93959294505050565b5f5f61097183610da6565b90505f61098061016485610837565b9050808210156109995761099482826111ef565b610520565b5f949350505050565b5f5f6109ad83610a62565b905080515f036109bf57505f92915050565b805f815181106109d1576109d16111bc565b6020026020010151915050919050565b7f5d15b553c07be9b4a8cf4265c997d4479f22e1843183fa58504508c561fb9d51545f905f51602061121b5f395f51905f52901580610a2257506002810154155b15610a2e575090919050565b80600301548160010154610a429190611159565b6002820154610a519085611172565b610a5b9190611189565b9392505050565b6001600160a01b0381165f9081527f5d15b553c07be9b4a8cf4265c997d4479f22e1843183fa58504508c561fb9d6d602052604081206060915f51602061121b5f395f51905f529190805b8254811015610af857828181548110610ac857610ac86111bc565b5f91825260209091206003600490920201015460ff16610af05781610aec81611202565b9250505b600101610aad565b505f8167ffffffffffffffff811115610b1357610b136111a8565b604051908082528060200260200182016040528015610b3c578160200160208202803683370190505b5090505f805b8454811015610bda57848181548110610b5d57610b5d6111bc565b5f91825260209091206003600490920201015460ff16610bd25762278d00858281548110610b8d57610b8d6111bc565b905f5260205f20906004020160010154610ba79190611159565b838381518110610bb957610bb96111bc565b602090810291909101015281610bce81611202565b9250505b600101610b42565b505f5b8251811015610cbf575f610bf2826001611159565b90505b8351811015610cb657838281518110610c1057610c106111bc565b6020026020010151848281518110610c2a57610c2a6111bc565b60200260200101511015610cae575f848381518110610c4b57610c4b6111bc565b60200260200101519050848281518110610c6757610c676111bc565b6020026020010151858481518110610c8157610c816111bc565b60200260200101818152505080858381518110610ca057610ca06111bc565b602002602001018181525050505b600101610bf5565b50600101610bdd565b50909695505050505050565b5f5f51602061121b5f395f51905f5281805b600e830154811015610d9f575f83600e018281548110610cff57610cff6111bc565b5f9182526020808320909101546001600160a01b0316808352601d870190915260408220909250905b8154811015610d9457818181548110610d4357610d436111bc565b5f91825260209091206003600490920201015460ff16610d8c57818181548110610d6f57610d6f6111bc565b905f5260205f2090600402015f015485610d899190611159565b94505b600101610d28565b505050600101610cdd565b5092915050565b6001600160a01b0381165f9081527f5d15b553c07be9b4a8cf4265c997d4479f22e1843183fa58504508c561fb9d5f60205260408120545f51602061121b5f395f51905f52908290610df7906104af565b9050805f03610e0957505f9392505050565b6001600160a01b0384165f908152601d8301602052604081208054909103610e83576001600160a01b0385165f908152601184016020526040812054610e539062278d0090611159565b4210905080610e625782610e79565b6064610e6f603c85611172565b610e799190611189565b9695505050505050565b5f80805b8354811015610f5c57838181548110610ea257610ea26111bc565b5f91825260209091206003600490920201015460ff16610f545762278d00848281548110610ed257610ed26111bc565b905f5260205f20906004020160010154610eec9190611159565b4210610f2557838181548110610f0457610f046111bc565b905f5260205f2090600402015f015483610f1e9190611159565b9250610f54565b838181548110610f3757610f376111bc565b905f5260205f2090600402015f015482610f519190611159565b91505b600101610e87565b505f610f688284611159565b9050801580610f75575081155b15610f865750929695505050505050565b5f6064610f94603c85611172565b610f9e9190611189565b90505f610fab8286611159565b90505f83610fbc83620f4240611172565b610fc69190611189565b9050620f4240610fd6828a611172565b610fe09190611189565b9b9a5050505050505050505050565b7f5d15b553c07be9b4a8cf4265c997d4479f22e1843183fa58504508c561fb9d5b545f905f51602061121b5f395f51905f52906201518090611032908290611159565b4210159250505090565b5f6020828403121561104c575f5ffd5b5035919050565b5f60208284031215611063575f5ffd5b81356001600160a01b0381168114610a5b575f5ffd5b5f8151808452602084019350602083015f5b828110156110a957815186526020958601959091019060010161108b565b5093949350505050565b608081525f6110c56080830187611079565b82810360208401526110d78187611079565b905082810360408401526110eb8186611079565b8381036060850152845180825260208087019350909101905f5b818110156111255783511515835260209384019390920191600101611105565b509098975050505050505050565b602081525f610a5b6020830184611079565b634e487b7160e01b5f52601160045260245ffd5b8082018082111561116c5761116c611145565b92915050565b808202811582820484141761116c5761116c611145565b5f826111a357634e487b7160e01b5f52601260045260245ffd5b500490565b634e487b7160e01b5f52604160045260245ffd5b634e487b7160e01b5f52603260045260245ffd5b5f602082840312156111e0575f5ffd5b81518015158114610a5b575f5ffd5b8181038181111561116c5761116c611145565b5f6001820161121357611213611145565b506001019056fe5d15b553c07be9b4a8cf4265c997d4479f22e1843183fa58504508c561fb9d50a264697066735822122015d54d0420fde64b871b81b6dbf2d2fd196d0076c70861517f90b1fc987aa9e864736f6c634300081d0033",
			"opcodes": "PUSH1 0x80 PUSH1 0x40 MSTORE CALLVALUE DUP1 ISZERO PUSH1 0xE JUMPI PUSH0 PUSH0 REVERT JUMPDEST POP PUSH2 0x1270 DUP1 PUSH2 0x1C PUSH0 CODECOPY PUSH0 RETURN INVALID PUSH1 0x80 PUSH1 0x40 MSTORE CALLVALUE DUP1 ISZERO PUSH2 0xF JUMPI PUSH0 PUSH0 REVERT JUMPDEST POP PUSH1 0x4 CALLDATASIZE LT PUSH2 0x11C JUMPI PUSH0 CALLDATALOAD PUSH1 0xE0 SHR DUP1 PUSH4 0x929EC537 GT PUSH2 0xA9 JUMPI DUP1 PUSH4 0xD1260EDD GT PUSH2 0x6E JUMPI DUP1 PUSH4 0xD1260EDD EQ PUSH2 0x415 JUMPI DUP1 PUSH4 0xDBED1E88 EQ PUSH2 0x45C JUMPI DUP1 PUSH4 0xDEE7DB90 EQ PUSH2 0x47C JUMPI DUP1 PUSH4 0xF6777175 EQ PUSH2 0x484 JUMPI DUP1 PUSH4 0xF85503B9 EQ PUSH2 0x497 JUMPI PUSH0 PUSH0 REVERT JUMPDEST DUP1 PUSH4 0x929EC537 EQ PUSH2 0x36E JUMPI DUP1 PUSH4 0x981EF661 EQ PUSH2 0x381 JUMPI DUP1 PUSH4 0x9BD18FB0 EQ PUSH2 0x394 JUMPI DUP1 PUSH4 0xBE5E8D11 EQ PUSH2 0x3BB JUMPI DUP1 PUSH4 0xC6E6F592 EQ PUSH2 0x402 JUMPI PUSH0 PUSH0 REVERT JUMPDEST DUP1 PUSH4 0x3BA0B9A9 GT PUSH2 0xEF JUMPI DUP1 PUSH4 0x3BA0B9A9 EQ PUSH2 0x1B3 JUMPI DUP1 PUSH4 0x5DF45A37 EQ PUSH2 0x1BB JUMPI DUP1 PUSH4 0x6BD50CEF EQ PUSH2 0x1E2 JUMPI DUP1 PUSH4 0x70A08231 EQ PUSH2 0x329 JUMPI DUP1 PUSH4 0x7491687E EQ PUSH2 0x33C JUMPI PUSH0 PUSH0 REVERT JUMPDEST DUP1 PUSH4 0x1E1D114 EQ PUSH2 0x120 JUMPI DUP1 PUSH4 0x7A2D13A EQ PUSH2 0x156 JUMPI DUP1 PUSH4 0x35A058F5 EQ PUSH2 0x169 JUMPI DUP1 PUSH4 0x3A98EF39 EQ PUSH2 0x18C JUMPI JUMPDEST PUSH0 PUSH0 REVERT JUMPDEST PUSH32 0x5D15B553C07BE9B4A8CF4265C997D4479F22E1843183FA58504508C561FB9D51 SLOAD JUMPDEST PUSH1 0x40 MLOAD SWAP1 DUP2 MSTORE PUSH1 0x20 ADD JUMPDEST PUSH1 0x40 MLOAD DUP1 SWAP2 SUB SWAP1 RETURN JUMPDEST PUSH2 0x143 PUSH2 0x164 CALLDATASIZE PUSH1 0x4 PUSH2 0x103C JUMP JUMPDEST PUSH2 0x4AF JUMP JUMPDEST PUSH2 0x17C PUSH2 0x177 CALLDATASIZE PUSH1 0x4 PUSH2 0x1053 JUMP JUMPDEST PUSH2 0x528 JUMP JUMPDEST PUSH1 0x40 MLOAD PUSH2 0x14D SWAP5 SWAP4 SWAP3 SWAP2 SWAP1 PUSH2 0x10B3 JUMP JUMPDEST PUSH32 0x5D15B553C07BE9B4A8CF4265C997D4479F22E1843183FA58504508C561FB9D52 SLOAD PUSH2 0x143 JUMP JUMPDEST PUSH2 0x143 PUSH2 0x7B9 JUMP JUMPDEST PUSH32 0x5D15B553C07BE9B4A8CF4265C997D4479F22E1843183FA58504508C561FB9D5D SLOAD PUSH2 0x143 JUMP JUMPDEST PUSH0 MLOAD PUSH1 0x20 PUSH2 0x121B PUSH0 CODECOPY PUSH0 MLOAD SWAP1 PUSH0 MSTORE SLOAD PUSH32 0x5D15B553C07BE9B4A8CF4265C997D4479F22E1843183FA58504508C561FB9D59 SLOAD PUSH32 0x5D15B553C07BE9B4A8CF4265C997D4479F22E1843183FA58504508C561FB9D54 SLOAD PUSH32 0x5D15B553C07BE9B4A8CF4265C997D4479F22E1843183FA58504508C561FB9D56 SLOAD PUSH32 0x5D15B553C07BE9B4A8CF4265C997D4479F22E1843183FA58504508C561FB9D57 SLOAD PUSH32 0x5D15B553C07BE9B4A8CF4265C997D4479F22E1843183FA58504508C561FB9D58 SLOAD PUSH32 0x5D15B553C07BE9B4A8CF4265C997D4479F22E1843183FA58504508C561FB9D55 SLOAD PUSH1 0x40 DUP1 MLOAD PUSH1 0x1 PUSH1 0x1 PUSH1 0xA0 SHL SUB SWAP9 DUP10 AND DUP2 MSTORE DUP9 DUP9 AND PUSH1 0x20 DUP3 ADD MSTORE SWAP6 DUP9 AND SWAP1 DUP7 ADD MSTORE SWAP3 DUP7 AND PUSH1 0x60 DUP6 ADD MSTORE SWAP1 DUP6 AND PUSH1 0x80 DUP5 ADD MSTORE DUP5 AND PUSH1 0xA0 DUP4 ADD MSTORE SWAP3 SWAP1 SWAP3 AND PUSH1 0xC0 DUP4 ADD MSTORE PUSH1 0xFF PUSH1 0x1 PUSH1 0xA0 SHL DUP3 DIV DUP2 AND ISZERO ISZERO PUSH1 0xE0 DUP5 ADD MSTORE PUSH1 0x1 PUSH1 0xA8 SHL SWAP1 SWAP2 DIV AND ISZERO ISZERO PUSH2 0x100 DUP3 ADD MSTORE PUSH2 0x120 ADD PUSH2 0x14D JUMP JUMPDEST PUSH2 0x143 PUSH2 0x337 CALLDATASIZE PUSH1 0x4 PUSH2 0x1053 JUMP JUMPDEST PUSH2 0x837 JUMP JUMPDEST PUSH2 0x34F PUSH2 0x34A CALLDATASIZE PUSH1 0x4 PUSH2 0x1053 JUMP JUMPDEST PUSH2 0x870 JUMP JUMPDEST PUSH1 0x40 DUP1 MLOAD SWAP4 ISZERO ISZERO DUP5 MSTORE PUSH1 0x20 DUP5 ADD SWAP3 SWAP1 SWAP3 MSTORE ISZERO ISZERO SWAP1 DUP3 ADD MSTORE PUSH1 0x60 ADD PUSH2 0x14D JUMP JUMPDEST PUSH2 0x143 PUSH2 0x37C CALLDATASIZE PUSH1 0x4 PUSH2 0x1053 JUMP JUMPDEST PUSH2 0x966 JUMP JUMPDEST PUSH2 0x143 PUSH2 0x38F CALLDATASIZE PUSH1 0x4 PUSH2 0x1053 JUMP JUMPDEST PUSH2 0x9A2 JUMP JUMPDEST PUSH32 0x5D15B553C07BE9B4A8CF4265C997D4479F22E1843183FA58504508C561FB9D53 SLOAD PUSH2 0x143 JUMP JUMPDEST PUSH2 0x143 PUSH2 0x3C9 CALLDATASIZE PUSH1 0x4 PUSH2 0x1053 JUMP JUMPDEST PUSH1 0x1 PUSH1 0x1 PUSH1 0xA0 SHL SUB AND PUSH0 SWAP1 DUP2 MSTORE PUSH32 0x5D15B553C07BE9B4A8CF4265C997D4479F22E1843183FA58504508C561FB9D65 PUSH1 0x20 MSTORE PUSH1 0x40 SWAP1 KECCAK256 SLOAD SWAP1 JUMP JUMPDEST PUSH2 0x143 PUSH2 0x410 CALLDATASIZE PUSH1 0x4 PUSH2 0x103C JUMP JUMPDEST PUSH2 0x9E1 JUMP JUMPDEST PUSH2 0x143 PUSH2 0x423 CALLDATASIZE PUSH1 0x4 PUSH2 0x1053 JUMP JUMPDEST PUSH1 0x1 PUSH1 0x1 PUSH1 0xA0 SHL SUB AND PUSH0 SWAP1 DUP2 MSTORE PUSH32 0x5D15B553C07BE9B4A8CF4265C997D4479F22E1843183FA58504508C561FB9D60 PUSH1 0x20 MSTORE PUSH1 0x40 SWAP1 KECCAK256 SLOAD SWAP1 JUMP JUMPDEST PUSH2 0x46F PUSH2 0x46A CALLDATASIZE PUSH1 0x4 PUSH2 0x1053 JUMP JUMPDEST PUSH2 0xA62 JUMP JUMPDEST PUSH1 0x40 MLOAD PUSH2 0x14D SWAP2 SWAP1 PUSH2 0x1133 JUMP JUMPDEST PUSH2 0x143 PUSH2 0xCCB JUMP JUMPDEST PUSH2 0x143 PUSH2 0x492 CALLDATASIZE PUSH1 0x4 PUSH2 0x1053 JUMP JUMPDEST PUSH2 0xDA6 JUMP JUMPDEST PUSH2 0x49F PUSH2 0xFEF JUMP JUMPDEST PUSH1 0x40 MLOAD SWAP1 ISZERO ISZERO DUP2 MSTORE PUSH1 0x20 ADD PUSH2 0x14D JUMP JUMPDEST PUSH32 0x5D15B553C07BE9B4A8CF4265C997D4479F22E1843183FA58504508C561FB9D52 SLOAD PUSH0 SWAP1 PUSH0 MLOAD PUSH1 0x20 PUSH2 0x121B PUSH0 CODECOPY PUSH0 MLOAD SWAP1 PUSH0 MSTORE SWAP1 DUP3 SUB PUSH2 0x4EF JUMPI POP SWAP1 SWAP2 SWAP1 POP JUMP JUMPDEST PUSH0 DUP2 PUSH1 0x3 ADD SLOAD DUP3 PUSH1 0x1 ADD SLOAD PUSH2 0x504 SWAP2 SWAP1 PUSH2 0x1159 JUMP JUMPDEST PUSH1 0x2 DUP4 ADD SLOAD SWAP1 SWAP2 POP PUSH2 0x516 DUP3 DUP7 PUSH2 0x1172 JUMP JUMPDEST PUSH2 0x520 SWAP2 SWAP1 PUSH2 0x1189 JUMP JUMPDEST SWAP5 SWAP4 POP POP POP POP JUMP JUMPDEST PUSH1 0x1 PUSH1 0x1 PUSH1 0xA0 SHL SUB DUP2 AND PUSH0 SWAP1 DUP2 MSTORE PUSH32 0x5D15B553C07BE9B4A8CF4265C997D4479F22E1843183FA58504508C561FB9D6D PUSH1 0x20 MSTORE PUSH1 0x40 SWAP1 KECCAK256 DUP1 SLOAD PUSH1 0x60 SWAP2 DUP3 SWAP2 DUP3 SWAP2 DUP3 SWAP2 PUSH0 MLOAD PUSH1 0x20 PUSH2 0x121B PUSH0 CODECOPY PUSH0 MLOAD SWAP1 PUSH0 MSTORE SWAP2 SWAP1 DUP1 PUSH8 0xFFFFFFFFFFFFFFFF DUP2 GT ISZERO PUSH2 0x592 JUMPI PUSH2 0x592 PUSH2 0x11A8 JUMP JUMPDEST PUSH1 0x40 MLOAD SWAP1 DUP1 DUP3 MSTORE DUP1 PUSH1 0x20 MUL PUSH1 0x20 ADD DUP3 ADD PUSH1 0x40 MSTORE DUP1 ISZERO PUSH2 0x5BB JUMPI DUP2 PUSH1 0x20 ADD PUSH1 0x20 DUP3 MUL DUP1 CALLDATASIZE DUP4 CALLDATACOPY ADD SWAP1 POP JUMPDEST POP SWAP7 POP DUP1 PUSH8 0xFFFFFFFFFFFFFFFF DUP2 GT ISZERO PUSH2 0x5D7 JUMPI PUSH2 0x5D7 PUSH2 0x11A8 JUMP JUMPDEST PUSH1 0x40 MLOAD SWAP1 DUP1 DUP3 MSTORE DUP1 PUSH1 0x20 MUL PUSH1 0x20 ADD DUP3 ADD PUSH1 0x40 MSTORE DUP1 ISZERO PUSH2 0x600 JUMPI DUP2 PUSH1 0x20 ADD PUSH1 0x20 DUP3 MUL DUP1 CALLDATASIZE DUP4 CALLDATACOPY ADD SWAP1 POP JUMPDEST POP SWAP6 POP DUP1 PUSH8 0xFFFFFFFFFFFFFFFF DUP2 GT ISZERO PUSH2 0x61C JUMPI PUSH2 0x61C PUSH2 0x11A8 JUMP JUMPDEST PUSH1 0x40 MLOAD SWAP1 DUP1 DUP3 MSTORE DUP1 PUSH1 0x20 MUL PUSH1 0x20 ADD DUP3 ADD PUSH1 0x40 MSTORE DUP1 ISZERO PUSH2 0x645 JUMPI DUP2 PUSH1 0x20 ADD PUSH1 0x20 DUP3 MUL DUP1 CALLDATASIZE DUP4 CALLDATACOPY ADD SWAP1 POP JUMPDEST POP SWAP5 POP DUP1 PUSH8 0xFFFFFFFFFFFFFFFF DUP2 GT ISZERO PUSH2 0x661 JUMPI PUSH2 0x661 PUSH2 0x11A8 JUMP JUMPDEST PUSH1 0x40 MLOAD SWAP1 DUP1 DUP3 MSTORE DUP1 PUSH1 0x20 MUL PUSH1 0x20 ADD DUP3 ADD PUSH1 0x40 MSTORE DUP1 ISZERO PUSH2 0x68A JUMPI DUP2 PUSH1 0x20 ADD PUSH1 0x20 DUP3 MUL DUP1 CALLDATASIZE DUP4 CALLDATACOPY ADD SWAP1 POP JUMPDEST POP SWAP4 POP PUSH0 JUMPDEST DUP2 DUP2 LT ISZERO PUSH2 0x7AE JUMPI DUP3 DUP2 DUP2 SLOAD DUP2 LT PUSH2 0x6A9 JUMPI PUSH2 0x6A9 PUSH2 0x11BC JUMP JUMPDEST SWAP1 PUSH0 MSTORE PUSH1 0x20 PUSH0 KECCAK256 SWAP1 PUSH1 0x4 MUL ADD PUSH0 ADD SLOAD DUP9 DUP3 DUP2 MLOAD DUP2 LT PUSH2 0x6CA JUMPI PUSH2 0x6CA PUSH2 0x11BC JUMP JUMPDEST PUSH1 0x20 MUL PUSH1 0x20 ADD ADD DUP2 DUP2 MSTORE POP POP DUP3 DUP2 DUP2 SLOAD DUP2 LT PUSH2 0x6E8 JUMPI PUSH2 0x6E8 PUSH2 0x11BC JUMP JUMPDEST SWAP1 PUSH0 MSTORE PUSH1 0x20 PUSH0 KECCAK256 SWAP1 PUSH1 0x4 MUL ADD PUSH1 0x1 ADD SLOAD DUP8 DUP3 DUP2 MLOAD DUP2 LT PUSH2 0x70A JUMPI PUSH2 0x70A PUSH2 0x11BC JUMP JUMPDEST PUSH1 0x20 MUL PUSH1 0x20 ADD ADD DUP2 DUP2 MSTORE POP POP DUP3 DUP2 DUP2 SLOAD DUP2 LT PUSH2 0x728 JUMPI PUSH2 0x728 PUSH2 0x11BC JUMP JUMPDEST SWAP1 PUSH0 MSTORE PUSH1 0x20 PUSH0 KECCAK256 SWAP1 PUSH1 0x4 MUL ADD PUSH1 0x2 ADD SLOAD DUP7 DUP3 DUP2 MLOAD DUP2 LT PUSH2 0x74A JUMPI PUSH2 0x74A PUSH2 0x11BC JUMP JUMPDEST PUSH1 0x20 MUL PUSH1 0x20 ADD ADD DUP2 DUP2 MSTORE POP POP DUP3 DUP2 DUP2 SLOAD DUP2 LT PUSH2 0x768 JUMPI PUSH2 0x768 PUSH2 0x11BC JUMP JUMPDEST SWAP1 PUSH0 MSTORE PUSH1 0x20 PUSH0 KECCAK256 SWAP1 PUSH1 0x4 MUL ADD PUSH1 0x3 ADD PUSH0 SWAP1 SLOAD SWAP1 PUSH2 0x100 EXP SWAP1 DIV PUSH1 0xFF AND DUP6 DUP3 DUP2 MLOAD DUP2 LT PUSH2 0x796 JUMPI PUSH2 0x796 PUSH2 0x11BC JUMP JUMPDEST SWAP2 ISZERO ISZERO PUSH1 0x20 SWAP3 DUP4 MUL SWAP2 SWAP1 SWAP2 ADD SWAP1 SWAP2 ADD MSTORE PUSH1 0x1 ADD PUSH2 0x68F JUMP JUMPDEST POP POP POP POP SWAP2 SWAP4 POP SWAP2 SWAP4 JUMP JUMPDEST PUSH32 0x5D15B553C07BE9B4A8CF4265C997D4479F22E1843183FA58504508C561FB9D52 SLOAD PUSH0 SWAP1 PUSH0 MLOAD PUSH1 0x20 PUSH2 0x121B PUSH0 CODECOPY PUSH0 MLOAD SWAP1 PUSH0 MSTORE SWAP1 DUP3 SUB PUSH2 0x7FC JUMPI PUSH3 0xF4240 SWAP2 POP POP SWAP1 JUMP JUMPDEST PUSH0 DUP2 PUSH1 0x3 ADD SLOAD DUP3 PUSH1 0x1 ADD SLOAD PUSH2 0x811 SWAP2 SWAP1 PUSH2 0x1159 JUMP JUMPDEST PUSH1 0x2 DUP4 ADD SLOAD SWAP1 SWAP2 POP PUSH2 0x826 DUP3 PUSH3 0xF4240 PUSH2 0x1172 JUMP JUMPDEST PUSH2 0x830 SWAP2 SWAP1 PUSH2 0x1189 JUMP JUMPDEST SWAP3 POP POP POP SWAP1 JUMP JUMPDEST PUSH1 0x1 PUSH1 0x1 PUSH1 0xA0 SHL SUB AND PUSH0 SWAP1 DUP2 MSTORE PUSH32 0x5D15B553C07BE9B4A8CF4265C997D4479F22E1843183FA58504508C561FB9D5F PUSH1 0x20 MSTORE PUSH1 0x40 SWAP1 KECCAK256 SLOAD SWAP1 JUMP JUMPDEST PUSH1 0x1 PUSH1 0x1 PUSH1 0xA0 SHL SUB DUP2 AND PUSH0 SWAP1 DUP2 MSTORE PUSH32 0x5D15B553C07BE9B4A8CF4265C997D4479F22E1843183FA58504508C561FB9D66 PUSH1 0x20 SWAP1 DUP2 MSTORE PUSH1 0x40 DUP1 DUP4 KECCAK256 SLOAD PUSH32 0x5D15B553C07BE9B4A8CF4265C997D4479F22E1843183FA58504508C561FB9D67 SWAP1 SWAP3 MSTORE DUP3 KECCAK256 SLOAD PUSH1 0xFF SWAP1 SWAP2 AND SWAP2 PUSH0 MLOAD PUSH1 0x20 PUSH2 0x121B PUSH0 CODECOPY PUSH0 MLOAD SWAP1 PUSH0 MSTORE DUP3 PUSH2 0x8F0 JUMPI PUSH0 PUSH2 0x95D JUMP JUMPDEST PUSH1 0x6 DUP2 ADD SLOAD PUSH1 0x40 MLOAD PUSH4 0x11E040DD PUSH1 0xE3 SHL DUP2 MSTORE PUSH1 0x4 DUP2 ADD DUP6 SWAP1 MSTORE PUSH1 0x1 PUSH1 0x1 PUSH1 0xA0 SHL SUB SWAP1 SWAP2 AND SWAP1 PUSH4 0x8F0206E8 SWAP1 PUSH1 0x24 ADD PUSH1 0x20 PUSH1 0x40 MLOAD DUP1 DUP4 SUB DUP2 DUP7 GAS STATICCALL ISZERO DUP1 ISZERO PUSH2 0x939 JUMPI RETURNDATASIZE PUSH0 PUSH0 RETURNDATACOPY RETURNDATASIZE PUSH0 REVERT JUMPDEST POP POP POP POP PUSH1 0x40 MLOAD RETURNDATASIZE PUSH1 0x1F NOT PUSH1 0x1F DUP3 ADD AND DUP3 ADD DUP1 PUSH1 0x40 MSTORE POP DUP2 ADD SWAP1 PUSH2 0x95D SWAP2 SWAP1 PUSH2 0x11D0 JUMP JUMPDEST SWAP4 SWAP6 SWAP3 SWAP5 POP POP POP JUMP JUMPDEST PUSH0 PUSH0 PUSH2 0x971 DUP4 PUSH2 0xDA6 JUMP JUMPDEST SWAP1 POP PUSH0 PUSH2 0x980 PUSH2 0x164 DUP6 PUSH2 0x837 JUMP JUMPDEST SWAP1 POP DUP1 DUP3 LT ISZERO PUSH2 0x999 JUMPI PUSH2 0x994 DUP3 DUP3 PUSH2 0x11EF JUMP JUMPDEST PUSH2 0x520 JUMP JUMPDEST PUSH0 SWAP5 SWAP4 POP POP POP POP JUMP JUMPDEST PUSH0 PUSH0 PUSH2 0x9AD DUP4 PUSH2 0xA62 JUMP JUMPDEST SWAP1 POP DUP1 MLOAD PUSH0 SUB PUSH2 0x9BF JUMPI POP PUSH0 SWAP3 SWAP2 POP POP JUMP JUMPDEST DUP1 PUSH0 DUP2 MLOAD DUP2 LT PUSH2 0x9D1 JUMPI PUSH2 0x9D1 PUSH2 0x11BC JUMP JUMPDEST PUSH1 0x20 MUL PUSH1 0x20 ADD ADD MLOAD SWAP2 POP POP SWAP2 SWAP1 POP JUMP JUMPDEST PUSH32 0x5D15B553C07BE9B4A8CF4265C997D4479F22E1843183FA58504508C561FB9D51 SLOAD PUSH0 SWAP1 PUSH0 MLOAD PUSH1 0x20 PUSH2 0x121B PUSH0 CODECOPY PUSH0 MLOAD SWAP1 PUSH0 MSTORE SWAP1 ISZERO DUP1 PUSH2 0xA22 JUMPI POP PUSH1 0x2 DUP2 ADD SLOAD ISZERO JUMPDEST ISZERO PUSH2 0xA2E JUMPI POP SWAP1 SWAP2 SWAP1 POP JUMP JUMPDEST DUP1 PUSH1 0x3 ADD SLOAD DUP2 PUSH1 0x1 ADD SLOAD PUSH2 0xA42 SWAP2 SWAP1 PUSH2 0x1159 JUMP JUMPDEST PUSH1 0x2 DUP3 ADD SLOAD PUSH2 0xA51 SWAP1 DUP6 PUSH2 0x1172 JUMP JUMPDEST PUSH2 0xA5B SWAP2 SWAP1 PUSH2 0x1189 JUMP JUMPDEST SWAP4 SWAP3 POP POP POP JUMP JUMPDEST PUSH1 0x1 PUSH1 0x1 PUSH1 0xA0 SHL SUB DUP2 AND PUSH0 SWAP1 DUP2 MSTORE PUSH32 0x5D15B553C07BE9B4A8CF4265C997D4479F22E1843183FA58504508C561FB9D6D PUSH1 0x20 MSTORE PUSH1 0x40 DUP2 KECCAK256 PUSH1 0x60 SWAP2 PUSH0 MLOAD PUSH1 0x20 PUSH2 0x121B PUSH0 CODECOPY PUSH0 MLOAD SWAP1 PUSH0 MSTORE SWAP2 SWAP1 DUP1 JUMPDEST DUP3 SLOAD DUP2 LT ISZERO PUSH2 0xAF8 JUMPI DUP3 DUP2 DUP2 SLOAD DUP2 LT PUSH2 0xAC8 JUMPI PUSH2 0xAC8 PUSH2 0x11BC JUMP JUMPDEST PUSH0 SWAP2 DUP3 MSTORE PUSH1 0x20 SWAP1 SWAP2 KECCAK256 PUSH1 0x3 PUSH1 0x4 SWAP1 SWAP3 MUL ADD ADD SLOAD PUSH1 0xFF AND PUSH2 0xAF0 JUMPI DUP2 PUSH2 0xAEC DUP2 PUSH2 0x1202 JUMP JUMPDEST SWAP3 POP POP JUMPDEST PUSH1 0x1 ADD PUSH2 0xAAD JUMP JUMPDEST POP PUSH0 DUP2 PUSH8 0xFFFFFFFFFFFFFFFF DUP2 GT ISZERO PUSH2 0xB13 JUMPI PUSH2 0xB13 PUSH2 0x11A8 JUMP JUMPDEST PUSH1 0x40 MLOAD SWAP1 DUP1 DUP3 MSTORE DUP1 PUSH1 0x20 MUL PUSH1 0x20 ADD DUP3 ADD PUSH1 0x40 MSTORE DUP1 ISZERO PUSH2 0xB3C JUMPI DUP2 PUSH1 0x20 ADD PUSH1 0x20 DUP3 MUL DUP1 CALLDATASIZE DUP4 CALLDATACOPY ADD SWAP1 POP JUMPDEST POP SWAP1 POP PUSH0 DUP1 JUMPDEST DUP5 SLOAD DUP2 LT ISZERO PUSH2 0xBDA JUMPI DUP5 DUP2 DUP2 SLOAD DUP2 LT PUSH2 0xB5D JUMPI PUSH2 0xB5D PUSH2 0x11BC JUMP JUMPDEST PUSH0 SWAP2 DUP3 MSTORE PUSH1 0x20 SWAP1 SWAP2 KECCAK256 PUSH1 0x3 PUSH1 0x4 SWAP1 SWAP3 MUL ADD ADD SLOAD PUSH1 0xFF AND PUSH2 0xBD2 JUMPI PUSH3 0x278D00 DUP6 DUP3 DUP2 SLOAD DUP2 LT PUSH2 0xB8D JUMPI PUSH2 0xB8D PUSH2 0x11BC JUMP JUMPDEST SWAP1 PUSH0 MSTORE PUSH1 0x20 PUSH0 KECCAK256 SWAP1 PUSH1 0x4 MUL ADD PUSH1 0x1 ADD SLOAD PUSH2 0xBA7 SWAP2 SWAP1 PUSH2 0x1159 JUMP JUMPDEST DUP4 DUP4 DUP2 MLOAD DUP2 LT PUSH2 0xBB9 JUMPI PUSH2 0xBB9 PUSH2 0x11BC JUMP JUMPDEST PUSH1 0x20 SWAP1 DUP2 MUL SWAP2 SWAP1 SWAP2 ADD ADD MSTORE DUP2 PUSH2 0xBCE DUP2 PUSH2 0x1202 JUMP JUMPDEST SWAP3 POP POP JUMPDEST PUSH1 0x1 ADD PUSH2 0xB42 JUMP JUMPDEST POP PUSH0 JUMPDEST DUP3 MLOAD DUP2 LT ISZERO PUSH2 0xCBF JUMPI PUSH0 PUSH2 0xBF2 DUP3 PUSH1 0x1 PUSH2 0x1159 JUMP JUMPDEST SWAP1 POP JUMPDEST DUP4 MLOAD DUP2 LT ISZERO PUSH2 0xCB6 JUMPI DUP4 DUP3 DUP2 MLOAD DUP2 LT PUSH2 0xC10 JUMPI PUSH2 0xC10 PUSH2 0x11BC JUMP JUMPDEST PUSH1 0x20 MUL PUSH1 0x20 ADD ADD MLOAD DUP5 DUP3 DUP2 MLOAD DUP2 LT PUSH2 0xC2A JUMPI PUSH2 0xC2A PUSH2 0x11BC JUMP JUMPDEST PUSH1 0x20 MUL PUSH1 0x20 ADD ADD MLOAD LT ISZERO PUSH2 0xCAE JUMPI PUSH0 DUP5 DUP4 DUP2 MLOAD DUP2 LT PUSH2 0xC4B JUMPI PUSH2 0xC4B PUSH2 0x11BC JUMP JUMPDEST PUSH1 0x20 MUL PUSH1 0x20 ADD ADD MLOAD SWAP1 POP DUP5 DUP3 DUP2 MLOAD DUP2 LT PUSH2 0xC67 JUMPI PUSH2 0xC67 PUSH2 0x11BC JUMP JUMPDEST PUSH1 0x20 MUL PUSH1 0x20 ADD ADD MLOAD DUP6 DUP5 DUP2 MLOAD DUP2 LT PUSH2 0xC81 JUMPI PUSH2 0xC81 PUSH2 0x11BC JUMP JUMPDEST PUSH1 0x20 MUL PUSH1 0x20 ADD ADD DUP2 DUP2 MSTORE POP POP DUP1 DUP6 DUP4 DUP2 MLOAD DUP2 LT PUSH2 0xCA0 JUMPI PUSH2 0xCA0 PUSH2 0x11BC JUMP JUMPDEST PUSH1 0x20 MUL PUSH1 0x20 ADD ADD DUP2 DUP2 MSTORE POP POP POP JUMPDEST PUSH1 0x1 ADD PUSH2 0xBF5 JUMP JUMPDEST POP PUSH1 0x1 ADD PUSH2 0xBDD JUMP JUMPDEST POP SWAP1 SWAP7 SWAP6 POP POP POP POP POP POP JUMP JUMPDEST PUSH0 PUSH0 MLOAD PUSH1 0x20 PUSH2 0x121B PUSH0 CODECOPY PUSH0 MLOAD SWAP1 PUSH0 MSTORE DUP2 DUP1 JUMPDEST PUSH1 0xE DUP4 ADD SLOAD DUP2 LT ISZERO PUSH2 0xD9F JUMPI PUSH0 DUP4 PUSH1 0xE ADD DUP3 DUP2 SLOAD DUP2 LT PUSH2 0xCFF JUMPI PUSH2 0xCFF PUSH2 0x11BC JUMP JUMPDEST PUSH0 SWAP2 DUP3 MSTORE PUSH1 0x20 DUP1 DUP4 KECCAK256 SWAP1 SWAP2 ADD SLOAD PUSH1 0x1 PUSH1 0x1 PUSH1 0xA0 SHL SUB AND DUP1 DUP4 MSTORE PUSH1 0x1D DUP8 ADD SWAP1 SWAP2 MSTORE PUSH1 0x40 DUP3 KECCAK256 SWAP1 SWAP3 POP SWAP1 JUMPDEST DUP2 SLOAD DUP2 LT ISZERO PUSH2 0xD94 JUMPI DUP2 DUP2 DUP2 SLOAD DUP2 LT PUSH2 0xD43 JUMPI PUSH2 0xD43 PUSH2 0x11BC JUMP JUMPDEST PUSH0 SWAP2 DUP3 MSTORE PUSH1 0x20 SWAP1 SWAP2 KECCAK256 PUSH1 0x3 PUSH1 0x4 SWAP1 SWAP3 MUL ADD ADD SLOAD PUSH1 0xFF AND PUSH2 0xD8C JUMPI DUP2 DUP2 DUP2 SLOAD DUP2 LT PUSH2 0xD6F JUMPI PUSH2 0xD6F PUSH2 0x11BC JUMP JUMPDEST SWAP1 PUSH0 MSTORE PUSH1 0x20 PUSH0 KECCAK256 SWAP1 PUSH1 0x4 MUL ADD PUSH0 ADD SLOAD DUP6 PUSH2 0xD89 SWAP2 SWAP1 PUSH2 0x1159 JUMP JUMPDEST SWAP5 POP JUMPDEST PUSH1 0x1 ADD PUSH2 0xD28 JUMP JUMPDEST POP POP POP PUSH1 0x1 ADD PUSH2 0xCDD JUMP JUMPDEST POP SWAP3 SWAP2 POP POP JUMP JUMPDEST PUSH1 0x1 PUSH1 0x1 PUSH1 0xA0 SHL SUB DUP2 AND PUSH0 SWAP1 DUP2 MSTORE PUSH32 0x5D15B553C07BE9B4A8CF4265C997D4479F22E1843183FA58504508C561FB9D5F PUSH1 0x20 MSTORE PUSH1 0x40 DUP2 KECCAK256 SLOAD PUSH0 MLOAD PUSH1 0x20 PUSH2 0x121B PUSH0 CODECOPY PUSH0 MLOAD SWAP1 PUSH0 MSTORE SWAP1 DUP3 SWAP1 PUSH2 0xDF7 SWAP1 PUSH2 0x4AF JUMP JUMPDEST SWAP1 POP DUP1 PUSH0 SUB PUSH2 0xE09 JUMPI POP PUSH0 SWAP4 SWAP3 POP POP POP JUMP JUMPDEST PUSH1 0x1 PUSH1 0x1 PUSH1 0xA0 SHL SUB DUP5 AND PUSH0 SWAP1 DUP2 MSTORE PUSH1 0x1D DUP4 ADD PUSH1 0x20 MSTORE PUSH1 0x40 DUP2 KECCAK256 DUP1 SLOAD SWAP1 SWAP2 SUB PUSH2 0xE83 JUMPI PUSH1 0x1 PUSH1 0x1 PUSH1 0xA0 SHL SUB DUP6 AND PUSH0 SWAP1 DUP2 MSTORE PUSH1 0x11 DUP5 ADD PUSH1 0x20 MSTORE PUSH1 0x40 DUP2 KECCAK256 SLOAD PUSH2 0xE53 SWAP1 PUSH3 0x278D00 SWAP1 PUSH2 0x1159 JUMP JUMPDEST TIMESTAMP LT SWAP1 POP DUP1 PUSH2 0xE62 JUMPI DUP3 PUSH2 0xE79 JUMP JUMPDEST PUSH1 0x64 PUSH2 0xE6F PUSH1 0x3C DUP6 PUSH2 0x1172 JUMP JUMPDEST PUSH2 0xE79 SWAP2 SWAP1 PUSH2 0x1189 JUMP JUMPDEST SWAP7 SWAP6 POP POP POP POP POP POP JUMP JUMPDEST PUSH0 DUP1 DUP1 JUMPDEST DUP4 SLOAD DUP2 LT ISZERO PUSH2 0xF5C JUMPI DUP4 DUP2 DUP2 SLOAD DUP2 LT PUSH2 0xEA2 JUMPI PUSH2 0xEA2 PUSH2 0x11BC JUMP JUMPDEST PUSH0 SWAP2 DUP3 MSTORE PUSH1 0x20 SWAP1 SWAP2 KECCAK256 PUSH1 0x3 PUSH1 0x4 SWAP1 SWAP3 MUL ADD ADD SLOAD PUSH1 0xFF AND PUSH2 0xF54 JUMPI PUSH3 0x278D00 DUP5 DUP3 DUP2 SLOAD DUP2 LT PUSH2 0xED2 JUMPI PUSH2 0xED2 PUSH2 0x11BC JUMP JUMPDEST SWAP1 PUSH0 MSTORE PUSH1 0x20 PUSH0 KECCAK256 SWAP1 PUSH1 0x4 MUL ADD PUSH1 0x1 ADD SLOAD PUSH2 0xEEC SWAP2 SWAP1 PUSH2 0x1159 JUMP JUMPDEST TIMESTAMP LT PUSH2 0xF25 JUMPI DUP4 DUP2 DUP2 SLOAD DUP2 LT PUSH2 0xF04 JUMPI PUSH2 0xF04 PUSH2 0x11BC JUMP JUMPDEST SWAP1 PUSH0 MSTORE PUSH1 0x20 PUSH0 KECCAK256 SWAP1 PUSH1 0x4 MUL ADD PUSH0 ADD SLOAD DUP4 PUSH2 0xF1E SWAP2 SWAP1 PUSH2 0x1159 JUMP JUMPDEST SWAP3 POP PUSH2 0xF54 JUMP JUMPDEST DUP4 DUP2 DUP2 SLOAD DUP2 LT PUSH2 0xF37 JUMPI PUSH2 0xF37 PUSH2 0x11BC JUMP JUMPDEST SWAP1 PUSH0 MSTORE PUSH1 0x20 PUSH0 KECCAK256 SWAP1 PUSH1 0x4 MUL ADD PUSH0 ADD SLOAD DUP3 PUSH2 0xF51 SWAP2 SWAP1 PUSH2 0x1159 JUMP JUMPDEST SWAP2 POP JUMPDEST PUSH1 0x1 ADD PUSH2 0xE87 JUMP JUMPDEST POP PUSH0 PUSH2 0xF68 DUP3 DUP5 PUSH2 0x1159 JUMP JUMPDEST SWAP1 POP DUP1 ISZERO DUP1 PUSH2 0xF75 JUMPI POP DUP2 ISZERO JUMPDEST ISZERO PUSH2 0xF86 JUMPI POP SWAP3 SWAP7 SWAP6 POP POP POP POP POP POP JUMP JUMPDEST PUSH0 PUSH1 0x64 PUSH2 0xF94 PUSH1 0x3C DUP6 PUSH2 0x1172 JUMP JUMPDEST PUSH2 0xF9E SWAP2 SWAP1 PUSH2 0x1189 JUMP JUMPDEST SWAP1 POP PUSH0 PUSH2 0xFAB DUP3 DUP7 PUSH2 0x1159 JUMP JUMPDEST SWAP1 POP PUSH0 DUP4 PUSH2 0xFBC DUP4 PUSH3 0xF4240 PUSH2 0x1172 JUMP JUMPDEST PUSH2 0xFC6 SWAP2 SWAP1 PUSH2 0x1189 JUMP JUMPDEST SWAP1 POP PUSH3 0xF4240 PUSH2 0xFD6 DUP3 DUP11 PUSH2 0x1172 JUMP JUMPDEST PUSH2 0xFE0 SWAP2 SWAP1 PUSH2 0x1189 JUMP JUMPDEST SWAP12 SWAP11 POP POP POP POP POP POP POP POP POP POP POP JUMP JUMPDEST PUSH32 0x5D15B553C07BE9B4A8CF4265C997D4479F22E1843183FA58504508C561FB9D5B SLOAD PUSH0 SWAP1 PUSH0 MLOAD PUSH1 0x20 PUSH2 0x121B PUSH0 CODECOPY PUSH0 MLOAD SWAP1 PUSH0 MSTORE SWAP1 PUSH3 0x15180 SWAP1 PUSH2 0x1032 SWAP1 DUP3 SWAP1 PUSH2 0x1159 JUMP JUMPDEST TIMESTAMP LT ISZERO SWAP3 POP POP POP SWAP1 JUMP JUMPDEST PUSH0 PUSH1 0x20 DUP3 DUP5 SUB SLT ISZERO PUSH2 0x104C JUMPI PUSH0 PUSH0 REVERT JUMPDEST POP CALLDATALOAD SWAP2 SWAP1 POP JUMP JUMPDEST PUSH0 PUSH1 0x20 DUP3 DUP5 SUB SLT ISZERO PUSH2 0x1063 JUMPI PUSH0 PUSH0 REVERT JUMPDEST DUP2 CALLDATALOAD PUSH1 0x1 PUSH1 0x1 PUSH1 0xA0 SHL SUB DUP2 AND DUP2 EQ PUSH2 0xA5B JUMPI PUSH0 PUSH0 REVERT JUMPDEST PUSH0 DUP2 MLOAD DUP1 DUP5 MSTORE PUSH1 0x20 DUP5 ADD SWAP4 POP PUSH1 0x20 DUP4 ADD PUSH0 JUMPDEST DUP3 DUP2 LT ISZERO PUSH2 0x10A9 JUMPI DUP2 MLOAD DUP7 MSTORE PUSH1 0x20 SWAP6 DUP7 ADD SWAP6 SWAP1 SWAP2 ADD SWAP1 PUSH1 0x1 ADD PUSH2 0x108B JUMP JUMPDEST POP SWAP4 SWAP5 SWAP4 POP POP POP POP JUMP JUMPDEST PUSH1 0x80 DUP2 MSTORE PUSH0 PUSH2 0x10C5 PUSH1 0x80 DUP4 ADD DUP8 PUSH2 0x1079 JUMP JUMPDEST DUP3 DUP2 SUB PUSH1 0x20 DUP5 ADD MSTORE PUSH2 0x10D7 DUP2 DUP8 PUSH2 0x1079 JUMP JUMPDEST SWAP1 POP DUP3 DUP2 SUB PUSH1 0x40 DUP5 ADD MSTORE PUSH2 0x10EB DUP2 DUP7 PUSH2 0x1079 JUMP JUMPDEST DUP4 DUP2 SUB PUSH1 0x60 DUP6 ADD MSTORE DUP5 MLOAD DUP1 DUP3 MSTORE PUSH1 0x20 DUP1 DUP8 ADD SWAP4 POP SWAP1 SWAP2 ADD SWAP1 PUSH0 JUMPDEST DUP2 DUP2 LT ISZERO PUSH2 0x1125 JUMPI DUP4 MLOAD ISZERO ISZERO DUP4 MSTORE PUSH1 0x20 SWAP4 DUP5 ADD SWAP4 SWAP1 SWAP3 ADD SWAP2 PUSH1 0x1 ADD PUSH2 0x1105 JUMP JUMPDEST POP SWAP1 SWAP9 SWAP8 POP POP POP POP POP POP POP POP JUMP JUMPDEST PUSH1 0x20 DUP2 MSTORE PUSH0 PUSH2 0xA5B PUSH1 0x20 DUP4 ADD DUP5 PUSH2 0x1079 JUMP JUMPDEST PUSH4 0x4E487B71 PUSH1 0xE0 SHL PUSH0 MSTORE PUSH1 0x11 PUSH1 0x4 MSTORE PUSH1 0x24 PUSH0 REVERT JUMPDEST DUP1 DUP3 ADD DUP1 DUP3 GT ISZERO PUSH2 0x116C JUMPI PUSH2 0x116C PUSH2 0x1145 JUMP JUMPDEST SWAP3 SWAP2 POP POP JUMP JUMPDEST DUP1 DUP3 MUL DUP2 ISZERO DUP3 DUP3 DIV DUP5 EQ OR PUSH2 0x116C JUMPI PUSH2 0x116C PUSH2 0x1145 JUMP JUMPDEST PUSH0 DUP3 PUSH2 0x11A3 JUMPI PUSH4 0x4E487B71 PUSH1 0xE0 SHL PUSH0 MSTORE PUSH1 0x12 PUSH1 0x4 MSTORE PUSH1 0x24 PUSH0 REVERT JUMPDEST POP DIV SWAP1 JUMP JUMPDEST PUSH4 0x4E487B71 PUSH1 0xE0 SHL PUSH0 MSTORE PUSH1 0x41 PUSH1 0x4 MSTORE PUSH1 0x24 PUSH0 REVERT JUMPDEST PUSH4 0x4E487B71 PUSH1 0xE0 SHL PUSH0 MSTORE PUSH1 0x32 PUSH1 0x4 MSTORE PUSH1 0x24 PUSH0 REVERT JUMPDEST PUSH0 PUSH1 0x20 DUP3 DUP5 SUB SLT ISZERO PUSH2 0x11E0 JUMPI PUSH0 PUSH0 REVERT JUMPDEST DUP2 MLOAD DUP1 ISZERO ISZERO DUP2 EQ PUSH2 0xA5B JUMPI PUSH0 PUSH0 REVERT JUMPDEST DUP2 DUP2 SUB DUP2 DUP2 GT ISZERO PUSH2 0x116C JUMPI PUSH2 0x116C PUSH2 0x1145 JUMP JUMPDEST PUSH0 PUSH1 0x1 DUP3 ADD PUSH2 0x1213 JUMPI PUSH2 0x1213 PUSH2 0x1145 JUMP JUMPDEST POP PUSH1 0x1 ADD SWAP1 JUMP INVALID TSTORE ISZERO 0xB5 MSTORE8 0xC0 PUSH28 0xE9B4A8CF4265C997D4479F22E1843183FA58504508C561FB9D50A264 PUSH10 0x7066735822122015D54D DIV KECCAK256 REVERT DUPN 0x4B DUP8 SHL DUP2 0xB6 0xDB CALLCODE 0xD2 REVERT NOT PUSH14 0x76C70861517F90B1FC987AA9E8 PUSH5 0x736F6C6343 STOP ADDMOD SAR STOP CALLER "
		},
		"gasEstimates": {
			"creation": {
				"codeDepositCost": "944000",
				"executionCost": "979",
				"totalCost": "944979"
			},
			"external": {
				"balanceOf(address)": "2589",
				"convertToAssets(uint256)": "infinite",
				"convertToShares(uint256)": "infinite",
				"exchangeRate()": "infinite",
				"getAccumulatedFees()": "2325",
				"getConfiguration()": "infinite",
				"getLockedAmount(address)": "infinite",
				"getNearestUnlockTime(address)": "infinite",
				"getTotalStakedAssets()": "infinite",
				"getUnlockTime(address)": "infinite",
				"getUserStakedDeposits(address)": "infinite",
				"getUserWstETHBalance(address)": "2577",
				"getWithdrawableAmount(address)": "infinite",
				"getWithdrawalStatus(address)": "infinite",
				"isUpdateNeeded()": "infinite",
				"totalAssets()": "2293",
				"totalShares()": "2370",
				"totalStakedValue()": "2347",
				"userDeposit(address)": "2510"
			}
		},
		"methodIdentifiers": {
			"balanceOf(address)": "70a08231",
			"convertToAssets(uint256)": "07a2d13a",
			"convertToShares(uint256)": "c6e6f592",
			"exchangeRate()": "3ba0b9a9",
			"getAccumulatedFees()": "5df45a37",
			"getConfiguration()": "6bd50cef",
			"getLockedAmount(address)": "929ec537",
			"getNearestUnlockTime(address)": "981ef661",
			"getTotalStakedAssets()": "dee7db90",
			"getUnlockTime(address)": "dbed1e88",
			"getUserStakedDeposits(address)": "35a058f5",
			"getUserWstETHBalance(address)": "be5e8d11",
			"getWithdrawableAmount(address)": "f6777175",
			"getWithdrawalStatus(address)": "7491687e",
			"isUpdateNeeded()": "f85503b9",
			"totalAssets()": "01e1d114",
			"totalShares()": "3a98ef39",
			"totalStakedValue()": "9bd18fb0",
			"userDeposit(address)": "d1260edd"
		}
	},
	"abi": [
		{
			"inputs": [
				{
					"internalType": "address",
					"name": "user",
					"type": "address"
				}
			],
			"name": "balanceOf",
			"outputs": [
				{
					"internalType": "uint256",
					"name": "",
					"type": "uint256"
				}
			],
			"stateMutability": "view",
			"type": "function"
		},
		{
			"inputs": [
				{
					"internalType": "uint256",
					"name": "shares",
					"type": "uint256"
				}
			],
			"name": "convertToAssets",
			"outputs": [
				{
					"internalType": "uint256",
					"name": "",
					"type": "uint256"
				}
			],
			"stateMutability": "view",
			"type": "function"
		},
		{
			"inputs": [
				{
					"internalType": "uint256",
					"name": "assets",
					"type": "uint256"
				}
			],
			"name": "convertToShares",
			"outputs": [
				{
					"internalType": "uint256",
					"name": "",
					"type": "uint256"
				}
			],
			"stateMutability": "view",
			"type": "function"
		},
		{
			"inputs": [],
			"name": "exchangeRate",
			"outputs": [
				{
					"internalType": "uint256",
					"name": "",
					"type": "uint256"
				}
			],
			"stateMutability": "view",
			"type": "function"
		},
		{
			"inputs": [],
			"name": "getAccumulatedFees",
			"outputs": [
				{
					"internalType": "uint256",
					"name": "",
					"type": "uint256"
				}
			],
			"stateMutability": "view",
			"type": "function"
		},
		{
			"inputs": [],
			"name": "getConfiguration",
			"outputs": [
				{
					"internalType": "address",
					"name": "owner",
					"type": "address"
				},
				{
					"internalType": "address",
					"name": "feeCollector",
					"type": "address"
				},
				{
					"internalType": "address",
					"name": "assetToken",
					"type": "address"
				},
				{
					"internalType": "address",
					"name": "lidoWithdrawalAddress",
					"type": "address"
				},
				{
					"internalType": "address",
					"name": "wstETHAddress",
					"type": "address"
				},
				{
					"internalType": "address",
					"name": "receiverContract",
					"type": "address"
				},
				{
					"internalType": "address",
					"name": "swapContract",
					"type": "address"
				},
				{
					"internalType": "bool",
					"name": "emergencyShutdown",
					"type": "bool"
				},
				{
					"internalType": "bool",
					"name": "depositsPaused",
					"type": "bool"
				}
			],
			"stateMutability": "view",
			"type": "function"
		},
		{
			"inputs": [
				{
					"internalType": "address",
					"name": "user",
					"type": "address"
				}
			],
			"name": "getLockedAmount",
			"outputs": [
				{
					"internalType": "uint256",
					"name": "",
					"type": "uint256"
				}
			],
			"stateMutability": "view",
			"type": "function"
		},
		{
			"inputs": [
				{
					"internalType": "address",
					"name": "user",
					"type": "address"
				}
			],
			"name": "getNearestUnlockTime",
			"outputs": [
				{
					"internalType": "uint256",
					"name": "",
					"type": "uint256"
				}
			],
			"stateMutability": "view",
			"type": "function"
		},
		{
			"inputs": [],
			"name": "getTotalStakedAssets",
			"outputs": [
				{
					"internalType": "uint256",
					"name": "",
					"type": "uint256"
				}
			],
			"stateMutability": "view",
			"type": "function"
		},
		{
			"inputs": [
				{
					"internalType": "address",
					"name": "user",
					"type": "address"
				}
			],
			"name": "getUnlockTime",
			"outputs": [
				{
					"internalType": "uint256[]",
					"name": "",
					"type": "uint256[]"
				}
			],
			"stateMutability": "view",
			"type": "function"
		},
		{
			"inputs": [
				{
					"internalType": "address",
					"name": "user",
					"type": "address"
				}
			],
			"name": "getUserStakedDeposits",
			"outputs": [
				{
					"internalType": "uint256[]",
					"name": "amounts",
					"type": "uint256[]"
				},
				{
					"internalType": "uint256[]",
					"name": "timestamps",
					"type": "uint256[]"
				},
				{
					"internalType": "uint256[]",
					"name": "wstETHAmounts",
					"type": "uint256[]"
				},
				{
					"internalType": "bool[]",
					"name": "withdrawnStatus",
					"type": "bool[]"
				}
			],
			"stateMutability": "view",
			"type": "function"
		},
		{
			"inputs": [
				{
					"internalType": "address",
					"name": "user",
					"type": "address"
				}
			],
			"name": "getUserWstETHBalance",
			"outputs": [
				{
					"internalType": "uint256",
					"name": "",
					"type": "uint256"
				}
			],
			"stateMutability": "view",
			"type": "function"
		},
		{
			"inputs": [
				{
					"internalType": "address",
					"name": "user",
					"type": "address"
				}
			],
			"name": "getWithdrawableAmount",
			"outputs": [
				{
					"internalType": "uint256",
					"name": "",
					"type": "uint256"
				}
			],
			"stateMutability": "view",
			"type": "function"
		},
		{
			"inputs": [
				{
					"internalType": "address",
					"name": "user",
					"type": "address"
				}
			],
			"name": "getWithdrawalStatus",
			"outputs": [
				{
					"internalType": "bool",
					"name": "isInProgress",
					"type": "bool"
				},
				{
					"internalType": "uint256",
					"name": "requestId",
					"type": "uint256"
				},
				{
					"internalType": "bool",
					"name": "isFinalized",
					"type": "bool"
				}
			],
			"stateMutability": "view",
			"type": "function"
		},
		{
			"inputs": [],
			"name": "isUpdateNeeded",
			"outputs": [
				{
					"internalType": "bool",
					"name": "",
					"type": "bool"
				}
			],
			"stateMutability": "view",
			"type": "function"
		},
		{
			"inputs": [],
			"name": "totalAssets",
			"outputs": [
				{
					"internalType": "uint256",
					"name": "",
					"type": "uint256"
				}
			],
			"stateMutability": "view",
			"type": "function"
		},
		{
			"inputs": [],
			"name": "totalShares",
			"outputs": [
				{
					"internalType": "uint256",
					"name": "",
					"type": "uint256"
				}
			],
			"stateMutability": "view",
			"type": "function"
		},
		{
			"inputs": [],
			"name": "totalStakedValue",
			"outputs": [
				{
					"internalType": "uint256",
					"name": "",
					"type": "uint256"
				}
			],
			"stateMutability": "view",
			"type": "function"
		},
		{
			"inputs": [
				{
					"internalType": "address",
					"name": "user",
					"type": "address"
				}
			],
			"name": "userDeposit",
			"outputs": [
				{
					"internalType": "uint256",
					"name": "",
					"type": "uint256"
				}
			],
			"stateMutability": "view",
			"type": "function"
		}
	]
}